:020000041000EA
:1000000000B5324B212058609868022188439860DF
:10001000D860186158612E4B002199600221596106
:100020000121F02299502B49196001219960352056
:1000300000F044F80222904214D00621196600F024
:1000400034F8196E01211966002018661A6600F04E
:100050002CF8196E196E196E052000F02FF8012189
:100060000842F9D1002199601B49196000215960AB
:100070001A491B48016001219960EB211966A021F2
:10008000196600F012F800219960164914480160C1
:100090000121996001BC002800D000471248134993
:1000A000086003C880F30888084703B5996A0420EC
:1000B0000142FBD001200142F8D103BD02B5186610
:1000C0001866FFF7F2FF186E186E02BD00000240BE
:1000D000000000180000070000035F00212200005C
:1000E000F4000018222000A00001001008ED00E03C
:1000F00000000000000000000000000074B24E7A12
:1001000000200420F7010010C3010010C5010010F9
:10011000C1010010C1010010C1010010C101001097
:10012000C1010010C1010010C1010010C701001081
:10013000C1010010C1010010C9010010CB01001065
:10014000CD010010CD010010CD010010CD01001037
:10015000CD010010CD010010CD010010CD01001027
:10016000CD010010CD010010CD010010CD01001017
:10017000CD010010CD010010CD010010CD01001007
:10018000CD010010CD010010CD010010CD010010F7
:10019000CD010010CD010010CD010010CD010010E7
:1001A000CD010010CD010010CD010010CD010010D7
:1001B000CD010010CD010010CD010010CD010010C7
:1001C00000BE00BE00BE00BE00BE00BEEFF3058054
:1001D000103800BEF2EB8871E81F001004200010F8
:1001E0003402001090A31AE700201F49086006C8D7
:1001F00081F3088810471D48006800282FD10DA4FE
:100200000ECC002902D000F012F8F9E71849194A7B
:10021000002000E001C19142FCD1174988471749ED
:1002200088471749884700BEFDE701C901C29A42C5
:10023000FBD3704704200010C00000204C020020B7
:1002400090210010000004200000042090210010E4
:10025000001004200010042000000000704709482E
:1002600001F0E2FB0047000008ED00E0000000D0D4
:10027000500200201C060020A11800105503001099
:10028000951900105756000006005250ABB360534A
:100290009C1F001006005250861C0302AC1F001069
:1002A000060052505422A29DB41F00100500525067
:1002B000DE65F46890210010F8B5C0460448054B8F
:1002C00010B5834203D0044B002B00D0984710BDDB
:1002D0004C0200204C0200200000000006480749A4
:1002E000091A8B10C90FC91810B5491003D0044B57
:1002F000002B00D0984710BD4C0200204C0200207B
:100300000000000010B5074C2378002B09D1FFF73F
:10031000D5FF054B002B02D0044800E000BF0123AD
:10032000237010BD7805002000000000401F001061
:10033000054B10B5002B03D00449054800E000BF71
:10034000FFF7CCFF10BDC046000000007C05002078
:10035000401F001070B5D024802519202406AD045C
:1003600000F00CF86562FA206561800000F00CFD79
:10037000FA20A561800000F007FDF4E70123D022F8
:100380008340120693629361094A40219446830098
:1003900063441A68C0004A408031114080225201F3
:1003A00013431960034B9C46052360444360704728
:1003B00004C0014000400140024B18688007C00F94
:1003C0007047C04600C0064070B5EFF3108C72B69F
:1003D0000D4D2B68002BFCD0BFF35F8F0724CB089B
:1003E000C618C05C01230C40A3401C00044003421B
:1003F00007D118433070BFF35F8F2C608CF31088E7
:1004000070BD100001F0CAFA2C0100D00021044B8D
:10041000044ABFF35F8F02C39342FAD17047C046CC
:10042000000100D0800100D0044A1078431CDBB2E8
:10043000172B00D9102313707047C0469801002075
:1004400001238340002904D0034A1360034A136048
:100450007047034A1360FBE780E200E000E100E040
:1004600080E100E0024B10309B688000C05870476C
:1004700000ED00E070B50D00EFF3108672B60F4A84
:100480001368002BFCD0BFF35F8F0D4B10309B68BF
:1004900084001B590B4A934203D09D4201D001F0C6
:1004A00095FA074B9B681D51BFF35F8FBFF35F8FBA
:1004B0000022024B1A6086F3108870BD240100D020
:1004C00000ED00E0CD010010F0B5DE4657464E4687
:1004D0004546E0B50C0083B0EFF3108872B65D4A74
:1004E0001368002BFCD0BFF35F8F5B4B5B499A68AE
:1004F000030010339F00D5598D4239D0A5424AD010
:10050000574EAA1B2F2A33D8012292468240914689
:100510004846544A1268104001904846524A1060BA
:10052000BFF35F8FEFF305829346002A35D09342E5
:1005300001D001F04BFA2A0053469A439068844256
:1005400008D175E04B005B189B00F3189868A04237
:1005500034D01A00062151560029F3DA844253D0D0
:10056000019B002B26D04A46404B1A603D4B1A6037
:10057000394B9B68DD51BFF35F8FBFF35F8F002264
:10058000344B1A6088F3108803B0F0BCBB46B24607
:10059000A946A046F0BD0D00EAE72A0053469A435B
:1005A00090688442D6D1062010561300002809DA3C
:1005B0000D0031E04A462C4B1A60D9E70620185648
:1005C000002822DB42001118890074188A46A168AD
:1005D0009960E179D971062161569971002925DB6D
:1005E000A488F11A6405241554440919E024090566
:1005F000490D24022143998013181D4A9B0011784C
:10060000F31899711070ABE713005946002914D103
:10061000FF3191711749918015490A789A71164AEC
:100620009B1B5B415A43120D0A7099E71349E2E79D
:100630000620105613000028C4DA114A1149D21AB4
:10064000083A5002400D014399800F4952080A436D
:10065000DA8085E7240100D000ED00E0CD01001034
:100660009C01002000E100E080E100E080E200E089
:100670001906002001BDFFFFAAAA000001BD00006D
:10068000D601002000F0FFFF00F8FFFF70B5EFF388
:10069000058101240443EFF3108C72B6214A1368DC
:1006A000002BFCD0BFF35F8F1F4B05001F4AED1AD4
:1006B0006D416A43120D1E4D8900AE6852B27658E4
:1006C000A6421CD00621595691421CD012215956DF
:1006D000914222D01E215956914220D02A215956AA
:1006E0000324914210D0134B19781A708171BFF313
:1006F0005F8F00220B4B1A608CF3108870BDAB68C3
:100700000D4C5C50EFE700246100091989005B186B
:10071000FF21997109499980E5E70124F4E7022452
:10072000F2E7C046240100D09C010020AAAA0000E4
:1007300000ED00E019060020CD01001001BDFFFF13
:10074000054B064A1360064A136053609360D360FA
:1007500013615361936170478080808000E400E002
:1007600004E400E0024B9C4661448900016070474C
:100770004000003410B50400FFF756FE01002000D1
:10078000FFF7F0FFFF232371BFF35F8F10BDC0465B
:1007900010B50400FFF748FE01002000FFF7E2FF5C
:1007A000FF23A380BFF35F8F10BDC04683680B4853
:1007B00010B58446614462441201090159189B181E
:1007C0005C684A680120944201D802D00020C0B27F
:1007D00010BD1A680B689A42F9D8F7E7FFFFFF0FC0
:1007E0000A4B1968EFF3108072B60A68002AFCD031
:1007F000BFF35F8F1B68BFF35F8F00221A6080F327
:10080000108840BF002000217047C0460406002029
:10081000F8B5574645464E46DE46E0B598460CAB21
:100820001C780DAB1B78070091469A460568002C92
:100830005ED1AC7B002C3BD0660029683619033EA4
:1008400089194B78AB73002B00D1EB7300238B70AD
:100850004B700B702D4BE218BB6812019B184A4677
:100860001A6042465A600A9A9A600B9ADA6000232C
:100870008B704B700B706B7B9B46002B2BD0220038
:100880005946A8686B6898472A68002816D05B46C6
:1008900058465B005B449619033BB070D118D35C9B
:1008A000002B00D073705B460C706B735C4513D0EB
:1008B000F0BCBB46B246A946A046F8BD5B465B000D
:1008C0005B44033BD3189C709119925D002A00D0C1
:1008D0005A705B460B706C734A464346387D00F095
:1008E000AFFB051E0AD10E9B002BE1D01D70DFE788
:1008F000660029683619033E8919ABE75346002B79
:10090000F1D12100386800F0BFFDECE7FFFFFF0FD9
:10091000F0B5DE4657464E4645460023E0B58BB05F
:100920000893684B8200D45800239B46099000F03E
:1009300027FB02000B006068EFF3108A72B6564680
:1009400001680029FCD0B246BFF35F8F21684F7B5E
:100950008C46002F2ED0A5685B49A946791809015D
:10096000894449460868496805000E00AD1A9E4151
:10097000002E5FDD02000B00099800F061FB0023F0
:100980000022994600230692079300239846636845
:10099000BFF35F8F5A461A608AF310884346002BD4
:1009A00012D10028C3D10BB0F0BCBB46B246A94659
:1009B000A046F0BD0023002299460023069207932B
:1009C000002300209846E2E7089B49461802384376
:1009D000C047626805000E00EFF3108A72B6136814
:1009E000002BFCD0BFF35F8F002E41DB2B00334385
:1009F00002D02369002B56D12368D97B002905D06A
:100A00001A68480041185218033A57709A7B002A16
:100A100000D19F73DF73E268013FD35D0133D3558B
:100A20005B4623616368BFF35F8F5A461A608AF39F
:100A300010887CE7002E02D1002D00D09AE700211B
:100A4000604600F09FFC4B461A685B68069207936D
:100A50004B469B6898464B46DB689946E368DB1932
:100A6000013B1B7808931B020343236100208EE7A0
:100A70002369002BC0D0069A079B8021521BB341EB
:100A800009068B4202D30122104B524200210491ED
:100A9000013103914946019141462000029700919E
:100AA000FFF7B6FEBCE700F06BFA2A00330012181D
:100AB0004B41802109068B42E8D30122034B52426D
:100AC000E4E7C046F0050020FFFFFF0FFFFFFF7FB8
:100AD00010B5144C6368002B04D00A211248FFF7AC
:100AE00041FE10BD2300114A1021206800F060FB78
:100AF000032000F039FA032000F00AFB03200C4920
:100B000000F058FAFFF790FC0A4B9C46032323752C
:100B1000D0231B061B6860446375074B8000606030
:100B2000DC60DAE7E401002004060020AD070010D5
:100B30001109001040000034F0050020F0B55746C0
:100B40004E464546DE46E0B585B0019310AB1B78B6
:100B50000600039300239A46984600927268EFF3CA
:100B6000108B72B61368002BFCD0BFF35F8F356813
:100B7000AC7B002C00D16FE067002B683F19033F6E
:100B8000DB195A78AA73002A00D1EA734B4AA118DC
:100B9000B2680901521800980199106051600E99CD
:100BA00091600F99D16042469A705A701A706B7BAF
:100BB0009946002B00D170E022004946A8686B6876
:100BC00098472A6800285BD04B4648465B004B4458
:100BD000D719033BB870D118D35C002B00D07B70C1
:100BE0004B460C706B734C4558D0F3681B19013B96
:100BF00018787368BFF35F8F42461A608BF31088D2
:100C00005346002B08D10002204305B0F0BCBB4680
:100C1000B246A946A046F0BD039B002B4BD00E9BCD
:100C200000200F999847030004000D000B4342D0A9
:100C300000291ADA009A019B121BAB410092019322
:100C400080221206934204D301231D4C5B42009381
:100C50000194039B9A4681E77368BFF35F8F1C6022
:100C60008BF3108801204042CFE700F089F9802201
:100C700024184D411206009401959542E9D3E3E70B
:100C80004B465B004B44033BD3189C70D119D25D9B
:100C9000002A00D05A704B460B706C73307D009A5E
:100CA000019B00F0CDF9824600289ED021003068DB
:100CB00000F0EAFB99E70020A7E7C046FFFFFF0F1F
:100CC000FFFFFF7FF0B504000D0006267642F71700
:100CD000C64636196F4100B584B08F4214D811D082
:100CE00000F04EF932003B00121A8B41002B15DC4C
:100CF000002B3ED02000290000F04CF904B080BC4D
:100D0000B846F0BD8642EBD90026002700F038F93E
:100D100032003B00121A8B41002BE9DD00230293C5
:100D20000193154B3200009314483B00FFF706FF78
:100D30000028DFDB00239846BC46114A114F7B6A2E
:100D40009C4504D8B96AB142D4D29C45D2D111682D
:100D5000EFF3108072B60B68002BFCD0BFF35F8FEF
:100D60001368BFF35F8F4146196080F3108820BF7E
:100D7000E5E7002ABED0D1E7E1070010E40100203A
:100D8000040600200040054070B5060000F0F8F8A9
:100D9000FA2204000D00002330000021920000F030
:100DA000FDFE8023001969411B06994202D30120F0
:100DB00002494042FFF786FF70BDC046FFFFFF7F3C
:100DC000F0B5EFF30583CE46474680B505000C002D
:100DD00085B0002B0DD0324A0020536A9C4203D8C4
:100DE000926A0130AA4232D305B0C0BCB946B046BF
:100DF000F0BD2C4E029301932B4B02000093300068
:100E00000B00FFF79BFE031EE5DD20BF7168EFF3CB
:100E1000108772B60A68002AFCD0BFF35F8FDAB27F
:100E200094463068427B624516D0FF2201681A4022
:100E3000894651008846494690444144033989789F
:100E400000290BD13269934210D131610EE0E31ACF
:100E50005A1E9341D8B2C7E7FF221A40F1681B0A15
:100E60008A18013A1278DBB29A4214D07368BFF341
:100E70005F8F00221A6087F31088094B00205A6A9E
:100E80009442B1D89B6A0130AB42ADD2A41A631E22
:100E90009C41E0B2A8E7614600F0F6FAE6E7C046FA
:100EA00000400540E4010020E1070010F0B5EFF339
:100EB0000582D6464F4646461000C0B51038EFF3BF
:100EC000108872B6214C2368002BFCD0BFF35F8FD3
:100ED0000123190081401E4D1F006963AA461D4D64
:100EE00029601D4D2E78AC463500C5402F402B4261
:100EF00015D053465F6A194B8500EB589F4218D3B3
:100F00006246174B8E43EB581670BFF35F8F00227B
:100F1000226088F31088002B06D0984704E0BFF3C6
:100F20005F8F276088F31088E0BCBA46B146A846B8
:100F3000F0BD0C4B92009C46624413681360BFF3F3
:100F40005F8F0023236088F31088EDE7280100D02D
:100F5000004005403C7005401A06002008060020AD
:100F600094050020D03F054010B5034B0100180048
:100F7000024AFFF729FA10BD18060020401F001092
:100F8000034B596A0A00986A596A8A42FAD1704733
:100F900000400540064A536A9942FCD807D1044BE9
:100FA00002E05A6A914202D19A6A8242F9D37047AA
:100FB0000040054070B504000D00EFF3108672B6D6
:100FC0001A4A1368002BFCD0BFF35F8F002D1BD093
:100FD0002000FFF747FA164981420AD02000FFF7A8
:100FE00049FA01212000FFF72BFA0123A340114AFF
:100FF0001360114BA400E550BFF35F8F00220B4B31
:101000001A6086F3108870BD0121A1400A4BA2002E
:10101000D5500A4B20001A788A4305491A70FFF709
:1010200053FA00212000FFF70BFAE5E7280100D072
:10103000AD0E001038600540940500201A0600200F
:10104000F0B54F46D6464646C0B507002B4C616A00
:101050000D00A66A616AA942FAD18B4208D805D070
:101060000120E0BCBA46B146A846F0BDB242F7D96D
:10107000EFF3108A72B6224801680029FCD0BFF352
:101080005F8F0125BD401F491C4C88460978894661
:101090002943C9B28C46414660460870391D890013
:1010A00065630A511849B8004350216A002029425B
:1010B00019D0616A0800A66A616A8142FAD18B423E
:1010C00019D801D1B24216D8CC450BD00B4B1F22F8
:1010D0001D625D6301233A4093400C4A136043460E
:1010E0004A461A700120BFF35F8F0022044B1A603A
:1010F0008AF31088B5E70020F5E7C04600400540B8
:10110000280100D01A0600200806002080E200E036
:10111000EFF3108C72B60A490B68002BFCD0BFF3BA
:101120005F8F01238340074A0748136202789A437E
:101130000270BFF35F8F00230B608CF31088704741
:10114000280100D0004005401A06002070B50500B7
:101150000E001400002923D0002A12D080686B688A
:101160009847296800280ED063001B197200033BC2
:101170009219CB18033A9E7088188A5C002A11D104
:101180000470300070BD73009B196200033B12199C
:10119000CB18033A9C7088188A5C002A05D1067027
:1011A0002000EFE75A700470EBE75A700670F7E71B
:1011B00030B583600023CCB24373013304734260C3
:1011C0008373C4730D000068012C06D9421C0133DF
:1011D000DBB2137003329C42F9D1FF2129404B004E
:1011E0005B18C01800230338437030BD70B505008C
:1011F0000C1E07D0630001681B19033BCB185A78FB
:10120000002A01D1200070BD500080180338091851
:1012100000204E784870210058702800FFF796FF94
:10122000310004002800FFF7E1FF0600002C26D063
:101230000028E7D021003200A8686B689847296829
:1012400000280ED073009B196200033B1219CB18C3
:10125000033A9C7088188A5C002A00D05A70067085
:10126000D0E763001B197200033B9219CB18033AB5
:101270009E7088188A5C002A00D05A70047034006E
:10128000C0E7C046F0B557464546DE464E46E0B597
:101290000D006F0001687F19033F0400C85D83B033
:1012A0000192CA19002850D043001B18033BCB18E9
:1012B0005E78B446002E1AD1019E002E42D0E67B05
:1012C000002E04D073009B19CB18033B5D70A37BE9
:1012D000002B00D1A573E57300282FD10023537094
:1012E00003B0F0BCBB46B246A946A046F0BD7200B2
:1012F0006244033A8A185178884600215170894621
:101300005970320001002000FFF720FF434682465B
:10131000002B07D05B0021684344033BCB185A786D
:10132000002A16D1424651462000FFF70FFF2168E0
:10133000019BCA19002BC2D10028CFD043001B1833
:10134000033BCB1800219970C8E7019B002BB6D155
:10135000C4E7500080180338091848788346484687
:101360004870587041462000FFF7F0FE594680460D
:101370002000FFF73BFF414602002000FFF7E6FE9A
:101380008046CFE7F0B557464546DE464E46E0B5C7
:1013900083B00191457B04006F0000687F19033F13
:1013A000C15DC219002952D04B005B18033BC31822
:1013B0005E78B446002E1CD1019E002E44D0E67B00
:1013C000002E04D073009B19C318033B5D70A37BF0
:1013D000002B00D1A573E573002931D1002328002B
:1013E0005370617303B0F0BCBB46B246A946A04639
:1013F000F0BD72006244033A8218507880460020A3
:1014000050708146587032002000FFF79FFE43461F
:101410008246002B07D05B0021684344033BCB1876
:101420005A78002A17D1424651462000FFF78EFE17
:10143000019B01002068C219002BC0D10029CDD02A
:101440004B005B18033BC31800209870C6E7019B54
:10145000002BB4D1C2E7500080180338091848782F
:10146000834648464870587041462000FFF76EFE9C
:10147000594680462000FFF7B9FE41460200200091
:10148000FFF764FE8046CEE770B5050000292CD03A
:10149000437B8B422ED04C0000686418033C041937
:1014A000A278002A21D053009B18033BC25CC618C7
:1014B0008A4202D11BE0002A08D053009B18033B4C
:1014C000C3185A788A42F6D162785A7000230122F2
:1014D0002800A3706370FFF7D5FE697B0200280027
:1014E000FFF734FE6873012000E0002070BD6378D0
:1014F0003370EBE701221900FFF7C4FEF2E7C046A4
:1015000010B50C2082B000F0AFF9FEF755FF0028AF
:1015100010D08B4B8B488B498B4A18605960986070
:10152000D960186159619861D961186259625A622B
:1015300002B010BD854CA06700F09EF90122844BDB
:101540001A60636C012BFCD10322824B1A607F4A24
:10155000936B012BFCD1013301217F4A7F4800931B
:10156000043300F031F905237D4A009301217D48C1
:1015700000F02AF97C4B5A68FF2A02D880225200D8
:101580005A608022734B6E4C12011A602169002947
:1015900007D0606900F07AFA013043001B18033B62
:1015A000FDD2E022704B714819680A4002600222A5
:1015B0001968514001320A40042102609A681142C0
:1015C000FCD080216A4A09011160802252005A60D1
:1015D000684B2361684B5968FF2900D85A60032281
:1015E00001215B4B1A60644A93681942FCD0E023E6
:1015F0001068034061480360126803234A400221D7
:1016000013405D4A036093681942FCD080215C4B13
:101610000901196080215B4B4900516063615A4B9D
:101620005A68FF2A00D859608022584B12011A606C
:10163000E169002907D0606900F028FA0130430011
:101640001B18033BFDD2E0234F4A11680B40504961
:101650000B6080214F4B090119608021394B4900F3
:101660005160E3614C4B5A68FF2A00D859608022D0
:101670004A4B12011A60216A002907D0606900F004
:1016800005FA013043001B18033BFDD2E023424A18
:1016900011680B4042490B608021424B09011960DF
:1016A00080235B0053608022264BD20223623E4B94
:1016B0005968914200D25A6080223C4B12011A6054
:1016C000616A002907D0606900F0E0F90130430049
:1016D0001B18033BFDD2E023334A11680B40344909
:1016E0000B608021334B090119608023DB025360BA
:1016F000154B6362304B5A68FF2A02D88022520091
:101700005A6080222D4B12011A60A169002907D06E
:10171000606900F0BBF9013043001B18033BFDD2A8
:10172000E023254A11680B4025490B608021254B99
:101730000901196080235B005360124BA361F7E637
:1017400050020020006CDC021BB70000008000404B
:101750003CB0004030B00040002F6859008002408B
:10176000008C864700C0024030800040309000402E
:1017700030A00040001BB7003C8000403C9000407F
:101780003CA00040405973075480004054B00040D2
:101790005490004054A000406080004060B0004081
:1017A0006090004060A000406C8000406CB0004041
:1017B0006C9000406CA000404880004048B0004061
:1017C0004890004048A00040F8B5040021481D00A2
:1017D00017000E0000F05AF90100380000F056F929
:1017E000069B29041B0319432368002B20DB1A4B9B
:1017F0001A4DE21853425A4180235B019C46120362
:10180000174B62441A60174B1A601700AB689F436E
:10181000FBD1C022231D92011A4321232660A06020
:1018200013602368002BFCDA0823E1601360F8BD25
:101830003F2322681340B342D9D1A3681B051B0D77
:101840008342D4D1EE22E368D20213408B42CED140
:10185000EDE7C046001BB7000040FDBF00C00040E0
:1018600000E0004000F000408023024A9B00034358
:10187000D362704700800540AA23064A1B0113600B
:101880002F230549D360054B19605368002BFCDA00
:101890007047C0460040024000B0FA0000600240BD
:1018A0002C4B2D4A70B51A602C4A2D4B2D491A60CD
:1018B00014008B689C43FBD12B4D2C4EB54208D2B3
:1018C000013E761BB60808CD984723000134B34289
:1018D000F9D1FFF715FE264A214B1A60214A936879
:1018E000DB43DB01DD09002BF9D14022214B224CE7
:1018F000224E9A675A671A67DA66B44208D223689A
:101900002000002B20D00834FEF742FFB442F6D36B
:101910001B4C1C4EC022B168200000F0A9F9B46035
:10192000FEF774FDFEF70CFFFFF7D2F8164C174ECA
:10193000B44208D2013E361BB60808CC98472B00AB
:1019400001359E42F9D170BD0834FEF713FFB44251
:10195000D5D3DDE700E00040BFCDFBFEFE7F3C00BD
:1019600000F0004000C00040380200204802002083
:10197000FFFFFF0100F0014030020020380200208C
:101980000000002000ED00E0480200204C02002092
:1019900000BEFDE710B5FFF7FBFFC0460FB400B572
:1019A000084883B000F014FA049B002B07D005A967
:1019B0001800019100F018F8034800F009FA01201E
:1019C000FFF7E6FF641F0010741F001010B50148F8
:1019D000FFF7E4FF781F001010B5002800D110BDFC
:1019E00000F0AAF9FBE7C04610B5094A03001468E5
:1019F00084B0002C08D0012200910648524203A96D
:101A0000A047012004B010BD00F0E2F90020F9E782
:101A1000EC050020D919001001480421014B18479A
:101A200010020020491A0010142310B50100188874
:101A300004331B88984710BD162310B50100188881
:101A400002331B88984710BDF8B54746CE4680B58F
:101A50000F1E19D0142399460433040000250126D3
:101A600098464B461888434621681B88984701C40E
:101A7000431E9841013540420640AF42F1D130004B
:101A8000C0BCB946B046F8BD0126F8E7114A936FCD
:101A90009B0813D210665166002905D0FFE7FFE7C7
:101AA000FFE7516F106F704704B5002801D0002088
:101AB000C04300F035FA002104BDC046F0B5146EF5
:101AC000556E576F166FFFF7E5FF1466556657673B
:101AD0001667F0BD000000D0132370B51D78012DEE
:101AE00015D010DD1D48FFF7A7FF1D4C0100802217
:101AF000200000F0BDF8022D2DD01A48FFF794FF0A
:101B0000194B186070BD194B154CA364F5E7174BC2
:101B1000134C23606360A360E36023616361A3618E
:101B2000E36123626362A362E36223636363A3638B
:101B3000E36323646364A364E36423656365A3656B
:101B4000E36523666366A366E36623676367A3674B
:101B5000E367A364D1E7054BA364CEE753440000D9
:101B6000780300204C33000000060020711B001099
:101B700007B5604601880A0A0230DF2AFAD1C9B2E5
:101B8000820804D3028840880004104300E0006803
:101B9000014A5050039007BD78030020514343434E
:101BA000C9188C46110C83B24B4310B4040C61432A
:101BB00092B280B2504362431C041B0C001910BC4B
:101BC00059411304120CC018514161447047000080
:101BD000132310B512481C78FFF72EFF0100012CCB
:101BE0000AD003DD80220F4800F042F80E48FFF7CC
:101BF0001BFF0E4B186010BD0A4C5422200000F051
:101C000037F80B4B6365A365E36523666366A366DC
:101C1000E36623676367A367E3672362E361E5E73E
:101C200053460000780400204C33000000060020DA
:101C3000351C001007B5604601880A0A0230DF2A09
:101C4000FAD1C9B2820804D3028840880004104344
:101C500000E00068014A5050039007BD780400205E
:101C600001480421014B184720020020491A0010A6
:101C7000014B5B681847000020020020F0B5464683
:101C80004F46D646C0B5437D80460E001700002B58
:101C90004BD0002A32DD274B01259A464B1E0024EB
:101CA0000020994607E0335D0A2B2CD02B0001342D
:101CB0000135BB4213DA002CF5D133780A2BF5D16C
:101CC00043461B7D002BF1D14346504602211B6841
:101CD000984728002B0001340135BB42EBDB8742DB
:101CE00004DD4346391A1B6830189847F619013E3F
:101CF00033780D3B5A42534142461375E0BCBA4615
:101D0000B146A846F0BD4B461B5D0D2BCED0A04280
:101D1000DADA4346211A1B68301898474346504682
:101D200002211B6898472800D4E70368110030009F
:101D30009847E3E7E41F0010F0B5CE46474680B56C
:101D400083B06B460600DD1D2870FFF719F90023EC
:101D50001A4A12184B41802109068B4202D30122F4
:101D6000174B524217490800884600F0E1F8164B1D
:101D700081461C68002C14D0144F02E02469002C0A
:101D80000FD02368002BF9D03B68002B01D0A34271
:101D9000F4D1200001222900FFF770FF2469002CF4
:101DA000EFD14B46002B05D1300003B0C0BCB94683
:101DB000B046F0BD404600F0ABF8F5E740420F00FA
:101DC000FFFFFF7F30020020E4050020E80500202F
:101DD000F0B5DE4657464E464546E0B585B00700AD
:101DE00000F066F80600FFF7CBF800232B4A121824
:101DF0004B41802109068B4202D30122284B5242DB
:101E0000284908008B4600F093F8274B01901C6886
:101E10009A46002C3BD0254B984602ABDD1D0A2389
:101E2000994602E02469002C17D02368002BF9D0D2
:101E300043461B68002B01D0A342F3D1200032009F
:101E40003900FFF71BFF4B462000012229002B70B1
:101E5000FFF714FF2469002CE7D1019B002B18D158
:101E600053461C68002C06D06368002B0BD09847A3
:101E70002469002CF8D1300005B0F0BCBB46B24656
:101E8000A946A046F0BD2469002CEDD1F3E7002857
:101E9000F1D0584600F03CF8E2E7C04640420F005F
:101EA000FFFFFF7F30020020E4050020E80500204E
:101EB00010B583070AD00300032102E001330B426F
:101EC00005D01A78002AF9D1181A10BD0300196834
:101ED0000C4A0D4C8A188A4322420FD15968094A8C
:101EE00004338A188A43224208D15968054A0433C8
:101EF0008A188A432242F1D000E001331A78002A7E
:101F0000FBD1E1E7FFFEFEFE80808080F8B5C04691
:101F100001B40248844601BC604700BF5D01002057
:101F200001B40248844601BC604700BF850100201F
:101F300001B40248844601BC604700BFC1000020D4
:101F4000486172647761726520616C61726D2025F1
:101F50006420616C726561647920636C61696D6590
:101F6000640000000A2A2A2A2050414E4943202AB0
:101F70002A2A0A000A000000486172642061737313
:101F80006572740052656C6561736500626F6F7491
:101F9000325F77323571303830000000312E352E07
:101FA000310000007069636F00000000626C696EB0
:101FB0006B0000004A616E2020382032303234003D
:101FC00006005250D3F07542841F00100600525094
:101FD000E182887F8C1F001006005250BBFF3CB688
:081FE000A41F00100D0A00000F
:101FE800C01F0010CC1F001088020010D81F00105E
:0C1FF80094020010A0020010AC020010C7
:10200400F0B5C646150000B504001E000268EFF3E3
:10201400108172B61368002BFCD0BFF35F8F0423CA
:10202400E356002B2DDB2268BFF35F8F0020106086
:1020340081F31088D0221206127852B290469A4246
:1020440003D1002080BCB846F0BD00270BE0236814
:10205400BFF35F8F1F6081F310882800310000F008
:1020640033F80028EDD12268EFF3108172B61368BB
:10207400002BFCD0BFF35F8F23797F2BE7D9434636
:1020840002E0D0231B061B6823712368BFF35F8F14
:1020940000221A6081F310880120D3E70268EFF36D
:1020A400108172B61368002BFCD0BFF35F8FFF233F
:1020B40003710368BFF35F8F00221A6081F31088F5
:1020C40040BF70477047C04601B40248844601BC13
:1020D400604700BFC10D00101000000000000000A8
:1020E40000000100000000000000000000000200E9
:1020F40000000000000000000000030000000000D9
:10210400000000000000FF000000000001B5486866
:1021140001318E460047704609380149884701BDA0
:102124008D060010FC010020000000007802002051
:10213400A40500200000000000000000B4050020F9
:10214400000000000000000010000000000000007B
:10215400503300004C33000054330000523300006D
:102164004D5300004D43000053340000433400003D
:102174000000000000000000611C0010191A00108B
:0C218400D91A0010D11B0010310300100C
:04000005100001E9FD
:00000001FF
