:020000041000EA
:1000000000B5324B212058609868022188439860DF
:10001000D860186158612E4B002199600221596106
:100020000121F02299502B49196001219960352056
:1000300000F044F80222904214D00621196600F024
:1000400034F8196E01211966002018661A6600F04E
:100050002CF8196E196E196E052000F02FF8012189
:100060000842F9D1002199601B49196000215960AB
:100070001A491B48016001219960EB211966A021F2
:10008000196600F012F800219960164914480160C1
:100090000121996001BC002800D000471248134993
:1000A000086003C880F30888084703B5996A0420EC
:1000B0000142FBD001200142F8D103BD02B5186610
:1000C0001866FFF7F2FF186E186E02BD00000240BE
:1000D000000000180000070000035F00212200005C
:1000E000F4000018222000A00001001008ED00E03C
:1000F00000000000000000000000000074B24E7A12
:1001000000200420F7010010C3010010C5010010F9
:10011000C1010010C1010010C1010010C101001097
:10012000C1010010C1010010C1010010C701001081
:10013000C1010010C1010010C9010010CB01001065
:10014000CD010010CD010010CD010010CD01001037
:10015000CD010010CD010010CD010010CD01001027
:10016000CD010010CD010010CD010010CD01001017
:10017000CD010010CD010010CD010010CD01001007
:10018000CD010010CD010010CD010010CD010010F7
:10019000CD010010CD010010CD010010CD010010E7
:1001A000CD010010CD010010CD010010CD010010D7
:1001B000CD010010CD010010CD010010CD010010C7
:1001C00000BE00BE00BE00BE00BE00BEEFF3058054
:1001D000103800BEF2EB88711012051034120510B1
:1001E0003802001090A31AE71E481F49086006C88D
:1001F00081F3088810471D480068002801D019487D
:10020000F3E70DA40ECC002902D000F012F8F9E7B4
:100210001749184A002000E001C19142FCD116495B
:100220008847164988471649884700BEFDE701C937
:1002300001C29A42FBD3704734120510C00000205F
:10024000C0280020343A05100000042000000420DB
:10025000343A0510001004200010042000000000B3
:10026000704700000000000008ED00E0000000D032
:10027000C0280020685100209D6E0010590C00100D
:100280005D6E0010F8B5C0460448054B10B58342BA
:1002900003D0044B002B00D0984710BDC02800208D
:1002A000C02800200000000006480749091A8B10EA
:1002B000C90FC91810B5491003D0044B002B00D04A
:1002C000984710BDC0280020C02800200000000072
:1002D00010B5074C2378002B09D1FFF7D5FF054B4C
:1002E000002B02D0044800E000BF0123237010BDA2
:1002F000002F00200000000014660410054B10B50C
:10030000002B03D00449054800E000BFFFF7CCFFF5
:1003100010BDC04600000000042F00201466041029
:10032000024A1368013313607047C046F84C00203E
:100330000A4A10B513680133136003F0CFFD00299A
:1003400007D0FA220023920004F052F9044B1860FF
:1003500010BDFA21890004F00DF9F7E724510020BF
:1003600028510020F0B5CE4647460F24082380B51B
:1003700085B06C44237099469626002300272D4DA6
:100380009846B6002200009327210133280009F087
:1003900017FC3000390003F0E3FC0C2323704346C4
:1003A0002200009327210133280009F009FC3000C6
:1003B000390003F0D5FC4B462370434622000093DE
:1003C00027210133280009F0FBFB3000390003F03E
:1003D000C7FC182323709946434622000093272127
:1003E0000133280009F0ECFB3000390003F0B8FCC1
:1003F0001C23237043462200009327210133280049
:1004000009F0DEFB3000390003F0AAFC4B462370F4
:1004100043462200009327210133280009F0D0FB36
:100420003000390003F09CFC05B0C0BCB946B046B2
:10043000F0BDC04608210020F0B5CE4647460F2447
:10044000882380B585B06C44237099469626002396
:1004500000272D4D9846B600220000932721013336
:10046000280009F0ADFB3000390003F079FC8C2343
:10047000237043462200009327210133280009F00E
:100480009FFB3000390003F06BFC4B462370434662
:100490002200009327210133280009F091FB30004E
:1004A000390003F05DFC082323709946434622007F
:1004B000009327210133280009F082FB3000390026
:1004C00003F04EFC0C2323704346220000932721A7
:1004D0000133280009F074FB3000390003F040FCC0
:1004E0004B46237043462200009327210133280006
:1004F00009F066FB3000390003F032FC05B0C0BCE7
:10050000B946B046F0BDC04608210020F0B5CE4641
:1005100047460F24C82380B585B06C4423709946A4
:100520009626002300272D4D9846B6002200009302
:1005300027210133280009F043FB3000390003F084
:100540000FFCCC2323704346220000932721013364
:10055000280009F035FB3000390003F001FC4B4660
:10056000237043462200009327210133280009F01D
:1005700027FB3000390003F0F3FB08232370994672
:1005800043462200009327210133280009F018FB7D
:100590003000390003F0E4FB0C23237043462200B3
:1005A000009327210133280009F00AFB30003900AD
:1005B00003F0D6FB4B4623704346220000932721CD
:1005C0000133280009F0FCFA3000390003F0C8FBC1
:1005D00005B0C0BCB946B046F0BDC04608210020F9
:1005E0000F230200F0B5DE4657464E4645469A4375
:1005F0000923E0B5000145B293461A432B4387B067
:10060000DBB2039302AB9C460F24D2B26444227047
:1006100092469626002200272E489146B6000123D6
:10062000009227212200804609F0CAFA30003900E2
:1006300003F096FB5A460D210A4322704A460123D5
:100640000092404622001A3109F0BAFA300039000F
:1006500003F086FB524622704A460123009227216E
:100660002200404609F0ACFA3000390003F078FB74
:100670004A46039B27212370404601230092220013
:1006800009F09EFA3000390003F06AFB0D214A465A
:100690000D4301232570404600921A31220009F0D3
:1006A0008FFA3000390003F05BFB039B22002370BC
:1006B0004B46272100934046013309F081FA300070
:1006C000390003F04DFB07B0F0BCBB46B246A9466B
:1006D000A046F0BD08210020F0B5DE4657464E4644
:1006E00045460F240823E0B585B06C449946237035
:1006F000962600230027FE4D9846B6002200009360
:1007000027210133280009F05BFA3000390003F09B
:1007100027FB0C239B46237043462200009327218E
:100720000133280009F04CFA3000390003F018FBBF
:100730004B462370434622000093272101332800B3
:1007400009F03EFA3000390003F00AFB38239A46DC
:10075000237043462200009327210133280009F02B
:100760002FFA3000390003F0FBFA42463C232721E0
:100770002370280000923B3B220009F021FA300050
:10078000390003F0EDFA52462270424601230092EE
:1007900027212200280009F013FA3000390003F065
:1007A000DFFA4A46227042460123009227212200A6
:1007B000280009F005FA3000390003F0D1FA5A4652
:1007C000227042460123009227212200280009F0CE
:1007D000F7F93000390003F0C3FA4A462270424666
:1007E0000123009227212200280009F0E9F93000B6
:1007F000390003F0B5FA52462270424601230092B6
:1008000027212200280009F0DBF93000390003F02D
:10081000A7FA42463C2327212370280000923B3B45
:10082000220009F0CDF93000390003F099FA524660
:10083000227042460123009227212200280009F05D
:10084000BFF93000390003F08BFA4A462270424665
:100850000123009227212200280009F0B1F930007D
:10086000390003F07DFA5A46227042460123009275
:1008700027212200280009F0A3F93000390003F0F5
:100880006FFA4A4622704246012300922721220035
:10089000280009F095F93000390003F061FA52465A
:1008A000227042460123009227212200280009F0ED
:1008B00087F93000390003F053FA3C232370434694
:1008C0002200009327210133280009F079F9300034
:1008D000390003F045FA5346237043462200009343
:1008E00027210133280009F06BF93000390003F0AB
:1008F00037FA4B46237043462200009327210133E9
:10090000280009F05DF93000390003F029FA5B4650
:10091000237043462200009327210133280009F069
:100920004FF93000390003F01BFA4B462370434661
:100930002200009327210133280009F041F93000FB
:10094000390003F00DFA28239A462370434622000B
:10095000009327210133280009F032F930003900D3
:1009600003F0FEF942462C23272123702800009231
:100970002B3B220009F024F93000390003F0F0F994
:10098000524622704246012300922721220028006D
:1009900009F016F93000390003F0E2F94A462270F6
:1009A00042460123009227212200280009F008F97D
:1009B0003000390003F0D4F95A4622704246012330
:1009C000009227212200280009F0FAF830003900AF
:1009D00003F0C6F94A4622704246012300922721BD
:1009E0002200280009F0ECF83000390003F0B8F9D3
:1009F00041466822012322702800220000912731FD
:100A000009F0DEF83000390003F0AAF941466C2302
:100A100022002370280000916B3B273109F0D0F8A9
:100A20003000390003F09CF968222270424601230D
:100A3000009227212200280009F0C2F83000390076
:100A400003F08EF95246227042460123009227217C
:100A50002200280009F0B4F83000390003F080F9D2
:100A60002C232370434622000093272101332800C2
:100A700009F0A6F83000390003F072F953462370EC
:100A800043462200009327210133280009F098F8FB
:100A90003000390003F064F9882323709A464346F6
:100AA0002200009327210133280009F089F8300043
:100AB000390003F055F98C2323704346220000933C
:100AC00027210133280009F07BF83000390003F0BA
:100AD00047F95346237043462200009327210133F0
:100AE000280009F06DF83000390003F039F901E011
:100AF000082100204B462370434622000093272103
:100B00000133280009F05CF83000390003F028F9BF
:100B10005B462370434622000093272101332800BF
:100B200009F04EF83000390003F01AF94B462370F3
:100B300043462200009327210133280009F040F8A2
:100B40003000390003F00CF9C82323709A4643465D
:100B50002200009327210133280009F031F83000EA
:100B6000390003F0FDF8CC232370434622000093A4
:100B700027210133280009F023F83000390003F061
:100B8000EFF8534623704346220000932721013398
:100B9000280009F015F83000390003F0E1F84B4661
:100BA000237043462200009327210133280009F0D7
:100BB00007F83000390003F0D3F85B462370434652
:100BC0002200009327210133280008F0F9FF3000AC
:100BD000390003F0C5F84B462370434622000093CA
:100BE00027210133280008F0EBFF3000390003F023
:100BF000B7F8182323709946434622000093272113
:100C00000133280008F0DCFF3000390003F0A8F8B9
:100C10001C23237043462200009327210133280020
:100C200008F0CEFF3000390003F09AF84B462370ED
:100C300043462200009327210133280008F0C0FF1B
:100C40003000390003F08CF805B0F0BCBB46B2466A
:100C5000A946A046F0BDC046F0B5DE4657464E4612
:100C60004546E0B5F74CA54406F05AFAF64BF7496D
:100C70001800069308F07CFF03210C2002F070F8A6
:100C800003210D2002F06CF8072002F0FFF8082085
:100C900002F0FCF8092002F0F9F80A2002F0F6F858
:100CA0000B2002F0F3F800220121072002F072F875
:100CB000002201210A2002F06DF8002201210B2000
:100CC00002F068F8D02380221B069A6280325A62B2
:100CD0000132FF325A628022D2009A6280221201CF
:100CE0009A62DB4B002204210A20289302F066F866
:100CF000D84B0B2001220421299302F05FF8FFF763
:100D0000EBFCFFF72FFBFFF797FB20231800D24CDB
:100D10000134FFF765FC20780028F9D1D023802228
:100D20001B0652009A6192185A6100239A460823C2
:100D300006009846069DFEAF43463343DBB20024CF
:100D40009946C8233A003B709B462721C73B2800A1
:100D5000009408F035FF96200021800003F000F891
:100D6000CC233A003B702721CB3B2800009408F0AD
:100D700027FF96200021800002F0F2FF5B463A0038
:100D80003B702721C73B2800009408F019FF9620EC
:100D90000021800002F0E4FF4B463A003B7027211F
:100DA00001232800009408F00BFF9620002180000A
:100DB00002F0D6FF0C2333433A003B702721012376
:100DC0002800009408F0FCFE96200021800002F02C
:100DD000C7FF4B463A003B702721012328000094AF
:100DE00008F0EEFE96200021800002F0B9FF2923D2
:100DF0003A0099463B702721283B2800009408F0D0
:100E0000DFFE96200021800002F0AAFF2D233A0089
:100E10003B7027212C3B2800009408F0D1FE96203F
:100E20000021800002F09CFF4B463A003B702721D6
:100E3000283B2800009408F0C3FE96200021800083
:100E400002F08EFFE9233A003B7099462721E83BE8
:100E50002800009408F0B4FE96200021800002F0E3
:100E60007FFFED233A003B702721EC3B28000094E4
:100E700008F0A6FE96200021800002F071FF4B468C
:100E80003A003B702721E83B2800009408F098FEC8
:100E900096200021800002F063FFFA20800002F01B
:100EA00073FF01239C46E24453461036F6B2102BE2
:100EB00000D041E7FA20400002F066FFFFF752FA47
:100EC000FFF7BAFA2020654C0134FFF789FB207840
:100ED0000028F9D1FFF71AFB2B20614C0134FFF7F2
:100EE0007FFB20780028F9D15E4802F04DFFFFF724
:100EF00039FAFA20400002F047FFFFF79DFA5A4BFB
:100F00004B201C002A930134FFF76AFB207800284D
:100F1000F9D1FFF7FBFA554B20201C002B9301342D
:100F2000FFF75EFB20780028F9D1514B1B68229314
:100F300002F0D4FF002901D101F078FDFA2200234C
:100F4000920003F055FB00234A4C17224A491290A5
:100F50002000139328F012FB229804F0A1FA02005B
:100F60000B00200028F062FC036804000C3B1B68A7
:100F7000C318DD6F002D01D101F097FD2B7F002BF1
:100F800001D101F059FD2723E95C200028F086FA01
:100F900028F0F0F9394B0D93394B1693069B9B467D
:100FA0000D9B1B68002B01D100F008FF02F096FF9B
:100FB000002901D101F0FEFBFA220023920003F088
:100FC00017FB304B1B68C01AFA235B00984201D80C
:100FD00000F0F4FE0D9B1B68042B01DD01F005FD04
:100FE000002204210B20299B01F0E8FE01220421AC
:100FF0000A20289B01F0E2FE02F070FF002901D1D7
:1010000001F002FCFA220023920003F0F1FA00231F
:101010000A900B9302F062FF002901D101F001FC5C
:10102000FA220023920003F0E3FA002388240993B4
:101030000D9B154A1B6808909B00D158089D099E7E
:10104000249123E034FBFFFF08210020A08601004B
:1010500021030010310300101866041028660410E4
:101060003C660410B80B000050660410646604105F
:1010700000F00F1018430020A06604102451002037
:1010800094B00410285100202C200020F7490C9225
:101090000E602691FFF766F901233A003C70272184
:1010A0000096584608F08CFD96200021800002F042
:1010B00057FE8C233A003B7027218B3B0096584605
:1010C00008F07EFD96200021800002F049FE0123F9
:1010D0003A003C7027210096584608F071FD962092
:1010E000803C0021800002F03BFE01233A003C706E
:1010F00027210096584608F063FD962000218000C5
:1011000002F02EFE0C233A003B7027210B3B009689
:10111000584608F055FD96200021800002F020FE80
:1011200001233A003C7027210096584608F048FDFC
:1011300096200021800002F013FE0D9ACC4B12681D
:101140009200D458E317E60FE4185C40092C01D84C
:1011500001F094FC632C01D801F09FFCFA239B0062
:101160009C4201D201F0E7FBC24B9C4201D801F046
:1011700097FCC14B05219C4201D801F0F4FBBF4B09
:1011800005259C4210D9BE4B05259C4201D801F093
:10119000D3FBBC4B9C4201D801F0EEFBBA4B9C4206
:1011A00001D801F0DFFB09252CAB9A46691C2EAB58
:1011B0002D225046891910932C9329F089FA2C9BE3
:1011C000C92298463800B149B04404F0F7F9632CBD
:1011D00001D801F02CFBA74B013D994645444346FD
:1011E0002E0006932000642103F0C4F920004D0076
:1011F000642103F0BFF9A0467B195B78040073708B
:101200007B5D023EB370C845ECD8069B46469846C7
:10121000FA239B009E4201D301F009FB3034E4B273
:10122000434609221C700021994B0092504600222F
:1012300029F024FC050034AB329303680835040020
:10124000AB4201D101F0B8FB3293836834930023A1
:101250006268237263608F4B339225609B1A022B66
:1012600001D801F01FFC03228B4932A829F06EFC43
:101270000500FFAB04333B60994603680835040062
:10128000AB4201D101F088FB3B608368BB606368BF
:101290007B600023256023723E6863603578002DF3
:1012A00079D04B4617935346B046CCAC18930123E4
:1012B0000F229C462B009343994609234A46134329
:1012C000DAB2092300262D016DB22B43DBB2227066
:1012D0002721069307920123220058460096E044F6
:1012E00008F06EFC96200021800002F039FD0D21EF
:1012F0008A46494650460143012322002170584640
:101300002721009608F05CFC96200021800002F066
:1013100027FD079A012322702721220058460096B4
:1013200008F04EFC96200021800002F019FD069B7B
:1013300022002370272101235846009608F040FC24
:1013400096200021800002F00BFD52461543012338
:101350002200257027215846009608F031FC96207F
:101360000021800002F0FCFC069B22002370272154
:1013700001235846009608F023FC962000218000A7
:1013800002F0EEFC43461D78002D90D1179B3E687D
:101390009946189B9A464E4504D0B96830000131F1
:1013A00004F022F9329834AB984203D034990131D9
:1013B00004F01AF953461868109B984204D053461B
:1013C0009968013104F010F978A81DF081FC334BC5
:1013D000F826002478931793B0232AAA9219D450A0
:1013E0002AAA04339219D4522AAA04339219D45047
:1013F0002AAA04339219D4502AAA04339219D45039
:101400002AAA04339219D450254B0C215A68494218
:101410009446614468921E920A689B68884668A94F
:101420008818036000211F931DF0E6FB169B002225
:1014300068931C4B70A878931B4B6A94189369931C
:1014400000236B946E926F936C946D9409F00AFD77
:10145000164B0025199369931023719374AB729303
:1014600030232AAA921969A922E0C046F84C00202C
:10147000182000200F2700009F8601003F420F0028
:101480007F969800FFE0F505FFC99A3B00670410BE
:10149000B8660410FFFFFF3FDC66041098A6041036
:1014A00078B00410A8B0041020B1041018B00410D3
:1014B00078A8D55473941DF09FFB689B68AA0C3BD9
:1014C0001B68DD49D218D3680B400A31FF310B434A
:1014D000D360012353600D9B0C9A1B689B00D0586E
:1014E00003F0DEFF02000B0068A828F09FF94022FD
:1014F0003AAB38932AAB9B186E9A39941D70002A28
:1015000001D101F012FA6C9B002B02D09A4200D25A
:101510001A006D9B0021D21A009238A8002229F0EF
:10152000ADFA0024C82501233A003D70272100941C
:10153000584608F045FB96200021800002F010FC80
:10154000CC233A003B702721CB3B0094584608F04F
:1015500037FB96200021800002F002FC01233A00B4
:101560003D7027210094584608F02AFB9620C03D84
:101570000021800002F0F4FB01233A003D70272196
:101580000094584608F01CFB96200021800002F0D1
:10159000E7FB0C233A003B7027210B3B0094584695
:1015A00008F00EFB96200021800002F0D9FB0123F9
:1015B0003A003D7027210094584608F001FB962020
:1015C0000021800002F0CCFB399D5822290040AB5D
:1015D0003E932AAB9B1809313EA81C703F94389E5D
:1015E000964C29F047F93F9BE31A082B01D801F0EC
:1015F00059FA934B092219003EA8259329F0A6FA1F
:101600003F9BE31A9D4201D901F04CFA2A003100B8
:101610003EA829F09BFA3F9BA34201D101F042FA78
:10162000012288493EA829F091FA4B4605003B600B
:10163000036808350400AB4201D101F0B5F93B6005
:101640008368BB6063687B600023256023723E680B
:1016500063603578002D79D043460C934B46B046F5
:10166000CCAC109301230F229C462B009343994648
:1016700009234A461343DAB2092300262D016DB22D
:101680002B43DBB22270272106930792012322000D
:1016900058460096E04408F093FA96200021800016
:1016A00002F05EFB0D218A46494650460143012364
:1016B0002200217058462721009608F081FA9620D2
:1016C0000021800002F04CFB079A012322702721A1
:1016D00022005846009608F073FA962000218000F8
:1016E00002F03EFB069B220023702721012358466F
:1016F000009608F065FA96200021800002F030FB89
:101700005246154301232200257027215846009692
:1017100008F056FA96200021800002F021FB069B7B
:1017200022002370272101235846009608F048FA2A
:1017300096200021800002F013FB43461D78002D07
:1017400090D10C9B3E689846109B99464E4504D01C
:10175000B9683000013103F047FF3E9840AB984232
:1017600003D04099013103F03FFFD02380221B06B4
:1017700052005A6192189A61249803F091FE324AFD
:10178000324B1090119103F0B9F9002865D0002375
:101790000C934B462393269B5E46994642E0FA22E1
:1017A0000023920002F024FF002302900393029A88
:1017B000039B08980999121A8B41002B01D000F065
:1017C000CDFDFA2189008A4201D300F0C7FD02F065
:1017D00085FB002901D100F0BBFDFA220023920015
:1017E00002F006FF0023049005930A980B99049ACF
:1017F000059B121A8B411100002B01D000F0F8FD5F
:10180000134B994201D900F0F3FD0C9803F048FE08
:101810000D4A104B03F0E9F8109A119B03F066F99A
:10182000002819D002F05AFB0029B8D1FA2189000A
:1018300002F0A0FEB8E7C046FBFEFFFFFFFFFF3F40
:10184000E0660410EC6604109A9999999999C9BFB9
:10185000130500009999C93FB346D0238022002484
:1018600088251B0652009A6192185A6104210022B1
:101870000A20289B01F0A2FA012204210B20299BB7
:1018800001F09CFA0D9B1C60FEF76CFD01233A00F1
:101890003D7027210094584608F092F996200021C7
:1018A000800002F05DFA8C233A003B7027218B3BCD
:1018B0000094584608F084F996200021800002F038
:1018C0004FFA01233A003D7027210094584608F052
:1018D00077F9962000218000803D02F041FA012333
:1018E0003A0027213D705846009408F069F9962087
:1018F0000021800002F034FA0C233A003B702721CB
:101900000B3B0094584608F05BF9962000218000BC
:1019100002F026FA01233A0027213D705846009430
:1019200008F04EF996200021800002F019FAD14EFD
:101930004346B0465E462034079301230F229C465F
:10194000230093439A46092352461343DBB2994638
:10195000092300254A46240164B22343DBB23A70CE
:1019600027213A000693300001230095E04408F057
:1019700027F996200021800002F0F2F90D2293460B
:10198000524659460A4301233A7027213A00300053
:10199000009508F015F996200021800002F0E0F98A
:1019A0004A4601233A7027213A003000009508F09A
:1019B00007F996200021800002F0D2F9069B3A0038
:1019C0003B70272101233000009508F0F9F896209C
:1019D0000021800002F0C4F95A46144301233A0062
:1019E0003C7027213000009508F0EAF8962000218D
:1019F000800002F0B5F9069B3A003B7027210123D5
:101A00003000009508F0DCF896200021800002F0FC
:101A1000A7F943461C78002C8FD1FA20079B400081
:101A20008835984602F0B0F9FEF79CFC01233A0095
:101A30003D7027213000009408F0C2F89620002164
:101A4000800002F08DF98C233A003B7027218B3BFC
:101A50003000009408F0B4F896200021800002F0D5
:101A60007FF901233A003D7027213000009408F0EF
:101A7000A7F8962000218000803D02F071F9012333
:101A80003A00272130003D70009408F099F8962024
:101A90000021800002F064F90C233A003B702721FA
:101AA0000B3B3000009408F08BF89620002180005A
:101AB00002F056F901233A00272130003D700094CE
:101AC00008F07EF89620B3460021800002F048F925
:101AD0002A9E4346B0465E464B34079301230F22AD
:101AE0009C46230093439A46092352461343DBB294
:101AF0009946092300254A46240164B22343DBB2F8
:101B00003A7027213A000693300001230095E04403
:101B100008F056F896200021800002F021F90D22ED
:101B20009346524659460A4301233A7027213A0008
:101B30003000009508F044F896200021800002F063
:101B40000FF94A4601233A7027213A0030000095E8
:101B500008F036F896200021800002F001F9069B7B
:101B60003A003B70272101233000009508F028F847
:101B700096200021800002F0F3F85A461443012316
:101B80003A003C7027213000009508F019F89620A3
:101B90000021800002F0E4F8069B3A003B70272108
:101BA00001233000009508F00BF8962000218000FA
:101BB00002F0D6F843461C78002C8FD1079BC8351D
:101BC00098463A0001233D7027213000009407F029
:101BD000F7FF96200021800002F0C2F8CC233A00E3
:101BE0003B702721CB3B3000009407F0E9FF9620A3
:101BF0000021800002F0B4F801233A003D70272153
:101C00003000009407F0DCFF962000218000C03DEA
:101C100002F0A6F801233A00272130003D7000941D
:101C200007F0CEFF96200021800002F099F80C23E7
:101C30003A003B7027210B3B3000009407F0C0FFB7
:101C400096200021800002F08BF801233A00272122
:101C500030003D70009407F0B3FF9620B34600219A
:101C6000800002F07DF82B9E4346B0465E4620344D
:101C7000079301E07066041001230F229C462300A5
:101C800093439A46092352461343DBB299460923EC
:101C900000254A46240164B22343DBB23A7027216F
:101CA0003A000693300001230095E04407F088FFD6
:101CB00096200021800002F053F80D2293465246F0
:101CC00059460A4301233A7027213A003000009513
:101CD00007F076FF96200021800002F041F84A4686
:101CE00001233A7027213A003000009507F068FF81
:101CF00096200021800002F033F8069B3A003B70EA
:101D0000272101233000009507F05AFF962000217B
:101D1000800002F025F85A46144301233A003C7033
:101D200027213000009507F04BFF9620002180000E
:101D300002F016F8069B3A003B7027210123300081
:101D4000009507F03DFF96200021800002F008F882
:101D500043461C78002C8FD1079B389898463AABA5
:101D6000B346984203D03A99013103F03DFC169BEB
:101D700072986893E14B7893199B699374AB98427E
:101D800003D07499013103F02FFC189B70A869935C
:101D900008F020FA1E9B8422689343461B68D200F9
:101DA0009B182AAA9446D64A634494461F9A6344D1
:101DB0001A60179B78A878931CF0C6FFD0231B06E7
:101DC0005B681B0600D5E9E202F088F8002901D122
:101DD00000F0F6FCFA220023920002F009FC002336
:101DE0001490159312981399149A159B121A8B41FB
:101DF0001100002B04D1C34B994201D8FFF7D0F852
:101E00002024FEF7AFFAFEF717FB2000BE4D013588
:101E1000FEF7E6FB28780028F9D10400FEF776FBF0
:101E2000DCA81CF055FFA226B84BB600DC93179334
:101E3000B0232AAA9219D4502AAA04339219D45250
:101E40002AAA04339219D4502AAA04339219D450DE
:101E50002AAA04339219D4502AAA04339219D450CE
:101E6000AB4BCCAA9A465B680021CC9306930C3B03
:101E70000C931B680025D01853469B68036007939A
:101E80001CF0BAFE169B0022CC939C4BD4A8DC938A
:101E9000A04BCE941893CD930023CF94D292D3939A
:101EA000D094D19408F0DEFF9B4B2AAACD931993CE
:101EB0001023D593D8ABD69330239219D794CDA9BC
:101EC000D554DCA81CF098FECC9BCCAA0C3B1B681C
:101ED0009249D218D36822980B400A31FF310B4344
:101EE000D3600123536003F0DBFA02000B00CCA89F
:101EF00027F09CFCA02252AB50932AAB9B18D29A9D
:101F000051941D70002A01D100F083FDD09B002B5D
:101F100002D09A4200D21A00D19B0021D21A00921C
:101F200050A8002228F0AAFD509B56AC9946519B20
:101F300020009846002363602372434658AE591D23
:101F4000774D569628F096FC6368EB1A042B01D85F
:101F500000F0A8FD734B0522190020001E9328F005
:101F6000F5FD6368EB1A984501D900F09BFD4246E8
:101F70004946200028F0EAFD6368ED1A012D01D8DA
:101F800000F090FD684B0222190020001F9328F0FA
:101F9000DDFD08229046FFAB04333B6099460368A1
:101FA00080440500434501D100F051FD3B6083684A
:101FB000BB606B687B6043462B6000232B726B60B9
:101FC0003D682878002805D00135FEF709FB287800
:101FD0000028F9D13868484503D0B968013103F0C9
:101FE00003FB5698B04203D0A168013103F0FCFA1C
:101FF00001F074FF002901D100F0ECFCFA2200236B
:10200000920002F0F5FA00231C901D9301F066FF88
:10201000002901D100F0D8FCFA220023920002F03E
:10202000E7FA00231B93229B002499461A9001F0A3
:1020300055FF002900D186E1FA220023920002F028
:10204000D7FA00230E900F931C981D990E9A0F9BA0
:10205000121A8B411100002B00D0F0E3334B994250
:1020600000D9ECE3D0231B065B681B0600D5A4E176
:1020700001F034FF002900D1ADE3FA2200239200E1
:1020800002F0B6FA002320902193209A219B1A98FF
:102090001B99121A8B41002B01D1C72AC7D9002CDA
:1020A00011D04846224903F0C5F9002801D100F0BB
:1020B000ACFC484603F0F4F91E4A1F4B02F09EFCAC
:1020C00002F0BAFD814601F009FF002901D100F0BC
:1020D0005DFCFA220023920002F08AFA00231A9093
:1020E0001B9301F0FBFE002901D100F049FCFA220C
:1020F0000023920002F07CFA20E0C046A8B0041051
:10210000D8FCFFFF871300008066041098A6041017
:1021100078B0041020B1041018B00410FBFEFFFFCB
:10212000FFFFFF3FF86604108C6604108813000060
:10213000000090419A9999999999B93F00231C9070
:102140001D93FEF7E3F9FFA83C301CF0C1FD1C9D78
:102150001D9E179B00223B64B023FE500433FA52AD
:102160000433FE500433FE500433FE500433FE505B
:10217000069B00213B600C9B00241868079B3818C5
:1021800003601CF039FD169B00223B60944BFFA9B5
:102190003B64189B14317B600023FFA8BE60FE6087
:1021A0003E617E611C300A604B6008F05BFE199B4B
:1021B000FFA87B6010237B62FFAB2C33BB62302314
:1021C000FE62FFA9FC543C301CF016FD3B688549BB
:1021D0000C3B1B684846FB18DA680A400A31FF319D
:1021E0000A43DA6001225A6003F05AF902000B0038
:1021F000380027F01BFB5CAB98465EAB5C93434614
:10220000BA695E601C72002A01D100F0F7FB3B69DD
:10221000002B02D09A4200D21A007B690021D21A08
:1022200000924046002228F029FC5C9B5D9E1093A2
:10223000002362AC64AA2000711D237263606A4DA2
:10224000629228F017FB6368EB1A042B01D800F0A8
:1022500029FC052220001E9928F078FC6368EB1AFF
:102260009E4201D900F01EFC32002000109928F097
:102270006DFC6368ED1A012D01D800F013FC0222F9
:1022800020001F9928F062FC08229446844462468C
:102290009CAE9A96036805001092634500D1BEE398
:1022A0009A9383689C936B689B93109B2B6000238D
:1022B0002B726B609A9D2878002805D00135FEF7B7
:1022C0008FF928780028F9D19A98B04203D09C99C8
:1022D000013103F089F9629864AB984203D0A16898
:1022E000013103F081F95C985EAB984204D043461B
:1022F0009968013103F078F9169BB86A3B60384B56
:102300003B64199B7B60FFAB2C33984203D0396B45
:10231000013103F069F9189BFFA87B601C3007F0BE
:1023200059FF069B079A3B600C9BFFA81B683C303B
:10233000FA50179B01243B641CF006FD01F0CEFD12
:10234000002900D078E6FA21890002F013F978E636
:10235000FA21890002F00EF9FFF744FA4B464A468B
:1023600018680023136003F079F8229903F017F836
:102370001E4903F014F8011C0C9803F00DF80C90A2
:1023800001F0ACFD002926D0FA220023920002F0D1
:102390002FF9002308900993FFF719FA01F09EFD29
:1023A000002900D112E2FA220023920002F020F963
:1023B000002312901393FEF7F3FD01F08FFD002927
:1023C00000D10DE2FA220023920002F011F900235D
:1023D0001A901B932BE6FA21890002F0CBF8D8E77C
:1023E000A8B00410FBFEFFFFFFFFFF3F000070429C
:1023F000AAA81CF06DFC179BE0220024AA93B0232E
:1024000052002AA98918CC502AA989180433CC5221
:102410002AA989180433CC502AA989180433CC502E
:102420002AA989180433CC502AA989180433CC501E
:102430001E9B9AA99A9343461B680025C8181F9BA8
:10244000002103601CF0D8FB169B00229A93E94BF5
:10245000A2A8AA93189B9C949B9300239D94A0925E
:10246000A1939E949F9408F0FDFC199BE0229B93FE
:102470001023A393A6ABA49330232AA952008A1851
:10248000A5949BA9D554AAA81CF0B6FB9A9B9AAA1E
:102490000C3B1B68D849D218D36824980B400A31EA
:1024A000FF310B43D36002230C99536002F071FF9C
:1024B00002F0F6FF02000B009AA827F0B7F970228D
:1024C00046AB44932AAB9B18A09A45941D70002AF2
:1024D00000D125E29E9B002B02D09A4200D21A0026
:1024E0009F9B0021D21A009244A8002228F0C6FA2D
:1024F0000024C82501233A003D70272100943000B4
:1025000007F05EFB96200021800001F029FCCC231F
:102510003A003B702721CB3B0094300007F050FB82
:1025200096200021800001F01BFC01233A003D7041
:1025300027210094300007F043FB9620C03D002186
:10254000800001F00DFC01233A003D70272100942A
:10255000300007F035FB96200021800001F000FCE0
:102560000C233A003B7027210B3B0094300007F00E
:1025700027FB96200021800001F0F2FB01233A00A6
:102580003D7027210094300007F01AFB96200021AF
:10259000800001F0E5FB459D88222900449B09311C
:1025A0009A464CAB4A932AAB9B184AA81C704B9492
:1025B00028F060F9914C4B9BE31A082B00D871E28C
:1025C000092225994AA828F0C1FA4B9BE31A9D429B
:1025D00000D967E22A0051464AA828F0B7FA4B9B77
:1025E000E41A032C00D85DE2042285494AA828F0A9
:1025F000ADFA0500239B08353B6003680400AB423D
:1026000000D1B2E13B608368BB6063687B600023FC
:102610002560237263603B681D789A46002D7CD04C
:10262000434626934B46B046D146CCAC2793012374
:102630000F229C462B0093439A460923524613438C
:10264000DAB2092300262D016DB22B43DBB22270D2
:102650002721069307920123220040460096E14479
:1026600007F0AEFA96200021800001F079FB0D21E1
:102670008B465146584601430123220021704046B3
:102680002721009607F09CFA96200021800001F097
:1026900067FB079A012322702721220040460096FB
:1026A00007F08EFA96200021800001F059FB069B6E
:1026B00022002370272101234046009607F080FA6C
:1026C00096200021800001F04BFB5A461543012360
:1026D0002200257027214046009607F071FA9620C7
:1026E0000021800001F03CFB069B22002370272183
:1026F00001234046009607F063FA962000218000EF
:1027000001F02EFB4B461D78002D90D1269B4646AE
:102710009846279B99463B689A46239B9A4504D046
:10272000B9685046013102F05FFF4A984CAB9842BD
:1027300003D04C99013102F057FF01F0CFFB002983
:1027400053D0FA220023920001F052FF00230A9096
:1027500044980B9346AB984203D04699013102F05E
:1027600043FF169BA4989A93224BAA93199B9B9381
:10277000A6AB984203D0A699013102F035FF189B11
:10278000A2A89B9307F026FD1E9B84229A934346A2
:102790001B68D2009B182AAA94461A4A634494469E
:1027A0001F9A63441A60179BAAA8AA931CF0CCFA3C
:1027B000FFF72BF8FA21890001F0DCFEFEF701FC9F
:1027C000FA21890001F0D6FEFFF709FBFA21890002
:1027D00001F0D0FEECE5FA21890001F0CBFE51E4D6
:1027E000FA21890001F0C6FEF1E5FA21890001F025
:1027F000C1FEABE7A8B00410FBFEFFFFFFFFFF3FE9
:10280000F0660410A0FDFFFFFA21890001F0B2FE7E
:1028100000230A900B9301F061FB002901D0FEF721
:10282000FFFBFA21890001F0A5FEFEF7FEFB424600
:1028300064003B195B7853703C5DFEF7F1FC494640
:10284000229802F0EFFD002800D108E1FDF78AFD93
:10285000FDF7F2FD4B202A9C0134FDF7C1FE2078E4
:102860000028F9D1FDF752FE20202B9C0134FDF702
:10287000B7FE20780028F9D14B46FE93EFF3108481
:1028800072B68021FF204901000343F035FEFF208E
:1028900004223900000343F0E7FD84F3108801F0BF
:1028A0001DFB002900D19BE0FA220023920001F0D9
:1028B0009FFE002312905098139352AB984203D07E
:1028C0005299013102F090FE169BD698CC93784B2A
:1028D000DC93199BCD93D8AB984203D0D8990131A2
:1028E00002F082FE189BD4A8CD9307F073FC5346E8
:1028F00084225B68D200CC930C3B1B68DCA89B183D
:102900002AAA9446524663449268993BFF3B1A6058
:10291000179BDC931CF018FA4B462293FEF740FB02
:10292000A4A944A827F0F8FEE2E572A938A827F088
:10293000F3FEFEF7F6FD0125A91C01352CAB9A46E6
:1029400071182EAB50462D2210932C9327F0C0FE09
:102950002C9BC922984638005649B04402F02EFEFE
:10296000FEF739FC09214D1EE8E74268290023984B
:10297000013202F023FE48E60525E91C0235DDE7B9
:10298000FA21890001F0F6FDFFF7D8FBFA21890052
:1029900001F0F0FDFFF7A2FB426829004846013232
:1029A00002F00CFEFEF773FC426829004846013233
:1029B00002F004FEFEF746FE42682900013234A808
:1029C00002F0FCFDFEF743FCFA21890001F0D2FD84
:1029D000FFF727FBFA21890001F0CCFDFFF713FB7D
:1029E000FA21890001F0C6FD63E70020324B9D44C7
:1029F000F0BCBB46B246A946A046F0BDFFA9404682
:102A0000243127F089FEFFF710FC00239946FFF7D9
:102A10005AFBD6A950A827F07FFEFFF785FA426837
:102A200061463000013202F0C9FD3CE4FA21890020
:102A300001F0A0FDFEF787FA28000DF0CBFD2B6812
:102A40000A2128009B6998470100FEF79EFA426818
:102A500041464846013202F0B1FDFFF7AAFAFDF700
:102A600081FC2020154C0134FDF7BAFD20780028A8
:102A7000F9D1F530FF3001F087F9E7E62CAB9A4643
:102A80002D222EAB5046711C10932C9327F020FE64
:102A90002C9B9846B044FEF7C1FB0125FEF784FB52
:102AA00001256AE706481BF0E9FF1BF0BFFFC0469F
:102AB000A8B0041000670410CC0400009066041055
:102AC000C466041010B501F009FA002907D0FA22F3
:102AD0000023920001F08CFD034B186010BDFA2119
:102AE000890001F047FDF7E728510020D0231B069D
:102AF0001B68974A9900F0B54E46894651585A428C
:102B000053412F2257464546DE465B429343984643
:102B1000904BE0B59C4683B000270191E04400292A
:102B200039D08D4B0F269B464246FB0808339B004D
:102B30009C5801233D009A460837002C22D03100D2
:102B40002140264218D05B464A469A582B00EA405C
:102B5000203BDB171340524613420DD107220800D9
:102B60002A40920090400200EB087C483C339B00D6
:102B70001A502800019B984724090135002C01D0E8
:102B8000BD42DCD3202FCFD103B0F0BCBB46B24650
:102B9000A946A046F0BD704B00200F229B46C608F8
:102BA0003300414608339B005B5801000830002B7E
:102BB00000D1B2E017001F40BC461A420FD04C466D
:102BC0005D460F002C59203FCC40FF1727400124C1
:102BD000274204D16446614F3C36B600F4511E09C9
:102BE00000D19AE017003740324213D04C1CA44663
:102BF0005D464C462C5965460E00EC401F3EF617CC
:102C000026400124264205D1EE08544C3C363F01B3
:102C1000B60037511E0A00D17FE01700374032421C
:102C200013D08C1CA4465D464C462C5965460E00BC
:102C3000EC401E3EF61726400124264205D1EE0840
:102C4000464C3C363F02B60037511E0B65D017008C
:102C5000374032420DD0CC1CA4465D464C462C5920
:102C600065460E00EC401D3EF61726400124264224
:102C700057D01E0C51D014003440A44632420BD021
:102C80004C46354E0F1D3659FE40B2460E00544696
:102C90001C3EF60F26424BD01E0D3ED01400344091
:102CA000A44632420BD04C462B4E4F1D3659FE40A7
:102CB000B2460E0054461B3EF60F264240D01E0E72
:102CC0002BD014003440A446324212D04C46224E3F
:102CD0008F1D3659FE40B2460E0054461A3EF60F7E
:102CE000264206D16446FE083C3627061B4CB60039
:102CF00037511B0FCF1D002B0FD04C465D462E5970
:102D00000124FE401939C9173140214205D1F90883
:102D1000124E3C311B0789008B51202800D03EE722
:102D200032E7EE080D4C3C363F03B6003751A0E7C2
:102D30006446FF083C37BE00084F2404F451ABE75B
:102D40006446FE083C362705044CB6003751B6E70A
:102D5000844C0020304101402C51002000400140B3
:102D6000094A83009A1810B51468402254408032F2
:102D70002240064CC000A44663441A60044B9C46A3
:102D80006044416010BDC04604C0014004D0014011
:102D900000400140074B8000C3181B68C900920027
:102DA0000A435A400C231340034A9446604403608C
:102DB0007047C04604C0014004D00140F8B5454604
:102DC0009846D0231B06DE461C689B462B4B574675
:102DD0009A46A3004E469946E0B5534616004A4629
:102DE0009B5807000D00002B34D04346002B3FD0EA
:102DF00053464A4641469950D0231B061C686342FD
:102E00005C412F220720634293431D4A3840944679
:102E1000FA081100800085403C311A48634489005B
:102E200092000D509B18002E0ED0802292019446E5
:102E3000634401210D201D6000F014F9F0BCBB4675
:102E4000B246A946A046F8BDC0229201944663440A
:102E50001D60F3E74346002BD1D0534641460D2079
:102E600099500022084900F05FF95B461C68C6E7EC
:102E70000D20054900F052FABAE7C046844C002004
:102E80003041014000400140ED2A00100123D022D2
:102E90008340120693629361094A83009A1811686D
:102EA0004022514080320A400649C0008C466344AB
:102EB0001A60054B9C460523604443607047C0463A
:102EC00004C0014004D00140004001408023DB05E4
:102ED0001868000F7047C0460FB400B5084883B0AB
:102EE00004F06EF9049B002B07D005A9180001918E
:102EF00003F044FF034804F063F9012003F056FF98
:102F0000CC670410DC67041070B5EFF3108C72B658
:102F10000D4D2B68002BFCD0BFF35F8F0724CB082F
:102F2000C618C05C01230C40A3401C0004400342AF
:102F300007D118433070BFF35F8F2C608CF310887B
:102F400070BD1000FFF7C8FF2C0100D0F8B5474650
:102F5000CE46884680B5EFF3108C72B6214D2C68B2
:102F6000002CFCD0BFF35F8F9A422CD8D4080727DF
:102F7000055D061901241740BC402C421FD00721D3
:102F80000127894609E0D408055D06194C46390039
:102F90001440A1400C00294211D001329342F2D2D8
:102FA00001204042BFF35F8F00220E4B1A608CF36A
:102FB000108800280FDBC0BCB946B046F8BD2543D9
:102FC00010003570EEE7BFF35F8F00232B608CF3AA
:102FD0001088012040424346002BECD00898FFF7B0
:102FE0007BFFC0462C0100D0044A1078431CDBB2A2
:102FF000172B00D9102313707047C04640200020C3
:1030000010B5064B064C82B00100009318221F2316
:103010002000FFF79BFF02B010BDC046E067041020
:10302000944C00200021044B044ABFF35F8F02C37D
:103030009342FAD17047C046000100D0800100D011
:10304000054B064A1360064A136053609360D360D1
:1030500013615361936170478080808000E400E0D9
:1030600004E400E01F2318401E3B8340002905D0E4
:10307000C021044A4900535013607047802201491F
:103080008B50FAE700E100E001228240034B1B680D
:1030900013405A1E9341D8B27047C04600E100E089
:1030A00001238340014A13607047C04600E200E0FC
:1030B000064B10309B688000C358054A00209B1ABD
:1030C0002F229A424041C0B27047C04600ED00E056
:1030D0004420002070B50D00EFF3108672B60F4A41
:1030E0001368002BFCD0BFF35F8F0D4B10309B6833
:1030F00084001B590B4A934203D09D4201D001F03A
:1031000033F9074B9B681D51BFF35F8FBFF35F8F90
:103110000022024B1A6086F3108870BD240100D093
:1031200000ED00E0CD010010F0B557464E46DE46FA
:103130004546E0B585B0060000911700EFF3108B0F
:1031400072B66A4A1368002BFCD0BFF35F8F00256C
:10315000674B5D579A46002D00DAA9E06B00654C7D
:1031600001935B199B009846A146C1444B465246C9
:103170009B7910361370604BB6009B6899590B1BF6
:103180002F2B33D95D4B994200D0ACE0019B4246D6
:103190009C465B4B6544AD0063535A4B0232A21808
:1031A000043B9B1A1B05584A5B0D651913436B8042
:1031B000564B0121AB80FF23AB71009BEF71AB60DD
:1031C0004B460B4319004C4B9B689951BFF35F8FE3
:1031D000BFF35F8F0022454B1A608BF3108805B058
:1031E000F0BCBB46B246A946A046F0BD01200A008D
:1031F0008243D3798C46BB4231D8454613004449BB
:103200001B1B5B415943090D3D4B63533D4B02353D
:103210006519043B5B1B1B053B4D5B0D2B43AA460D
:103220004D466B800425AC465546E044131F44448C
:103230001B1B1B055B0D1D434B46997100999D801F
:1032400099604946DF71334B01431360BBE7580077
:10325000C01880002018C179B9422FD90200062376
:10326000D356002BF3DA02932B4B61460393131DC5
:103270009A4604235B429C46E14450464B461B1A47
:103280001B055B0D9C46204B957198466346404656
:1032900003439380019B5A199200039BA418A380B7
:1032A000029B1C4AA371009B2260E771A3608AE71E
:1032B00001F05AF8002553465D574FE79088029376
:1032C0004005131D9A46031561469C464046D4446A
:1032D000634604302018181AE0230005400D1B0235
:1032E00018430390C5E701F03FF84FE7240100D0F1
:1032F000615100204420002000ED00E0CD010010CD
:1033000000A1FFFF7420002000E0FFFF01BDFFFFD0
:10331000AAAA00000148804701BD0000F0B5DE46C2
:1033200057464E464546E0B50C0083B0EFF3108893
:1033300072B6634A1368002BFCD0BFF35F8F614BFA
:1033400061499A68030010339F00D55900938D425C
:1033500043D0A54254D05D4EAA1B2F2A3DD85C4BCA
:103360009C461B689A4601231A00994682405346A0
:1033700013401F2201934B46024093409A468022FD
:10338000634650469850BFF35F8FEFF305839B462B
:10339000002B37D0009B5B4501D000F0E5FF2A00F1
:1033A0004B469A439068844208D177E04B005B1803
:1033B0009B00F3189868844236D01A0006215156B3
:1033C0000029F3DA844255D0019B002B27D0C0227C
:1033D00051463F4B5200995019603A4B9B68DD5162
:1033E000BFF35F8FBFF35F8F0022354B1A6088F306
:1033F000108803B0F0BCBB46B246A946A046F0BD5B
:103400000D00EAE72A004B469A4390688442D5D1E2
:1034100006201056130000280ADA0D0032E080233F
:1034200051462B4AD150D8E706201856002822DBF7
:1034300042001118890074188946A1689960E179E1
:10344000D971062161569971002925DBA488F11AEA
:10345000640524154C440919E0240905490D24028A
:103460002143998013181B4A9B001178F318997116
:103470001070A9E713005946002914D1FF3191714A
:103480001549918013490A789A71144A9B1B5B4134
:103490005A43120D0A7097E71149E2E706201056C9
:1034A00013000028C4DA0F4A0F49D21A083A500212
:1034B000400D014399800D4952080A43DA8083E7A1
:1034C000240100D000ED00E0CD01001044200020D8
:1034D00000E100E06151002001BDFFFFAAAA000049
:1034E00001BD00007E20002000F0FFFF00F8FFFF7C
:1034F00070B501240443EFF30581EFF3108C72B62D
:10350000214A1368002BFCD0BFF35F8F1F4B0500CF
:103510001F4AED1A6D416A43120D1E4D8900AE68B7
:1035200052B27658A6421CD00621595691421CD060
:1035300012215956914222D01E215956914220D033
:103540002A2159560324914210D0134B19781A702E
:103550008171BFF35F8F00220B4B1A608CF31088D0
:1035600070BDAB680D4C5C50EFE700246100091999
:1035700089005B18FF21997109499980E5E70124C9
:10358000F4E70224F2E7C046240100D044200020E2
:10359000AAAA000000ED00E061510020CD0100105A
:1035A00001BDFFFF10B5084B084C82B0010000932D
:1035B000002205232000FFF7C9FC002801DB1F23A0
:1035C000181A02B010BDC046FC67041065510020F7
:1035D000024B9C4661448900016070474000003402
:1035E00070B5114C114DAC420FD2FF262368002B51
:1035F0000CD0FFF7F9FC01002000FFF7E9FFA680DF
:10360000BFF35F8F0834AC42F0D370BDFFF7ECFC22
:1036100001002000FFF7DCFF2671BFF35F8F083445
:10362000AC42E3D3F1E7C046B8280020C028002010
:1036300010B50400FFF7D8FC01002000FFF7C8FF19
:10364000FF232371BFF35F8F10BDC04610B5040088
:103650000120FFF7D5FC034BC3189B002360BFF389
:103660005F8F10BD40000034034B9C4661448900CD
:103670000160BFF35F8F7047400000340A4B196848
:10368000EFF3108072B60A68002AFCD0BFF35F8F98
:103690001B68BFF35F8F00221A6080F3108840BF61
:1036A000002000217047C04640510020F0B5DE46A2
:1036B00057464E464546E0B583B0EFF305820323F7
:1036C0001340B54A990052580091904601229A4001
:1036D0009346B24B1A60B24B01935B46B1484363C9
:1036E000434608229B5E9946002B3ADA43469B8864
:1036F0001BB2002B00DB9DE043469B79002B00D0E2
:10370000E1E0434608241C5F002C20DB43465A6955
:1037100063001B19DB00D3189D68DC686B1C00D1AB
:1037200003E1A048009984466144826A0B69AE1A9D
:103730009B1A9E4213D35A46036A1A420FD09948E5
:1037400000F0C4FB8C4202DCC7D18542C5D940BF22
:1037500003B0F0BCBB46B246A946A046F0BD0D6121
:10376000EDE7424652695B0092464B44DB009A44C7
:1037700053469E68DF6800F0A9FB8F42B6DC00D19B
:10378000F8E0002F00DAD9E05246534654691B692D
:10379000019A934200D1CCE0414652460820085E8F
:1037A0005288000421001043984704000D002300B4
:1037B0002B4300D1C2E0002D00DBDFE030003900F8
:1037C000001BA94153469860D96000229A5E002AE6
:1037D00000DA8BE743465D6953009C18E4002C191E
:1037E000A768E4688C4200DD80E702D1874200D9F7
:1037F0007CE74646328108360DE08C4200D1C6E0B7
:103800001E000023F25E002A0ADB53009C18E4002D
:103810002C19A768E4689B18DB00EB188C42ECDDE0
:1038200053461A804B46338043469B881BB2002B7D
:1038300000DA61E743461A69EFF3108172B6136844
:10384000002BFCD0BFF35F8F43469E880123424686
:103850005B42938036B21369BFF35F8F00221A6018
:1038600081F31088002E00DA46E743465D6908338D
:1038700042469C467700BF19FF00EF19BB686046BF
:1038800098460823D15E9246FC68002907DA0EE0CC
:10389000A24246D018000023C15E002906DB4B007F
:1038A0005B18DB00EB18DA68A242F1DD52460680B5
:1038B0000023FE5E3980002EDCDA904643469B7979
:1038C000002B00D11DE70023424693714346464634
:1038D0000821595E08364B1C00D138E74746894617
:1038E000556902E006004B1C18D04B005B18DB004A
:1038F000E8180A008C46E95E43881BB2002BF1DA17
:1039000001235B42DC178360C4604A4503D03180E9
:103910003B8903803A81E1464B1CE6D1B8464C46D0
:10392000F2E69A684245B5D9C0E7631C00D0F8E6D4
:1039300005E7200023699847002825D153464246D1
:103940001B8813811269EFF3108372B61168002986
:10395000FCD0BFF35F8F4246514652880A804246F0
:10396000494651801269BFF35F8F0021116083F3D4
:103970001088BBE6864200D803E7B7E6094800F0A6
:10398000A5FA001969411DE7656824680FE78742B9
:1039900000D835E744E7C046145100203C7005408C
:1039A000AD3600100040054070B52E4C2569002D45
:1039B00004D00A212C48FFF70BFE70BD2B4E0321CB
:1039C000300000F079FAE660FFF70EFB284B032287
:1039D0009C46D02322701B061B6801216370254B77
:1039E0006044A3600F23800020610220638063692C
:1039F0004942A18019800231198647311D835852EE
:103A000018315A5275325C39995218320131995233
:103A10001832013199521832013199520835183251
:103A20009D5202311832995218320131995218328E
:103A3000013199521832013199521832013199529B
:103A40001832013199520C4B0C49DC60013035625F
:103A5000FFF740FB01210320FFF704FB084B1D602B
:103A6000A7E7C0468C2000204051002000400540C0
:103A700040000034FFFF100014510020AD3600104C
:103A800038600540004870478C200020F8B51F00C2
:103A900008AB1B7804001600002B08D100F01EFABA
:103AA00032003B00121A8B41002B00DA53E02269EE
:103AB000EFF3108072B61368002BFCD0BFF35F8F5A
:103AC0000223E15E63694A005218D2009B18002964
:103AD00037DB1A8862802269BFF35F8F002515608B
:103AE00080F31088069A9E60DF601A61079A5A6117
:103AF0005A8801325204520C101C002A1FD082B284
:103B00005880080410432669EFF3108772B63268B4
:103B1000002AFCD0BFF35F8FA2881A80A18023699E
:103B2000BFF35F8F00221A6087F310880B49237858
:103B30008C4601329A40E36863441A60F8BD012064
:103B4000DDE72369BFF35F8F00221A6080F31088DE
:103B500001204042F2E70020F0E7C0463C20000090
:103B600070B501000469EFF3108C72B6206800286C
:103B7000FCD0BFF35F8F02200D5E4C6968004019D6
:103B8000C0002418002D37DB208848800869BFF367
:103B90005F8F002606608CF31088E36063880498CA
:103BA000013320615B0405985B0CA26060611A1C04
:103BB000002B1FD093B22804628018430A69EFF3E8
:103BC000108C72B61368002BFCD0BFF35F8F8B880C
:103BD00023808D800B69BFF35F8F00221A608CF306
:103BE00010880B7801329A40CB6808498C466344B0
:103BF0001A6070BD0122DDE70B69BFF35F8F002201
:103C00001A608CF3108801204042F2E73C2000004B
:103C100010B543890A1493421ADD53009B18426978
:103C2000DB00D3180469EFF3108C72B62268002A07
:103C3000FCD0BFF35F8F5A88090494B2090C8A4202
:103C400008D00369BFF35F8F00221A608CF31088DD
:103C5000002010BD8022120214435C8001230269FF
:103C60008371BFF35F8F002111608CF310880449CA
:103C700002788C469340C268012062441360E8E7F2
:103C80003C20000040787047F0B504000D00062687
:103C90007642F717C64636196F4100B582B08F429B
:103CA00014D811D000F01AF932003B00121A8B41DF
:103CB000002B17DC002B47D02000290000F04CF926
:103CC00002B080BCB846F0BD8642EBD9002200238A
:103CD00016001F0000F002F932003B00121A8B415F
:103CE000002BE7DD00F0FAF832003B00121A8B419E
:103CF000002B0ADB00230193154B3200009315487B
:103D00003B00FFF72DFF0028D6DB00239C46B04682
:103D1000114A124E736A9F4204D8B16A8845CBD9C2
:103D20009F42C9D11168EFF3108072B60B68002B67
:103D3000FCD0BFF35F8F1368BFF35F8F61461960DC
:103D400080F3108820BFE5E7002AB5D0CAE7C04657
:103D50007D3600108C20002040510020004005409E
:103D600070B504000D0000F0B9F880230019694116
:103D70001B06994202D3012002494042FFF784FF0B
:103D800070BDC046FFFFFF7F70B5060000F0A6F8CB
:103D9000FA2204000D00002330000021920001F0FF
:103DA000DBFA8023001969411B06994202D30120E6
:103DB00002494042FFF768FF70BDC046FFFFFF7F2A
:103DC000F0B5D6464F464646C0B504000D0082B059
:103DD000EFF305878946002F0ED0344900204B6A47
:103DE000AB4203D38A6A0130A24226D302B0E0BCC0
:103DF000BA46B146A846F0BD2D4B9846DB689A46B8
:103E0000434650461E7800F061F80B005146020010
:103E10000436B600715820008E1A2900801A994184
:103E20008F4211DC0ED020BF204A0020536A4B4540
:103E3000DCD3926A0130A242D8D25B1B5A1E934156
:103E4000D8B2D3E78642EED900F048F822002B0022
:103E5000121A8B41002B1ADB00230193154B220011
:103E6000009340462B00FFF77BFE011E0FDD0F4B3A
:103E70005A6A4A4517D39B6AA34212D34046FFF7BA
:103E8000C7FE0A4A0020536A4B45AFD3D1E7074A21
:103E90000020536A4B45A9D3926A0120A242A5D2C1
:103EA000CBE74A45EAD120BFE8E7C04600400540DD
:103EB0008C2000207D36001010B5024A0248FFF722
:103EC00023F810BD18680410984C00200300416AC4
:103ED0000A00986A596A8A42FAD17047034B596AB4
:103EE0000A00986A596A9142FAD170470040054029
:103EF00070B504000D00174A536A1900966A536A98
:103F00008B42FAD13000190024184D41AB4216D82B
:103F100013D0104A2B00526A954203D90D494A6AC0
:103F20009A42FCD39A4207D10A4A02E0516A994266
:103F300002D1916AA142F9D370BDA642E9D9054BDD
:103F40005B6A1C005A1CEFD0012301246442E51770
:103F50005B42E3E700400540064A536A9942FCD8B9
:103F600007D1044B02E05A6A914202D19A6A824216
:103F7000F9D3704700400540F8B5DE464E46574637
:103F80004546E0B58B4605000A991800160000F07A
:103F9000F1FA0A9B6C001F02324B64199C46A40084
:103FA0006444636881469F4200D967602B1FDBB27F
:103FB0009846012B30D9C02380229B01E3181201BF
:103FC0001A60294BAD0059599A4600291BD173013B
:103FD000E026226853401E40802342465B01E318DE
:103FE0001E60012A30D9802380229B01E318120130
:103FF0001A6053464A4667605A51F0BCBB46B24607
:10400000A946A046F8BD586900F0B4FA0130430053
:104010001B18033BFDD2DAE75B46012BCBD1C02353
:1040200003229B01E3181A60023AA3681A42FCD0EB
:104030007301E0262268AD0053401E4080230A4AE7
:104040005B019246E3181E605A46216851400322E4
:104050000A401A6001225B469A40A3681A42FCD0CB
:10406000C1E7C046008000409C4C0020F0B54646A9
:104070004F46D646C0B51F00344B44009C4624181A
:10408000A4006444636888461600FF2B02D880238E
:104090005B006360031FDBB29A46012B30D9C0235B
:1040A00080229B01E31812011A60294B850059599F
:1040B000994600291BD17301E026226853401E4017
:1040C000802352465B01E3181E60012A30D9802309
:1040D00080229B01E31812011A6080235B00636059
:1040E0004B465F51E0BCBA46B146A846F0BD5869A0
:1040F00000F040FA013043001B18033BFDD2DAE721
:104100004346012BCBD1C02303229B01E3181A6045
:10411000023AA3681A42FCD07301E02622688500A7
:1041200053401E4080230A4A5B019146E3181E60FB
:1041300042462168514003220A401A600123424648
:104140009340A2681342FCD0C1E7C0460080004003
:104150009C4C0020014B8000C05870479C4C0020B4
:10416000F8B5040021481E0017000D0000F002FA07
:104170000100380000F0FEF9069B36041B031E43C5
:104180002368002B20DB1A4B1A49E3185A1E93416F
:104190008022920194465B421B0B174A1B03634427
:1041A0001360164A13601F000A689743FBD1144B33
:1041B0002560E2182123A06013602368002BFCDA3D
:1041C0000823E6601360F8BD3F2322681340AB422A
:1041D000D9D1A3681B051B0D8342D4D1EE22E3681D
:1041E000D2021340B342CED1EDE7C046001BB70068
:1041F0000040FDBF08C0004000E0004000F000406B
:104200000430000010B580241C4BE4051C6000281D
:104210001AD001231A4C18431A4BDC611A4C444043
:104220001C62596298628021144BC90519601748B5
:1042300017490860E021C9041960002A07D18022CB
:10424000144B12061A6010BD0E4BD861EBE75301F8
:104250009B1A9B009A18802312015B049A4209D290
:1042600013000D490B60074B5A608022094BD205A1
:104270001A60E8E7094B1A00F3E7C04600B00540B2
:10428000D3C007B0008005402D3FF84FFCFF010070
:104290000820014000A0054004510020FFFFFF005E
:1042A0008023024A9B000B43D36270470080054085
:1042B000142310B50100188804331B88984710BDDB
:1042C000162310B50100188802331B88984710BDCB
:1042D000F8B54746CE4680B50F1E19D0142399462F
:1042E000043304000025012698464B4618884346AF
:1042F00021681B88984701C4431E984101354042FC
:104300000640AF42F1D13000C0BCB946B046F8BD5E
:104310000126F8E7142370B50400188804331B88BD
:104320000D000549984703000020002C01DB0130F7
:10433000A04029009847C04655420000AA23064ADB
:104340001B0113608D235B00D3600449044B19608B
:104350005368002BFCDA70470040024000B0FA00BE
:10436000006002407047C04610B50148FEF7B4FD3A
:104370003C68041070B5074D074EB54209D20024C1
:10438000013E761BB60808CD984723000134B3429E
:10439000F9D170BDA8650410E4650410054B064A08
:1043A00006491A60064A074B1A6010000B689843CA
:1043B000FBD1704700E00040BFCDFBFE08C00040CD
:1043C000FE7F3C0000F00040044BDB6C002B03D16F
:1043D0008022034BD2021A607047C0460000115081
:1043E0004C201150044A054B1A60054A1368DB0142
:1043F0008033FBD17047C046FFFFFF0100F0004053
:1044000008C000404022034B9A675A671A67DA6671
:104410007047C04600F0014010B5FEF703FE10BD26
:1044200070B5044D044CA968C022200001F0C6F804
:10443000AC6070BD00ED00E000000020002310B56E
:10444000294C82B0A367FFF779FF0122274B1A603E
:10445000636C012BFCD10322254B1A60224A936B1B
:10446000012BFCD1013300930121224A224804335D
:10447000FFF776FE052301210093204A2048FFF72D
:104480006FFE0022022104201E4BFFF7EFFD0022E9
:10449000012105201C4BFFF7E9FD00220021072028
:1044A0001A4BFFF7E3FD002200210820174BFFF70E
:1044B000DDFD8023DB000093002200210920134B47
:1044C000FFF75AFD0022104B00210620FFF7CEFD1A
:1044D0000420FFF73FFE0E4900F04CF801000020D9
:1044E000FFF7DEFE02B010BD008000403CB000408F
:1044F00030B00040002F685900800240008C864791
:1045000000C00240001BB70040597307006CDC027A
:1045100040420F0001480421014B1847B020002001
:10452000D1420010124A936F9B0815D29066D16653
:10453000002905D0FFE7FFE7FFE7516F106F7047D5
:1045400004B580210906C2175140002800D0C84395
:1045500041F0AAFF002104BDF0B5146E556E576FEF
:10456000166FFFF7E3FF1466556657671667F0BDD1
:10457000000000D0114A936F9B0813D21066516659
:10458000002905D0FFE7FFE7FFE7516F106F704785
:1045900004B5002801D00020C04341F085FF002170
:1045A00004BDC046F0B5146E556E576F166FFFF719
:1045B000E5FF1466556657671667F0BD000000D02A
:1045C00094464A4A926F9208624601D228E0C04659
:1045D000F0B5464E346E756E776F366F00F020F88A
:1045E0009446424A14665566576716676246F0BDA0
:1045F00094463E4A926F9208624601D254E0C04609
:10460000F0B53A4E346E756E776F366F00F04CF839
:104610009446364A14665566576716676246F0BD7B
:10462000002B24DB11D000293EDA00B5C9434042FB
:1046300000D1013100F038F8C943404200D10131C6
:10464000DB43524200D1013300BD002AEBD10028E8
:1046500001D1002905D00020C90FC90701D1C043ED
:10466000410800B541F0E8FE0022002300BD00B57E
:1046700000290ADBDB43524200D1013300F014F879
:10468000C943404200D1013100BDC943404200D17D
:104690000131DB43524200D1013300F005F8DB4326
:1046A000524200D1013300BD002923D1002B18D183
:1046B000002A0CD0BC460D4F38667A6600210023D4
:1046C000FFE7FFE7FFE77A6F386F6746704700281C
:1046D00001D00748010000B541F0AEFE00220023E2
:1046E00000BD02000B00002000217047000000D038
:1046F000FFFFFFFF002B00D0BFE0130C28D1002AE2
:10470000E7D080B4114F39667A66FFE7FFE730B42F
:10471000040C7B6F396F1B0423433B667A66FFE70B
:10472000FFE7FFE7C04684B27B6F3D6F1B04234366
:104730003B667A66FFE7FFE7C04600232C042D0C9A
:104740007A6F386F00196941B0BC7047000000D023
:10475000F0B594460025140E01D112020835140F4D
:1047600001D112010435940F01D192000235D40F0A
:1047700001D152000135D40B0134254F7C66254C04
:104780003C660E0C93B2FFE7FFE7FFE73C6F664322
:10479000360C7703BE467343DF0B5B04C01AB94186
:1047A000130C7343DB18C91ACE086643360CB644A3
:1047B00093B273431F0F1B01C01AB941130C73430B
:1047C0001F0B1B05C01AB941860D8F023E4366437D
:1047D000360C092D24DB520A7243801A7703460AED
:1047E0006643360C16235B1BDE40DF40BF19644670
:1047F0006643821B7046043506330100D940A84049
:10480000C01900D30131A24206D20023F0BD00003E
:10481000000000D0FFFFFFFF121B0130F3D3F1E7D0
:1048200009277F1BFE406446A2B27243801A00D261
:104830000139220C7243130C1204821A99410B00A5
:104840007046043513370100F940A840801900D3A1
:104850000131002B02D1A2420AD2F0BD013000D3B7
:104860000131121BFAD2013BF8D1A24200D2F0BDB5
:10487000013000D30131121BF7E7F0B51C0C00D05A
:1048800080E00CB400251C0A04D11B02160E334331
:10489000120208351C0B04D11B01160F3343120101
:1048A00004359C0B04D19B00960F334392000235D4
:1048B000DC0B02D192185B4101351C009718644152
:1048C0000134464F7C66464C3C660E0CFFE7FFE722
:1048D000FFE7C0463C6F6643360C7703BE4697B28F
:1048E0007743C01B00D20139C01B00D201399FB2EF
:1048F0007743C91BC91B170C77437E04FF0B801B32
:10490000B941CE086643360C0C2D33DBB644120B8E
:104910001F053A431B0B97B27743C01B00D20139E6
:104920009FB27743C91B170C77433E043F0C801B93
:10493000B941860D8F023E43664329277F1BFE4007
:104940000C3D7746AF40BF1930BCA2B2ABB2724348
:104950007343801A9941220C7243130C1204801A7B
:10496000994102000B000137001BA941F9D2781EC2
:104970000021F0BD0C277F1BFE4077467F0BAF4028
:10498000FF19E0E700245D1C07D0144F7D663966EF
:10499000FFE7FFE7FFE7FFE73C6F95B29EB2654395
:1049A0006643401BB141150C1E0C6543664336043B
:1049B0002F0C3E432D04401BB141994204D202000A
:1049C0000B0020000021F0BD01D19042F7D3801AE6
:1049D000994101349942F2D3F6E70000000000D07B
:1049E000FFFFFFFF48404140484018B41B4B5B6845
:1049F000FC46019308BD04DF274D001018B4174B87
:104A00001B68FC46019308BD00DF314D0010944641
:104A1000134A926F920809D2624618B40F4BDB68B2
:104A2000FC46019308BD0CDFE94F00100C4AF0B5BD
:104A3000146E556E576F166F6246FFF7EEFF084A09
:104A40001466556657671667F0BD18B4034B9B682C
:104A5000FC46019308BD08DF8D4E0010002D00209C
:104A6000000000D0FFB550404240504059404B40FC
:104A7000594000E0FFB5154F4C00640D03D0BC4217
:104A800004D10C0314D80020090D09055C00640D45
:104A900003D0BC4204D11C030AD800221B0D1B0505
:104AA00001264B4009D44B4003D58B4200D18242B2
:104AB000FFBD9942FCD19042FFBD0B43DB1803437D
:104AC0001343F5D0C9434918FFBD0000FF0700009C
:104AD00000B5FFF7CFFF01D0002000BD012000BDD1
:104AE00000B5FFF7C7FF804100BDC04600B5FFF726
:104AF000C1FF01D9002000BD012000BD00B5FFF7B6
:104B0000B1FF01D9002000BD012000BD00B5FFF7B5
:104B1000A9FF804100BD012040054A00121804D8B9
:104B20005A00121801D80020704701207047000079
:104B30000021002805D17047C1174840401AFAD01B
:104B4000C90713B5064B1B6898470CBC441CA24010
:104B50001005120B0349091B09051943114310BD28
:104B60003C5100201F04000010B54C00620D802352
:104B7000D218DB00D21A5B057E2A10DD9E3A13DACA
:104B8000CC170903490819435242D140640001344B
:104B90001532202A05DAD0400843604310BD0020BA
:104BA00010BD0846604310BDC80FC018013810BDC5
:104BB00018B4044B5B6AFC46019308BD24DF99518D
:104BC00000100000002D002018B4044BDB6DFC46E3
:104BD000019308BD5CDFA55200100000002D0020ED
:104BE000C94211D300B549004908002200F018F865
:104BF000002904D4002240428A41114600BD802190
:104C00000906002000BD000018B4044BDB6EFC4612
:104C1000019308BD6CDFA75100100000002D00209B
:104C200018B4044B9B6FFC46019308BD78DFC35159
:104C300000100000002D002018B4044BDB6FFC4670
:104C4000019308BD7CDF315200100000002D0020D0
:104C5000132370B51D78012D19D014DD1F48FFF7FF
:104C60002FFB06001E48FFF72BFB1E4C8022310055
:104C7000200000F0A3FC022D2DD01B48FFF718FBED
:104C80001A4B186070BD1A4B164CA364F5E7184B0D
:104C9000144C23606360A360E36023616361A361DC
:104CA000E36123626362A362E36223636363A363DA
:104CB000E36323646364A364E36423656365A365BA
:104CC000E36523666366A366E36623676367A3679A
:104CD000E367A364D1E7064BA364CEE75344000027
:104CE00053460000002D00204C3300003C510020B2
:104CF000F54C001007B5604601880A0A0230DF2A29
:104D0000FAD1C9B2820804D3028840880004104353
:104D100000E00068014A5050039007BD002D0020BC
:104D20000FB403BC0CBCF0B50124E407634000E001
:104D3000F0B50C0DCF0F661E3605891B640503D335
:104D4000C943404200D30131640D03D0661CF60A0A
:104D500007D0E41B00207F00791C89078912803C62
:104D600024031D0DDF0F6E1E36059B1B6D0503D33F
:104D7000DB43524200D301336D0D03D06E1CF60AA3
:104D800007D0ED1B00227F007B1C9B079B12803D00
:104D90002D032F1B661B58D4A446202E46DA20373D
:104DA0001400BC401D00BD40F24033412A4380182E
:104DB0005941CB0F05D0C943C04300226442504142
:104DC000514162464D0D28D10D0D07D100281FD04D
:104DD000241940414941013A0D0DF9D0640006D330
:104DE000013000D30131002C01D140084000013ACC
:104DF0000BD4941CE40A04D112051144DB071944B6
:104E0000F0BDD907204B194300E0D9070020F0BDC1
:104E10000029DDD1002CDBD1F0BD0132C6074008EE
:104E2000CD0728434908002EE1D0D9E73C2E29DAE6
:104E3000203E40371400BC4000D00124F24014430F
:104E40001A00BB401C43D317ACE7AC46202F08DA4E
:104E500020360400B4400D00B540F84039412843E5
:104E6000A5E73C2F0CDA203F40360400B44000D0C8
:104E70000124F84004430800B1400C43C117EAE79D
:104E800010001900002494E70000F07FF0B50C0D2D
:104E9000661E3605891BE60A6405640D02D0651C92
:104EA000ED0A04D0002001210905803C2403A4461A
:104EB0001C0D671E3F05DB1BE70A6405640D02D06D
:104EC000651CED0A04D0002201231B05803C24034D
:104ED0007740644497B484B296B27443070C7E431F
:104EE000150C6F4380B26843361802D301200004CA
:104EF0003F183004350C00197D41844688B29AB2BF
:104F000050430C0C62431F0C7C438EB27E439219BB
:104F100002D301263604A4191604170C361867416B
:104F200001BC81B29AB25143040C62431B0C5C4336
:104F300080B25843121802D3012000042418100430
:104F4000130C401863412D185E410020474106BCF8
:104F500088B293B258430C0C6343120C544389B289
:104F600051435B1802D301210904641819041A0C77
:104F7000091862416D1856410020474118BCF902DA
:104F8000720D1143F0026A0D1043ED020A0D03D1B8
:104F90006D1940414941013B124E9B1B7600B342C3
:104FA0000ED26D0007D301300026714166463543AD
:104FB00001D1400840001B05C918E4072144F0BD99
:104FC0000BDA013306D1013004D101314F0D01D08C
:104FD0004908F2E7E1070020F0BD01363105002065
:104FE000EBE70000FF030000F0B51C0D671E3F0556
:104FF000DB1BE70A6405640D02D0661CF60A04D0C8
:10500000002201231B05803C2403D0252D06002609
:10501000F6432E661E096E66CE0FF619B446490099
:105020004F0D02D07E1CF60A03D000200021403F25
:105030003F033E1BB600B444013F7F05C91B49082E
:105040002E6F013676089C02950D25437543ED13AE
:105050007543AD1301356D10F603761B0CB4CC020D
:10506000450D2C43A2B2B3B25A43270C7B43350CF7
:105070006F43A4B26C431B1902D3012424043F19CB
:105080001C041D0CA4187D4124196D41009A91B295
:10509000ACB26143170C7C432B0C5F4392B25A4372
:1050A000A41802D301221204BF182204230C5218A0
:1050B0007B41019C6C431B19520ED9010A434401E8
:1050C000A01A81B2B2B2514303145A43360C73434F
:1050D00087B27743D617D21900277E4136049B1931
:1050E0001704160C7F185E417316ED18F3010026A5
:1050F00080337541A90F06D16400690AE8055B0A8F
:10510000184309D22FE00422944480337541A90A40
:10511000A8059B0A184326D3404149412404009A1C
:10512000019B0D005543641B4343E41A95B286B2BC
:105130007543170C7E43030C5F4392B25A43B61873
:1051400002D301221204BF183204330C52197B41DE
:1051500052429C41002C02D40022013051414008AF
:10516000CA071043490802B06246D7079210084B9D
:10517000D218084B9A4203D212058918C919F0BDFA
:105180000020002A01DC3900F0BD01331905F5E7E4
:10519000FD030000FE070000002200B5203200F0F1
:1051A00010F8080000BD002200B500F00CF8CA1786
:1051B0009A4200D100BDD8430121C907414000BD3A
:1051C00000220B150AD410B5944600F0A7F8141469
:1051D000013400DA0021CB17144C204700200021B5
:1051E00070476244343A0CD40C2A07DA0400914028
:1051F000904052422032D440214310BDD843D9437D
:1052000010BD203207D40C46944052422032114146
:10521000D040204310BD0800C917203203D45242A9
:105220002032104110BD1800190010BDE3510010CC
:105230004A00520D144BD21A13DDFF2A1EDAD20592
:10524000CB0FDB071A43C300400F0903490A084389
:1052500010435B0001D301D0013070474308FBD2FB
:10526000704702D0C80FC00770470A0312130132FB
:10527000F8D1420F072AF5D1012200E0FF22C80F22
:1052800000028018C00570478003000000210A005A
:10529000002104E000210A00C11704E000220023DD
:1052A00006E0C0460022CB1758405940C01A994129
:1052B00030B5184CA21A002903D1010010D00020EB
:1052C000203A4C1512D104D2013A001849414C0D34
:1052D000FAD3114CA24204D212058918DB07C9186F
:1052E00030BDD243520D00200021F5E703D4013A2E
:1052F00000184941FBD50B324405C00A4D0528432F
:10530000C90A640003D0002460416141E1E7E0D3B1
:105310004408F8E732040000FE0700000A0DCC0F35
:10532000531E1B05C91A520503D3C943404200D37B
:105330000131520D03D0531CDB0A07D0121B002091
:105340006400611C89078912803A1203014BD21A4A
:1053500070470000FF03000051434343C9188C46C7
:10536000110C83B24B4310B4040C614392B280B26F
:10537000504362431C041B0C001910BC5941130418
:10538000120CC01851416144704700004840414030
:1053900048400E4B5B6818470C4B1B6818470C4A7B
:1053A000936F9B0802D2094BDB681847F0B5146E67
:1053B000556E576F166FFFF7F6FF054A1466556670
:1053C00057671667F0BD014B9B681847002E0020F9
:1053D000000000D007B548404140484001E0C046C9
:1053E00007B54200120E03D0FF2A03D1420218D89B
:1053F000C00DC0054A00120E03D0FF2A03D14A0295
:105400000FD8C90DC9050122414005D4414001D53D
:10541000814207BD884207BD0143491801D0C043FE
:10542000001807BD00B5FFF7DBFF01D0002000BD6D
:10543000012000BD00B5FFF7D3FF01D9002000BD5A
:10544000012000BD01231B064200D21804D84A00E7
:10545000D21801D80020704701207047C10FC9073A
:1054600000D54042002817D0F44603B40B4B1B680C
:10547000984706BC81409E384042803107D20B06D7
:1054800007D04900490AC00510430843604701306E
:10549000F8E7490A8902F5E7704700003C5100200F
:1054A000034BDB6FFC4618477CDF455500100000BE
:1054B000002E0020132310B512481C78FEF700FFC1
:1054C0000100012C0AD003DD80220F4800F076F89D
:1054D0000E48FEF7EDFE0E4B186010BD0A4C54222C
:1054E000200000F06BF80B4B6365A365E365236652
:1054F0006366A366E36623676367A367E367236264
:10550000E361E5E753460000002E00204C33000025
:105510003C5100201955001007B5604601880A0A61
:105520000230DF2AFAD1C9B2820804D30288408847
:105530000004104300E00068014A5050039007BD8A
:10554000002E0020C30FDB0741000A0E07D0FF2A00
:1055500008D00909054A89181943400770471900FE
:10556000002070470249C918FAE70000000000381F
:105570000000F07F10B5040038F03CF9002804D09A
:10558000034B04199C4200D810BD0248FDF7A4FC4F
:10559000000004204868041010B538F035F910BD3B
:1055A00001480421014B1847C0200020D1420010BF
:1055B000014B1B6818470000C0200020014B5B68AE
:1055C00018470000C020002010B5FFF7D3FF10BD22
:1055D00010B5FFF7CFFF10BD10B5FFF7DDFF10BD11
:1055E00010B5FFF7D9FF10BD10B5FFF7D5FF10BDFF
:1055F0009A4200D2885470477047C046F8B5574663
:10560000DE464E464546E0B599460A9B07009A4657
:105610000D9B884693460B9C9B073BD10C9B9C4261
:105620003DD21E1B0B9415000C005E442A004B4615
:10563000013521002020B847B542F7D1A0460B9C88
:10564000002C20D0454636195346321B013C185DCC
:1056500029004B46B847002CF6D12B003500984660
:105660000D9B9B070FD55B46EC1A0C9BA3420AD9F6
:10567000464698462A004B46310020200134B84760
:1056800001354445F6D32800F0BCBB46B246A946D6
:10569000A046F8BD16001500002CD3D1E0E7160097
:1056A000002CCFD11500EEE7F0B54F464646D64662
:1056B000C0B584B098460EAB1B7894469946129BB1
:1056C0000D9C109F119E9A0725D4002E65D1BC42D7
:1056D00021D201221A409246202C00D1E9E00C9AF6
:1056E000551E302202E0202C00D17BE001342A55E7
:1056F000A742F8D85246002A0DD0B4420BD20C9AD9
:10570000551E3022202C02D171E0202C2DD00134E6
:105710002A55B442F9D1DA063CD55A052ED4002CCC
:1057200028D10F9A102A00D1B6E0022A00D1BCE09D
:1057300030220C9C227001244A46002A65D15A0767
:1057400000D499E02B220C9D2A55013403930C9B25
:1057500062460093029643460194FFF74FFF04B060
:10576000E0BCBA46B146A846F0BD2024DA06EDD525
:105770005A0503D4A74266D0B44264D00F9A102AC7
:1057800071D0022A57D0202CE0D0220001343025DD
:105790000C9FBD54202CD9D0CEE7012215001D400E
:1057A000AA461A4236D04A46002A4AD10C321A4238
:1057B00047D1BC42A1D2202C91D1202E17D8202431
:1057C000DA06C3D55A051BD4202F01D0202ED5D1FF
:1057D0001F220F9D102D6FD0022DD8D162250C9F56
:1057E000BD54D0E75246002A79D0202EBDD92024BE
:1057F000DA06ABD55A0503D4202FE9D0202EE7D006
:105800000F9A102AA2D12024A0E72D220C9D2A5500
:1058100001349BE7BC4200D37DE7202C00D05EE73B
:10582000DA06F0D55A05EED4202F62D0202EEAD128
:1058300034001F22CDE7202C00D187E7220001345D
:10584000CCE7013EB5E7621E012CC2D10F9A102AA7
:1058500000D06AE79A063BD558220C9C2270283A61
:105860006270022468E79A060ED4202CCBD07822EE
:105870000C9D2A55013486E71A0700D466E72022DA
:105880000C9D2A55013461E7202CBCD058250C9A78
:1058900012191570013476E79A0608D558220C9C27
:1058A000227030226270022446E76032F7E77822E5
:1058B000F5E7002A83D1B3E7A21E013C9D0603D47D
:1058C00078250C9FBD5460E758250C9FBD545CE7BC
:1058D00078220C9C2270483A627002242CE7DA0687
:1058E00000D433E75A058BD4202F00D044E71F2281
:1058F0006FE73C001F226CE710B5002800D110BDF7
:1059000001F012FCFBE7C046F0B557464E4645464F
:10591000DE46E0B599B08246894690460893229AC1
:10592000239B10001900FFF7F6F8002800D0CDE007
:10593000229823990122D94B5242FFF7E7F8002819
:1059400000D0C3E0229823990122D54B5242FFF7A1
:10595000C7F8002800D0B9E022982399002200233C
:10596000FFF7BEF8002800D0F1E1229E239F80239C
:10597000269ADB001A400D92269A1A4201D106237C
:1059800024938023269A1B011A403B0093460996D4
:10599000334300D0B3E0002A00D0C2E1002300244A
:1059A0000A930B94002304250993259B0024AB4202
:1059B00000D95C1B0223269A1A400C92269A1342A5
:1059C00003D06B426B415B421C40099B002B07D00C
:1059D0000A9A0B9B30003900FFF719F806000F00F8
:1059E0002298239900220023FFF77AF8002803D099
:1059F000802109067B181F00269AAA4B0096019762
:105A00001340089E0493249B039402934246330060
:105A10004946504600F0AAF90400002D67D0202026
:105A2000269A4946024013005A4253415B42621C87
:105A300018400A92330022004530D047099A6F1E61
:105A4000D317D4185C40D30F9B46002501E0202DCE
:105A500013D008AA94461F23200063440A2101356D
:105A60005E19FEF787FD3031317020000A21FEF704
:105A700081FD26000400092EE9D8052306930023A2
:105A800004930A3303935B46089E029310AB0A9A71
:105A9000009349463300504605970195FFF704FEF1
:105AA0000C9A0400002A22D04246851A259AAA425E
:105AB0001DD9B046574616002200434649462020CD
:105AC0000135B8470134AE42F6D810E0269B424675
:105AD0000493259B49460393249B50460293229BA3
