:020000041000EA
:1000000000B5324B212058609868022188439860DF
:10001000D860186158612E4B002199600221596106
:100020000121F02299502B49196001219960352056
:1000300000F044F80222904214D00621196600F024
:1000400034F8196E01211966002018661A6600F04E
:100050002CF8196E196E196E052000F02FF8012189
:100060000842F9D1002199601B49196000215960AB
:100070001A491B48016001219960EB211966A021F2
:10008000196600F012F800219960164914480160C1
:100090000121996001BC002800D000471248134993
:1000A000086003C880F30888084703B5996A0420EC
:1000B0000142FBD001200142F8D103BD02B5186610
:1000C0001866FFF7F2FF186E186E02BD00000240BE
:1000D000000000180000070000035F00212200005C
:1000E000F4000018222000A00001001008ED00E03C
:1000F00000000000000000000000000074B24E7A12
:1001000000200420F7010010C3010010C5010010F9
:10011000C1010010C1010010C1010010C101001097
:10012000C1010010C1010010C1010010C701001081
:10013000C1010010C1010010C9010010CB01001065
:10014000CD010010CD010010CD010010CD01001037
:10015000CD010010CD010010CD010010CD01001027
:10016000CD010010CD010010CD010010CD01001017
:10017000CD010010CD010010CD010010CD01001007
:10018000CD010010CD010010CD010010CD010010F7
:10019000CD010010CD010010CD010010CD010010E7
:1001A000CD010010CD010010CD010010CD010010D7
:1001B000CD010010CD010010CD010010CD010010C7
:1001C00000BE00BE00BE00BE00BE00BEEFF3058054
:1001D000103800BEF2EB8871341F0110541F01105B
:1001E0003402001090A31AE700201F49086006C8D7
:1001F00081F3088810471D48006800282FD10DA4FE
:100200000ECC002902D000F012F8F9E71849194A7B
:10021000002000E001C19142FCD1174988471749ED
:1002200088471749884700BEFDE701C901C29A42C5
:10023000FBD37047541F0110C0000020C41A0020D7
:100240005839011000000420000004205839011022
:10025000001004200010042000000000704709482E
:1002600003F01CFC0047000008ED00E0000000D097
:10027000C81A0020101F0020D92700107D0500108B
:10028000972700105756000006005250ABB360533A
:10029000B0FD001006005250861C0302C0FD001085
:1002A000060052505422A29DC8FD00100500525075
:1002B000DE65F46858390110F8B5C04610B5064C33
:1002C0002378002B07D1054B002B02D0044800E017
:1002D00000BF0123237010BDC81B002000000000D8
:1002E00078ED0010044B10B5002B03D003490448EF
:1002F00000E000BF10BDC04600000000CC1B002085
:1003000078ED001010B5002905D0FA2292000023E4
:1003100003F056FC03E0FA21890003F013FC10BD42
:1003200010B5040001F01EFD002903DB20606160B0
:10033000200010BD024B034A3F21034802F02EFA71
:1003400078ED001094ED0010CCED001000B583B0F6
:10035000012801D003B000BD064B9942FAD168468E
:10036000FFF7DEFF00980199FFF7CCFF024B186002
:10037000F0E7C046FFFF0000F01C002000B585B08C
:100380000F226A4410700023009301332721024892
:1003900004F07CFE05B000BD50120020D0B5040072
:1003A0009626B60000273000390001F0FBFB042040
:1003B0002043C0B2FFF7E2FF3000390001F0F2FB4A
:1003C000042320009843FFF7D9FF3000390001F0E3
:1003D000E9FBD0BD70B50F2305009D436DB249B256
:1003E0000D4308231D43EDB204010C4364B21C43CA
:1003F000E4B22800FFF7C2FF2800FFF7CFFF20007C
:10040000FFF7BCFF2000FFF7C9FF70BD10B500214A
:100410000120FFF7DFFF10BD10B5002806D18031A5
:100420000800C0B20021FFF7D5FF10BDC0310800A1
:10043000F7E710B5040003E001340121FFF7CAFF1C
:1004400020780028F8D110BD10B500210320FFF757
:10045000C1FF00210320FFF7BDFF00210320FFF7AC
:10046000B9FF00210220FFF7B5FF00210620FFF7AA
:10047000B1FF00212820FFF7ADFF00210C20FFF77E
:10048000A9FFFFF7C3FF10BDF8B5070014004E1E0B
:1004900011E06421200003F055FB4D006421200091
:1004A00003F050FB04006A1C0A4B9A5CBA55721E9A
:1004B0005B5DBB54023E632CEBD8092C07D964006A
:1004C000621C044B9A5C7A701B5D3B70F8BD303443
:1004D0003C70FBE7CCEE001070B582B005000E1E3C
:1004E0000DD0941B01940F2C0ED82868012C14D029
:1004F000002C14D02200310004F0B8FA0FE0914231
:10050000EFD00B4804F0DEFD002201A9280004F022
:1005100009FE2860019BAB60E7E733780370019A1E
:100520006A602B689B1800221A7002B070BDC0462A
:100530000CEE001008B4F0B582B000AF04000D005E
:1005400011001C23FB1804CBC81DC008C0006E4658
:10055000301A85466E467B60A84732182300083360
:100560002360002331002000FFF7B6FF2000BD46C6
:1005700002B0F0BC08BC01B018470000F0B5CE4690
:10058000474680B5BFB06549654804F053FD032177
:100590000C2000F045FB03210D2000F041FBFFF78C
:1005A00053FFFFF733FF00210020FFF735FF5D48C1
:1005B000FFF73FFF00240F2C0CDC21000120FFF788
:1005C0002BFF5948FFF735FFFA20800001F016FB9A
:1005D0000134F0E7FA246400200001F00FFBFFF77C
:1005E00015FF00210020FFF717FF5048FFF721FFFC
:1005F00000210120FFF710FF4D48FFF71AFF4D487B
:1006000001F0FCFAFFF702FF200001F0F7FA0021E9
:100610000020FFF701FF4848FFF70BFF00210120F2
:10062000FFF7FAFE4548FFF704FF10E0444B454A48
:100630003F21454802F0B2F8FA21890003F082FA1E
:10064000424B1B68C01AFA235B0098420ED8404BFD
:100650001B68002BFBD001F085FB0029E6DBEBD00B
:10066000FA229200002303F0ABFAE9E701F07AFBEB
:10067000002913DB18D0FA229200002303F0A0FA1D
:1006800002900023039301F06DFB002911DB16D0CB
:10069000FA229200002303F093FA14E0284B294A2F
:1006A0003F21294802F07AF8FA21890003F04AFA3A
:1006B000E6E7234B234A3F21234802F06FF8FA2153
:1006C000890003F03FFA06000027214C23689B00B5
:1006D000204A9B58984600210020FFF79DFE236882
:1006E0009B001D4A9D58EB0F9946002D13DB2800F7
:1006F0000124092837D9632834D9FA239B0098426A
:1007000000D2BDE1154B984200D8BBE1144903F07B
:1007100019FA0434EDE76D42E9E7C046A08601000E
:100720005012002038EE00102C1A011048EE001074
:100730005CEE0010B80B000070EE001084EE0010AC
:1007400078ED001094ED0010CCED0010F01C0020AE
:10075000EC1C0020A01100208C1100200F270000AD
:100760001027000001344B46191916AB14932D22A3
:1007700014A804F0F5FC149848442A002100FFF75F
:1007800083FE159A002A00D0002209230093D34B40
:10079000002114A804F062FD040010AB0E9303685E
:1007A00005000835AB4200D16EE10E9383681093CB
:1007B00063680F9325600023636023720F9AC84B10
:1007C0009B1A022B00D865E10322C6490EA804F04B
:1007D00009FE04000AAB0893036805000835AB4224
:1007E00000D15AE1089383680A93636809932560EE
:1007F0000023636023720898FFF71BFE08980AAB7A
:10080000984203D00A9B591C04F03EF90E9810AB95
:10081000984203D0109B591C04F036F9149816AB7B
:10082000984203D0169B591C04F02EF90021012098
:10083000FFF7F2FDAC4B1B689B00AC4A985804F0E4
:1008400025F800900191AA4B3A22AA4926A8FFF761
:1008500071FE279A002A00D0002209230093A64B9C
:10086000002126A804F0FAFC040022AB20930368C0
:1008700005000835AB4200D115E12093836822932F
:10088000636821932560002363602372219A944B4F
:100890009A4200D10DE10122984920A804F0A2FD5E
:1008A00004001CAB1A93036805000835AB4200D165
:1008B00002E11A9383681C9363681B9325600023ED
:1008C000636023721A98FFF7B4FD1A981CAB984224
:1008D00003D01C9B591C04F0D7F8209822AB9842F7
:1008E00003D0229B591C04F0CFF8269828AB9842DD
:1008F00003D0289B591C04F0C7F8002399464046B2
:1009000003F0C4FF7E4A7F4B03F057FB04000D0049
:10091000484603F0BBFF02000B002000290003F053
:10092000CDFB002800D14BE101F01CFA002900DAD0
:10093000C8E000D1CCE0FA229200002303F040F995
:10094000049000230593049A059B921BBB41110060
:10095000002B00D0E5E000D1DEE001F003FA002931
:1009600000DA08E100D10CE1FA229200002303F042
:1009700027F9069000230793069A079B029803998C
:10098000121A8B411100002B04D1B8D19623DB0041
:100990009942B4D300210120FFF73EFD494640466D
:1009A00003F029FF03F072FF00900191504B3A22AF
:1009B000504938A8FFF7BEFD399A002A00D000221E
:1009C000092300934C4B002138A804F047FC040095
:1009D00034AB3293036805000835AB4200D1D5E053
:1009E0003293836834936368339325600023636094
:1009F0002372339A3A4B9A4200D1CDE001223F490B
:100A000032A804F0EFFC04002EAB2C930368050021
:100A10000835AB4200D1C2E02C9383682E93636803
:100A20002D9325600023636023722C98FFF701FD4E
:100A30002C982EAB984203D02E9B591C04F024F81E
:100A4000329834AB984203D0349B591C04F01CF804
:100A500038983AAB984203D03A9B591C04F014F8EA
:100A600001F080F9002900DA9FE000D1A3E0FA222A
:100A70009200002303F0A4F80290002303933EE7C2
:100A8000023470E603346EE61022290010A803F049
:100A9000EDFF8DE61C4804F02DFB102229000AA86A
:100AA00003F0E4FFA1E61022290022A803F0DEFFF4
:100AB000E6E6154804F01EFB102229001CA803F0EE
:100AC000D5FFF9E6114B124A3F21124801F066FEAC
:100AD000FA21890003F036F832E7C04690EE0010A4
:100AE000FFFFFF3FB4EE0010EC1C0020A01100201F
:100AF000B8EE0010513A0010BCEE0010C8EE001025
:100B00009A9999999999C93F9CEE001078ED001037
:100B100094ED0010CCED0010FA239B00994200D216
:100B20001BE7324C324B1968206802F0E3FF3C218E
:100B300002F0E0FF03F088FE011C484603F060FE6F
:100B400081460023236001F00DF9002908DB0DD058
:100B5000FA229200002303F033F806000027FCE697
:100B6000244B254A3F21254801F018FEFA2189002F
:100B700002F0E8FFF1E71F4B1F4A3F211F4801F039
:100B80000DFEFA21890002F0DDFFF2E610222900B5
:100B900034A803F06BFF26E7194804F0ABFA1022E3
:100BA00029002EA803F062FF39E7124B124A3F21B9
:100BB000124801F0F3FDFA21890002F0C3FF5BE760
:100BC000FA20400001F01AF800210020FFF724FC71
:100BD0000C48FFF72EFC00210120FFF71DFC0A48FE
:100BE000FFF727FC094B00221A6030E5D41C0020D7
:100BF0008811002078ED001094ED0010CCED00106D
:100C00009CEE001070EE001084EE0010EC1C002032
:100C100010B502490120FFF799FB10BDFFFF00004E
:100C200010B58300084A944663441C684022624021
:100C3000C02414408022520113431C60C000034BA7
:100C40009C466044416010BD04C00140004001402A
:100C5000034B1B6802201840431E9841C0B27047E6
:100C600000C00640EFF3108072B6034B1B68002BE8
:100C7000FBD0BFF35F8F70472C0100D0BFF35F8FB5
:100C8000024B00221A6080F3108870472C0100D0BC
:100C9000F8B506000C001500FFF7E4FFE308F718AD
:100CA000F15C07222240012393400B4205D1DBB2C5
:100CB0000B433B70FFF7E2FFF8BD2100280001F075
:100CC00007FE0000002307E0054A9A189200BFF3D0
:100CD0005F8F0021116001331F2BF5D97047C0468B
:100CE00040000034054A1078431CDBB21370172B08
:100CF00002D9130010221A707047C046B4110020A8
:100D0000074B9B68103080001950BFF35F8FBFF313
:100D10005F8F044B0021196082F310887047C04632
:100D200000ED00E0240100D010B5091A081F0A4B9D
:100D30009C466144094A914208D8C30706D4401032
:100D40004005400D064B184380B210BD054B064AC6
:100D5000A321064801F022FDFC070000FE0F000061
:100D600000E0FFFFA0EF0010ECF10010D0EF00104A
:100D700010B5091A04394C08090B08D14905490D69
:100D8000064A11430180064B2343438010BD054BA7
:100D9000054AAB21054801F001FDC04600F0FFFF08
:100DA00000F8FFFF08F00010C0F10010D0EF0010B5
:100DB00001238340034A10681840431E9841C0B283
:100DC0007047C04600E100E0002904D0034B1860E2
:100DD000034B18607047034B1860FBE780E200E0AC
:100DE00000E100E080E100E010B50123834018003D
:100DF000FFF7EAFF10BD0000024B9B681030800037
:100E0000C058704700ED00E070B504000D00EFF32E
:100E1000108672B60C4B1B68002BFBD0BFF35F8FA4
:100E20002000FFF7E9FF094B984201D0A84205D105
:100E3000320029002000FFF763FF70BD044B054A14
:100E40008621054801F0AAFC240100D0CD01001044
:100E500018F0001008F20010D0EF0010F0B5CE46E8
:100E6000474680B583B006000D00EFF3108872B6D8
:100E7000564B1B68002BFBD0BFF35F8F544B9A6817
:100E800034001034A300D758524B9F4207D0AF42D2
:100E900000D198E00197504BFB1A2F2B09D94246FD
:100EA00039003000FFF72CFF03B0C0BCB946B04694
:100EB000F0BD3000FFF77CFF814600213000FFF7D6
:100EC00093FFBFF35F8FEFF30581002901D08C42C0
:100ED00011D10123019C9C430022A368AB4212D094
:100EE0000622A256002A0DDB53009B189B0022000D
:100EF000394CE418F1E73621384B394AFF3139488B
:100F000001F04CFC2200AB4256D106256557002D5E
:100F100038DB6B005B199A002F4B9B189A68A26014
:100F2000DA79E27106229A56A2719B795BB2002BA4
:100F30000FDA2D48A0806B005B199B00264AD3185E
:100F40002A4A11789971157049463000FFF74CFF15
:100F5000A5E7201D6B005B199B001F4A9B181A1DFB
:100F60009B88D90A1C2907D15B055B150233590000
:100F70005118FFF7D9FEDDE71D4B1E4AB121194874
:100F800001F00CFC002912D1002A0ED0FF2393712E
:100F9000194B9380154A1378A371184B0E49641AA4
:100FA000644163431B0D1370CEE70A4FF2E7201D27
:100FB0001349FFF7DDFEC7E76A21124B084AFF31EC
:100FC000084801F0EBFB034F69E7C046240100D05D
:100FD00000ED00E0CD010010B81100202CF1001050
:100FE000D8F10010D0EF001001BD00000E1F00204E
:100FF00014F10010F8F1001001BDFFFFAAAA0000D3
:10100000F211002060F1001070B5012101432E4B58
:10101000CB1A2F2B28D8EFF30583002B2BD0EFF31F
:10102000108C72B6294A1268002AFBD0BFF35F8F7A
:10103000274A0400244D641B64416243120D54B2DC
:10104000244A92689B00D2588A421BD00022032A6D
:1010500032D853009B189B001B49CB189B795BB27D
:10106000A3421FD00132F2E7C7211B4B1B4A4900A4
:101070001B4801F093FB92211A4B184AFF31184884
:1010800001F08CFB134A92681749D150174B1A781C
:1010900082711C70BFF35F8F0C4B00221A608CF3BF
:1010A000108870BD0D005300991889006918FF263B
:1010B0008E710F4A8A80E9E7D1210E4B074A490019
:1010C000074801F06BFBC046B8110020240100D096
:1010D000AAAA000000ED00E068F10010A4F10010E1
:1010E000D0EF001090F10010CD0100100E1F002075
:1010F00001BDFFFF9CF100100022044B02E00449F7
:1011000002C30132072AFAD97047C04600E400E062
:1011100080808080024B9C4661448900016070475A
:101120004000003410B50400FFF7DCFD0100200092
:10113000FFF7F0FFFF232371BFF35F8F10BD10B5E2
:101140000400FFF7CFFD01002000FFF7E3FFFF23BE
:10115000237100236371BFF35F8F10BD70B505006D
:101160000C00080000F0FEFE0949200000F03EFEE1
:10117000FFF7B8FD074B9C466044800068602C7503
:10118000D0231B061B786B75A400034BE55070BD84
:10119000A114001040000034DC1C00200A4B1A6827
:1011A000EFF3108172B61368002BFCD0BFF35F8F92
:1011B000054B1B68BFF35F8F00221A6081F3108814
:1011C00040BF002000217047F81E002010B5002904
:1011D00022D003681B7B99421ED8174B9C46614462
:1011E000090183689C4661440C684968002A19D04B
:1011F00003681B7B9A4215D883680F488446624473
:1012000012019A1810685368020001208B4201D81D
:101210000ED00020C0B210BD084B094A3C2109483D
:1012200001F0BCFA054B064A3C21064801F0B6FA2B
:10123000A242EFD8EDE7C046FFFFFF0F18F3001002
:1012400078F50010E4F2001010B500291ED0037BE1
:1012500099421BD84B005B18033B0468A4466344C7
:10126000002919D0002A1DD0914221D0002A25D072
:10127000047BA24222D8046850008018033820184A
:101280008170197800291FD11A7010BD104B114AB6
:101290006821114801F082FA104B114A6F310E4853
:1012A00001F07CFA0F4B0E4A70210B4801F076FAE0
:1012B0000D4B0B4A7121084801F070FA044B054AA6
:1012C0006821054801F06AFA41701A70DDE7C046EE
:1012D0003CF30010E4F5001058F30010A0F30010E8
:1012E000C0F50010ACF30010B8F3001070B50600A4
:1012F0000D001400002914D0002A14D080687368EF
:101300009847002806D0220029003000FFF79CFFF4
:10131000280007E02A0021003000FFF795FF200099
:1013200000E0100070BD0800FCE70000F0B583B0DD
:101330000500009201930AAB1C780BAB1F78002CC0
:1013400026D003685A7B944207D10123002B19D180
:10135000002C3BD1200003B0F0BD002C0CD01A7B38
:10136000944209D81A6863001B19033BD3189B7871
:10137000002BEBD00123E9E73E4B3F4A68213F4871
:1013800001F00CFA3E4B3F4A67213F4801F006FA54
:1013900003689C7B002CDBD012D01A7B94420FD8C0
:1013A00062001219033A19688C46624451789973A5
:1013B000002900D1D9730023937053701370C7E7CD
:1013C0002C4B2D4A68212D4801F0E8F9002C3AD029
:1013D0002B681B7B9C4236D82C4BE3181B01AA6858
:1013E00094466344009A1A60019A5A60089A9A6077
:1013F000099ADA602E68002C2BD030D0337B9C42C7
:101400002DD863001B19033B3268944663440022C5
:101410009A705A701A70717B22003000FFF766FFD5
:101420007073844200D095E7287D009A019B00F0FC
:1014300025FD061E01D0002F17D00C9B002B00D1DC
:1014400088E71E7086E7124B124A3C210E4801F0D5
:10145000A5F9114B114AA521084801F09FF9054B48
:10146000054A6821054801F099F92868210000F033
:101470003DFFE2E73CF30010E4F5001058F30010E4
:10148000D0F30010F0F50010E4F20010FFFFFF0FA2
:1014900018F3001078F50010E0F20010D4F50010F9
:1014A000F0B5DE4657464E464546E0B58BB009904E
:1014B000002308938200B54BD658370052E0B44B56
:1014C000B44A3F21B44801F069F9B44BB44A3C2115
:1014D000B44801F063F9002901D1002869D1002145
:1014E000404600F0F9FEA04219D12A686B680692C6
:1014F0000793AB689846EB689A464346002B14D096
:10150000002C18D03B681B7B9C4214D8631EFA68E1
:10151000D35C08931B0218433861002015E0A24BEE
:10152000A24A8E219F4801F039F9A14B9F4A92218E
:101530009C4801F033F9994B9E4A4121994801F0AA
:101540002DF900239A46984600207B68BFF35F8FF1
:1015500000221A6086F310884346002B32D10028FF
:1015600000D10CE100F0FEFB02000B1EA7DB002007
:101570000021069007917868EFF3108672B6016833
:101580000029FCD0BFF35F8F396888464C7B002C64
:10159000D7D09AD0097B8C4297D8874965182D01FE
:1015A000B9688C46654428686968801A99410029A1
:1015B00091DD2A686B68099800F060FC00239A4668
:1015C0009846C2E7089B1B022343994651461800E0
:1015D000C04705000E007A68EFF3108B72B61368EF
:1015E00059424B41D9B2002BF9D1BFF35F8F002E86
:1015F0001EDB002E46DD3B69002B47D04B456DD1ED
:1016000000F0B0FB02000B1E6EDB52197341002B81
:1016100070DB002B72DB00210491013103910294F5
:1016200051460191414600913800FFF77FFE4CE0A2
:101630003B69002BDDD04B4514D1069A079B521B0A
:10164000B341002B14DB002B16DB00210491013188
:101650000391029451460191414600913800FFF7F1
:1016600065FE32E0554B514AA1214E4801F096F8F3
:1016700001225242524BE6E7454B464A3F2146483B
:1016800001F08CF8002E01D1002DB4D13B68002C64
:1016900050D05A7B944237D1012100294AD1DA7BBC
:1016A000002A4DD19A7B002A03D1DA7B002A5AD135
:1016B0009C73DC73002C5CD03B681B7B9C4258D82D
:1016C000FA68013C135D0133135500233B617A68CE
:1016D000BFF35F8F13608BF3108843E7374B334AB8
:1016E000A421304801F05AF8294B2A4A3F212A48C0
:1016F00001F054F801225242314B8AE7244B254A2B
:101700003F21254801F04AF8002C0DD01A7B944265
:101710000AD862001219033A186884466244927823
:10172000002ABAD00121B8E7264B274A682127486A
:1017300001F034F8264B274AF621244801F02EF810
:10174000002A0AD0197B8A4207D851008A18033A26
:1017500019688C4662445470A4E71A4B1A4A6821EF
:101760001A4801F01BF81C4B1A4AFB21174801F0DC
:1017700015F80A4B0F4A41210A4801F00FF80BB047
:10178000F0BCBB46B246A946A046F0BDDC1C00201A
:1017900078ED001044F50010CCED001018F30010A7
:1017A00078F50010E4F20010F8F300105CF500107A
:1017B00010F400109CF50010FFFFFF0F1CF4001048
:1017C000FFFFFF7F3CF30010E4F5001058F300101A
:1017D00058F40010B0F500107CF4001010B50C4B5C
:1017E0005B68002B04D00A210A48FFF793FC10BD68
:1017F000074C2300084A1021206800F07DFC0320DC
:1018000000F0A4FA03212000FFF7A8FCEBE7C04694
:1018100000120020F81E0020CD11001010B5064B5C
:101820005B68002B01D0044810BD044B044A5E21C4
:10183000044800F0B3FFC0460012002090F40010EE
:1018400084F50010E4F20010F0B5DE4657464E462F
:101850004546E0B58BB0804616001F00149B9A46A3
:10186000159B994616AB1B789B461F2302AA9446EC
:10187000634400221A702BE0002809D04246126807
:10188000127B904204D8421E4146C9688A5C41E0FE
:10189000404B414A4121414800F080FF07984CE00D
:1018A000361BAF41002F07DB002F11DA3C4B3D4ABE
:1018B0003F213D4800F072FF012676423B4FF3E79F
:1018C000374B384A3F21384800F068FF002F4FDB84
:1018D00043465A68EFF3108472B6136859424B417D
:1018E000D9B20791002BF8D1BFF35F8F1F3302AA43
:1018F0009446634404930023039302934B4601935D
:101900005346009332003B004046FFF70FFD031E95
:10191000B2D1020041464968BFF35F8F00250D60D8
:1019200084F31088002B29D01F2302A98C4663441E
:101930001B78002BB2D112021043002B20D05B4643
:10194000002B1DD04946D04704000D0003000B4377
:101950001DD00029A4DB00F005FA06000F1EAFDB46
:1019600036196F41002FB1DA012676420F4FADE7ED
:101970000B4B0C4A3F210C4800F010FF0120404265
:101980000BB0F0BCBB46B246A946A046F0BD0798D6
:10199000F6E7C04618F300109CF50010E4F20010C2
:1019A00078ED001044F50010CCED0010FFFFFF7F34
:1019B000F8B50400002900D162E04268EFF3108519
:1019C00072B6136858424341D8B2002BF9D1BFF325
:1019D0005F8FCBB22268567BB3421BD10120002817
:1019E00048D0206988422BD0090AC9B2002B2ED0DA
:1019F0002068007B83422AD8581EE668305C884203
:101A00002BD000206368BFF35F8F00221A6085F33C
:101A10001088F8BD002B0DD0167BB3420AD85E00AB
:101A2000F618033E1768BC466644B678002ED6D03A
:101A30000120D4E7134B144A6821144800F0AEFE8D
:101A40002C21134B134AFF31134800F0A7FE134B10
:101A5000134A4121104800F0A1FE1900100000F0C7
:101A600045FC0028CED199210E4B0A4A49000A486C
:101A700000F094FE23698B42C4D100232361C1E7A7
:101A80000020C6E73CF30010E4F5001058F3001006
:101A9000B4F400102CF50010E4F2001018F300105C
:101AA0009CF50010D8F40010F0B587B006000F00C8
:101AB000EFF30583002B1FD106246442E517A41918
:101AC0007D418D4202D803D1844201D900240025F2
:101AD000002D14DB0494059500F044F902000B1E60
:101AE00013DBA41A9D41002D17DC14D030003900FF
:101AF00000F044F907B0F0BD234800F0E9FE234BA5
:101B0000234A3F21234800F049FE204B204A3F2131
:101B1000204800F043FE002CE8D0FFF77FFE0023B2
:101B2000029301931C4B0093049A059BFFF78CFED4
:101B3000002818DADAE7002300E00023002BD5D1D3
:101B4000164B1A68EFF3108172B61368002BFCD0A5
:101B5000BFF35F8F114B1B68BFF35F8F00221A60CA
:101B600081F3108820BF0499059A0D4B5B6A9A4255
:101B7000E3D80B48806A884203D29A42DBD0012323
:101B8000DCE70123DAE7C046DCF4001078ED001052
:101B900044F50010CCED00109D110010F81E00203F
:101BA0000040054070B504000D0000F0DBF80200B5
:101BB0000B1E0ADB200029008018594100290ADB8E
:101BC00000290CDBFFF770FF70BD084B084A3F216E
:101BD000084800F0E3FD012040420749F0E7034BCD
:101BE000034A3F21034800F0D9FDC04678ED0010BC
:101BF00044F50010CCED0010FFFFFF7F10B5FA2276
:101C000092000023002102F0D9FDFFF7CBFF10BDA9
:101C100070B584B005000C00EFF30583002B1ED1D6
:101C2000FFF7FCFD002302930193224B00932A004F
:101C30002300FFF709FE061E23DD20BFFFF7EEFDA0
:101C40003100FFF7B5FE1C4B5B6A9C422DD81A4A47
:101C5000926AAA422CD29C4225D0012026E0164B43
:101C60005B6A994209D8144A926A824207D2994221
:101C700001D001201AE0002018E0002016E0012029
:101C800014E00D4B5B6A9C4209D80B4A926AAA4247
:101C900007D29C4201D0012008E0002006E000208D
:101CA00004E0012002E0002000E0002004B070BD4C
:101CB0000120FBE79D1100100040054070B5EFF3D7
:101CC00005801038EFF3108C72B61A4B1B68002B8E
:101CD000FBD0BFF35F8F01221300834016494B6393
:101CE00016490B60164909780C00C440224214D0F2
:101CF000114A546A8200134D5259944206D382000D
:101D0000114C125999430E4B197007E00A4A031DF2
:101D10009B0099589950002200E00022BFF35F8F8A
:101D2000044B002119608CF31088002A00D09047E2
:101D300070BDC046280100D0004005403C70054001
:101D40000F1F0020FC1E0020501C002010B50100B9
:101D5000024A0348FEF79CFF10BDC04610F6001073
:101D60000D1F0020044B5B6A034A906A1900536AF6
:101D70009942F9D17047C04600400540084B5B6A64
:101D800001E0074B5B6A8B42FBD301E0044B5B6ACB
:101D90008B4203D1024B9B6A8342F7D37047C04604
:101DA0000040054070B504000D00FFF7DBFF0200A6
:101DB0000B0020002900801859418B4202D804D121
:101DC000824202D901204042C117002902DBFFF7FD
:101DD000D5FF70BD024B034A3F21034800F0DEFCF3
:101DE00078ED0010B0F60010CCED001070B50400D6
:101DF0000D00EFF3108672B61B4B1B68002BFBD057
:101E0000BFF35F8F002D1CD02000FEF7F5FF174BAE
:101E100083420BD019002000FEF7F6FF01212000BD
:101E2000FEF7E2FF0123A340114A1360A400114B07
:101E3000E550BFF35F8F0C4B00221A6086F31088C9
:101E400070BDA2000B4B0021D1500122A2400A49D3
:101E50000B7893430B7005492000FEF7FFFF00212C
:101E60002000FEF7C1FFE4E7280100D0BD1C0010F0
:101E700038600540501C00200F1F0020F0B5DE46E2
:101E800000B584B00400150001921E000293FFF714
:101E900069FF03958E4202D84ED185424CD9EFF3AB
:101EA000108B72B6274B1B68002BFBD0BFF35F8FE4
:101EB000254A17780125A540EBB23B431370234B0D
:101EC0005D63221D92000199D150A2002049029821
:101ED00050501B6A2B4212D11C4B1B6C2B4208D05A
:101EE0000020BFF35F8F174B00221A608BF310881E
:101EF00023E0184B184AC521184800F04FFCFFF7A3
:101F000031FF8E4214D802D1039B834210D80E4B6E
:101F10001B78BB420ED00D4B1D625D631F20044039
:101F20000123A3400E4A1360074B1F701E38D8E7E9
:101F30000020D6E70120D4E7012004B080BCBB46D6
:101F4000F0BDC046280100D00F1F00200040054012
:101F5000FC1E002034F6001094F6001058F6001015
:101F600080E200E0EFF3108C72B60B4B1B68002B85
:101F7000FBD0BFF35F8F01238340084A13620849F7
:101F80000A789A430A70BFF35F8F034B00221A60EE
:101F90008CF310887047C046280100D000400540EF
:101FA0000F1F002010B500291ED0037B99421BD8BB
:101FB0004B005B18033B0468A4466344002919D016
:101FC000002A1DD0914221D0002A25D0047BA242B4
:101FD00022D80468500080180338201881701978BE
:101FE00000291FD11A7010BD104B114A68211148E9
:101FF00000F0D4FB104B114A6F310E4800F0CEFBBD
:102000000F4B0E4A70210B4800F0C8FB0D4B0B4ADA
:102010007121084800F0C2FB044B054A68210548BD
:1020200000F0BCFB41701A70DDE7C0463CF30010C5
:10203000B0F7001058F30010A0F300109CF7001048
:10204000ACF30010B8F3001070B506000D001400DA
:10205000002914D0002A14D080687368984700289B
:1020600006D0220029003000FFF79CFF280007E07F
:102070002A0021003000FFF795FF200000E010004B
:1020800070BD0800FCE7000010B500234373013366
:102090008373037BC3730123027B9A4214D9002B01
:1020A0000CD0027B934209D85A00D218033A016837
:1020B0008C4662440133DBB25370EDE70B4B0C4AA4
:1020C00068210C4800F06AFB002A09D0924207D828
:1020D000016853009A18033A8A180023537010BD00
:1020E000024B034A6821034800F058FB3CF3001000
:1020F000B0F7001058F3001010B501734260836010
:10210000FFF7C2FF10BD000070B50400081E00D12B
:1021100070BD002934D0237B994231D84B005B1825
:10212000033B2268944663445A78002AF0D02DD0AD
:10213000237B9A422AD853009B18033B21688C4684
:1021400063445D7800215970002825D0237B984294
:1021500022D843001B18033B21688C4663440021AE
:10216000597001002000FFF76FFF060029002000D2
:10217000FFF7CAFF020031002000FFF765FFC7E745
:10218000084B094A6821094800F008FB054B064A3C
:102190006821064800F002FB024B034A682103480D
:1021A00000F0FCFA3CF30010B0F7001058F30010F8
:1021B00070B505000C00160000292FD034D0037B29
:1021C000994231D84B005B18033B02689446634444
:1021D0005A78002A2ED19A78002A31D11978FFF73F
:1021E00093FF0300002E0AD0EA7B002A2ED1AA7B9F
:1021F000002A03D1EA7B002A3BD1AC73EC73002B9D
:102200003DD1002C4FD02B7B9C424CD82B686100D9
:102210000C19033C1C190023637070BD254B264A22
:102220003821264800F0BAFA254B264A682126486C
:1022300000F0B4FA254B204A3A21204800F0AEFACB
:10224000234B1D4A3B211D4800F0A8FA002A0AD062
:10225000297B8A4207D851008A18033A29688C469C
:1022600062445470C3E7164B164A6821164800F0C2
:1022700095FA184B104A4221104800F08FFA002BB3
:102280000BD02A7B934208D843001B18033B2A68D3
:102290009446634400229A70B3E7094B094A6821C7
:1022A000094800F07BFA064B064A6821064800F010
:1022B00075FAC046C8F6001088F70010D0F6001076
:1022C0003CF30010B0F7001058F3001004F70010B2
:1022D0002CF700107CF4001070B504000A00457B58
:1022E0002900FFF765FF6073280070BD70B504001A
:1022F000002967D0437B8B420ED0002911D0037B8D
:1023000099420ED84B005B18033B0268D0188378C3
:10231000002B0CD1002056E00121FFF7DDFF01204A
:1023200051E0294B294A6821294800F037FA002B4F
:1023300020D0227B93421DD85A00D318033B226839
:10234000D2182568EB5C8B421AD0002B1BD0227B65
:10235000934218D85A00D318033B2268D2185378F6
:102360008B4216D0002BF0D11A4B1B4A6B211B4815
:1023700000F014FA144B154A6821154800F00EFAC3
:102380004378137007E0104B104A6821104800F0A2
:1023900005FA4378537000238370437001222000B4
:1023A000FFF706FF0200617B814205D02000FFF7A6
:1023B0004BFE6073012006E0094B074A7121074874
:1023C00000F0ECF9002070BD3CF30010B0F70010F5
:1023D00058F300109CF1001070F70010D0F60010B8
:1023E00050F70010F8B5DE4657464E464546E0B574
:1023F00005000F0092460A9A934250D31A0E914656
:102400001E020A9A00233000494601F0D9FB80469B
:102410006C006419A400304B9C466444636883429A
:1024200000D260602B1FDBB29B46012B3DD9C0233D
:102430009B012343802212011A60AB00274A99585E
:10244000002907D0506901F07DFB431C5800C018DB
:102450000338FDD253465A0123685A40E0231A40FC
:1024600080235B0123431A605A46012A28D980231E
:102470009B012343802212011A6043466360424657
:1024800000233000494601F09BFBAD00134B58512F
:102490000120F0BCBB46B246A946A046F8BD104B91
:1024A000104A3321104800F079F9012FBFD1C02321
:1024B0009B01234303221A60A368DB07FCD5C9E70D
:1024C0002168794003220A401A60A2680123BB40B8
:1024D0001342FAD0CBE7C04600800040601C0020C9
:1024E000BCF7001010F80010D0F7001030B583B022
:1024F0000C2000F011F9FEF7ABFB00280DD00023F3
:1025000004E099002D4A2E4888500133092BF8D950
:102510002A4B2C4A5A6203B030BD2B4B00229A67DB
:1025200000F002F9294B01221A60274B5B6C012B4A
:10253000FBD1274B03221A60234B9B6B012BFBD152
:10254000013300930433234A0121234800F054F857
:1025500005230093214A0121214800F04DF8214B29
:102560000093002202210420FFF73CFF1E4D00953E
:102570002B00002201210520FFF734FF104C0094AE
:102580002300002200210720FFF72CFF00942300E6
:10259000002200210820FFF725FF0A4B00932300AB
:1025A000002200210920FFF71DFF00952B000022CB
:1025B00000210620FFF716FFADE7C046601C002093
:1025C000006CDC021BB70000008000403CB0004003
:1025D00030B00040002F685900800240008C8647D0
:1025E00000C00240001BB700405973078000014B38
:1025F000C0587047601C0020F0B5C64600B5040006
:102600000E0017001D00374801F09CFA8046364B3B
:10261000FA18364B9A4239D80100380001F092FA84
:102620000200103A98235B009A4235D86B1E062BA5
:1026300038D8069B013B062B34D83F09474537D392
:102640002D04069B1A0315432368002B36DB284B09
:102650009C4244D080225201264B1A60264B1A60BD
:10266000264B9B6811009943FAD12660A060231D78
:10267000C02292011A43212313602368002BFCDA45
:10268000E5600823136080BCB846F0BD1C4B1D4AB2
:1026900011211D4800F082F81C4B1A4A19211A48D2
:1026A00000F07CF81A4B174A1C21174800F076F806
:1026B000184B144A2321144800F070F822683F2375
:1026C0001340B342C3D1A3681B051B0D8342BED187
:1026D000E368EE22D2021340AB42B8D1D3E78022A6
:1026E0009201B9E7001BB70080E84BD380F8A9320C
:1026F00000C0024000E0004000F0004000C0004088
:1027000020F800103CF9001080F80010B8F8001014
:10271000D4F8001020F9001080239B000343014AE5
:10272000D362704700800540064BAA2212011A604E
:102730002F22DA60044B054A1A60024B5B68002BBB
:10274000FBDA7047004002400060024000B0FA002F
:1027500000BEFDE703000A4A1268002A08D0084AB2
:102760001068C318074A9A4206D3054A1360704797
:10277000034A05491160F2E701204042F7E7C046ED
:10278000D81C002000000420101F002000207047EB
:1027900001204042704710B5FFF7DAFF10B582B054
:1027A0000C001900002A0CD0084B002A0BD0019213
:1027B000009323000200064802F018FB0120FFF7F7
:1027C000C7FF044BF1E7034AF1E7C04648F90010A0
:1027D00058F9001058EE001070B52B4B2B4A1A60B8
:1027E0002B4B2C4A1A602C4B9A682A4B9343FAD1F4
:1027F0002A4C01E008CC9847294B9C42FAD3FFF7BA
:1028000075FE234B274A1A60234B9B68DB43DB0191
:10281000FAD1254B40229A675A671A67DA66234C29
:1028200009E0234B234A87212348FFF7B7FF200005
:10283000FEF778FC0834214B9C4209D22368002B18
:10284000F5D0012BEDD12000FEF779FC0834F2E73A
:102850001B4CA1681B4DC022280002F007F9A5609F
:10286000EFF30583002B00D000BEFEF72BFAFEF736
:1028700043FCFEF7B3FF144C01E008CC9847134B20
:102880009C42FAD370BDC04600E00040BFCDFBFEC5
:1028900000F00040FE7F3C0000C00040A81A00206D
:1028A000B81A0020FFFFFF0100F00140A01A00202D
:1028B00088F90010F4F90010A8F90010A81A0020F7
:1028C00000ED00E000000020B81A0020C41A00202B
:1028D0000FB400B583B0084802F058FA049B002BEF
:1028E00007D005A90191180002F060FA034802F030
:1028F0004DFA0120FFF72CFFE4F90010D800011079
:102900009A4200D288547047704710B5002802D010
:102910000B684968984710BD0100002007E083005C
:102920001B185B00501C08601078C01830380A680B
:102930001378303BDBB2092BF1D97047F0B5DE4696
:1029400057464E464546E0B583B093461F000C9B64
:102950009A460D9C0E9B99460F9B9B0703D0B84649
:102960000F00060022E00192A34688464E46B94673
:102970000700B44207D2551C4B4641462020B847B9
:1029800001342A00F5E73D004F465C46019B9B461B
:10299000B1464646B84637002E0007E0013C551CBC
:1029A0005346185D43463900B0472A00002CF5D144
:1029B00035003E0047460F9B9B0707D4100003B02D
:1029C000F0BCBB46B246A946A046F0BDB0464E4656
:1029D000B9462F005D46531BB342EFD2541C4B4601
:1029E00041462020B8472200F5E7F0B5CE464746DD
:1029F00080B585B0944698460C9D0D9C0EAB1B7817
:102A00009946109A119B129EB7071CD4002B0CD02C
:102A1000F7070AD54F46002F02D10C37374204D0B2
:102A2000013B02E030272F550134944201D21F2C84
:102A3000F8D9F70707D59C4205D21F2C03D83027B9
:102A40002F550134F5E7F70615D5770505D4002C89
:102A500003D0944224D09C4222D00F9A102A2BD02B
:102A60000F9A102A30D00F9A022A35D01F2C02D884
:102A700030222A5501341F2C05D84A46002A31D06D
:102A80002D222A5501340396029301940095434662
:102A90006246FFF753FF05B0C0BCB946B046F0BD73
:102AA000621E012C06D00F9F102F01D01400D4E716
:102AB000023CD2E71400D0E7B206D1D41F2CCFD805
:102AC00078222A550134D1E7B206CCD51F2CCAD8BA
:102AD00058222A550134C9E71F2CC7D860322A551D
:102AE0000134C3E7720703D52B222A550134CAE704
:102AF0003207C8D520222A550134C4E7F0B5DE4696
:102B000057464E464546E0B593B081468A46089200
:102B100009931CAB10CB1B789B461E9D219B9846AE
:102B2000002C03D1102342469A4390468023DB00B9
:102B300046461E4042461A4212D0002C22D00026A1
:102B40000EE03033D9B2771C0AAB9955290020002A
:102B500000F0F8FFAC4216D31F2F14D83E0004003B
:102B60002900200000F0EEFFCBB2092BE9D9424644
:102B7000920605D54121C918C9B20A39C9B2E2E79E
:102B80006121F8E7270043460693209B05931F9B8E
:102B9000049303955B46029301970AAB0093099B4C
:102BA000089A51464846FFF720FF13B0F0BCBB46D9
:102BB000B246A946A046F0BDF0B5DE4657464E46A1
:102BC0004546E0B595B0089009910A920B931E9E78
:102BD0001F9C20AB1B789B46229B9946239D269BDE
:102BE0009A463300234303D1103352469A43924608
:102BF0008023DB0057461F4052461A4219D033004B
:102C000023432DD0002714E03033DAB27B1C9846E2
:102C10000CABDA554A462B003000210000F0D0FF03
:102C2000A5421FD819D043461F2B1BD84746060084
:102C30000C004A462B003000210000F0C1FFD3B247
:102C4000092BE1D95246920605D54122D218D2B2BB
:102C50000A3AD2B2DAE76122F8E7B145E3D901E0F6
:102C60000023984653460693259B0593249B049383
:102C70004B4603935B460293434601930CAB009390
:102C80000B9B0A9A09990898FFF7AFFE15B0F0BCA4
:102C9000BB46B246A946A046F0BD0000F0B5DE46F0
:102CA00057464E464546E0B591B083468A460C925B
:102CB00098461A9C08941B9D099522002B00200021
:102CC000290001F008FA002800D0E5E00122524274
:102CD000D74B2000290001F0F9F9002800D0DBE0F3
:102CE00001225242D34B2000290001F0D9F90028DB
:102CF00000D0D1E000220023089E3000099D290069
:102D000001F0CEF9002800D0DDE00898099906907E
:102D100007918023DB001E9A1A400D921E9A1A42D8
:102D200001D106231C930698079904000D000A00A0
:102D30000600024300D1D1E0080D4005400DBE4C15
:102D4000A44660440A03120BBC4B13431F0001F05E
:102D5000D5F9BB4ABB4B01F060F9BB4ABB4B01F054
:102D600035F904000D000022B94B3000390001F0A4
:102D700024F9B84AB84B01F050F902000B002000CA
:102D8000290001F023F901F0D1F9814601F0B6F9EB
:102D900004000D00B14AB24B01F03FF90022B14BE3
:102DA00001F014F901F0C2F90600AF4AAF4B200060
:102DB000290001F032F904000D00300001F09EF905
:102DC000AB4AAC4B01F029F902000B0020002900AE
:102DD00001F0F3F804000D0002000B0001F01DF9F2
:102DE0000A900B91A44BF31800261F0522002B001C
:102DF0002000290001F0EAF80E900F9122002B002C
:102E000000208021C90501F0D8F804000D0000223F
:102E10009A4B0A980B9901F0E2F80022984B01F0C6
:102E2000D5F802000B000A980B9901F0D8F800229F
:102E3000944B01F0CBF802000B000A980B9901F0BB
:102E4000CEF802000B002000290001F0BFF80200BC
:102E50000B000E980F9901F0C2F80022774B01F099
:102E6000B5F832003B0001F0D8F806000F0004006E
:102E70000D00069A079B01F029F9002830D00123A4
:102E80005B429C46E14400227D4B3000390001F05A
:102E9000A6F804000D0023E01E9B04931D9B0393E2
:102EA0001C9B0293089A099B0092019343460C9A3B
:102EB0005146584600F0FCF811B0F0BCBB46B24693
:102EC000A946A046F0BD0023002406930794069669
:102ED00080231B069C46654407951AE70023994604
:102EE0004B466333C62B1ED804261E9B1B0526D5D6
:102EF0002B0023430FD0644A644B0698079901F0D6
:102F0000DDF8002879D00022614B0698079901F07E
:102F1000C7F8002871D01C9B4B4506DD4A46981A1D
:102F2000431E1C9303E00526DFE700231C93802348
:102F3000DB001E9A1A431E920026002399461D9B11
:102F40009E4264D29F1B02231E9A1A400A921E9A26
:102F5000134202D0002E00D000274B46002B07D092
:102F600022002B000698079901F039F80690079186
:102F7000002200230898099901F092F8002848D10E
:102F8000444B1E9A1340049303971C9B0293069B89
:102F9000079C0093019443460C9A5146584600F012
:102FA00087F8002E00D187E71E9B9B063DD545255F
:102FB000441C4346020051462800D8474B46DA17C6
:102FC0009B18534005220592013E0496002203926D
:102FD0000A3202924A46D00F0190009343462200E3
:102FE00051465846FFF78AFD0A9B002B00D163E744
:102FF00002005F460C9E1D9D54E01C9B002B9ED042
:103000000D9B002B9BD01C9B013B1C9397E700273B
:1030100099E7069C079D220029008020000684462F
:1030200061440B0006920793AAE76525C0E7C046F6
:10303000FFFFEF7FFFFFEFFF01FCFFFF0000F03F0E
:10304000FB799F501344D33FB3C8608B288AC63F97
:103050000000F83F61436F63A787D23F71A37909EE
:103060004F930A400000E03F1655B5BBB16B0240DC
:10307000EF39FAFE422EE63FFF03000000002C402D
:1030800000002440000018402D431CEBE2361A3F9C
:1030900080842E41FFF7FFFF541C434651462020F9
:1030A000B8472200931BAB42F6D3100004E7C0469A
:1030B000F0B5DE4657464E464546E0B595B006901B
:1030C000079193469946209F1E9A1F9B1000190056
:1030D00001F001F8002831D101225242BF4B1E9865
:1030E0001F9900F0DDFF002837D101225242BC4B6E
:1030F0001E981F9900F0EAFF00283DD10022B94B2D
:103100001E981F9900F0E2FF002850D10022B64B14
:103110001E981F9900F0C4FF002848D10022002308
:103120001E981F9900F0BCFF002850D1002398463C
:10313000229B5B0500D4B6E0002458E0229B039359
:10314000219B029303230193A84B00934B465A46BD
:1031500007990698FFF7F2FB0EE1229B0393219B50
:10316000029304230193A24B00934B465A460799BE
:103170000698FFF7E3FBFFE00423229A1A40229906
:103180000B4210D09B4B002A0FD0042222990391AE
:1031900021990291019200934B465A46079906984D
:1031A000FFF7CCFBE8E0944BEDE70322EEE7229B30
:1031B0000493219B039302971E9B1F9C00930194F1
:1031C0004B465A4607990698FFF768FDD4E01E9AC9
:1031D0001F9B0020002100F0F0FE1E901F91012394
:1031E0009846A5E70CAB30221A55013F01341F2C3D
:1031F00001D8092FF6D81E981F9900F097FF0500F7
:1032000000F07CFF02000B001E981F9900F0D5FE15
:10321000FA007A4B9B181A685B680A920B9300F0CD
:10322000FCFE0890099100F0A5FF060000F062FF87
:1032300002000B000898099900F0BFFE0890099160
:1032400000226F4B00F042FF00282ED001363000E4
:1032500000F050FF02000B000A980B9900F026FFC7
:10326000002801D001350026002F2CD1280000F0C5
:1032700045FF02000B001E981F9900F09EFE0600FD
:103280000F0000225E4B00F00BFF002846D1002209
:103290005B4B3000390000F019FF00283ED1EB07EE
:1032A0003CD501353AE0062746E70022544B089802
:1032B000099900F0F5FE0028D6D1002E01D0F307C1
:1032C000D2D50136D0E7AA461F2C11D8013F0A21DA
:1032D000300000F037FC651C30310CAB19550A2169
:1032E000300000F02FFC092E0ED906002C00EBE771
:1032F00055461F2C0CD87B1E002F09D00CAA30215C
:1033000011551F000134F4E72B0055461C00F0E76F
:103310001F2C03D80CAB2E221A5501341F2C10D8A9
:103320000A21280000F0E6FB661C30310CAB195571
:103330000A21280000F0DEFB051E01D03400EDE775
:1033400034000323229A1340012B1CD01F2C06D8D3
:103350004346002B32D00CAB2D221A550134229B50
:103360000393219B029301940CAB00934B465A4666
:1033700007990698FFF7E2FA15B0F0BCBB46B246D3
:10338000A946A046F0BD219B002B13D04346002B3D
:1033900002D10C3313420FD0219B013B2193190022
:1033A00003E00CAB30221A5501348C42CED21F2CD4
:1033B000F7D9CBE72199F8E72199F6E7229B5B073C
:1033C00004D50CAB2B221A550134C8E7229B1B07EE
:1033D000C5D50CAB20221A550134C0E7FFFFEFFF23
:1033E000FFFFEF7F65CDCD4165CDCDC110FA001057
:1033F00014FA001008FA001004FA001000FC001083
:103400000000E03FF0B5DE4657464E464546E0B583
:1034100093B082468B4690461193002900D1EBE28F
:1034200000275546119B1878002800D1E7E225288F
:1034300009D07C1C43463A005946A847119B0133EA
:1034400011932700EEE7013311930024119A1178AC
:103450000B00203BD8B2102803D88300D048C358B3
:103460009F460B00303BDBB2092B2CD92A292FD0E9
:1034700000230A93119B1A782E2A39D000239A46EA
:10348000119A1378683BD9B2122976D88B00C549B6
:10349000CB589F4601231C4301321192D6E70223E9
:1034A0001C4301321192D1E704231C4301321192D3
:1034B000CCE708231C4301321192C7E710231C43B9
:1034C00001321192C2E711A8FFF726FA0A90D1E75C
:1034D0001C9B1A1D1C921868002804DB0A90119B83
:1034E00001331193C6E702231C4343420A93F6E7D4
:1034F0008022D20014435A1C11925A781300303B98
:10350000DBB2092B04D92A2A07D000239A46B7E751
:1035100011A8FFF701FA8246B2E71C9B1A1D1C9204
:103520001868002804DB8246119B01331193A7E73A
:103530000020F8E780235B002343511C119152784F
:103540006C2A01D01C0018E0C0239B001C430131F1
:10355000119112E080232343511C11915278682A63
:1035600001D01C0009E0C0231C430131119104E08B
:1035700080235B001C4301321192119B18780300D9
:10358000253BDAB2532A00D92CE29300864AD3585D
:103590009F4680239B001C4301321192EDE780235C
:1035A0005B001C4301321192E7E7782809D05828C4
:1035B00038D06F2838D0622838D010239C430A2690
:1035C00000E01026582833D0692803D0642801D0A1
:1035D0000C229443630501D50122944369282AD023
:1035E000642828D0A30500D59FE0E30500D5B8E006
:1035F000630600D4CAE01C9A111D1C911168FF22B9
:103600000A4005940A9B04935346039302960023B1
:103610000193009243463A0059462800FFF76EFA9C
:10362000070027E01026CDE70826CBE70226C9E7EA
:1036300020221443C8E7A30520D4E30550D4630631
:1036400066D51C9A111D1C911168FF220A40D317E0
:10365000D118594005940A9B04935346039302964C
:10366000D20F0192009143463A0059462800FFF7D5
:1036700045FA0700119B01331193D3E61C9BDA1D19
:1036800007218A43110008311C91116853689C4638
:10369000DB170C930D930C9A0D9B100048400E9075
:1036A000624653400F930E980F990C9A0D9B801A07
:1036B00099410E900F9108940A9B079353460693E5
:1036C0000496002305936346DA0F0292009001915D
:1036D00043463A0059462800FFF76EFA0700C9E74B
:1036E0001C9A111D1C911268D317D11859400594CA
:1036F0000A9B0493534603930296D20F01920091C2
:1037000043463A0059462800FFF7F8F90700B1E7A9
:10371000230605D51C9A111D1C910023D25E96E745
:103720001C9A111D1C91126891E71C9BDA1D072140
:103730008A43110008311C9108940A9B0793534651
:10374000069304960023059302931368546800932C
:10375000019443463A0059462800FFF72DFA070026
:1037600088E71C9A111D1C9105940A9B04935346EB
:1037700003930296002301931368009343463A0093
:1037800059462800FFF7BAF9070073E723060DD55D
:103790001C9A111D1C9112681204120C31E7C046CC
:1037A0001CFA001060FA0010ACFA00101C9A111DEF
:1037B0001C91126825E746281AD01C9B0733072264
:1037C00093431A0008321C9204940A9A03925246B8
:1037D00002925C681B680093019443463A00594684
:1037E0002800FFF765FC0700119B0133119319E6D0
:1037F00020231C43E1E7672801D0472802D180231A
:103800001B011C43452801D0472801D120231C431C
:103810001C9B0733072293431A0008321C9204941E
:103820000A9A0392524602925C681B6800930194C4
:1038300043463A0059462800FFF730FA0700119B2B
:1038400001331193EEE502231A00224092462342EF
:103850001FD001241C9B1A1D1C927A1C91461878BB
:1038600043463A005946A8475346002B16D1119BB0
:10387000013311934F46D5E5561C43465946202047
:10388000B847230032005C1C9D42F5D83D0017006C
:10389000E0E701233A002F000A9DF4E74A46A946D3
:1038A0000A9D06E0571C434659462020C84734006D
:1038B0003A00661CA542F5D84D469146D7E71C9BB9
:1038C0001A1D1C921B6899465346002B00D1013BE0
:1038D0004E4601E0013613003278002A02D05A1E0B
:1038E000002BF7D14B46F21A10928023DB00260002
:1038F0001E401C4203D0524501D953461093022367
:103900001A0022400B92234205D03A0037004C4661
:10391000A946554620E03A00109B5F46B3462E006C
:1039200006E0551C434639002020B04723002A00FA
:103930005C1C0A999942F4D835005E46BB46109447
:1039400037004C46A946554606E01D000134561C7A
:1039500043465946C84732002078002804D0002F3B
:10396000F4D06B1E002DF0D117004D460B9B002BA1
:1039700003D1119B0133119354E50A9F109B06E07C
:10398000561C434659462020A847230032005C1CA1
:103990009F42F5D81700ECE721231C431C9B1A1DFE
:1039A0001C921B68009305940823049353460393C9
:1039B000102302930023019343463A0059462800FE
:1039C000FFF79CF80700119B013311932AE57C1C3B
:1039D00043463A0059462520A847119B01331193CD
:1039E00027001FE57C1C43463A005946A847119B17
:1039F00001331193270015E50A4B9A4610E5AA46B4
:103A0000474502D343465A1E00E03A004346594612
:103A10000020D047380013B0F0BCBB46B246A946E0
:103A2000A046F0BD092900100EB410B585B0010004
:103A300007AC08CC03940122009452420348FFF7DC
:103A4000E1FC05B010BC08BC03B018470129001008
:103A500000B583B0009313000A0001000248FFF78D
:103A6000D1FC03B000BDC0460129001000B585B0EF
:103A7000029003910121009313004A4202A90248D7
:103A8000FFF7C0FC05B000BD0B2900100148042160
:103A9000014B184730120020BD3A001010B501004C
:103AA00018231B8814221088984710BD10B50100F8
:103AB00018231B8816221088984710BDF0B5C646FB
:103AC00000B507000E0000250123984600E00135EF
:103AD000B5420AD2AC003C192068FFF7DFFF206036
:103AE0000028F4D100239846F1E7404680BCB84650
:103AF000F0BD0000124A936F9B0815D29066D16604
:103B0000002905D0FFE7FFE7FFE7516F106F70470F
:103B100004B580210906C2175140002800D0C843CF
:103B20000BF0E2F8002104BDF0B5146E556E576F2E
:103B3000166FFFF7E3FF1466556657671667F0BD0B
:103B4000000000D0114A936F9B0813D21066516693
:103B5000002905D0FFE7FFE7FFE7516F106F7047BF
:103B600004B5002801D00020C0430BF0BDF80021AF
:103B700004BDC046F0B5146E556E576F166FFFF753
:103B8000E5FF1466556657671667F0BD000000D064
:103B900094464A4A926F9208624601D228E0C04693
:103BA000F0B5464E346E756E776F366F00F020F8C4
:103BB0009446424A14665566576716676246F0BDDA
:103BC00094463E4A926F9208624601D254E0C04643
:103BD000F0B53A4E346E756E776F366F00F04CF874
:103BE0009446364A14665566576716676246F0BDB6
:103BF000002B24DB11D000293EDA00B5C943404236
:103C000000D1013100F038F8C943404200D1013100
:103C1000DB43524200D1013300BD002AEBD1002822
:103C200001D1002905D00020C90FC90701D1C04327
:103C3000410800B50BF030F80022002300BD00B5AC
:103C400000290ADBDB43524200D1013300F014F8B3
:103C5000C943404200D1013100BDC943404200D1B7
:103C60000131DB43524200D1013300F005F8DB4360
:103C7000524200D1013300BD002923D1002B18D1BD
:103C8000002A0CD0BC460D4F38667A66002100230E
:103C9000FFE7FFE7FFE77A6F386F67467047002856
:103CA00001D00748010000B50AF0F6FF002200230A
:103CB00000BD02000B00002000217047000000D072
:103CC000FFFFFFFF002B00D0BFE0130C28D1002A1C
:103CD000E7D080B4114F39667A66FFE7FFE730B46A
:103CE000040C7B6F396F1B0423433B667A66FFE746
:103CF000FFE7FFE7C04684B27B6F3D6F1B042343A1
:103D00003B667A66FFE7FFE7C04600232C042D0CD4
:103D10007A6F386F00196941B0BC7047000000D05D
:103D2000F0B594460025140E01D112020835140F87
:103D300001D112010435940F01D192000235D40F44
:103D400001D152000135D40B0134254F7C66254C3E
:103D50003C660E0C93B2FFE7FFE7FFE73C6F66435C
:103D6000360C7703BE467343DF0B5B04C01AB941C0
:103D7000130C7343DB18C91ACE086643360CB644DD
:103D800093B273431F0F1B01C01AB941130C734345
:103D90001F0B1B05C01AB941860D8F023E436643B7
:103DA000360C092D24DB520A7243801A7703460A27
:103DB0006643360C16235B1BDE40DF40BF196446AA
:103DC0006643821B7046043506330100D940A84083
:103DD000C01900D30131A24206D20023F0BD000079
:103DE000000000D0FFFFFFFF121B0130F3D3F1E70B
:103DF00009277F1BFE406446A2B27243801A00D29C
:103E00000139220C7243130C1204821A99410B00DF
:103E10007046043513370100F940A840801900D3DB
:103E20000131002B02D1A2420AD2F0BD013000D3F1
:103E30000131121BFAD2013BF8D1A24200D2F0BDEF
:103E4000013000D30131121BF7E7F0B51C0C00D094
:103E500080E00CB400251C0A04D11B02160E33436B
:103E6000120208351C0B04D11B01160F334312013B
:103E700004359C0B04D19B00960F3343920002350E
:103E8000DC0B02D192185B4101351C00971864418C
:103E90000134464F7C66464C3C660E0CFFE7FFE75C
:103EA000FFE7C0463C6F6643360C7703BE4697B2C9
:103EB0007743C01B00D20139C01B00D201399FB229
:103EC0007743C91BC91B170C77437E04FF0B801B6C
:103ED000B941CE086643360C0C2D33DBB644120BC9
:103EE0001F053A431B0B97B27743C01B00D2013921
:103EF0009FB27743C91B170C77433E043F0C801BCE
:103F0000B941860D8F023E43664329277F1BFE4041
:103F10000C3D7746AF40BF1930BCA2B2ABB2724382
:103F20007343801A9941220C7243130C1204801AB5
:103F3000994102000B000137001BA941F9D2781EFC
:103F40000021F0BD0C277F1BFE4077467F0BAF4062
:103F5000FF19E0E700245D1C07D0144F7D66396629
:103F6000FFE7FFE7FFE7FFE73C6F95B29EB26543CF
:103F70006643401BB141150C1E0C65436643360475
:103F80002F0C3E432D04401BB141994204D2020044
:103F90000B0020000021F0BD01D19042F7D3801A20
:103FA000994101349942F2D3F6E70000000000D0B5
:103FB000FFFFFFFF48404140484018B41B4B5B687F
:103FC000FC46019308BD04DF8F42001018B4174B64
:103FD0001B68FC46019308BD00DF9942001094461F
:103FE000134A926F920809D2624618B40F4BDB68ED
:103FF000FC46019308BD0CDF514500100C4AF0B59A
:10400000146E556E576F166F6246FFF7EEFF084A43
:104010001466556657671667F0BD18B4034B9B6866
:10402000FC46019308BD08DFF5430010F41C002096
:10403000000000D0FFB550404240504059404B4036
:10404000594000E0FFB5154F4C00640D03D0BC4251
:1040500004D10C0314D80020090D09055C00640D7F
:1040600003D0BC4204D11C030AD800221B0D1B053F
:1040700001264B4009D44B4003D58B4200D18242EC
:10408000FFBD9942FCD19042FFBD0B43DB180343B7
:104090001343F5D0C9434918FFBD0000FF070000D6
:1040A00000B5FFF7CFFF804100BDC04600B5FFF768
:1040B000C9FF01D9002000BD012000BD00B5FFF7F8
:1040C000B9FF01D9002000BD012000BD00B5FFF7F8
:1040D000B1FF804100BD012040054A00121804D8FC
:1040E0005A00121801D800207047012070470020A4
:1040F000704700000021002805D17047C1174840D3
:10410000401AFAD0C90713B5064B1B6898470CBC78
:10411000441CA2401005120B0349091B0905194351
:10412000114310BDF41D00201F04000010B54C0009
:10413000620D8023D218DB00D21A5B057E2A10DDC7
:104140009E3A13DACC170903490819435242D14069
:10415000640001341532202A05DAD0400843604358
:1041600010BD002010BD0846604310BDC80FC01828
:10417000013810BD18B4044B5B6AFC46019308BDBE
:1041800024DF014700100000F41C002070B5132349
:104190001C78012C14D0012C14DC022C02DC1F4AE8
:1041A0001F4B9A641F48FFF779FC1F4B186070BDC6
:1041B00099001A481A4A885001331F2BF8D9EAE7A8
:1041C0000023FAE71948FFF771FC05001848FFF7CC
:1041D0006DFC023803789B007F2B19DD80222900BB
:1041E0000F4800F043FC022CD7D1124B1A88B5239C
:1041F0001B029A4209D1104B1A88104B9A4204D1E3
:104200000F4B1A880F4B9A42C7D00020FEF760FB75
:104210000D4B0E4A32210E48FEF7C0FA55420010EF
:10422000F41C00204C330000F41D00205344000017
:104230005346000054380000D838000049460000BA
:104240009C3800005946000050FC0010E8FC0010AB
:10425000A4FC001007B56046002800D100BE01880C
:104260000A0A0230DF2AFAD1C9B2820804D30288CE
:1042700040880004104300E00068024A5050039058
:1042800007BD0000F41C00200FB403BC0CBCF0B54B
:104290000124E407634000E0F0B50C0DCF0F661E6B
:1042A0003605891B640503D3C943404200D301315D
:1042B000640D03D0661CF60A07D0E41B00207F00C3
:1042C000791C89078912803C24031D0DDF0F6E1EA7
:1042D00036059B1B6D0503D3DB43524200D30133EC
:1042E0006D0D03D06E1CF60A07D0ED1B00227F0077
:1042F0007B1C9B079B12803D2D032F1B661B58D4F4
:10430000A446202E46DA20371400BC401D00BD40D4
:10431000F24033412A4380185941CB0F05D0C9439D
:10432000C043002264425041514162464D0D28D1A4
:104330000D0D07D100281FD0241940414941013AF1
:104340000D0DF9D0640006D3013000D30131002CEB
:1043500001D140084000013A0BD4941CE40A04D176
:1043600012051144DB071944F0BDD907204B19434E
:1043700000E0D9070020F0BD0029DDD1002CDBD101
:10438000F0BD0132C6074008CD0728434908002E7A
:10439000E1D0D9E73C2E29DA203E40371400BC405A
:1043A00000D00124F24014431A00BB401C43D31731
:1043B000ACE7AC46202F08DA20360400B4400D00EC
:1043C000B540F84039412843A5E73C2F0CDA203F9F
:1043D00040360400B44000D00124F84004430800F3
:1043E000B1400C43C117EAE710001900002494E71C
:1043F0000000F07FF0B50C0D661E3605891BE60A3D
:104400006405640D02D0651CED0A04D00020012172
:104410000905803C2403A4461C0D671E3F05DB1BD9
:10442000E70A6405640D02D0651CED0A04D0002281
:1044300001231B05803C24037740644497B484B275
:1044400096B27443070C7E43150C6F4380B26843E9
:10445000361802D3012000043F183004350C00192F
:104460007D41844688B29AB250430C0C62431F0CC3
:104470007C438EB27E43921902D301263604A419DE
:104480001604170C3618674101BC81B29AB2514329
:10449000040C62431B0C5C4380B25843121802D3D5
:1044A0000120000424181004130C401863412D1837
:1044B0005E410020474106BC88B293B258430C0CC1
:1044C0006343120C544389B251435B1802D3012158
:1044D0000904641819041A0C091862416D18564130
:1044E0000020474118BCF902720D1143F0026A0D19
:1044F0001043ED020A0D03D16D1940414941013BC2
:10450000124E9B1B7600B3420ED26D0007D30130D2
:10451000002671416646354301D1400840001B0525
:10452000C918E4072144F0BD0BDA013306D101308C
:1045300004D101314F0D01D04908F2E7E107002015
:10454000F0BD013631050020EBE70000FF0300005D
:10455000F0B51C0D671E3F05DB1BE70A6405640D03
:1045600002D0661CF60A04D0002201231B05803C01
:104570002403D0252D060026F6432E661E096E66FE
:10458000CE0FF619B44649004F0D02D07E1CF60A34
:1045900003D000200021403F3F033E1BB600B4443F
:1045A000013F7F05C91B49082E6F013676089C0222
:1045B000950D25437543ED137543AD1301356D100E
:1045C000F603761B0CB4CC02450D2C43A2B2B3B259
:1045D0005A43270C7B43350C6F43A4B26C431B1921
:1045E00002D3012424043F191C041D0CA4187D418E
:1045F00024196D41009A91B2ACB26143170C7C430F
:104600002B0C5F4392B25A43A41802D30122120426
:10461000BF182204230C52187B41019C6C431B19C8
:10462000520ED9010A434401A01A81B2B2B25143D9
:1046300003145A43360C734387B27743D617D21903
:1046400000277E4136049B191704160C7F185E4123
:104650007316ED18F301002680337541A90F06D1BA
:104660006400690AE8055B0A184309D22FE00422B6
:10467000944480337541A90AA8059B0A184326D3A0
:10468000404149412404009A019B0D005543641B9D
:104690004343E41A95B286B27543170C7E43030C6C
:1046A0005F4392B25A43B61802D301221204BF18D4
:1046B0003204330C52197B4152429C41002C02D4EB
:1046C0000022013051414008CA071043490802B096
:1046D0006246D7079210084BD218084B9A4203D271
:1046E00012058918C919F0BD0020002A01DC390023
:1046F000F0BD01331905F5E7FD030000FE070000DA
:10470000002200B5203200F004F8080000BD0000CF
:1047100000220B150AD410B5944600F031F8141499
:10472000013400DA0021CB17144C2047002000216F
:1047300070476244343A0CD40C2A07DA04009140E2
:10474000904052422032D440214310BDD843D94337
:1047500010BD203207D40C46944052422032114101
:10476000D040204310BD0800C917203203D4524264
:104770002032104110BD1800190010BD3347001041
:104780000A0DCC0F531E1B05C91A520503D3C9438A
:10479000404200D30131520D03D0531CDB0A07D035
:1047A000121B00206400611C89078912803A1203E1
:1047B000014BD21A70470000FF03000051434343EE
:1047C000C9188C46110C83B24B4310B4040C6143DE
:1047D00092B280B2504362431C041B0C001910BCFF
:1047E00059411304120CC018514161447047000034
:1047F00048404140484000239C46114B5B681847A5
:1048000000239C460E4B1B6818470E4A936F9B086B
:1048100004D200239C460A4BDB681847F0B5146E9F
:10482000556E576F166FFFF7F4FF064A146655660C
:1048300057671667F0BD00239C46014B9B681847DD
:10484000F81D0020000000D0C10FC90700D540426C
:10485000002817D0F44603B40B4B1B68984706BCDE
:1048600081409E384042803107D20B0607D0490074
:10487000490AC0051043084360470130F8E7490A78
:104880008902F5E770470000F41D0020034BDB6F41
:10489000FC4618477CDFD14900100000F81D0020BD
:1048A00070B513231D782A48FFF700F90400012D85
:1048B00011D0012D09DDA31E1B789B007F2B40DD4D
:1048C00080222100234800F0D1F82348FFF7E6F8C2
:1048D000224B186070BD542201001E4800F0C6F83B
:1048E0001F4B1A881F4B9A421CD1A7239B011A8881
:1048F0001D4B9A4216D11D4B1A881D4B9A4211D15D
:104900001C4B1A8894239B019A420BD11A4B1A888C
:104910001A4B9A4206D11A4B1A681A4B9A4201D185
:10492000152307E01848FDF7D3FF99001748094AF7
:10493000885001331F2BF8D9144A064B1A62DA61EA
:10494000B7E7134B134A42211348FDF727FFC04630
:1049500053460000F81D00204C330000F41D0020D9
:10496000EE290000C40F0000C20D0000962B0000CD
:10497000C0B50000182B0000CC2A000010B50000C4
:10498000FC2C000051ED876458EE00109D4900108A
:10499000FCFC001074FD001030FD001007B56046EF
:1049A000002800D100BE01880A0A0230DF2AFAD1AD
:1049B000C9B2820804D3028840880004104300E092
:1049C0000068024A5050039007BD0000F81D002007
:1049D000C30FDB0741000A0E07D0FF2A08D00909E0
:1049E000054A89181943400770471900002070478D
:1049F0000249C918FAE70000000000380000F07F03
:104A000010B5040008F05EFD002804D00419034B23
:104A10009C4200D810BD0248FDF75AFF0000042058
:104A200088FD001010B50C0009F020F9002804D012
:104A30000419034B9C4200D810BD0248FDF748FF03
:104A40000000042088FD001010B508F045FD10BDE1
:104A500001480421014B184740120020BD3A0010C4
:104A6000014B1B681847000040120020014B5B6897
:104A7000184700004012002010B5FFF7C1FF10BD1D
:104A800010B5FFF7E1FF10BD10B5FFF7DDFF10BD5A
:104A900010B50300080011001B68984710BD000006
:104AA000F8B507000D001600437D002B02D000244E
:104AB00000200CE003681100280098472DE03B7DA2
:104AC00010E0022115483B689847601C0134B4424D
:104AD00014DA002CF3DD2B19013B1B780D3B5A42F5
:104AE0005341DBB22A5D0A2AF0D1002BEED1A0425D
:104AF000E7DA211A28183B689847E2E7B04203DA60
:104B0000311A28183B689847002E06DDAD19013D83
:104B10002B780D3B5A4253413B75F8BD10FE0010F7
:104B200070B505000368002B16D00C4B1C6805E01F
:104B3000290004C92000FFF7B3FF2469002C09D025
:104B40002368002BF9D0064B1B68002BF0D0A34242
:104B5000F3D1EDE700232B6070BDC046C81C0020D8
:104B6000D01C002070B505000C000B68802B05D010
:104B700021684B1C23606418257170BD0800FFF785
:104B8000CFFFF5E7F0B583B007000E000092019368
:104B900028E0A368002B04D0310038009847002893
:104BA00027DC2469002C06D0134B1D68002DF0D0A3
:104BB000A542F6D1EDE70099019A104B5B6A9A4243
:104BC00009D80E48806A88420FD29A4201D0012348
:104BD00002E0002300E00023002B08D10120002187
:104BE000FDF7E0F8064B1C68DCE70123F4E7012041
:104BF000404203B0F0BDC046D01C0020004005403C
:104C0000C81C002010B5FDF7ADF802000B1E0BDB31
:104C10000D48002112184B41002B0BDB002B0DDB44
:104C20000A480AF081F810BD094B0A4A3F210A4898
:104C3000FDF7B4FD01225242084BEFE7044B054A51
:104C40003F210548FDF7AAFD40420F00A01A0020B1
:104C500078ED0010F8FD0010CCED0010FFFFFF7F95
:104C600010B502480AF010F810BDC046A01A002086
:104C7000F0B5CE46474680B583B006000D0090469D
:104C80001C00FFF7BFFF81466B1C05D0002C08D02D
:104C9000194F1A4B1C6807E0300009F03BFA050079
:104CA000F4E7174FF5E72469002C17D02368002B91
:104CB000F9D0144B1B68002B01D0A342F3D12A007A
:104CC00031002000B8474346002BECD06B46D91D7D
:104CD0000A230B7001222000B847E4E74B46002B63
:104CE00007D16B1E9D41E8B203B0C0BCB946B046C7
:104CF000F0BDFFF7B5FFF4E7914A0010C81C002093
:104D0000A14A0010D01C002010B5030008001100BB
:104D1000002B05D1044B1A685B68FFF733FF10BD09
:104D200001204042FBE7C04608F6001010B5030022
:104D300008001400013B012B06D8002300222100AB
:104D4000FFF796FF200010BD01204042FBE7012045
:104D50004042704701204042704701204042704766
:104D60000300002002229A424041704710B5064BD2
:104D70001C6801E098472469002C03D06368002B6D
:104D8000F8D1F8E710BDC046C81C002070B505007A
:104D900009F0C0F904000023012201002800FFF7F8
:104DA00067FFFFF7E3FF200070BD000070B5A2B001
:104DB00004000E00FFF726FF0500002301933300D7
:104DC000220001A90848FEF751FE040001A8FFF7E0
:104DD000A7FEFFF7CBFF002D02D1200022B070BD4F
:104DE000FFF73EFFF9E7C046654B00100FB400B572
:104DF00083B004A901C90191FFF7D8FF03B008BC33
:104E000004B01847F0B5DE4657464E464546E0B575
:104E100085B0060010001C0002930EAB1A780392B6
:104E20000F9D109F33680022DA663368596033683B
:104E30000132DA66A246002398469B4600242BE006
:104E40003279002A31D001222FE00399002901D0C4
:104E500000212EE001212CE03800A8470300044384
:104E6000E4B2002B06D13268526BD20602D4002D78
:104E7000F2D1F6E7002B09D13268802151588B46D8
:104E800000291FD1002C2FD1C1451ED0002C33D1B9
:104E900001229446E0440198D0452DDA029A013A65
:104EA00091464246002ACBD000229202C145CCD086
:104EB000002149020A43411C0191007831680243F4
:104EC0000A61D4E7526D01240EE0039A002ADDD175
:104ED0000AE03800A84703000443E4B2002B06D1DF
:104EE0003268526B920502D4002DF2D1F6E7002B06
:104EF000CCD13268126EC9E7002C09D0002B15D135
:104F00005B46002B16D0DB0718D45B461B0709D580
:104F1000039B3371404605B0F0BCBB46B246A94680
:104F2000A046F0BD02235B429846F1E701235B42B5
:104F30009846EDE702235B429846E9E702235B428D
:104F40009846E5E7F0B5D6464F464646C0B505005B
:104F50000C000520FDF74AFB0600600880192100BF
:104F6000FEF7F0FD070043009946814405214846BD
:104F7000FEF7E8FD80463B1A9A46284B9C4224D80F
:104F8000700080192649FEF7DDFD441C4346023BB4
:104F9000A34221D32B680022DA6629680A68042319
:104FA000534006221A4080235B010B431A602B6892
:104FB0005246DA612B6842461A624B464F2B11D992
:104FC00050214846FEF7BEFD0DE0700080191549DE
:104FD000FEF7B8FD441CD9E7134B144A5D21144871
:104FE000FDF7DCFB0120A0232A68D0502A681100BD
:104FF0007C31D06F44402404240C80235B010B439C
:105000001C602B680122DA6639003000FEF79AFD39
:10501000E0BCBA46B146A846F0BDC0463F420F00CC
:105020008096980040787D0114FE00106CFE001000
:1050300034FE001010B5114B98421CD01022104BBA
:105040001A60104B1A60104B9B6814009C43231E7F
:10505000F9D104710268D46602686624FF341460D2
:105060000268D36302689363883303220468E250C2
:10507000FFF768FF10BD0822E1E7C046501200208C
:1050800000E0004000F0004000C0004030B585B0B6
:1050900008AC25780024029401940095FFF7B2FE35
:1050A00005B030BD042010B500F04CFA024B034AA5
:1050B0000349036000F0BEFFE8FE001041540010F9
:1050C000C4FE001070B50500082000F03BFA29006E
:1050D000040001F0C9F92000044A054900F0AAFFC4
:1050E000200000F045FA00F06BFAC046596300104A
:1050F000E800011070B50500082000F023FA29002F
:10510000040001F0F5F92000044A054900F092FF7F
:10511000200000F02DFA00F053FAC0469963001009
:10512000F40001108023086810B5DB05984210D206
:1051300090420AD95200904207D29A4203D3064ABB
:1051400018000A6002E010000A600130FFF794FCCA
:1051500010BD0248FFF7CEFFFFFFFF3F80FE0010AB
:1051600030B583B0150004000A0001910F290ED854
:105170000068002A06D0012A11D02900FFF770FC30
:10518000019A206800236260835403B030BD00227E
:1051900001A9FFF7C7FF019A2060A260E9E7057047
:1051A000019A2068EEE7C046F0B54F464646DE4617
:1051B000C0B51F0043680E00891882B08946591A8D
:1051C00088460A9904008A1AD21808239B46036865
:1051D000834401929B453BD08268200001A9FFF7E0
:1051E000A1FF0500002E05D02168012E2DD0320030
:1051F000FFF73CFC002F09D00A9B002B06D0A81912
:10520000012B27D039000A9AFFF730FC4346002BC8
:105210000AD00A9B2168F018434628184944012BFC
:1052200010D04246FFF722FC2068834501D0FFF7EB
:1052300027FC019B2560A36002B0E0BCBB46B146E1
:10524000A846F0BD0B780370EEE70B780370D1E74A
:105250000F22C2E73B780370D8E7C046F0B5574647
:105260004E464546DE46E0B515001F0083B05B4B59
:1052700042680C9EEB1804009B1A9E4200D9AAE0DB
:10528000731B9946904603680830C844834251D046
:10529000A068404543D358186918511A82468B4676
:1052A000BB4225D95B46002B0BD0B54209D05346F3
:1052B000290098195B465144012B54D05A4608F0F6
:1052C00035FC002E06D0012E30D032003900504679
:1052D000FFF7CCFB43464146636020000023226871
:1052E000535403B0F0BCBB46B246A946A046F0BD3D
:1052F0009B189F42D6D8002E24D0B5421CD200293C
:1053000025D15544BB199D4233D3012E0ED0002E1A
:10531000E0D032003900504608F008FCDAE73B00E4
:105320002A0020000096FFF73FFFD3E752463B7864
:105330001370CFE70F20ACE7012E3CD032003900CC
:1053400008F0F4FB5B46002BC4D0B542C2D05346F4
:10535000981959195B46012B08D05A4608F0E6FB0C
:10536000B542CED3B6E70B780370AAE70B7803708B
:10537000F6E7BD420AD839004944012E24D0002E58
:10538000A8D032005046FFF771FBA3E7ED1B012DBB
:1053900016D0002D04D02A003900504608F0C6FB74
:1053A0005346721B58199919012A11D0002A91D01D
:1053B000FFF75CFB8EE73B7803700029D0D0C4E791
:1053C00052463B781370EBE752460B78137081E737
:1053D0000B7803707EE70248FFF78CFEFFFFFF3F6C
:1053E00098FE001070B5040023004668006808337A
:1053F00082B0B518984219D0A3689D420DD8002AF2
:1054000005D08019012A13D0FFF730FB2068002354
:1054100065604355200002B070BD0B002000009273
:1054200031000022FFF7C0FE2068F0E70F23E4E719
:105430000B7803702068EAE700487047B4FE00105C
:1054400010B50400034B0833036000F009FA200094
:1054500010BDC046E0FE001010B50400054B083337
:10546000036000F0FDF920000421FFF70DFB200090
:1054700010BDC046E0FE001070B51C4C08386368D3
:10548000002B27D006688519AB4223D81DD05A6857
:105490000434002A06D10EE051681C1D00291FD0DB
:1054A00013000A009542F7D304D12A6894466A682B
:1054B00066445A6023681A68991888420DD05B6860
:1054C000066043602368586006E01A685B6894468B
:1054D000664406604360606070BD92191A60FBE725
:1054E0005B681A6899188842E9D1F6E7F01B00203A
:1054F000020010B50832083000D3082207231049F3
:10550000073248689A43002813D0043103E0011D94
:10551000406800280DD003689A42F8D89C1A072CDE
:1055200008D9831840681C605860086802600B60E6
:10553000083010BD0360436808300B60F9E7C046CF
:10554000F01B002070B580300500FFF759FA041EEB
:1055500007D0802200212000FFF782FA200080304F
:1055600070BD2800FFF7C4FF041EF2D100F002FD59
:10557000074A8038936810B5984203D9D2689B18BF
:10558000984202D3FFF760FA10BDFFF775FFFBE703
:10559000F01B002070B59E25084C2D012800E56009
:1055A000FFF72EFAA060002804D000236060056099
:1055B000436070BDE0606060FBE7C046F01B002008
:1055C0001EB400F093F81EBC09F096FBF0B5C64679
:1055D00000B51E0003780C0082B0472B1DD00023BD
:1055E000284D01932B6828009B68984701270028C5
:1055F00003D0019B01371B680193236829001B69B5
:105600002000984601AA0123C047002824D1002782
:10561000380002B080BCB846F0BD43784E2BDED1D6
:105620008378552BDBD1C378432BD8D10379462B14
:105630001CD00379432BD2D143792B2BCFD1837943
:105640002B2BCCD1C379012BC9D808D003005830FB
:10565000203B1D680190C5E7019B3360D8E72038E7
:1056600000680300783B1D680190BBE743794F2B2E
:10567000DFD18379522BDCD1C379002BD9D1024DF4
:105680000193AFE710FF001008FF001010B50400F1
:1056900000F0FAF823002278203B472A05D08268E0
:1056A000002A20D18360012010BD62784E2AF6D1F5
:1056B000A278552AF3D1E278432AF0D12279432AFD
:1056C000EDD162792B2AEAD1A2792B2AE7D1E279AE
:1056D000012AE4D8DA690132DA61012AE3D1826869
:1056E0009A618360DFE700F045FCC04610B500F02A
:1056F000CBF88368002B2ED020229A5C472A04D056
:10570000002282602033180010BD263A9A5C4E2A8F
:10571000F6D12C3A9A5C552AF2D1323A9A5C432A55
:10572000EED11F3A9A5C432AEAD11E3A9A5C2B2AA0
:10573000E6D1053A9A5C2B2AE2D1043A9A5C012A16
:10574000DED8DA69013ADA61002ADBD19A6982602F
:1057500000229A61D6E700F00DFCC04670B5040047
:1057600000F092F8220023780568203A472B04D0F5
:10577000002D2BD10260280070BD63784E2BF7D12D
:10578000A378552BF4D1E378432BF1D12379432B24
:10579000EED163792B2BEBD1A3792B2BE8D1E379D5
:1057A000012BE5D85369002B0DDB013353614368AE
:1057B000013B4360954201D0156102602000656A9B
:1057C00009F0A2FAD7E70121CB1AEFE700F0D2FBEC
:1057D00010B500F055F80368002B09D020229A5C20
:1057E000472A06D0002220330260180009F06CFA24
:1057F00010BD263A9A5C4E2AF4D12C3A9A5C552A6E
:10580000F0D1323A9A5C432AECD11F3A9A5C432A8F
:10581000E8D11E3A9A5C2B2AE4D1053A9A5C2B2AED
:10582000E0D1043A9A5C012ADCD85A69002A08DBE4
:10583000511E012A0CD04A1C01D05961D8E700F052
:1058400099FB511C0132F8D11A6902605961CFE706
:105850001A6920330260180009F036FAC8E7C0461A
:105860007047C0467047C04600487047F4FE0010BD
:1058700010B504000421FFF707F9200010BDC04651
:1058800000487047E41B002000487047E41B0020DC
:10589000F8B5DE46454657464E468B46E0B5050010
:1058A000502825D00F2028400C2800D976E03C4C09
:1058B0008000205887465078167800029478064376
:1058C000D0782404000634430443101D002C08D073
:1058D00070262E40102E00D193466DB25C44002DF0
:1058E0000CDB1C60F0BCBB46B246A946A046F8BD26
:1058F000032103328A43100010C8F2E72468F0E75E
:1059000050781678000294780643D0782404000674
:105910003443044310000830D8E754781078240248
:105920000443901CD2E754781678240234432404AC
:105930002414901CCAE77F21904600240027894642
:1059400046463178701C4E460E40BE4034434EB23F
:1059500080460737002EF3DB1F2FB7D84906B5D591
:105960000126BE4076423443B2E7002188467F31AB
:105970001700002489463E00317801378A4649469F
:10598000564631404646B1400C4307218C465146AD
:105990004EB23800E044002EEDDB97E707F022FB23
:1059A000A8FF0010020010B50800FF2A15D07023D0
:1059B0001340302B17D004D8202B07D109F05CF905
:1059C00003E0402B0BD109F0A7F910BD202B02D822
:1059D0006023134201D007F005FB0020F5E700200B
:1059E000502BF2D0F7E709F077F9EEE7F8B50500AC
:1059F0000E0014000020002D02D0280009F08CF9C0
:105A00002060771C3678FF2E29D160603B78781CA7
:105A10002375FF2B33D01023002500217F2623750B
:105A20003200037801301A408A405BB215430731D7
:105A3000002BF5DB4519E560002500227F26037861
:105A400001306375310003780130194091405BB239
:105A50000D430732002BF5DB45192561F8BD290000
:105A60003000FFF79FFF3A000100231D3000FFF7D1
:105A70000FFF07003B78781C2375FF2BCBD1002349
:105A8000E360D9E7F0B5DE46454657464E4600236B
:105A9000E0B593B0089303338B4690460340012B47
:105AA00016D0022B0FD14146584609F005F90924BA
:105AB000002800D10824200013B0F0BCBB46B24639
:105AC000A946A046F0BD002B00D190E007F08AFA6D
:105AD00008231A000240034200D19AE002231A432D
