:020000041000EA
:1000000000B5324B212058609868022188439860DF
:10001000D860186158612E4B002199600221596106
:100020000121F02299502B49196001219960352056
:1000300000F044F80222904214D00621196600F024
:1000400034F8196E01211966002018661A6600F04E
:100050002CF8196E196E196E052000F02FF8012189
:100060000842F9D1002199601B49196000215960AB
:100070001A491B48016001219960EB211966A021F2
:10008000196600F012F800219960164914480160C1
:100090000121996001BC002800D000471248134993
:1000A000086003C880F30888084703B5996A0420EC
:1000B0000142FBD001200142F8D103BD02B5186610
:1000C0001866FFF7F2FF186E186E02BD00000240BE
:1000D000000000180000070000035F00212200005C
:1000E000F4000018222000A00001001008ED00E03C
:1000F00000000000000000000000000074B24E7A12
:1001000000200420F7010010C3010010C5010010F9
:10011000C1010010C1010010C1010010C101001097
:10012000C1010010C1010010C1010010C701001081
:10013000C1010010C1010010C9010010CB01001065
:10014000CD010010CD010010CD010010CD01001037
:10015000CD010010CD010010CD010010CD01001027
:10016000CD010010CD010010CD010010CD01001017
:10017000CD010010CD010010CD010010CD01001007
:10018000CD010010CD010010CD010010CD010010F7
:10019000CD010010CD010010CD010010CD010010E7
:1001A000CD010010CD010010CD010010CD010010D7
:1001B000CD010010CD010010CD010010CD010010C7
:1001C00000BE00BE00BE00BE00BE00BEEFF3058054
:1001D000103800BEF2EB8871E08500100086001038
:1001E0003402001090A31AE700201F49086006C8D7
:1001F00081F3088810471D48006800282FD10DA4FE
:100200000ECC002902D000F012F8F9E71849194A7B
:10021000002000E001C19142FCD1174988471749ED
:1002200088471749884700BEFDE701C901C29A42C5
:10023000FBD3704700860010C0000020801A002009
:10024000C09F00100000042000000420C09F001088
:10025000001004200010042000000000704709482E
:1002600004F04CFC0047000008ED00E0000000D066
:10027000801A0020B81E0020B93200102909001091
:10028000F13300105756000006005250ABB36053D4
:100290006480001006005250861C03027480001017
:1002A000060052505422A29D7C800010050052503E
:1002B000DE65F468C09F0010F8B5C0460448054BE1
:1002C00010B5834203D0044B002B00D0984710BDDB
:1002D000801A0020801A002000000000064807490C
:1002E000091A8910CB0F591810B5491003D0044BC7
:1002F000002B00D0984710BD801A0020801A0020E3
:100300000000000010B5074C2378002B09D1FFF73F
:10031000D5FF054B002B02D0044800E000BF0123AD
:10032000237010BD801B002000000000507D0010D5
:10033000054B10B5002B03D00449054800E000BF71
:10034000FFF7CCFF10BDC04600000000841B00205A
:10035000507D001008B4F0B582B000AF84B06E4696
:1003600020230400FB180F4A102130007B6004F0AA
:1003700097FB0500200008302060012D0BD1337859
:10038000237200236560BD464355200002B0F0BCD7
:1003900008BC01B018472A00310005F0B7FA206800
:1003A000EFE7C046507D0010F0B5DE4657464E469A
:1003B00045460F240823E0B585B06C449946237068
:1003C000962600230027FE4D9846B6002200009393
:1003D00027210133280005F079FC3000390001F0B5
:1003E000FFFF0C239B4623704346220000932721E6
:1003F0000133280005F06AFC3000390001F0F0FFFD
:100400004B462370434622000093272101332800E6
:1004100005F05CFC3000390001F0E2FF38239A4619
:10042000237043462200009327210133280005F062
:100430004DFC3000390001F0D3FF42463C23272118
:100440002370280000923B3B220005F03FFC300067
:10045000390001F0C5FF5246227042460123009246
:1004600027212200280005F031FC3000390001F07E
:10047000B7FF4A46227042460123009227212200FC
:10048000280005F023FC3000390001F0A9FF5A468E
:10049000227042460123009227212200280005F005
:1004A00015FC3000390001F09BFF4A46227042469D
:1004B0000123009227212200280005F007FC3000CC
:1004C000390001F08DFF524622704246012300920E
:1004D00027212200280005F0F9FB3000390001F047
:1004E0007FFF42463C2327212370280000923B3B9C
:1004F000220005F0EBFB3000390001F071FF52469D
:10050000227042460123009227212200280005F094
:10051000DDFB3000390001F063FF4A46227042469D
:100520000123009227212200280005F0CFFB300094
:10053000390001F055FF5A462270424601230092CD
:1005400027212200280005F0C1FB3000390001F00E
:1005500047FF4A462270424601230092272122008B
:10056000280005F0B3FB3000390001F039FF524696
:10057000227042460123009227212200280005F024
:10058000A5FB3000390001F02BFF3C2323704346CC
:100590002200009327210133280005F097FB30004B
:1005A000390001F01DFF534623704346220000939B
:1005B00027210133280005F089FB3000390001F0C4
:1005C0000FFF4B462370434622000093272101333F
:1005D000280005F07BFB3000390001F001FF5B468D
:1005E000237043462200009327210133280005F0A1
:1005F0006DFB3000390001F0F3FE4B46237043469B
:100600002200009327210133280005F05FFB300012
:10061000390001F0E5FE28239A4623704346220064
:10062000009327210133280005F050FB30003900EA
:1006300001F0D6FE42462C23272123702800009289
:100640002B3B220005F042FB3000390001F0C8FED0
:1006500052462270424601230092272122002800A0
:1006600005F034FB3000390001F0BAFE4A46227032
:1006700042460123009227212200280005F026FB94
:100680003000390001F0ACFE5A4622704246012388
:10069000009227212200280005F018FB30003900C5
:1006A00001F09EFE4A462270424601230092272115
:1006B0002200280005F00AFB3000390001F090FE0E
:1006C0004146682201232270280022000091273130
:1006D00005F0FCFA3000390001F082FE41466C233F
:1006E00022002370280000916B3B273105F0EEFAC1
:1006F0003000390001F074FE682222704246012366
:10070000009227212200280005F0E0FA300039008D
:1007100001F066FE524622704246012300922721D4
:100720002200280005F0D2FA3000390001F058FE0E
:100730002C232370434622000093272101332800F5
:1007400005F0C4FA3000390001F04AFE5346237028
:1007500043462200009327210133280005F0B6FA12
:100760003000390001F03CFE882323709A4643464E
:100770002200009327210133280005F0A7FA30005A
:10078000390001F02DFE8C23237043462200009394
:1007900027210133280005F099FA3000390001F0D3
:1007A0001FFE534623704346220000932721013346
:1007B000280005F08BFA3000390001F011FE01E04D
:1007C000101200204B46237043462200009327213D
:1007D0000133280005F07AFA3000390001F000FEFC
:1007E0005B462370434622000093272101332800F3
:1007F00005F06CFA3000390001F0F2FD4B46237031
:1008000043462200009327210133280005F05EFAB9
:100810003000390001F0E4FDC82323709A464346B6
:100820002200009327210133280005F04FFA300001
:10083000390001F0D5FDCC232370434622000093FC
:1008400027210133280005F041FA3000390001F07A
:10085000C7FD5346237043462200009327210133EE
:10086000280005F033FA3000390001F0B9FD4B469D
:10087000237043462200009327210133280005F00E
:1008800025FA3000390001F0ABFD5B46237043468A
:100890002200009327210133280005F017FA3000C9
:1008A000390001F09DFD4B46237043462200009322
:1008B00027210133280005F009FA3000390001F042
:1008C0008FFD182323709946434622000093272169
:1008D0000133280005F0FAF93000390001F080FDFD
:1008E0001C23237043462200009327210133280054
:1008F00005F0ECF93000390001F072FD4B46237031
:1009000043462200009327210133280005F0DEF939
:100910003000390001F064FD05B03CBC90469946BA
:10092000A246AB46F0BDC046F0B5DE4657464E4641
:100930004546E0B5E24B97B01800E2499B4605F00A
:1009400041F903210C2001F04DF803210D2001F0A5
:1009500049F8FFF729FD0022012105A800F078FAE7
:1009600005A800F03FFB10AF05A800F0AFFF00287E
:10097000FAD005A800F016FA0028F5D00CAB282113
:100980000A93002302AA52180B93137005AB9A46E0
:1009900053465B7910220093CB49CC4B3800FFF7CC
:1009A000D9FC109B0B9E9946119B0A9D98469C1959
:1009B0000CAB9D4200D13CE10C9B9C4200D93CE138
:1009C0004346002B08D0A819012B00D164E1424610
:1009D000494604F09BFF0A9D00230B942B55109869
:1009E00012AB984201D004F09BFF01239C4606AB5A
:1009F000E2445345CCD1002408250A9B3D7099461A
:100A00003A00012300942721584605F05FF996200B
:100A10000021800001F0E4FC0C233A003B70272108
:100A20000B3B0094584605F051F9962000218000B8
:100A300001F0D6FC3D7001233A000094272158466E
:100A400005F044F9962010358000002101F0C8FC23
:100A50003D7001233A0000942721584605F036F9ED
:100A600096200021800001F0BBFC1C233A003B7063
:100A700027211B3B0094584605F028F996200021B9
:100A8000800001F0ADFC3D7001233A000094272165
:100A9000584605F01BF9962070358000002101F0C2
:100AA0009FFC3D7001233A0000942721584605F031
:100AB0000DF996200021800001F092FC8C233A0071
:100AC0003B7027218B3B0094584605F0FFF8962099
:100AD0000021800001F084FC3D7001233A00009465
:100AE0002721584605F0F2F8962000218000503D5D
:100AF00001F076FC01233A003D702721009458460E
:100B000005F0E4F896200021800001F069FC3C2308
:100B10003A003B7027213B3B0094584605F0D6F83D
:100B200096200021800001F05BFC01233D703A001B
:100B300000942721584605F0C9F89620002180002E
:100B400001F04EFC4B461C780923C8469A46002CFF
:100B500063D0012325009C460E339D435346002657
:100B60001D4324013A001C433D70012327210096B8
:100B70005846E04405F0AAF896200021800001F0D4
:100B80002FFC042399464B462B433B703A0001232C
:100B900027210096584605F099F8962000218000FC
:100BA00001F01EFC01233A003D70272100965846B3
:100BB00005F08CF89620E4B28000002101F010FCD2
:100BC0003C7001233A0027210096584605F07EF834
:100BD00096200021800001F003FC4B4623433B702C
:100BE0003A00012327210096584605F06FF8962019
:100BF0000021800001F0F4FB3C7001233A00272122
:100C00000096584605F062F896200021800001F019
:100C1000E7FB43461C78002C9BD1FA20800001F0B2
:100C2000F1FB0A980CAB984200D19DE604F078FEE7
:100C30009AE60F2C00D8C3E60F23002C02DA2448D2
:100C400005F05EF95B0003939C422AD3601C039479
:100C500004F062FE0A9B05000293002E05D0012ECF
:100C600027D01900320004F051FE4B46002B09D06A
:100C70004346002B06D0A819012B1DD042464946F9
:100C800004F044FE02980CAA904201D004F048FE01
:100C9000039B0A950C939FE64B461B7803700A9DB5
:100CA0009AE6581C002BD3DA80200A4B00060393E7
:100CB000CEE71B780370D8E74B461B780370E1E75B
:100CC00010120020A0860100A14A0010507D0010E3
:100CD0005C7D0010FFFFFF7F0123D02283401206BE
:100CE000002901D0536170479361FCE7D0231B06B4
:100CF0005B68C340012018407047C04610B501F042
:100D000069FC002905D0FA220023920003F08AFF33
:100D100010BDFA21890003F047FFF9E77047C0468C
:100D200010B5002101F062FC10BDC04610B501F005
:100D30008DFC10BD70B504000D0000F06BFE0123AA
:100D4000D022A3401206002D01D0536270BD9362E1
:100D5000FCE7C04610B584B06A460F240B006C4413
:100D6000D11D0B7022000123024806F0C1FF20783C
:100D700004B010BD00C0034070B515001C00084849
:100D800005F00EF82800012100F02CFE20000121C2
:100D900000F028FE0121049800F024FE70BDC0463A
:100DA00000C00340010010B508C900221B68984725
:100DB00043425841C0B210BDF0B5D6464F464646F4
:100DC000C0B58027160099460F4308AB0021824624
:100DD000007C1C78FFF780FF1C4B013E3900180097
:100DE0009846F6B2FFF7B6FF4D46002C1ED1A6423C
:100DF0000DD94B461D1939004046FFF7ABFF0134B2
:100E0000E4B228700135A642F5D135004D44404684
:100E10000021FFF79FFF53462870187C0121FFF740
:100E20005BFF1CBC90469946A246F0BDFF20A04047
:100E3000390004004046FFF78DFF2B78A3430440A0
:100E400023432B7001240135D1E7C046D01B00207D
:100E5000024B01740833036042747047747D0010C4
:100E6000F8B5CE4647460600914680B50F00007C97
:100E700000219846FFF730FF594D02212800FFF767
:100E800069FF00212800FFF765FF307C0121FFF793
:100E900023FF307C0021FFF71FFF0A212800FFF706
:100EA00059FF04212800FFF755FF307C0121FFF78F
:100EB00013FF307C0021FFF70FFF14212800FFF7FC
:100EC00049FF80212800FFF745FF307C0121FFF713
:100ED00003FF307C0021FFF7FFFE12212800FFF7FF
:100EE00039FF4B46002B09D0002401343978280003
:100EF000E4B2FFF72FFF0137A145F6D1307C012185
:100F0000FFF7EAFE307C0021FFF7E6FE0221280011
:100F1000FFF720FF03212800FFF71CFF307C012191
:100F2000FFF7DAFEFFF7EAFE04235930070099467F
:100F300005E0FFF7F3FEFFF7E1FEB8424ED2307C4A
:100F40000021FFF7C9FE8A212800FFF703FF0021D7
:100F50002800FFF7FFFE01210400307CFFF7BCFEF4
:100F60004B462342E5D0307C0021FFF7B5FE02213D
:100F70002800FFF7EFFE00212800FFF7EBFE307C92
:100F80000121FFF7A9FE307C0021FFF7A5FEC42157
:100F90002800FFF7DFFE00212800FFF7DBFE01211C
:100FA0000400307CFFF798FE43461C70307C002123
:100FB000FFF792FEC2212800FFF7CCFE0021280097
:100FC000FFF7C8FE01210400307CFFF785FE434691
:100FD00000205C700CBC90469946F8BD0320F9E7F0
:100FE000D01B0020F0B5C6460423040000B58C4D8C
:100FF00082B0022200938B49013B2800FFF7BCFE20
:10100000207C0121FFF796FE207C0121FFF764FE82
:10101000607CFF2808D00021FFF78CFE607CFFF782
:1010200065FE002800D1E7E0207C0021FFF754FE98
:1010300002212800FFF78EFE0F212800FFF78AFE0D
:10104000207C0121FFF748FE10230326984632201A
:10105000FFF76CFE207C0021FFF73EFE8221280076
:10106000FFF778FE00212800FFF774FE012107003A
:10107000207CFFF731FE43463B4203D0013EF6B2EF
:10108000002EE4D1207C0021FFF726FE2421280039
:10109000FFF760FE00212800FFF75CFE207C0121A5
:1010A000FFF71AFE207C0021FFF716FE26212800FC
:1010B000FFF750FE00212800FFF74CFE207C0121A5
:1010C000FFF70AFE207C0021FFF706FE48212800DA
:1010D000FFF740FE26212800FFF73CFE207C01217F
:1010E000FFF7FAFD207C0021FFF7F6FD54212800D0
:1010F000FFF730FE80212800FFF72CFE207C012125
:10110000FFF7EAFD207C0021FFF7E6FD56212800CD
:10111000FFF720FEA9212800FFF71CFE207C0121FB
:10112000FFF7DAFD207C0021FFF7D6FD58212800CB
:10113000FFF710FE03212800FFF70CFE207C0121A1
:10114000FFF7CAFD207C0021FFF7C6FD5A212800C9
:10115000FFF700FEE8212800FFF7FCFD207C0121BD
:10116000FFF7BAFD207C0021FFF7B6FD2A212800F9
:10117000FFF7F0FD40212800FFF7ECFD207C012166
:10118000FFF7AAFD207C0021FFF7A6FD2221280001
:10119000FFF7E0FD3D212800FFF7DCFD207C012169
:1011A000FFF79AFD207C0021FFF796FDA82128007B
:1011B000FFF7D0FD00212800FFF7CCFD060001213C
:1011C000207CFFF789FDF3439B0711D0207C002191
:1011D000FFF782FD28212800FFF7BCFD03213143E2
:1011E000C9B22800FFF7B6FD207C0121FFF774FD8E
:1011F00002B004BC9046F0BD607C0121FFF79AFD6F
:10120000607C0021FFF768FD0220FFF789FD607C0C
:101210000121FFF761FD3220FFF788FD32E7C0466C
:10122000D01B002000093D00F0B557464E46DE4673
:101230004546E0B587B01F0010AB1B780600994605
:1012400014AB1B788B469A4615AB1B7890460393DC
:10125000139B002B00D116E11B78524612019B18FC
:10126000DBB2307C00210293FFF736FDA34D022153
:101270002800FFF76FFD00212800FFF76BFD307C91
:101280000121FFF729FD307C0021FFF725FD082112
:101290002800FFF75FFD7F212800FFF75BFD307C12
:1012A0000121FFF719FD307C0021FFF715FD142106
:1012B0002800FFF74FFD80212800FFF74BFD307C11
:1012C0000121FFF709FD307C0021FFF705FD122108
:1012D0002800FFF73FFD4B460024002B08D00134C7
:1012E00039782800E4B2FFF735FD0137A145F6D182
:1012F000307C0121FFF7F0FC307C0021FFF7ECFC93
:101300001A212800FFF726FD02992800FFF722FD89
:10131000307C0121FFF7E0FC307C0021FFF7DCFC92
:1013200002212800FFF716FD59462800FFF712FD9D
:10133000307C0121FFF7D0FC5B460C2B00D1A4E0F0
:10134000FFF7DCFC2430070009E0E30700D591E05B
:10135000FFF7E4FCFFF7D2FCB84200D38AE0307C10
:101360000021FFF7B9FC88212800FFF7F3FC0021DA
:101370002800FFF7EFFC01210400307CFFF7ACFCF4
:1013800043461C42E1D0307C0021FFF7A5FC8C21B4
:101390002800FFF7DFFC00212800FFF7DBFC132407
:1013A00007000121307CFFF797FC3C4000D095E01E
:1013B000119B002B00D18DE0129B002B00D189E006
:1013C000307C0021FFF788FC94212800FFF7C2FC45
:1013D00000212800FFF7BEFC80460121307CFFF78A
:1013E0007BFC129B1B78434500D281E04246129B56
:1013F0001A70002A00D073E0307C0021FFF76CFCEB
:1014000098212800FFF7A6FC00212800FFF7A2FC86
:1014100001210500307CFFF75FFC0720139B28406B
:10142000002B00D018703B0756D4039B002B22D012
:10143000129B1B78012B5DD01AD9002818D1023BD2
:1014400005ADDAB211992B003000FFF709FD041E3B
:1014500011D1119A129B94461B7863449A1E1178FD
:101460002A78914204D1013B1A786B789A4202D0D3
:10147000072400E00324200007B03CBC90469946B6
:10148000A246AB46F0BD0023E7E6307C0021FFF723
:1014900023FC9A212800FFF75DFC00212800FFF7BC
:1014A00059FC01210400307CFFF716FC307C002140
:1014B000FFF712FC1A212800FFF74CFC802149425B
:1014C0002143C9B22800FFF745FC307C0121FFF71A
:1014D00003FC35E73B07CED50224CCE70124CAE75D
:1014E0005346122100933000119BFFF765FC83E700
:1014F0000424C0E70428BBD1FF24BCE7D01B002094
:10150000F0B54E464546DE465746E0B593B0060078
:10151000069115000892502A4DD8007C0021FFF753
:10152000DBFBCB4B9C219B461800FFF713FC0021F3
:101530005846FFF70FFC01210400307CFFF7CCFB7D
:10154000307C0021FFF7C8FB1C215846FFF702FC46
:101550007F2158462140FFF7FDFB307C0121FFF73A
:10156000BBFB0123183D07936BB2DB430B93079B37
:101570000A95022B00D1EDE0032B1ED0012B08D0E1
:101580000527380013B03CBC90469946A246AB46AE
:10159000F0BD0FAB9846932342461370089B5DB293
:1015A000002B00D142E1069B1B78042B00D83DE1C3
:1015B00000230993E1E00627E3E70FAB9846972362
:1015C0004246089D1370303D6DB2EA43913BD217FD
:1015D000154009930720EBB21840421E9041EA10D3
:1015E0008018C0B2002800D066E1A9464B464546A7
:1015F000B0461F2B00DD03E107241C40E6B208AB18
:101600009E764B46DB100233DBB21A01B2186A70C9
:10161000621E9441EA18924609221C193701D31A16
:1016200008AAE4B2D376F71943460021187CFFF7E5
:1016300053FB1A215846FFF78DFB39005846FFF738
:1016400089FB43460121187CFFF746FB002308AACB
:10165000944605931A33634403931B236344029314
:1016600053460496019300942B0030220C214046EF
:10167000FFF7DAFD0700022800D18EE0002800D035
:101680007FE74B4620241F2B22DC7023EA786B7007
:10169000AB78290053402A79404653406A79534039
:1016A00008AA9446AB71232307226344FFF7D8FBB3
:1016B000071E00D065E708AB08AA98760323944676
:1016C000D3761F336344A14600269A460924ABE72C
:1016D000AB784646A846882B00D1ADE00699099A1A
:1016E0008C4662445370EB7893702B79D3706B798E
:1016F000137108ABDB7E032B00D0E2E008AB9B7ECE
:10170000002B00D0DDE008AA94461E33634401227A
:1017100051463000FFF7A4FB071E00D031E74346D7
:101720009A7853465B789A4200D0CCE04346DA7808
:1017300053469B789A4200D0C5E053461B78043745
:101740001F406AD0079B0133DBB20793079B022B34
:1017500000D011E70FAB98469523424613700B9BC0
:101760000A9ADB1713405DB2089B002B61D0069BE1
:101770001B78072B5DD90323099342468823072052
:101780009370EBB21840421E9041EA108018C0B22C
:1017900000285FD108335DB227E743460021187C5B
:1017A000FFF79AFA9C215846FFF7D4FA00215846D1
:1017B000FFF7D0FA434604000121187CFFF78CFAAA
:1017C000A30600D5DDE61F2020401BD0484500DCE5
:1017D000D6E643B2994607234A4613405A1E934120
:1017E0004A46D21001329B18072201381040063AAF
:1017F0008240E95C0A43EA544B461F2B00DCFBE6BF
:101800004C4642E74B461F2B00DDB9E680236A7940
:101810005B4213436B71202437E70799069A8C4685
:10182000D3724B00634401331370AAE6002309937B
:10183000D0E603230993CDE6069A099B9446EA78FD
:1018400063445A702A799A706A79DA7051E7C0460F
:10185000D01B00200122032103270C923A1C87424F
:1018600000D9021C099F4446B946481C8446069884
:10187000D2B24844477892466754012A17D08478F8
:101880008F1CA1460D974A4644466746E25552468C
:10189000022A0CD0C2780D9F944642466446D45525
:1018A00052460331032A02D00279404642540C9A30
:1018B000002A00D199E66DE7002202210C9204274C
:1018C000CCE701275DE607275BE6C046F0B5C646D4
:1018D00019260223040000B588B06E443370007CE2
:1018E0000021FFF7F9F93E4D24212800FFF732FAD5
:1018F00000212800FFF72EFA207C0121FFF7ECF9E8
:10190000207C0021FFF7E8F926212800FFF722FAC2
:1019100000212800FFF71EFA207C0121FFF7DCF9E7
:10192000207C0021FFF7D8F948212800FFF712FAA0
:1019300026212800FFF70EFA1A27207C0121FFF745
:10194000CBF926236F443B703378012B3ED9207CA2
:101950000021FFF7C1F99C212800FFF7FBF90021C6
:101960002800FFF7F7F980460121207CFFF7B4F942
:10197000207C0021FFF7B0F91C212800FFF7EAF9CD
:1019800043467F2128001940FFF7E4F91B25207CFE
:101990000121FFF7A1F907236D442B700023059364
:1019A000049307AB019301230395009302963B0038
:1019B00030220C212000FFF737FC00280BD13378B0
:1019C000022B03D12B780130002B00D0002008B06F
:1019D00004BC9046F0BD023843425841C0B2F6E71D
:1019E000D01B0020094A830094464022634410B56E
:1019F0001C68C0006240C02414408022520113437E
:101A00001C60034B9C466044416010BD04C0014013
:101A1000004001400123D02283401206936293616B
:101A2000094A83009446402263441968C0004A4032
:101A3000C02111408022520113431960034B9C4680
:101A4000052360444360704704C0014000400140EA
:101A5000024B18688007C00F7047C04600C00640A0
:101A6000F8B5EFF3108772B60D4E3368002BFCD03B
:101A7000BFF35F8F0725CB08C01801230D40AB4093
:101A80001D000478254007D123430370BFF35F8F07
:101A9000356087F31088F8BD100001F0ADFCC0463A
:101AA0002C0100D00021044B044ABFF35F8F02C316
:101AB0009342FAD17047C046000100D0800100D0A7
:101AC000044A1078431CDBB2172B00D91023137083
:101AD0007047C0467811002001238340002904D0BC
:101AE000034A1360034A13607047034A1360FBE71D
:101AF00080E200E000E100E080E100E0024B103015
:101B00009B688000C058704700ED00E070B50D0084
:101B1000EFF3108672B60F4A1368002BFCD0BFF3A8
:101B20005F8F0D4B10309B6884001B590B4A93420A
:101B300003D09D4201D001F077FC074B9B681D51FB
:101B4000BFF35F8FBFF35F8F0022024B1A6086F3F3
:101B5000108870BD240100D000ED00E0CD01001020
:101B6000F0B54546DE4657464E46E0B50D0083B01B
:101B7000EFF3108972B6584A1368002BFCD0BFF3FC
:101B80005F8F564B9A68030010339F00D459544A14
:101B90009046944234D0AC4245D0524EA21B2F2ADC
:101BA0002ED801228240924651464F4A1268114077
:101BB000019151464D4A1160BFF35F8FEFF30582EB
:101BC0009346002A35D10123220006219A439368C7
:101BD00051569D420AD16AE04B005B1806219B00DA
:101BE000F31898685956A84228D01A000029F3DA49
:101BF000019B002B19D052463D4B1A603A4B1A609C
:101C0000364B9B68DC51BFF35F8FBFF35F8F0022C1
:101C1000314B1A6089F3108803B03CBC904699465A
:101C2000A246AB46F0BD1400EAE752462F4B1A60BD
:101C3000E6E79342C7D001F0F7FBC4E7002921DBB8
:101C40004A005018800035188046A8689860E879E6
:101C5000D871062028569871002826DBAD88F01A26
:101C60006D052D1545444019E0250005400D2D0258
:101C70002843988052181F4B9200B6181A78197092
:101C8000B271B5E75946002917D1002A22D0FF3199
:101C900091711949918017490A789A71174A9B1BCB
:101CA0005B415A43120D0A70A2E71548E1E71300A1
:101CB0000029C5DA5A46002A0CD0124A1249D21A13
:101CC000083A5002400D01439980104952080A43D6
:101CD000DA808DE74446DEE7240100D000ED00E025
:101CE000CD0100107C11002000E100E080E100E067
:101CF00080E200E0B11C002001BDFFFFAAAA0000A5
:101D000001BD0000B611002000F0FFFF00F8FFFF4A
:101D1000F0B5EFF3058101240443EFF3108672B6AA
:101D2000214A1368002BFCD0BFF35F8F1F4B204A62
:101D30000500ED1A6D416A43120D1E4D8900AF6812
:101D400052B27F58A7421CD00621595691421CD04E
:101D500012215956914222D01E215956914220D02B
:101D60002A2159560324914210D0134B19781A7026
:101D70008171BFF35F8F00220B4B1A6086F31088CE
:101D8000F0BDAB680D4C5C50EFE700246100091911
:101D900089005B18FF21997109499980E5E70124C1
:101DA000F4E70224F2E7C046240100D07C110020B1
:101DB000AAAA000000ED00E0B11C0020CD01001037
:101DC00001BDFFFF054B064A1360064A13605360CE
:101DD0009360D3601361536193617047808080800A
:101DE00000E400E004E400E0024B9C46614489000A
:101DF000016070474000003410B50400FFF760FE3A
:101E000001002000FFF7F0FFFF232371BFF35F8F76
:101E100010BDC04610B50400FFF752FE01002000BF
:101E2000FFF7E2FFFF23A380BFF35F8F10BDC04623
:101E300070B506000D00140000291ED0002A1ED027
:101E400073688068984763006A001B195219033B46
:101E5000033A3168002808D0CB188A189D70117891
:101E600000290ED11470280008E08A18CB1894704D
:101E70001978002900D051701D70200070BD080035
:101E8000FCE7597028001470F8E7C04683680B48D7
:101E900010B5844661446244090112019A18591828
:101EA00054684B6801209C4201D802D00020C0B287
:101EB00010BD12680B689A42F9D8F7E7FFFFFF0FD1
:101EC0000A4B1968EFF3108072B60A68002AFCD03A
:101ED000BFF35F8F1B68BFF35F8F00221A6080F330
:101EE000108840BF002000217047C0469C1C002085
:101EF000F8B54746CE4680B514001D000BAA0AABC4
:101F000012781B78804691460768002B12D1BE7B61
:101F1000002E44D0720092193968033A8918487823
:101F20003300B873002800D1F8730020887048701F
:101F3000087003E01E005A00D218033A1A4938000C
:101F40008C464146896863448C461B01089963446A
:101F5000996009991C605D60D9603B689C460023CC
:101F60006244937053701370797B3200FFF760FF07
:101F70007873B04213D143462200187D2B0000F045
:101F800003FC041E07D04B46002B04D1434631000E
:101F9000186800F077FF0C9B002B00D01C703000FD
:101FA0000CBC90469946F8BDFFFFFF0FF0B5DE462A
:101FB00057464E4645460023E0B58BB00893684B24
:101FC0008200D45800239B46099000F003FB62680E
:101FD000EFF3108572B61368002BFCD0BFF35F8F50
:101FE00023689C465B7B9946002B00D16DE0A2687C
:101FF0005C4B90464B441B01984443461E685F6807
:1020000032003B00121A8B41002B00DC67E03200EB
:102010003B00099800F0B8FB0023002298460023FB
:102020000692079300239A466368BFF35F8F5A4670
:102030001A6085F310885346002B08D10028C4D1BC
:102040000BB03CBC90469946A246AB46F0BD089BFF
:10205000414618024B461843D047626806000F00FD
:10206000EFF3108572B61368002BFCD0BFF35F8FBF
:10207000002F52DB33003B4302D02369002B63D196
:102080002368DA7B002A07D051008A1819688C4629
:1020900049466244033A51709A7B002A01D14A466C
:1020A0009A734A46DA73E2684B469446013B6344AE
:1020B0001A7801321A705B4623616368BFF35F8F41
:1020C0005A461A6085F310887FE70023002298465D
:1020D000002306920793002300209A46A4E7002BD2
:1020E00002D1002A00D092E70021604600F0E8FD0E
:1020F00043461A685B680692079343469B689A4674
:102100004346DB689846E3684B44013B1B780893E1
:102110001B0203432361002086E72369002BAFD015
:10212000069A079B921BBB41002B15DB5946049175
:1021300001210391494602914146019151462000F7
:102140000091FFF7D5FEB6E700F044FA32003B00FD
:1021500012184B41002BE9DA0122034B5242E5E70A
:10216000881C0020FFFFFF0FFFFFFF7F10B5144CFE
:102170006368002B04D00A211248FFF735FE10BD1A
:102180002300114A1021206800F0B8FB032000F062
:1021900015FA032000F064FB0C49032000F0AEFAAE
:1021A000FFF78EFC0A4B9C4603232375D0231B06A6
:1021B0001B6860446375074B80006060DC60DAE791
:1021C000C41100209C1C00208D1E0010AD1F0010AB
:1021D00040000034881C0020F0B54E465746454666
:1021E000DE46E0B583B0009201930EAB1B7807008A
:1021F00099460023002698467A68EFF3108A72B653
:102200001368002BFCD0BFF35F8F3D68AC7B002CC4
:1022100000D168E063001B192A68033BD21851788B
:10222000A346A973002900D1E97396705670167001
:10223000B968384A8C4600980199A2181201624484
:10224000106051600C99280091600D99D1602A6846
:10225000944663449E705E701E70697B2200FFF797
:10226000E7FD6873844244D0FB681B19013B187872
:102270007B68BFF35F8F1E608AF31088002C45D007
:102280004346002B09D15B460002184303B03CBC17
:1022900090469946A246AB46F0BD4B46002B26D051
:1022A0000C9B0D990020984703000B431FD004009E
:1022B0000D1E09DA009A019B121BAB41009201939B
:1022C000002B09DBC84697E700F084F924184D413C
:1022D00000940195002DF5DA01230F4C5B42009329
:1022E0000194C84688E7002300209B46C0E70020F1
:1022F000CCE7387D009A019B00F046FA8046002822
:10230000B2D02100386800F0BDFDADE701204042A9
:10231000BCE7C046FFFFFF0FFFFFFF7FF0B50400E3
:102320000D0006267642F717C64636196F4100B5EE
:1023300084B08F4214D811D000F04CF932003B0029
:10234000121A8B41002B15DC002B3ED020002900F7
:1023500000F0C4F904B004BC9046F0BD8642EBD94D
:102360000026002700F036F932003B00121A8B419C
:10237000002BE9DD002302930193154B32000093FB
:1023800014483B00FFF728FF0028DFDB00239846B6
:10239000BC46114A114F7B6A9C4504D8B96AB142C8
:1023A000D4D29C45D2D11168EFF3108072B60B687D
:1023B000002BFCD0BFF35F8F1368BFF35F8F4146E4
:1023C000196080F3108820BFE5E7002ABED0D1E76E
:1023D000C11E0010C41100209C1C002000400540BC
:1023E00070B504000D0000F0F5F8001969410029EE
:1023F00002DBFFF793FF70BD012001494042F8E77F
:10240000FFFFFF7F70B5060000F0E4F8FA22040039
:102410000D00920000233000002103F0EFF90019B5
:102420006941002902DBFFF779FF70BD01200149F6
:102430004042F8E7FFFFFF7FF0B5EFF30583CE469C
:10244000474680B5050085B00C00002B11D02B4A03
:102450000020536AA34207D3926A0130AA4203D2F2
:102460001C1B601E8441E0B205B00CBC904699462E
:10247000F0BD234E02930193224B020000933000E3
:102480000B00FFF7A9FE0028E1DD20BF7268EFF323
:10249000108772B61368002BFCD0BFF35F8F3368D0
:1024A000C1B29C466246FF23527B03408A420BD056
:1024B0005A00914662461268994490464A46424400
:1024C000033A9278002A10D0F268000A90464344FA
:1024D000013B1A78C0B282420CD07368BFF35F8FA1
:1024E00000221A6087F31088B1E733699842F4D16B
:1024F0003261F2E7604600F0C5FCEEE700400540BF
:10250000C4110020C11E0010F8B5EFF30582CE46BD
:102510004746100080B51038EFF3108C72B6204C8F
:102520002368002BFCD0BFF35F8F0123190081408B
:102530001C4D1D4E716329601C4DA9462D782F003E
:10254000C7403B4015D0736A194E984683009E5988
:10255000B04517D3174A8D439B584A461570BFF3B1
:102560005F8F002222608CF31088002B06D09847E2
:1025700004E0BFF35F8F23608CF310880CBC90469F
:102580009946F8BD0C4B920098464244136813607C
:10259000BFF35F8F002323608CF31088EEE7C04603
:1025A000280100D03C70054000400540B21C0020CE
:1025B000A01C0020001C0020D03F054010B50100E9
:1025C000024A0348FFF74CFA10BDC046887D001050
:1025D000B01C0020044A516A00E01900906A536A56
:1025E0009942FAD17047C04600400540164A70B57E
:1025F000546A00E01C00956A536AA342FAD12A008B
:1026000023008018594105000E008C4202D819D1D0
:10261000824217D9012201256D42EE1752420A4C1F
:10262000636A9342FCD39A420BD1074B2800996A04
:10263000A94203D305E0996A814202D2596A9142C4
:10264000F9D070BD3200EAE700400540214B70B57B
:1026500098420BD843011B1A1F4A9B001818916A15
:10266000C000936A5B1A9842FBD870BDFA2200231F
:102670009200002103F0C2F8174B5C6A00E01400DE
:102680009D6A5A6AA242FAD12A0023008018594151
:1026900005000E008C4216D813D032000E4C636A2F
:1026A0009A42FCD89342E0D10B4B2800996A8D42A4
:1026B00003D8DAE7996A8842D7D9596A8A42F9D0A9
:1026C000D3E78242E9D9012201256D42EE17524239
:1026D000E4E7C0469BC4200000400540064A536A18
:1026E0009942FCD807D1044B02E05A6A914202D1C8
:1026F0009A6A8242F9D370470040054070B50400E1
:102700000D00EFF3108672B61A4A1368002BFCD046
:10271000BFF35F8F002D1BD02000FFF7EFF91649A4
:1027200088420AD02000FFF7F1F901212000FFF7CD
:10273000D3F90123A340114A1360114BA400E550C3
:10274000BFF35F8F00220B4B1A6086F3108870BDB9
:102750000B4BA200D5500122A2400A4920000B7861
:1027600093430B700449FFF7FBF900212000FFF7AA
:10277000B3F9E5E7280100D00925001038600540CD
:10278000001C0020B21C0020F0B5D6464F4646463D
:102790002E4CC0B5656A00E00D00A66A616AA942C8
:1027A000FAD1AB4209D806D0012420001CBC9046C7
:1027B0009946A246F0BDB242F6D9EFF3108972B63F
:1027C000234C21680029FCD0BFF35F8F01262149EB
:1027D00086408C460978204D0F0037438846F9B271
:1027E0008A46614654460C701849041DA4004E6385
:1027F0006250840063510D6A002435421AD04D6A3C
:1028000000E025008F6A4C6AAC42FAD1AB4219D87D
:1028100001D1BA4216D8C24516D00C4B0F4A1E62DF
:102820005E631F2318401E3B83401360634642468D
:1028300001241A70BFF35F8F0022054B1A6089F3E1
:102840001088B2E70024F5E70124F3E700400540D3
:10285000280100D0B21C0020A01C002080E200E073
:1028600010B5EFF3108472B60A490B68002BFCD048
:10287000BFF35F8F01238340074A08481362027841
:102880009A430270BFF35F8F00230B6084F31088BC
:1028900010BDC046280100D000400540B21C0020F9
:1028A00070B506000D00140000291ED0002A1ED0AD
:1028B00073688068984763006A001B195219033BCC
:1028C000033A3168002808D0CB188A189D70117817
:1028D00000290ED11470280008E08A18CB189470D3
:1028E0001978002900D051701D70200070BD0800BB
:1028F000FCE7597028001470F8E7C046F0B5DE46D2
:1029000057464E464546E0B58360002389B0426095
:10291000026806914373C9B2013305910173837351
:10292000C1730492012900D8A4E00A004B1ED9B259
:10293000931E0791072B00D8AEE00025CB08039328
:10294000049B564C591C564B56489B46564B9A4630
:10295000564B9C46564B0293524663465F465E4634
:1029600062401A40504B2740FB185A4006405346DD
:1029700001966646434033404B4E0A70B046019E76
:102980000135B146C844464673401604360ECE7033
:102990001602120E4A721A04120E0B73CA731A022E
:1029A0001B0E4B75029B360E5C4063461C40404B31
:1029B000120E9846029B47445840634618404B46C7
:1029C00043445840039BEDB28E718A747C401831A9
:1029D000AB42C1D1079907230A009A43531CDBB2CB
:1029E000914247D0049C5A00A446D218591C624414
:1029F000059DC9B2033A51708D423BD94A00521825
:102A0000981C6244C0B2033A5070854232D94200E9
:102A10001218D91C6244C9B2033A51708D4229D9A7
:102A20004A005218181D6244C0B2033A50708542E1
:102A300020D942001218591D6244C9B2033A51709C
:102A40008D4217D94A005218981D6244C0B2033A09
:102A5000507085420ED942001218D91D6244C9B285
:102A6000033A51708D4205D94A0052186244033A24
:102A700008335370FF23069A13405900C918049B6A
:102A80009C460023614403394B7009B03CBC90461E
:102A90009946A246AB46F0BD0123A3E70102030419
:102AA0007F7F7F7F0506070801010101808080800C
:102AB0000808080870B50400002907D04B0000681A
:102AC0005B18033BC3185A78002A01D1080070BD77
:102AD0005500AD18033D40190025467845705D70DE
:102AE0002000FFF7DDFE310005002000FFF7E2FFC8
:102AF000290002002000FFF7D3FE0100E6E7C046F0
:102B0000F0B54E464546DE465746E0B50E00740029
:102B10000168A41985B0033C01920A1905001078D8
:102B2000002850D043001B18033BCB185F78BC46ED
:102B3000002F1AD1019C002C42D0EC7B002C04D039
:102B400063001B19CB18033B5E70AB7B002B00D1DD
:102B5000AE73EE7300282FD10023537005B03CBC38
:102B600090469946A246AB46F0BD7A006244033ACD
:102B700089184A78934600224A7090465A7001009C
:102B80003A002800FFF78CFE5B468146002B07D0F9
:102B90005B0029685B44033BCB185A78002A16D1A6
:102BA0005A4649462800FFF77BFE2968019B0A190F
:102BB000002BC2D10028CFD043001B18033BCB18F9
:102BC00000219970C8E7019B002BB6D1C4E75000E3
:102BD0008018033809184878824640464870587073
:102BE00059462800FFF75CFE53468346002B07D06A
:102BF0005B0029685344033BCB185A78002A06D15E
:102C0000594652462800FFF74BFE8346C8E750005E
:102C100080180338091840464F784870587051465C
:102C200028000297FFF73CFE8246002F08D0BC46E2
:102C30007B0029686344033BCB185A78002A06D1ED
:102C40005146029A2800FFF72BFE8246D8E7500033
:102C500080180338091840464F7848705870029918
:102C600028000397FFF71CFE8046002F08D0BC46C3
:102C70007B0029686344033BCB185A78002A06D1AD
:102C8000039A41462800FFF70BFE0290D8E7032085
:102C900050430338091800204F7848705870039942
:102CA0002800FFF7FDFD390002902800FFF702FF22
:102CB000029902002800FFF7F3FD0390E0E7C04609
:102CC000F0B54E464546DE465746E0B5467B040025
:102CD00075000068AD19033D85B042190191117866
:102CE000002952D04B005B18033BC3185F78BC46E9
:102CF000002F1CD1019D002D44D0E57B002D04D078
:102D00006B005B19C318033B5E70A37B002B00D1E3
:102D1000A673E673002931D100233000537061732C
:102D200005B03CBC90469946A246AB46F0BD7A0041
:102D30006244033A801842789346002242709046DB
:102D40005A7020003A00FFF7ABFD5B468146002B2E
:102D500007D05B0021685B44033BCB185A78002AFC
:102D600017D15A4649462000FFF79AFD019B010002
:102D700020684219002BC0D10029CDD04B005B1830
:102D8000033BC31800209870C6E7019B002BB4D109
:102D9000C2E7500080180338091848788246404638
:102DA0004870587059462000FFF77AFD5346834615
:102DB000002B07D05B0021685344033BCB185A78A3
:102DC000002A06D1594652462000FFF769FD834686
:102DD000C7E7500080180338091840464F784870FC
:102DE0005870514620000297FFF75AFD8246002F87
:102DF00008D0BC467B0021686344033BCB185A785B
:102E0000002A06D15146029A2000FFF749FD82466A
:102E1000D8E7500080180338091840464F784870AA
:102E20005870029920000397FFF73AFD8046002F63
:102E300008D0BC467B0021686344033BCB185A781A
:102E4000002A06D1039A41462000FFF729FD02908F
:102E5000D8E7032050430338091800204F78487002
:102E6000587003992000FFF71BFD390002902000E5
:102E7000FFF720FE029902002000FFF711FD0390EA
:102E8000E0E7C04670B5040000292CD0437B8B429C
:102E90002ED0056848004018033828188278002A88
:102EA00021D053009B18033BEB181A788A4202D1B9
:102EB0001BE0002A08D053009B18033BEB185A78FC
:102EC0008A42F6D142785A700023012283704370FF
:102ED0002000FFF715FE617B02002000FFF7E0FCF9
:102EE0006073012000E0002070BD42781A70EBE7AB
:102EF00001221900FFF704FE60730120F4E7C046C9
:102F000030B50C2083B000F0BBF9FEF7A1FD00281E
:102F10000ED0994B994A1A605A609A60DA601A6129
:102F20005A619A61DA611A62954A5A6203B030BDF9
:102F3000944CA06700F0ACF90122934B1A60636CCB
:102F4000012BFCD10322914B1A608E4A936B012B0B
:102F5000FCD1013300938E4A043301218D4800F0E7
:102F60003FF905238C4A009301218C4800F038F981
:102F70008B4B5A68FF2A02D8802252005A60802266
:102F80007D4C824B21691201854D1A60002907D0C2
:102F9000606901F009FE431C5800C0180338FDD2D7
:102FA000E0217F4B02201A681140802252012A43FF
:102FB00011601968484003210140116004219A689A
:102FC0001142FCD08022802192012A430901116024
:102FD000802252005A60734B2361734B5968FF295A
:102FE00000D85A6003227048674B01211A60020022
:102FF00093681942FCD0E02513681D4080235B01D3
:1030000003431D6012684A400321114019600221E8
:10301000654A93681942FCD0802380219B010343B9
:10302000090119608021614B490051606361604B67
:103030005A68FF2A00D8596080225E4BE16912016C
:103040005B4D1A60002907D0606901F0ADFD431C9B
:103050005800C0180338FDD2E02255490B681A40C9
:1030600080235B012B431A60802380229B012B432A
:1030700012011A608022414B52004A60E3614E4BBC
:103080005968FF2900D85A6080224C4B216A1201EE
:10309000494D1A60002907D0606901F085FD431C85
:1030A0005800C0180338FDD2E02243490B681A408B
:1030B00080235B012B431A60802380229B012B43DA
:1030C00012011A6080235B004B602C4B3C4A236248
:1030D0003C4B5968914201D801325A6080223A4BE8
:1030E000616A1201374D1A60002907D0606901F04A
:1030F0005BFD431C5800C0180338FDD2E022314963
:103100000B681A4080235B012B431A6080238022C6
:103110009B012B4312011A608023DB024B60184B8A
:1031200063622A4B5A68FF2A02D8802252005A60F2
:103130008022274BA1691201244D1A60002907D073
:10314000606901F031FD431C5800C0180338FDD2FE
:10315000E0221E490B681A4080235B012B431A6052
:10316000802380229B012B4312011A6080235B0085
:103170004B600E4BA361D9E6101C0020006CDC02F2
:103180001BB70000008000403CB0004030B0004061
:10319000002F685900800240008C864700C0024022
:1031A00030800040001BB7003C800040405973074E
:1031B0005480004054B000406080004060B0004047
:1031C000FFFF03006C8000406CB00040488000406E
:1031D00048B00040014B8000C0587047101C0020D0
:1031E000F8B50400214817001E000D0001F0DCFCBA
:1031F0000100380001F0D8FC069A3304120313438F
:103200002268002A21DB1A4A1A4EA21851424A416A
:10321000802149018C4652420A40174962440A60A3
:1032200016490A601700B1688F43FBD1C021221DE7
:103230008901114321222560A0600A602268002ACA
:10324000FCDAE36008230B60F8BD3F2221680A40E6
:10325000AA42D8D1A2681205120D8242D3D1EE2122
:10326000E268C9020A409A42CDD1EDE7001BB700DF
:103270000040FDBF00C0004000E0004000F0004002
:103280008023024A9B000343D362704700800540BD
:10329000AA23064A1B0113602F230549D360054B5F
:1032A00019605368002BFCDA7047C04600400240AA
:1032B00000B0FA00006002402D4B2E4A70B51A6033
:1032C0002D4A2E4B2E491A6010008B689843FBD173
:1032D0002C4C2D4B9C4209D2013B1D1BAD080135E6
:1032E000AD002D1908CC9847AC42FBD1FFF708FE82
:1032F000264A224B1A60224A9368DB018033FBD1B5
:103300004022234B234D24489A675A671A67DA668E
:10331000A84205D30EE0FEF77DFD2000AC4209D2A5
:10332000040003680834002BF5D1FEF765FD20008A
:10333000AC42F5D3194C1A4DA168C022280002F006
:10334000E5FAA560FEF7AEFBFEF73CFDFEF70EFFCB
:10335000144C154B9C4209D2013B1D1BAD08013595
:10336000AD002D1908CC9847A542FBD170BDC046D1
:1033700000E00040BFCDFBFEFE7F3C0000F00040BF
:1033800000C00040681A0020781A0020FFFFFF01EB
:1033900000F00140681A0020601A002000ED00E0F3
:1033A00000000020781A0020801A002000BEFDE7EF
:1033B000094A1368002B06D008491818884208D813
:1033C000106018007047064B0449181813608842B3
:1033D000F6D901235B42F4E7801C002000000420A2
:1033E000B81E002000207047012040427047C046B0
:1033F00010B5FFF7DBFFC0460FB400B5084883B037
:1034000002F0C2FB049B002B07D005A91800019114
:1034100001F054FB034802F0B7FB0120FFF7C6FFA1
:10342000B87D0010C87D001010B50148FFF7E4FF1B
:10343000AC7D00109A4200D2885470477047C04655
:10344000F8B557464E464546DE46E0B599460A9BD6
:1034500007009A460D9B884693460B9E15009B07D6
:103460000FD10C9B9E420CD29D1B0E005D44541C40
:103470004B4631002020B8472200A542F7D1B04684
:103480000B9E002E28D04446AD195346AA1B013E80
:10349000985D21004B46B847002EF6D123002C0042
:1034A00098460D9B9B0710D55B46E51A0C9BAB42DB
:1034B0000BD946462200984601344B463100202065
:1034C0000135B8472200A845F6D820003CBC9046FC
:1034D0009946A246AB46F8BD2C00E2E7F0B54F4650
:1034E0004646D646C0B584B098460EAB1B78944687
:1034F0009946129B0D9C109F119E9A0724D401227D
:103500001A409246002E62D1BC420CD21F2C00D928
:10351000B8E00C9A551E302201E0202C03D0013473
:103520002A55A742F9D85246002A0DD0A6420BD9F7
:10353000202C5AD00C9A551E302201E0202C54D059
:1035400001342A55B442F9D1DA0632D55A0555D498
:10355000002C4FD10F9A102A00D18CE0022A00D102
:103560007EE030220C9C22704A460124002A25D09D
:103570002D220C9D2A55013403930C9B0296009337
:10358000019443466246FFF75BFF04B01CBC9046C3
:103590009946A246F0BD202CEED00C9A15190134A4
:1035A00078222A70202CE7D030250C9A1219157039
:1035B0000134202CE0D04A46002AD9D15A0728D419
:1035C0001A07D9D520220C9D2A550134D4E7002AA8
:1035D00024D04A46002A28D10C321A4225D1BC42B6
:1035E000A4D21F2C95D9202E1DD92024DA06C3D5AC
:1035F0005A0503D4A7421AD0B44218D00F9A102A01
:103600001FD0022ACED1202CB6D00C9A1219013428
:103610002EE02B220C9D2A550134ADE7BC4293D2FB
:103620001F2C00D875E720248EE7013ED7E7621EE5
:10363000002A10D00F9D102D2DD0022D15D0140072
:10364000B2E79A06A7D5202C96D058250C9A1219C5
:1036500015700134A6E70F9C102C15D0022CEED16A
:1036600062220C9C227001249EE70C9DAA465244C3
:103670006225157096E79A06E7D478220C9C227092
:10368000012491E720244EE79A06F6D558220C9C97
:103690002270012488E7023C9D06D6D40C9D2D198A
:1036A00014007DE710B5002800D110BD02F020FA0B
:1036B000FBE7C046F0B5454657464E46DE46E0B508
:1036C0009BB0249D259C82468846099299462A00F3
:1036D00023002800210001F028FD002800D0CBE0C5
:1036E0000122D94B52422800210001F019FD002887
:1036F00000D0C1E00122D54B52422800210001F048
:1037000001FD002800D0B7E000220023280021009E
:1037100001F0F8FC002800D0EDE1AB4608948023CE
:10372000289ADB001A40119201D1062326935B46AA
:103730000C9380235946289A1B011A40089B10922B
:103740000B4300D0AFE0002A00D0BFE104260D9368
:103750000E930C9300230A93279BB34201D99B1B22
:103760000A930227289B1F4005D0734273410A9A8F
:103770005B421A400A920C9B002B07D058460899CE
:103780000D9A0E9B01F05DFC8346089100220023F8
:103790002800210001F0B6FC002805D0802000069A
:1037A0008446089961440891289AA94B41461340E0
:1037B0005A4604930A9B50460393269B0293089B08
:1037C000009201934B46099A00F0A2F9002E63D0B3
:1037D000289B02009C061F23E4179C436534431C6E
:1037E000089320004B464146D0470C9B0024DA1733
:1037F0009D18DB0F9B46731E55400C9302E005009D
:10380000202C11D00AAA94461F23013463440A21B4
:1038100028001E1901F0C8F93031317028000A2142
:1038200001F0C2F9092DEAD8052306930C9B0194F7
:103830000593002304930A3303935B46029312AB70
:103840000093089A4B4641465046FFF747FE002F2B
:1038500022D0099BC41A279BA3421DD902005746B8
:103860001E00551C4B46414620200134B8472A0013
:10387000A642F6D828000FE0289B2A000493279B35
:1038800041460393269B50460293230000920193E6
:103890004B46099A00F03CF91BB03CBC9046994657
:1038A000A246AB46F0BD6B4A089B94465800400DBB
:1038B000604401F04DFC684A684B01F0E0FB684A47
:1038C000684B01F0B5FB089B674A1B031B0B1A43AF
:1038D00006000F000C981100644B002201F09FFBC2
:1038E000634A644B01F0CBFB02000B00300039004F
:1038F00001F09EFB01F044FC0C9001F029FC5E4AB3
:103900005E4B06000F0001F0BAFB00225C4B01F099
:103910008FFB01F035FC5B4A5B4B0D9039003000AA
:1039200001F0ADFB06000D980F0001F011FC574AA5
:10393000574B01F0A4FB02000B003000390001F0EE
:103940006EFB02000B000A900B9101F098FB060041
:103950000F000A980B9902000B0001F069FB00228E
:103960000E900F914B4B3000390001F06AFB0022A2
:10397000494B01F05DFB02000B003000390001F003
:1039800060FB0022454B01F053FB02000B003000AE
:10399000390001F056FB0A9A0B9B0F0080210600AC
:1039A000C905002001F03BFB02000B00300039008C
:1039B00001F03EFB3A4F02000B000E980F9901F008
:1039C00040FB0022284B01F033FBBC460D9A6244B9
:1039D00016000022330501F052FB07000D900E0087
:1039E0000E9102000B005846089901F08BFB00284D
:1039F0005ED13B003200C6260C9963318E42B6413F
:103A0000109976420436002900D1A3E6134361D011
:103A1000089F244A244B5846390001F079FB0028BE
:103A200007D00022214B5846390001F06BFB0028DB
:103A300050D1269B002B00D18CE6119B5A1E93413E
:103A4000269AD31A269385E6FFFFEF7FFFFFEFFF4D
:103A5000FFF7FFFF01FCFFFFFB799F501344D33FAB
:103A6000B3C8608B288AC63F0000F03F0000F83FD3
:103A700061436F63A787D23F71A379094F930A40CF
:103A80000000E03F1655B5BBB16B0240EF39FAFEBE
:103A9000422EE63F00002C40000024400000184069
:103AA000FF0300002D431CEBE2361A3F80842E41B9
:103AB0000C9B0022013B0C930D98144B0E9901F0C6
:103AC000C0FA03000D900A000E9194E700230D93B5
:103AD0000E930C93269B19000C9B994213DDCB1A75
:103AE000013B26938023289ADB001A430023289267
:103AF00000260C932EE680231B069C46A4446346B6
:103B0000AB4608930BE600232693EBE70000244026
:103B1000F0B5DE4657464E464546E0B597B080467E
:103B2000894692469B46209A219B1000190001F07D
:103B3000FCFA002800D01FE2209821990122CC4BEA
:103B4000524201F0DFFA002800D03EE1209821998E
:103B50000122C84B524201F0E3FA002800D0E7E00E
:103B6000209821990022C44B01F0DAFA002800D0F5
:103B7000C7E0209821990022C04B01F0C3FA002829
:103B800000D0BEE0209821990022002301F0BAFA6B
:103B9000002800D0E1E0002380240D93249BE40062
:103BA0001C4000D0E9E000220626B54B06920793A0
:103BB0000EAB08932098219901F0E2FA07000C90CF
:103BC00001F0C6FA02000B002098219901F027FAB3
:103BD000069A079B01F053FA0A900B9101F0F4FA50
:103BE0000500099001F0B0FA02000B000A980B9949
:103BF00001F015FA0022A34B0A900B9101F090FA04
:103C0000002800D148E12B0001331800099301F08E
:103C10009BFA069A079B01F07BFA002804D03B0030
:103C200001330C9300230993002E00D0D5E00C9DA6
:103C3000280001F08DFA02000B002098219901F074
:103C4000EEF900228F4B06000F0001F05BFA00280E
:103C500008D100228B4B3000390001F061FA0028B6
:103C600000D17EE1202C00D1FAE00C9F0A2138001F
:103C700000F072FF089E3031315538000A21651C72
:103C800000F06AFF002800D180E1202D00D1E7E09C
:103C90000A2100F061FF303171553800642100F0D5
:103CA0005BFF0234051E14D0202C00D1D8E008AAF6
:103CB000944617232800634401340A211E1900F09A
:103CC0004BFF3031317028000A2100F045FF051EFE
:103CD000EAD10323249A1340012B00D1ECE0202CDD
:103CE00000D1C2E00D9B002B00D111E12D23089AD9
:103CF000651C1355249B01950393239B0293089BFA
:103D000020E0249B52460493239B49460393229B25
:103D100040460293209B219C009301945B46FFF751
:103D2000C9FC17B03CBC90469946A246AB46F0BDD4
:103D3000249B5B070ED40322534B249901920391D9
:103D400023990291009352465B4649464046FFF74D
:103D500077FBE6E74D4B0422EFE7209A219B0020FA
:103D6000002101F05CF9012380240D93249BE400E1
:103D7000209021911C4000D115E7229B092B00D8EF
:103D800008E1190030230EAA4E1E08921370092E66
:103D900000D1F9E0537008AA0C0094468E1E17213A
:103DA000093C02236144302205E00133CA54013E3C
:103DB000202B00D1A3E09C42F7D1354BF2009B1899
:103DC0001A685B6806920793F4E6249B0393239B8F
:103DD0000293042301932F4BB4E7202C40D0099D7C
:103DE000731E0A212800069300F0DEFE089B303186
:103DF000195528000A2100F0D7FE671C0995092DE6
:103E000000D892E0202F2BD0B11E06910A2100F09D
:103E1000CBFE089B3031D9550998642100F0C4FECF
:103E2000099AA51C0700632A00D87FE03419013CD9
:103E300014E0631B08AA06939446172301356344D4
:103E40000A2138005E1900F0AFFE303131703800C1
:103E50000A2100F0A9FE092F68D90700202DE8D11A
:103E60000323249A1340012B25D0202542E7C04686
:103E7000FFFFEFFFFFFFEF7F65CDCD4165CDCDC1EA
:103E800080842E410000E03FAC7F0010B07F001026
:103E9000C87F0010BC7F001000220A980B99494B84
:103EA00001F030F9002800D0BEE62B1E60D1099B3E
:103EB00001330993B8E62024239B002B00D10EE7A1
:103EC0000D9B002B03D1249A0C33134202D0239B69
:103ED000013B2393239BA34200D800E708AA944602
:103EE000172330226344202CBFD0239901341A5564
:103EF0008C4200D1F3E6202CF7D12025FAE6324B94
:103F0000F2009B185C681B6806930794202451E616
:103F1000249B5B0720D4249B25001B0700D4E9E6E3
:103F20002023089A01351355E4E63D00202D97D053
:103F300008A98C46172306986344421930210028AB
:103F400026D001355955202D30D0AA42F9D12E2343
:103F50000899541C8B5485E62B23089A651C13552D
:103F6000C8E60123AC462B409C4463460C9379E69B
:103F7000DB0700D458E69AE7249B0393239B029324
:103F800003230193114BDDE6012416E72C00A0E684
:103F90002A00DCE7DA001E000B4B9B185C681B68EC
:103FA000069307940EAB0024089303E60323249A98
:103FB0001340012B00D09DE6239B002B00D199E6F6
:103FC00020247DE70000E03FC87F0010B87F00108C
:103FD000F0B54546DE4657464E46E0B5A1B01D0059
:103FE0002A9B90460B93BD4ABD4B0A908B461A60A4
:103FF000002900D10DE2002328789A46002861D0DC
:10400000B84B56469946C24609E0741C32005346E6
:104010000A9E5946B04726002878002850D001351E
:104020002528F2D1042328789846023B9C460300B9
:10403000203B691CDBB200240A00102B0ED84F462F
:104040009B00FB589F4601230D001C432878691CE8
:104050000300203BDBB20A00102BF0D90300303BF9
:10406000092B41D900272A286AD000230C932E2837
:1040700051D00300683BDBB2122B5FD89A499B00FA
:10408000CB589F4663460D001C43DFE743460D00B7
:104090001C43DBE710230D001C43D7E708230D006A
:1040A0001C43D3E780235B0068781C43551C030046
:1040B000253BDBB2532BA8D88C4A9B00D3589F4694
:1040C000D046B2465246D04501D843465A1E4346D2
:1040D000594600200A9CA047504621B03CBC90465F
:1040E0009946A246AB46F0BD0027030001E00D0053
:1040F0000131B800C0194000C0180B7830381A00E0
:10410000303A0700092AF2D918000023AA1C0C93A0
:104110000D002E28ADD180236878DB001C430300FE
:10412000303B092B00D877E12A2800D1ABE103000E
:10413000683BDBB215000132122B9FD91500B6E7A0
:104140000B9B80CB002F00DA5BE16878AA1C0B93F5
:104150000D008AE768786C2800D14DE280235B006F
:104160001C43551CA3E780239B0068781C43551C07
:104170009DE76878682800D139E28023551C1C43EC
:1041800095E70B9B04CB98460C9B0B921078002B69
:1041900000D0A2E1002801D100F071FC02235B42B3
:1041A0005A1C0B9B944619000D92614401E08B420E
:1041B00006D001331A78002AF9D10B9A9B1A0D9375
:1041C0008023DB0023400E9305D00D9B19000C9B30
:1041D000994200D90D93022323400F9300D140E26E
:1041E000002800D126E20E9B002B00D1E6E14146DB
:1041F0000C9B0C9129009C190B9B5D469B1B32006C
:10420000B8460B938B460AE0534629000A9F561C7A
:10421000B8470B9B985D002800D104E2320094421D
:10422000F2D10C9B474698465B462600AB461D00E4
:104230000F9B002B00D0FDE143460B93ECE60B9B5C
:1042400004CB0B93002A00D128E121231C43A44670
:1042500010A988461F240F2144440023884603E008
:10426000202B00D124E10A0041461140CFB2380092
:104270003730092900D807380133E05411090F2AD3
:10428000EED815E10B9B04330C93731C0D939846E9
:10429000A30700D406E20B9B320018785946534618
:1042A0000A9CA047BE19012F00D8A7E22B00424666
:1042B0005546B0469A465E460A9F541C2B00310074
:1042C0002020B84722004445F7D15346B346AA46BA
:1042D00026001D000C9B0B939EE6C046D13F0010AC
:1042E000841C0020CC7D0010107E00105C7E00102D
:1042F000782800D152E2582800D183E16F2800D1FC
:10430000F3E0622800D156E3102322009A43802371
:10431000DB000D922340692800D0BCE30A220E92F4
:10432000002B00D146E201230D9A9A430D9280247E
:104330000D9BA40023409C46692800D1E7E0642837
:1043400000D1E4E06346002B00D094E280230D9A74
:104350005B001A400B9B904604330F93002A00D059
:104360002CE30D9B5B0600D544E20D9B1B0600D49D
:1043700088E30B9B1B881800031E00D04DE20D9AAA
:104380001033110099430D91520500D445E20023EA
:1043900098460D9B059706930C9B04930E9B0393E5
:1043A000002302934346019318AB00933200534617
:1043B00059460A98FFF792F80F9B06000B932BE6DD
:1043C000462800D18EE007220B9B049407339343C9
:1043D00019000C9A039702920CC90A980092019353
:1043E0000B91320053465946FFF792FB060013E645
:1043F000741C320053460A9E59462520B0472600B9
:104400000AE60222687814437F42AA1C0B930D002F
:104410002BE6D34B0A93EEE50023010000E02A00CF
:104420009800C01840004018517803000800303848
:10443000551C303B0928F2D90C930800023218E6CB
:10444000202302009A43472A04D180231B011C43E6
:1044500002239843452801D120231C4307220B9BAC
:1044600004940733934319000C9A039702920CC9E2
:104470000A98009201930B91320053465946FFF778
:1044800019F90600C8E50B9BA87802CBCA43D217DE
:1044900011400C91EA1C0B930235EAE51023210030
:1044A0009943113319438C460023610500D4CFE6AC
:1044B00062460692082205920C9A049210220392F8
:1044C00000220292019318AB0093320053465946E2
:1044D0000A98FFF703F806009EE5002800D1CDE218
:1044E000013B5DE620231C436DE708230E93220069
:1044F0000D948023DB001340642800D0CEE2002B13
:1045000000D010E780241300A40023409C4663469B
:10451000002B00D0E5E080230D9A5B001A400B9B36
:10452000904604330F93002A00D0C6E10D9B5B0632
:1045300000D547E10D9B1B0600D499E20B9B00229E
:104540009B5ED9175A184A401000DA0F1492002BBC
:1045500009D1802310220D99DB000B4091430D916E
:10456000002B00D050E10D9A6123920600D5412323
:1045700010AA1F249446DBB264440A3B1597169692
:104580000B9346460700A84625000E9C0AE03033F0
:10459000DBB20136AB55A74200D231E1202E00D16B
:1045A0002EE107002100380000F0FEFACBB2092905
:1045B000EDD90B9A94466344DBB2EAE70B9B3200D9
:1045C0009E1B33005E46AB4655469A460B970A9FA4
:1045D0002B003100541CB8475346185D22000028B8
:1045E000F6D1AA460B9F5D46B346260020E6C023BF
:1045F000A8781C4303355AE5C0239B00A8781C43C8
:10460000033554E50C2322009A4314331A430D92C8
:10461000630500D5D3E080239B001C40F13BFF3BAA
:10462000A4460E938EE60C9B474698465B46AB46E7
:104630001D00FDE50D9B32009F4200D8FCE5BE1930
:10464000F61A2B005D469B460A9F541C53462900D0
:104650002020B8472200B442F7D15B46AB461D008C
:10466000EAE50D9A531C974200D812E2BB199B1A37
:104670000D971F0032005E46AB460A9D541C534600
:1046800031002020A8472200BC42F7D15D46B34646
:1046900026000D9F7B1C0D930B9B1878002800D0E3
:1046A000A1E5C9E5012F00D8F0E1731E3200A8464C
:1046B000DF190A9E5D460D9C00E001345346290037
:1046C0002020B0472200BC42F7D12600AB46454629
:1046D00001360B9B3A001878594653460A9CA0476E
:1046E000F8E507220B9B07339343013294469C4421
:1046F00062460B921A685B689C46DB171293139311
:104700001298139903005340109364460B006340C2
:104710001193109B119C1B1A8C41109311946346AA
:10472000DB0F149363461A4350D00D9A612392060F
:1047300000D541230022DBB2904610AA0A3B1F2479
:1047400094460F935B46644417932300159716967F
:10475000AB46109E119F44460E9D984610E0C04601
:104760003D3400103032D2B2434601341A55002392
:10477000BB4200D167E1202C00D167E106000F00A9
:104780002A0000233000390000F04CFAD2B2092A86
:10479000E8D90F9B9C466244D2B2E5E78023102201
:1047A000DB0023400E920C2294430D94002B00D189
:1047B000BDE5B8E580239B001C40A446A7E6102376
:1047C0000E93B0E50B9B1B781A00BDE60D9A1023E3
:1047D000110099430D915205A7D5002398460D9BD2
:1047E000059706930C9B04930E9B0393149B0293D3
:1047F000434667E60B9B1B781800BDE50D9E69E5F7
:104800004546159FB046169E0D9B059706930C9B3B
:1048100004930E9B0393149BC3E50D9A61239206A8
:1048200000D5412310AA1F249446DBB264440A3BFE
:10483000149715960B9346460700A84625000E9C34
:1048400008E03033DBB20136AB55A7420ED3202E41
:104850000CD007002100380000F0A6F9CBB20929DE
:10486000EFD90B9A94466344DBB2ECE74546149FBC
:10487000B046159E8DE507220B9B0733934301320B
:1048800094469C4462460B921A68596813001000C3
:1048900009910B435CD10D9A1033110099430D918E
:1048A000520555D5002398460D9B059706930C9B02
:1048B00004930E9B0393002399E70B9B1B68D91766
:1048C0005A184A401000DA0F1692002B08D18023A4
:1048D00010220D99DB000B4091430D91002B2CD140
:1048E0000D9A6123920600D5412310AA90461F24F9
:1048F000DBB244440A3B14971596A8460B93250057
:10490000070066460E9C08E03033DBB20136AB553B
:10491000A7420ED3202E0CD007002100380000F053
:1049200043F9CBB20929EFD90B9A94466344DBB221
:10493000ECE74546B446149F159E0D9B05970693DC
:104940000C9B04930E9B0393169B029363462AE5EC
:104950000D9A6123920600D541230022DBB29046D6
:1049600010AA0A3B1F2494460F935B466444149795
:104970001596AB4646461693A0460E9D099F040029
:104980000BE03032D2B2434601369A550023BB4287
:1049900065D0202E65D004000F002A0000232000DF
:1049A000390000F03FF9D2B2092AEAD90F9B9C46A0
:1049B0006244D2B2E7E702230E9398E50B9B1B6893
:1049C000181E08D1802310220D99DB000B40914363
:1049D0000D91002B2CD10D9A6123920600D5412315
:1049E00010AA90461F24DBB244440A3B1497159644
:1049F000A8460B932500070066460E9C08E030335E
:104A0000DBB20136AB55A7420ED3202E0CD00700E7
:104A10002100380000F0C8F8CBB20929EFD90B9A71
:104A200094466344DBB2ECE74546B446149F159EBA
:104A30000D9B059706930C9B04930E9B03930023F9
:104A400002936346AFE4B54200D894E6179B1096F4
:104A500011975D46159F169EA0469B46BFE6A54250
:104A600097D9169BB0465D46149F159E9B461BE743
:104A70000B9B1B68D9175A184A4065E500230D9314
:104A8000FFF79EFB0B9B1B68180075E437000D9E1B
:104A90001FE60D9302E60A230E932AE5140082E630
:104AA00000B583B0009313000A0001000248FFF72D
:104AB0008FFA03B000BDC0463534001010B5094A66
:104AC00084B01468002C09D00122009103005242E6
:104AD00003A90548A047012004B010BD01F054F817
:104AE0000020F9E7841C0020A536001001480421AD
:104AF000014B1847F01100201D4B0010142310B576
:104B00000100188804331B88984710BD162310B580
:104B10000100188802331B88984710BDF0B5C646BF
:104B200000B5002916D01423040001259846182743
:104B3000890046184346216818883B88984701C475
:104B4000431E984140420540A642F3D1280004BCD0
:104B50009046F0BD0125F9E7124A936F9B0815D2E4
:104B60009066D166002905D0FFE7FFE7FFE7516FA8
:104B7000106F704704B580210906C2175140002804
:104B800000D0C84303F094F8002104BDF0B5146EC2
:104B9000556E576F166FFFF7E3FF1466556657673C
:104BA0001667F0BD000000D0114A936F9B0813D226
:104BB00010665166002905D0FFE7FFE7FFE7516F58
:104BC000106F704704B5002801D00020C04303F0E7
:104BD0006FF8002104BDC046F0B5146E556E576FD6
:104BE000166FFFF7E5FF1466556657671667F0BD49
:104BF000000000D094464A4A926F9208624601D261
:104C000028E0C046F0B5464E346E756E776F366F4D
:104C100000F020F89446424A1466556657671667B6
:104C20006246F0BD94463E4A926F9208624601D2B7
:104C300054E0C046F0B53A4E346E756E776F366FFD
:104C400000F04CF89446364A146655665767166766
:104C50006246F0BD002B24DB11D000293EDA00B5FE
:104C6000C943404200D1013100F038F8C943404205
:104C700000D10131DB43524200D1013300BD002A93
:104C8000EBD1002801D1002905D00020C90FC907A8
:104C900001D1C043410800B502F0E2FF0022002329
:104CA00000BD00B500290ADBDB43524200D10133CD
:104CB00000F014F8C943404200D1013100BDC9439E
:104CC000404200D10131DB43524200D1013300F0B8
:104CD00005F8DB43524200D1013300BD002923D146
:104CE000002B18D1002A0CD0BC460D4F38667A66CE
:104CF00000210023FFE7FFE7FFE77A6F386F674681
:104D00007047002801D00748010000B502F0A8FF55
:104D10000022002300BD02000B000020002170478C
:104D2000000000D0FFFFFFFF002B00D0BFE0130CFE
:104D300028D1002AE7D080B4114F39667A66FFE7A0
:104D4000FFE730B4040C7B6F396F1B0423433B66D1
:104D50007A66FFE7FFE7FFE7C04684B27B6F3D6FEF
:104D60001B0423433B667A66FFE7FFE7C046002348
:104D70002C042D0C7A6F386F00196941B0BC704754
:104D8000000000D0F0B594460025140E01D11202A7
:104D90000835140F01D112010435940F01D192008E
:104DA0000235D40F01D152000135D40B0134254F07
:104DB0007C66254C3C660E0C93B2FFE7FFE7FFE7ED
:104DC0003C6F6643360C7703BE467343DF0B5B04D0
:104DD000C01AB941130C7343DB18C91ACE086643D5
:104DE000360CB64493B273431F0F1B01C01AB9416E
:104DF000130C73431F0B1B05C01AB941860D8F029C
:104E00003E436643360C092D24DB520A7243801A56
:104E10007703460A6643360C16235B1BDE40DF40F1
:104E2000BF1964466643821B704604350633010091
:104E3000D940A840C01900D30131A24206D20023B4
:104E4000F0BD0000000000D0FFFFFFFF121B01308B
:104E5000F3D3F1E709277F1BFE406446A2B27243F9
:104E6000801A00D20139220C7243130C1204821AE8
:104E700099410B007046043513370100F940A840F2
:104E8000801900D30131002B02D1A2420AD2F0BD19
:104E9000013000D30131121BFAD2013BF8D1A242FA
:104EA00000D2F0BD013000D30131121BF7E7F0B59D
:104EB0001C0C00D080E00CB400251C0A04D11B029D
:104EC000160E3343120208351C0B04D11B01160FBA
:104ED0003343120104359C0B04D19B00960F3343DE
:104EE00092000235DC0B02D192185B4101351C00A7
:104EF000971864410134464F7C66464C3C660E0C64
:104F0000FFE7FFE7FFE7C0463C6F6643360C7703D9
:104F1000BE4697B27743C01B00D20139C01B00D2F6
:104F200001399FB27743C91BC91B170C77437E0415
:104F3000FF0B801BB941CE086643360C0C2D33DBCA
:104F4000B644120B1F053A431B0B97B27743C01BA5
:104F500000D201399FB27743C91B170C77433E0437
:104F60003F0C801BB941860D8F023E4366432927C3
:104F70007F1BFE400C3D7746AF40BF1930BCA2B24C
:104F8000ABB272437343801A9941220C7243130CE3
:104F90001204801A994102000B000137001BA9413D
:104FA000F9D2781E0021F0BD0C277F1BFE4077460A
:104FB0007F0BAF40FF19E0E700245D1C07D0144FC2
:104FC0007D663966FFE7FFE7FFE7FFE73C6F95B2D5
:104FD0009EB265436643401BB141150C1E0C6543F0
:104FE000664336042F0C3E432D04401BB1419942C9
:104FF00004D202000B0020000021F0BD01D190423C
:10500000F7D3801A994101349942F2D3F6E70000B0
:10501000000000D0FFFFFFFF48404140484018B467
:105020001B4B5B68FC46019308BD04DFCF520010A8
:1050300018B4174B1B68FC46019308BD00DFD9521A
:1050400000109446134A926F920809D2624618B42F
:105050000F4BDB68FC46019308BD0CDF9155001037
:105060000C4AF0B5146E556E576F166F6246FFF717
:10507000EEFF084A1466556657671667F0BD18B408
:10508000034B9B68FC46019308BD08DF35540010B4
:10509000B41C0020000000D0FFB5504042405040FA
:1050A00059404B40594000E0FFB5154F4C00640D8E
:1050B00003D0BC4204D10C0314D80020090D09050B
:1050C0005C00640D03D0BC4204D11C030AD800224A
:1050D0001B0D1B0501264B4009D44B4003D58B42C9
:1050E00000D18242FFBD9942FCD19042FFBD0B43EB
:1050F000DB1803431343F5D0C9434918FFBD000033
:10510000FF07000000B5FFF7CFFF804100BDC0469C
:1051100000B5FFF7C1FF01D9002000BD012000BD8F
:1051200000B5FFF7B9FF804100BD012040054A00EE
:10513000121804D85A00121801D800207047012014
:1051400070470020704700000021002805D17047FB
:10515000C1174840401AFAD0C90713B5064B1B685F
:1051600098470CBC441CA2401005120B0349091BB4
:1051700009051943114310BD981C00201F040000AD
:1051800010B54C00620D8023D218DB00D21A5B05EB
:105190007E2A10DD9E3A13DACC1709034908194319
:1051A0005242D140640001341532202A05DAD04041
:1051B0000843604310BD002010BD0846604310BD89
:1051C000C80FC018013810BD18B4044B5B6AFC4608
:1051D000019308BD24DF415700100000B41C0020DB
:1051E000132370B51D78012D15D010DD2648FFF76B
:1051F0008DFC264C01008022200000F087FB022D50
:1052000006D02348FFF77AFC224B186070BD1F4C74
:10521000214AA264F5E71D4C1F4AA3085B421D40CA
:105220002FD02B0022602020A9006118451B0A60A6
:105230004A608A60CA600A614A618A61CA610A6218
:105240004A628A62CA620A634A638A63CA630A64F8
:105250004A648A64CA640A654A658A65CA650A66D8
:105260004A668A66CA660A674A676D08102D03D1C6
:105270008A67CA67A264C4E71E339B00E250A26437
:10528000BFE70023CFE7C04653440000B41C002012
:105290004C330000981C00209D52001007B560465A
:1052A00001880A0A0230DF2AFAD1C9B2820804D37F
:1052B000028840880004104300E00068014A505012
:1052C000039007BDB41C00200FB403BC0CBCF0B5A8
:1052D0000124E407634000E0F0B50C0DCF0F661E1B
:1052E0003605891B640503D3C943404200D301310D
:1052F000640D03D0661CF60A07D0E41B00207F0073
:10530000791C89078912803C24031D0DDF0F6E1E56
:1053100036059B1B6D0503D3DB43524200D301339B
:105320006D0D03D06E1CF60A07D0ED1B00227F0026
:105330007B1C9B079B12803D2D032F1B661B58D4A3
:10534000A446202E46DA20371400BC401D00BD4084
:10535000F24033412A4380185941CB0F05D0C9434D
:10536000C043002264425041514162464D0D28D154
:105370000D0D07D100281FD0241940414941013AA1
:105380000D0DF9D0640006D3013000D30131002C9B
:1053900001D140084000013A0BD4941CE40A04D126
:1053A00012051144DB071944F0BDD907204B1943FE
:1053B00000E0D9070020F0BD0029DDD1002CDBD1B1
:1053C000F0BD0132C6074008CD0728434908002E2A
:1053D000E1D0D9E73C2E29DA203E40371400BC400A
:1053E00000D00124F24014431A00BB401C43D317E1
:1053F000ACE7AC46202F08DA20360400B4400D009C
:10540000B540F84039412843A5E73C2F0CDA203F4E
:1054100040360400B44000D00124F84004430800A2
:10542000B1400C43C117EAE710001900002494E7CB
:105430000000F07FF0B50C0D661E3605891BE60AEC
:105440006405640D02D0651CED0A04D00020012122
:105450000905803C2403A4461C0D671E3F05DB1B89
:10546000E70A6405640D02D0651CED0A04D0002231
:1054700001231B05803C24037740644497B484B225
:1054800096B27443070C7E43150C6F4380B2684399
:10549000361802D3012000043F183004350C0019DF
:1054A0007D41844688B29AB250430C0C62431F0C73
:1054B0007C438EB27E43921902D301263604A4198E
:1054C0001604170C3618674101BC81B29AB25143D9
:1054D000040C62431B0C5C4380B25843121802D385
:1054E0000120000424181004130C401863412D18E7
:1054F0005E410020474106BC88B293B258430C0C71
:105500006343120C544389B251435B1802D3012107
:105510000904641819041A0C091862416D185641DF
:105520000020474118BCF902720D1143F0026A0DC8
:105530001043ED020A0D03D16D1940414941013B71
:10554000124E9B1B7600B3420ED26D0007D3013082
:10555000002671416646354301D1400840001B05D5
:10556000C918E4072144F0BD0BDA013306D101303C
:1055700004D101314F0D01D04908F2E7E1070020C5
:10558000F0BD013631050020EBE70000FF0300000D
:10559000F0B51C0D671E3F05DB1BE70A6405640DB3
:1055A00002D0661CF60A04D0002201231B05803CB1
:1055B0002403D0252D060026F6432E661E096E66AE
:1055C000CE0FF619B44649004F0D02D07E1CF60AE4
:1055D00003D000200021403F3F033E1BB600B444EF
:1055E000013F7F05C91B49082E6F013676089C02D2
:1055F000950D25437543ED137543AD1301356D10BE
:10560000F603761B0CB4CC02450D2C43A2B2B3B208
:105610005A43270C7B43350C6F43A4B26C431B19D0
:1056200002D3012424043F191C041D0CA4187D413D
:1056300024196D41009A91B2ACB26143170C7C43BE
:105640002B0C5F4392B25A43A41802D301221204D6
:10565000BF182204230C52187B41019C6C431B1978
:10566000520ED9010A434401A01A81B2B2B2514389
:1056700003145A43360C734387B27743D617D219B3
:1056800000277E4136049B191704160C7F185E41D3
:105690007316ED18F301002680337541A90F06D16A
:1056A0006400690AE8055B0A184309D22FE0042266
:1056B000944480337541A90AA8059B0A184326D350
:1056C000404149412404009A019B0D005543641B4D
:1056D0004343E41A95B286B27543170C7E43030C1C
:1056E0005F4392B25A43B61802D301221204BF1884
:1056F0003204330C52197B4152429C41002C02D49B
:105700000022013051414008CA071043490802B045
:105710006246D7079210084BD218084B9A4203D220
:1057200012058918C919F0BD0020002A01DC3900D2
:10573000F0BD01331905F5E7FD030000FE07000089
:10574000002200B5203200F004F8080000BD00007F
:1057500000220B150AD410B5944600F031F8141449
:10576000013400DA0021CB17144C2047002000211F
:1057700070476244343A0CD40C2A07DA0400914092
:10578000904052422032D440214310BDD843D943E7
:1057900010BD203207D40C469440524220321141B1
:1057A000D040204310BD0800C917203203D4524214
:1057B0002032104110BD1800190010BD73570010A1
:1057C0000A0DCC0F531E1B05C91A520503D3C9433A
:1057D000404200D30131520D03D0531CDB0A07D0E5
:1057E000121B00206400611C89078912803A120391
:1057F000014BD21A70470000FF030000514343439E
:10580000C9188C46110C83B24B4310B4040C61438D
:1058100092B280B2504362431C041B0C001910BCAE
:1058200059411304120CC0185141614470470000E3
:10583000132310B51C781348FFF768F9012C0BD01F
:1058400004DD01008022104800F060F80F48FFF7E7
:1058500055F90F4B186010BD0B4C0100542220006D
:1058600000F054F80B4B6365A365E365236663663C
:10587000A366E36623676367A367E3672362E36165
:10588000E4E7C04653460000B41D00204C3300003E
:10589000981C00209958001007B5604601880A0A34
:1058A0000230DF2AFAD1C9B2820804D302884088C4
:1058B0000004104300E00068014A5050039007BD07
:1058C000B41D002010B5040001F032FC002804D003
:1058D000034B04199C4200D810BD0248FDF78CFD13
:1058E000000004201880001010B501F02BFC10BD42
:1058F00001480421014B1847001200201D4B0010E5
:10590000014B1B681847000000120020014B5B6828
:10591000184700000012002010B5FFF7D3FF10BD9C
:1059200010B5FFF7E1FF10BD10B5FFF7DDFF10BDAB
:10593000030010B508001B681100984710BDC04651
:10594000F8B54746CE4680B5437D80460C0015002D
:10595000002B43D0002A34DD0A78037D00200A2A78
:1059600033D0012D1ED0204B0121671E994602E045
:105970003100B54216D0635C7A5C4E1C0A2BF7D11D
:105980000D2AF5D043461B68884204DA091A20180C
:10599000984743461B68022148469847300031002B
:1059A000B542E8D1854204DD4346291A1B68201818
:1059B00098476419013C23780D3B5A4253414246B3
:1059C00013750CBC90469946F8BD002BC9D14346CF
:1059D000054802211B6898470120C2E703681100AF
:1059E00020009847EDE7C04688800010F0B5DE46FD
:1059F00057464E464546E0B585B017001C000600E8
:105A00000D00FCF7E7FD0023324A12184B41002B32
:105A10005BDB31490800884602F072F901906B1C8B
:105A200003D1300001F098FF0500002C28D12B4B4A
:105A30009A462B4B1C68002C15D0002F23D1294FE0
:105A400002E02469002C0ED02368002BF9D03B68BB
:105A5000002B01D0A342F4D120002A003100D0470E
:105A60002469002CF0D1019B002B2AD1681E8541AE
:105A7000E8B205B03CBC90469946A246AB46F0BDA4
:105A8000194B9A46D5E7174B9B4602ABDF1D0A23FD
:105A9000994602E02469002CE5D02368002BF9D058
:105AA0005B461B68002B01D0A342F3D12A003100D2
:105AB0002000D0474B460122390020003B70D047E0
:105AC000E8E7404602F0C4F8D0E70122074B524213
:105AD0009FE7C04640420F00601A00204159001065
