:020000041000EA
:1000000000B5324B212058609868022188439860DF
:10001000D860186158612E4B002199600221596106
:100020000121F02299502B49196001219960352056
:1000300000F044F80222904214D00621196600F024
:1000400034F8196E01211966002018661A6600F04E
:100050002CF8196E196E196E052000F02FF8012189
:100060000842F9D1002199601B49196000215960AB
:100070001A491B48016001219960EB211966A021F2
:10008000196600F012F800219960164914480160C1
:100090000121996001BC002800D000471248134993
:1000A000086003C880F30888084703B5996A0420EC
:1000B0000142FBD001200142F8D103BD02B5186610
:1000C0001866FFF7F2FF186E186E02BD00000240BE
:1000D000000000180000070000035F00212200005C
:1000E000F4000018222000A00001001008ED00E03C
:1000F00000000000000000000000000074B24E7A12
:1001000000200420F7010010CB010010CD010010E9
:10011000C9010010C9010010C9010010C901001077
:10012000C9010010C9010010C9010010CF01001061
:10013000C9010010C9010010D1010010D301001045
:10014000C1010010C1010010C1010010C101001067
:10015000C1010010C1010010C1010010C101001057
:10016000C1010010C1010010C1010010C101001047
:10017000C1010010C1010010C1010010C101001037
:10018000C1010010C1010010C1010010C101001027
:10019000C1010010C1010010C1010010C101001017
:1001A000C1010010C1010010C1010010C101001007
:1001B000C1010010C1010010C1010010C1010010F7
:1001C000EFF30580103800BE00BE00BE00BE00BECA
:1001D00000BE00BEF2EB8871689E0010889E001081
:1001E0003802001090A31AE71E481F49086006C88D
:1001F00081F3088810471D480068002801D019487D
:10020000F3E70DA40ECC002902D000F012F8F9E7B4
:100210001749184A002000E001C19142FCD116495B
:100220008847164988471649884700BEFDE701C937
:1002300001C29A42FBD37047889E0010C000002084
:100240007C19002044B700100000042000000420A6
:1002500044B700100010042000100420000000002B
:10026000704700000000000008ED00E0000000D032
:100270007C19002098250020ED520010790500100F
:10028000E5520010F8B5C0460448054B10B583424E
:1002900003D0044B002B00D0984710BD7C190020E0
:1002A0007C1900200000000006480749091A8B103D
:1002B000C90FC91810B5491003D0044B002B00D04A
:1002C000984710BD7C1900207C1900200000000018
:1002D00010B5074C2378002B09D1FFF7D5FF054B4C
:1002E000002B02D0044800E000BF0123237010BDA2
:1002F000E8200020000000008C890010054B10B59C
:10030000002B03D00449054800E000BFFFF7CCFFF5
:1003100010BDC04600000000EC2000208C890010B9
:1003200008B42023F0B582B000AF90B00400FB18F1
:100330003A216846134A3B6004F08CFF0500200018
:10034000002308306E46206063607D600F2D0FDC57
:100350002A00310003F00AFB00212000BD467B6823
:1003600022686360D15402B0F0BC08BC01B01847E9
:1003700000222000391D05F0C1FA7B682060A360CF
:10038000E6E7C046908900100F230200F0B5DE4674
:1003900057464E4645469A43E0B5130008273B436F
:1003A000DBB29846000145B22F43FBB20F24002771
:1003B0009A46434685B0314E6C44237091460123E2
:1003C000220027213000009705F0F0F99620002147
:1003D000800001F0EFFE0C239B464B465A46134328
:1003E00023702200012327213000009705F0DEF959
:1003F00096200021800001F0DDFE4346220023709C
:10040000272101233000009705F0D0F99620002124
:10041000800001F0CFFE53462200237027210123E4
:100420003000009705F0C2F996200021800001F00D
:10043000C1FE5B461D4322000123257027213000A9
:10044000009705F0B3F996200021800001F0B2FE7C
:10045000534622002370272101233000009705F026
:10046000A5F996200021800001F0A4FE05B0F0BCA3
:10047000BB46B246A946A046F0BDC04600140020C7
:1004800070B584B0002508266B460F22394CDE7308
:100490006A44012327212000009505F087F9962062
:1004A0000021800001F086FE6A460C23D3730F22E0
:1004B0000B3B6A4427212000009505F077F9962030
:1004C0000021800001F076FE6B460F22DE736A4445
:1004D000012327212000009505F068F996200021CE
:1004E000800001F067FE6B460F223036DE736A44EF
:1004F000012327212000009505F058F996200021BE
:10050000800001F057FE6A463C23D3730F223B3B29
:100510006A4427212000009505F048F99620002123
:10052000800001F047FE6B460F22DE736A44012310
:1005300027212000009505F039F996200021800040
:1005400001F038FE0320FFF71FFF0320FFF71CFF19
:100550000220FFF719FF0620FFF716FF2820FFF7FC
:1005600013FF0C20FFF710FF0120FFF70DFF04B071
:1005700070BDC04600140020F0B5DE464E4657461A
:100580004546E0B5784BA9B0180078499A4605F081
:10059000E5F803210C2001F069FA03210D2001F098
:1005A00065FAFFF76DFF0120FFF7EEFE8320FFF7EE
:1005B000EBFE6F4B68249946092356469B46012360
:1005C0000F229C4623005F46934398461F435B4699
:1005D000240164B22343DBB20393502300250CAA09
:1005E000FFB2D21817704F3B20AA27213000009588
:1005F000E14405F0DBF896200021800001F0DAFDEF
:100600000D229246424651460A43130050220CA93D
:100610008A1813702721012320AA3000009505F0C5
:10062000C5F896200021800001F0C4FD50230CAADB
:10063000D21817704F3B20AA27213000009505F0F3
:10064000B5F896200021800001F0B4FD50230CAADB
:100650001F00D218039B272113703000012320AA0A
:10066000009505F0A3F896200021800001F0A2FD7E
:10067000524614430CAAD2191470012320AA272130
:100680003000009505F092F896200021800001F0DE
:1006900091FD039B0CAAD21913702721012320AAD4
:1006A0003000009505F082F896200021800001F0CE
:1006B00081FD4B461C78002C81D1FA20800001F08E
:1006C000EFFD0FAB984600220121180000F0F0FB6F
:1006D000404601F0A7F8FA22264B9200180026495E
:1006E000079303F043F9254B0CAA0993244B944636
:1006F0000A93244BB2460B93234B1AAF0C930B2354
:1007000063449B46214B0D93404601F00BF80028B3
:10071000FAD0404600F0F2FF0028F5D05021002327
:100720000CAA5218137043461C79002C15D00024D3
:10073000099D43461B195A792900380004F074FDBD
:10074000390020A807F066FA43461B790134A3421A
:10075000EFDC50220CAB9B181C78079EFA25B446A0
:10076000AD000896654417E000140020A086010043
:10077000948900108019002000F01F10AC8900102F
:100780009089001055520010B4890010A089001003
:100790001436B54200D12DE2300020A907F0C8FC84
:1007A0000028F5D1002508233A0099463B702721FF
:1007B000073B5046009504F0F9FF96200021800089
:1007C00001F0F8FC0C233A003B7027210B3B50460C
:1007D000009504F0EBFF96200021800001F0EAFC78
:1007E0004A4601233A7027213A005046009504F00A
:1007F000DDFF96200021800001F0DCFC182201239F
:100800003A7027213A005046009504F0CFFF962019
:100810000021800001F0CEFC1C233A003B70272110
:100820001B3B5046009504F0C1FF9620002180003C
:1008300001F0C0FC182201233A7027213A005046EB
:10084000009504F0B3FF96200021800001F0B2FC77
:10085000882201233A7027213A005046009504F07F
:10086000A5FF96200021800001F0A4FC8C233A0013
:100870003B7027218B3B5046009504F097FF962054
:100880000021800001F096FC882201233A70272184
:100890003A005046009504F089FF96200021800020
:1008A00001F088FC4A4601233A7027213A0050465D
:1008B000009504F07BFF96200021800001F07AFC77
:1008C0000C233A003B7027210B3B5046009504F067
:1008D0006DFF96200021800001F06CFC4B463A0031
:1008E0003B702721073B5046009504F05FFF9620A0
:1008F0000021800001F05EFC20AB9946002C70D0F6
:100900005546069601230F229C46230009260921FD
:100910002401934362B200241E431143F6B2C9B2CC
:100920003E700393049201233A000591009427211D
:100930002800E14404F03AFF96200021800001F0F5
:1009400039FC0D2082465046039B3A0003433B701E
:10095000272101230094280004F028FF962000217D
:10096000800001F027FC01233A003E70272100940B
:10097000280004F01BFF96200021800001F01AFCE3
:10098000059E01233A0027213E702800009404F0C0
:100990000DFF96200021800001F00CFC5246049BC4
:1009A000272113433B703A0001230094280004F0F0
:1009B000FDFE96200021800001F0FCFB01233A009F
:1009C00027213E702800009404F0F0FE96200021BC
:1009D000800001F0EFFB4B461C78002C92D1AA4618
:1009E000069E002E00D10EE10024C82501233A0006
:1009F0003D7027210094504604F0D8FE9620002137
:100A0000800001F0D7FBCC233A003B702721CB3B81
:100A10000094504604F0CAFE96200021800001F0A8
:100A2000C9FB01233A003D7027210094504604F091
:100A3000BDFE9620C03D0021800001F0BBFB0123DC
:100A40003A003D7027210094504604F0AFFE9620F6
:100A50000021800001F0AEFB0C233A003B702721FF
:100A60000B3B0094504604F0A1FE9620002180002C
:100A700001F0A0FB01233A003D702721009450466D
:100A800004F094FE96200021800001F093FB306971
:100A900002F0DEFE3A22009001910A9B0B9914A805
:100AA000FFF73EFC05230022009300210C9B14A8B5
:100AB00005F03AF805001CAB3B60036808350400FC
:100AC000AB4200D198E03B608368BB6063682560FF
:100AD0007B6000232372386863600478002C75D033
:100AE0008146554601230F229C46230009260921F1
:100AF00024019343584662B200241E431143F6B2C8
:100B0000C9B206700393049201235A4605910094DA
:100B100027212800E14404F049FE962000218000AE
:100B200001F048FB0D2082465046039B5A46034382
:100B300058462721037001230094280004F036FE54
:100B400096200021800001F035FB584601230670F5
:100B50005A4627210094280004F028FE9620002100
:100B6000800001F027FB5846059E01235A46067077
:100B700027210094280004F019FE9620002180000F
:100B800001F018FB5246049B272113435A462800C4
:100B900013700123009404F009FE962000218000C8
:100BA00001F008FB5B465A461E7027210123009482
:100BB000280004F0FBFD96200021800001F0FAFAE5
:100BC0004B461C78002C8DD1AA4638681CAB984245
:100BD00003D0B968013102F0D7FE149816AB9842E1
:100BE00003D01699013102F0CFFEFA20800001F007
:100BF00057FB89E50026D5E54268290001321CA88B
:100C000002F0B4FE62E70023089A03E001331432D5
:100C1000322BEAD011780029F8D1079D9C00AC4610
:100C2000E418A40064441022200020A906F010FB60
:100C3000434B2361EFF3108472B680214148490190
:100C400007F03EFEFA2229003E48920007F008FE17
:100C500084F31088C020FFF797FB0D9B4E24994624
:100C6000554601230F229C46230009260921240111
:100C7000934362B200241E431143F6B2C9B23E70E0
:100C80000393049201233A00059100942721280040
:100C9000E14404F08BFD96200021800001F08AFAE7
:100CA0000D2082465046039B3A0003433B702721A8
:100CB00001230094280004F079FD96200021800093
:100CC00001F078FA01233A003E70272100942800B1
:100CD00004F06CFD96200021800001F06BFA059E67
:100CE00001233A0027213E702800009404F05EFDA5
:100CF00096200021800001F05DFA5246049B2721D6
:100D000013433B703A0001230094280004F04EFD89
:100D100096200021800001F04DFA01233A0027219E
:100D20003E702800009404F041FD962000218000D0
:100D300001F040FA4B461C78002C92D1AA4654E7A9
:100D40000000204100F01F000123D0228340120642
:100D5000002901D0536170479361FCE70122D02341
:100D600082401B065B6813405A1E9341D8B27047FD
:100D700010B501F0ABFB002905D0FA220023920048
:100D800001F066FF10BDFA21890001F023FFF9E7A9
:100D90007047C04610B5002101F0A2FB10BDC0464F
:100DA00010B501F0D1FB10BD70B504000D0000F0CE
:100DB00077FE0123D022A3401206002D01D05362FA
:100DC00070BD9362FCE7C04610B584B06A460F243C
:100DD0000B006C44D11D0B7022000123024807F068
:100DE0007FFD207804B010BD00C0034070B5150031
:100DF0001C00084804F0E4FC2800012100F036FE45
:100E00002000012100F032FE0121049800F02EFEA6
:100E100070BDC04600C00340F0B5D6464F464646BA
:100E2000C0B58027160099460F4308AB00218246C3
:100E3000007C1C78FFF788FF1C4B39001800013E2E
:100E400098464D46FFF7C0FFF6B2002C1ED1A642D1
:100E50000DD94B461D1939004046FFF7B5FF013447
:100E6000E4B228700135A642F5D135004D44404624
:100E70000021FFF7A9FF534628700121187CFFF7D6
:100E800063FFE0BCBA46B146A846F0BDFF23A340CD
:100E9000390040461C00FFF797FF2B78A34304401E
:100EA00023432B7001240135D1E7C04610240020D4
:100EB000024B0174036042747047C0465C9200109C
:100EC000F8B5CE4647460600914680B50F00007C37
:100ED00000219846FFF738FF594D02212800FFF7FF
:100EE00073FF00212800FFF76FFF0121307CFFF71F
:100EF0002BFF0021307CFFF727FF0A212800FFF796
:100F000063FF04212800FFF75FFF0121307CFFF71A
:100F10001BFF0021307CFFF717FF14212800FFF78B
:100F200053FF80212800FFF74FFF0121307CFFF79E
:100F30000BFF0021307CFFF707FF12212800FFF78D
:100F400043FF4B46002B09D0002401343978280098
:100F5000E4B2FFF739FF0137A145F6D10121307C1A
:100F6000FFF7F2FE0021307CFFF7EEFE02212800A1
:100F7000FFF72AFF03212800FFF726FF0121307C1D
:100F8000FFF7E2FEFFF7F4FE04235930070099460D
:100F900005E0FFF7FDFEFFF7EBFEB8424ED2002161
:100FA000307CFFF7D1FE8A212800FFF70DFF0021DA
:100FB0002800FFF709FF01210400307CFFF7C4FE81
:100FC0004B462342E5D00021307CFFF7BDFE0221D5
:100FD0002800FFF7F9FE00212800FFF7F5FE0121A8
:100FE000307CFFF7B1FE0021307CFFF7ADFEC4215D
:100FF0002800FFF7E9FE00212800FFF7E5FE0121A8
:101000000400307CFFF7A0FE43461C700021307CBA
:10101000FFF79AFEC2212800FFF7D6FE0021280024
:10102000FFF7D2FE01210400307CFFF78DFE43461E
:1010300000205C70C0BCB946B046F8BD0320F9E79B
:1010400010240020F0B55746DE464E464546E0B532
:1010500087B09A4612AB1B7806009B4613AB1B78F1
:101060000F000393119B9046002B00D135E11B78B4
:101070005A4612019B18DBB20021307C9946FFF7DB
:1010800063FEA24C02212000FFF79EFE00212000FB
:10109000FFF79AFE0121307CFFF756FE0021307CDD
:1010A000FFF752FE08212000FFF78EFE7F2120006F
:1010B000FFF78AFE0121307CFFF746FE0021307CDD
:1010C000FFF742FE14212000FFF77EFE8021200062
:1010D000FFF77AFE0121307CFFF736FE0021307CDD
:1010E000FFF732FE12212000FFF76EFE4346002577
:1010F000002B08D0013539782000EDB2FFF764FEEF
:101100000137A845F6D10121307CFFF71DFE0021F3
:10111000307CFFF719FE1A212000FFF755FE4946E3
:101120002000FFF751FE0121307CFFF70DFE00216A
:10113000307CFFF709FE02212000FFF745FE0C215D
:101140002000FFF741FE0121307CFFF7FDFD00216B
:10115000307CFFF7F9FD9A212000FFF735FE0021D2
:101160002000FFF731FE01210500307CFFF7ECFD88
:101170000021307CFFF7E8FD1A212000FFF724FE54
:10118000802149422943C9B22000FFF71DFE0121F9
:10119000307CFFF7D9FDFFF7EBFD3023243007004B
:1011A000984609E0ED0700D58EE0FFF7F1FDFFF767
:1011B000DFFD874200D887E00021307CFFF7C4FDC7
:1011C00088212000FFF700FE00212000FFF7FCFD32
:1011D00001210500307CFFF7B7FD43462B42E1D0EB
:1011E0000021307CFFF7B0FD8C212000FFF7ECFDE3
:1011F00000212000FFF7E8FD01210700307CFFF708
:10120000A3FD13231D003D403B426DD15346002BEF
:1012100065D0109B002B62D00021307CFFF794FD3D
:1012200094212000FFF7D0FD00212000FFF7CCFD26
:1012300080460121307CFFF787FD109B1B784345DA
:101240005CD34246109B1A70002A4FD10021307C9B
:10125000FFF77AFD98212000FFF7B6FD002120005E
:10126000FFF7B2FD01210400307CFFF76DFD072080
:101270000823119A20403B40002A00D01070002B18
:101280003ED1039B002B20D0109B1B78012B39D023
:1012900018D9002816D1023B05ACDAB2514623001A
:1012A0003000FFF70DFE00280ED1109B1B78534431
:1012B0009A1E11782278914204D1013B1A78637802
:1012C0009A4202D0072500E00325280007B0F0BCB1
:1012D000BB46B246A946A046F0BD0023C8E63D077E
:1012E000ED0F6D00EDB2F0E70125EEE75B46122150
:1012F000009330005346FFF78FFDA7E70425E4E78E
:101300000225E2E70428DDD1FF25DEE710240020D6
:10131000F0B5DE46574645464E46E0B58FB00792DB
:10132000069107008A46007C00211500FFF70CFD9E
:10133000CE489C218046FFF747FD00214046FFF73D
:1013400043FD01210400387CFFF7FEFC0021387CBE
:10135000FFF7FAFC1C214046FFF736FD7F2140468F
:101360002140FFF731FD0121387CFFF7EDFC93238D
:101370000BAE3370002D0CD06BB2994653461B78E0
:10138000042B00D85DE10123002209930892002379
:101390003AE100230893013309930023994606A9F3
:1013A0008C461222624493461322624492460724DA
:1013B0004D465A4602332540DBB215701A01AA1871
:1013C0002C0072706A1E95415D19EAB204920922DE
:1013D000F518D31A2201A218DBB2059252461370F7
:1013E0000021387CFFF7B0FC1A214046FFF7ECFCE7
:1013F00005994046FFF7E8FC0121387CFFF7A4FC83
:10140000002303935B4601935346029400933100FB
:101410002B003800049AFFF715FE040002282ED096
:10142000002800D09FE04B461F2B5CDC2023994610
:101430007023F2787370B3783100534032793800FA
:1014400053407279534006AA9446B3711B23072276
:101450006344FFF735FD041E00D01FE106AA944641
:101460001223092263449B461A2518700023049214
:101470000A3262440593924603336544AEE7002185
:10148000387CFFF761FC9C214046FFF79DFC002162
:101490004046FFF799FC05000121387CFFF754FC1A
:1014A000AB0660D41F231A002A402B4208D14B46BA
:1014B0001F2B57DC802372795B4213437371B5E7AE
:1014C0004A454FDD072053B2511E9946D3081A00F2
:1014D0000140284200D1FAE0063888400232B15C6F
:1014E0000143B15463E7B278089B882A00D1D7E062
:1014F00006998C4663445A70F2789A703279DA70A1
:1015000072791A7153461B780893032B00D0D1E0EF
:101510005B461B78002B00D0CCE006AA944616331D
:101520000122290038006344FFF7CAFC002800D0DC
:10153000B4E0B2786B789A4200D0BDE0F278AB7834
:101540009A4200D0B8E0042214002B781C401A42C2
:1015500000D1B3E0099B0133DBB20993022B41D0E8
:10156000032B08D0052420000FB0F0BCBB46B246C8
:10157000A946A046F0BD9723079A3370303A53B27C
:10158000DB43DB1713405BB2062299460623089221
:101590004A464846D110CAB2400769D006998C46DF
:1015A00063445978B170002A16D09978F170012AF5
:1015B00012D00132111CD2B2042A00D90421022017
:1015C00000240425C9B2DA7803307255042901D108
:1015D0001B793354002C43D14B461F2B00DD27E7EA
:1015E000DB10DCE695233370079B002B26D01A0016
:1015F000183A53B2DB43DB171340069A5BB21278FA
:1016000099460323072AC3D98822B2704A4648461E
:10161000D210D1B240071AD0069A944663445A7841
:10162000F27000291CD09A780131C9B232710229B6
:1016300016D90320012401000525C4E7002399469B
:10164000B5E601230022099308920023A0E7002AAF
:1016500007D0069A944663445A78F27001293DD126
:101660004A46083253B29946B6E7C04610240020D5
:10167000002938D0111C042A00D904210698C9B2C7
:10168000844663445878B070012AA5D09878042520
:10169000F07002200024824295D19DE7032462E786
:1016A000069A9446F27863445A7032799A70727945
:1016B000DA7027E7012456E7072454E70999069AC8
:1016C0008C46D3724B006344013313704BE7802187
:1016D0000132B05C49420143B15468E69A783271F4
:1016E0000229A6D8BCE70023994658E610B5502A2F
:1016F00002D8FFF70DFE10BD0620FCE7010008C967
:10170000074A1B6810B5934206D10022FFF700FE7E
:1017100043425841C0B210BD00229847F8E7C04686
:10172000ED160010F0B511270223040087B06F44B6
:101730003B700021007CFFF707FB394D2421280076
:10174000FFF742FB00212800FFF73EFB0121207C30
:10175000FFF7FAFA0021207CFFF7F6FA262128008D
:10176000FFF732FB00212800FFF72EFB0121207C30
:10177000FFF7EAFA0021207CFFF7E6FA482128006B
:10178000FFF722FB26212800FFF71EFB0121207C0A
:10179000FFF7DAFA26236A4693740021207CFFF7CC
:1017A000D3FA9C212800FFF70FFB00212800FFF748
:1017B0000BFB01210600207CFFF7C6FA0021207CEC
:1017C000FFF7C2FA1C212800FFF7FEFA7F2128004C
:1017D0003140FFF7F9FA13250121207CFFF7B4FA15
:1017E00007236D442B7012210023012203930293DF
:1017F00020000195009705AB6944FFF723FC002802
:1018000008D13B78022B01D007B0F0BD28784342C5
:101810005841F9E7023843425841C0B2F4E7C046A4
:1018200010240020F0B5C6460423040000B58D4DF9
:1018300082B0022228008C490093013BFFF7D6FAC0
:101840000121207CFFF7B0FA207C0121FFF77CFA10
:10185000607CFF2808D00021FFF7A6FA607CFFF724
:101860007DFA002800D1EAE00021207CFFF76CFA25
:1018700002212800FFF7A8FA0F212800FFF7A4FA99
:101880000121207CFFF760FA1023032798463220BD
:10189000FFF786FA0021207CFFF756FA8221280004
:1018A000FFF792FA00212800FFF78EFA01210600C7
:1018B000207CFFF749FA4346334200D0B9E00021CB
:1018C000207CFFF741FA24212800FFF77DFA002150
:1018D0002800FFF779FA0121207CFFF735FA002173
:1018E000207CFFF731FA26212800FFF76DFA00214E
:1018F0002800FFF769FA0121207CFFF725FA002173
:10190000207CFFF721FA48212800FFF75DFA262105
:101910002800FFF759FA0121207CFFF715FA002172
:10192000207CFFF711FA54212800FFF74DFA80219F
:101930002800FFF749FA0121207CFFF705FA002172
:10194000207CFFF701FA56212800FFF73DFAA92174
:101950002800FFF739FA0121207CFFF7F5F9002173
:10196000207CFFF7F1F958212800FFF72DFA032119
:101970002800FFF729FA0121207CFFF7E5F9002173
:10198000207CFFF7E1F95A212800FFF71DFAE82132
:101990002800FFF719FA0121207CFFF7D5F9002173
:1019A000207CFFF7D1F92A212800FFF70DFA40210A
:1019B0002800FFF709FA0121207CFFF7C5F9002173
:1019C000207CFFF7C1F922212800FFF7FDF93D2116
:1019D0002800FFF7F9F90121207CFFF7B5F9002174
:1019E000207CFFF7B1F9A8212800FFF7EDF90021CD
:1019F0002800FFF7E9F906000121207CFFF7A4F990
:101A0000F3439B0711D00021207CFFF79DF928218B
:101A10002800FFF7D9F903231E43F1B22800FFF78E
:101A2000D3F90121207CFFF78FF902B080BCB846C2
:101A3000F0BD013FFFB2002F00D028E73FE7607CF8
:101A40000121FFF7B1F90021607CFFF77DF9022049
:101A5000FFF7A0F9607C0121FFF776F93220FFF74C
:101A60009FF92CE71024002000093D00094A83005B
:101A70009A1810B514684022544080322240064C17
:101A8000C000A44663441A60044B9C466044416015
:101A900010BDC04604C0014004D0014000400140D8
:101AA0000123D0228340120693629361094A830086
:101AB0009A1811684022514080320A400649C000FD
:101AC0008C4663441A60054B9C4605236044436082
:101AD0007047C04604C0014004D0014000400140AE
:101AE0000FB400B5084883B003F03EFD049B002B03
:101AF00007D005A91800019103F0BAFB034803F0D1
:101B000033FD012003F0CCFBBC890010CC89001010
:101B100070B5EFF3108C72B60D4D2B68002BFCD016
:101B2000BFF35F8F0724CB08C618C05C01230C40AD
:101B3000A3401C000440034207D118433070BFF398
:101B40005F8F2C608CF3108870BD1000FFF7C8FF0A
:101B50002C0100D0044A1078431CDBB2172B00D9AB
:101B6000102313707047C046B81300200021044BA7
:101B7000044ABFF35F8F02C39342FAD17047C04655
:101B8000000100D0800100D0054B064A1360064AD0
:101B9000136053609360D360136153619361704726
:101BA0008080808000E400E004E400E01F2318400F
:101BB0001E3B8340002905D0C021044A49005350F0
:101BC00013607047802201498B50FAE700E100E082
:101BD00070B50D00EFF3108672B60F4A1368002B34
:101BE000FCD0BFF35F8F0D4B10309B6884001B59F6
:101BF0000B4A934203D09D4201D000F099FE074B5F
:101C00009B681D51BFF35F8FBFF35F8F0022024BB4
:101C10001A6086F3108870BD240100D000ED00E04A
:101C2000C1010010024B9C4661448900016070476D
:101C30004000003470B5114C114DAC420FD2FF265C
:101C40002368002B0CD0FFF785FF01002000FFF771
:101C5000E9FFA680BFF35F8F0834AC42F0D370BDBC
:101C6000FFF778FF01002000FFF7DCFF2671BFF3CC
:101C70005F8F0834AC42E3D3F1E7C046741900200B
:101C80007C1900200A4B1968EFF3108072B60A68BD
:101C9000002AFCD0BFF35F8F1B68BFF35F8F002269
:101CA0001A6080F3108840BF002000217047C046B2
:101CB00090250020F0B5DE4657464E464546E0B535
:101CC00087B0EFF30583032201251A409540910068
:101CD0008846A946B34B03925C58B34B1D60B34B87
:101CE00004934B46B24843630823E55E002D37DA80
:101CF000A3881BB2002B00DBADE0A379002B00D042
:101D0000EEE00823E05E002820DB430062691B1838
:101D1000DB00D3189E68DD68731C00D111E1A44874
:101D200001004144826A0B69B71A9B1A9F4215D37E
:101D30000123026A039883401A420FD09C4800F0A6
:101D4000BDFB8D4202DCCCD18642CAD940BF07B070
:101D5000F0BCBB46B246A946A046F0BD0E61EDE719
:101D600062696B0092465B19DB009A4453469E6899
:101D7000DF6800F0A3FB8F42BADC00D103E1002F43
:101D800000DAE8E05246534652691B699346049ACA
:101D9000934200D1D9E052460821605E5288000487
:101DA000594610439847009001910099019A0B0001
:101DB0001000134300D1CEE013000A00B61A9F4171
:101DC000002806DB7A4800F079FB009E019F361858
:101DD0004F4153469E60DF6000229A5E002A00DA7F
:101DE00086E7530099186069C900411802938B680F
:101DF000C9689B46B94200DD7AE702D1B34200D9F7
:101E000076E708239C46A444059565462281A446AE
:101E1000029B2C0006E053009918C90041188D68F8
:101E2000C968AB469B18DB00C318B94206DC00D179
:101E3000B3E01C000023E25E002AECDA23006446D3
:101E40009C4653461A806346059D1D80A3881BB29D
:101E5000002B00DA51E72269EFF3108172B61368A4
:101E6000002BFCD0BFF35F8F0123A7885B42A380C8
:101E70003FB22369BFF35F8F00221A6081F310889D
:101E8000002F00DA39E72300083322009A466669FA
:101E90007B00DB19DB00F318996850468C46082458
:101EA000115FDD68002910DB029306E0AB4244D0ED
:101EB0000023E15E2000002906DB4C006418E400EA
:101EC0003419E368AB42F1DD029B078000201F5EFE
:101ED0001980002FDCDA1400A379002B00D110E761
:101EE0000023A37126000823E15E08364B1C00D1B5
:101EF0002CE70800A246656902E03E004B1C1AD0A0
:101F00004B005B18DB00EF180A008C46E95E7B880B
:101F10001BB2002BF1DA01235B42DC17BB60FC60D3
:101F2000824205D0534631801B893B8053461A813B
:101F300060464B1CE4D15446E5E6A3686345B7D937
:101F4000C2E76B1C00D0EAE6F8E65B4658461B6920
:101F5000984700281BD153461B8822692381EFF341
:101F6000108372B611680029FCD0BFF35F8F514611
:101F700062880A8022696580BFF35F8F002111604B
:101F800083F31088B4E6864200D8F8E6B0E65B46F4
:101F90001A685B680092019307E7B34500D848E7E9
:101FA0004CE7C0467C2500203C700540B51C001065
:101FB0000040054070B52E4C2569002D04D00A2143
:101FC0002C48FFF72FFE70BD2B4E0321300000F090
:101FD0006BFAE660FFF7BEFD284B03229C46D02338
:101FE00022701B061B6801216370254B6044A360AF
:101FF0000F23800020610220638063694942A18031
:1020000019800231198647311D83585218315A52AE
:1020100075325C39995218320131995218320131B6
:102020009952183201319952083518329D520231B5
:10203000183299521832013199521832013199529D
:102040001832013199521832013199521832013146
:1020500099520C4B0C49DC6001303562FFF7B8FD3A
:1020600001210320FFF7A2FD084B1D60A7E7C04632
:10207000BC130020902500200040054040000034A3
:10208000FFFF10007C250020B51C001038600540C3
:1020900070B501000469EFF3108C72B62068002857
:1020A000FCD0BFF35F8F02200D5E4C6968004019C1
:1020B000C00024180869002D36DB26884E80BFF347
:1020C0005F8F002606608CF31088E36063880498B5
:1020D000013320615B0405985B0CA26060611A1CEF
:1020E000002B1FD093B22804628018430A69EFF3D3
:1020F000108C72B61368002BFCD0BFF35F8F8B88F7
:1021000023808D800B69BFF35F8F00221A608CF3F0
:1021100010880B7801329A40CB6808498C4663449A
:102120001A6070BD0122DDE7BFF35F8F00230360FB
:102130008CF3108801204042F3E7C0463C200000A9
:1021400010B543890A1493421ADD53009B18426963
:10215000DB00D3180469EFF3108C72B62268002AF2
:10216000FCD0BFF35F8F5A88090494B2090C8A42ED
:1021700008D00369BFF35F8F00221A608CF31088C8
:10218000002010BD8022120214435C8001230269EA
:102190008371BFF35F8F002111608CF310880449B5
:1021A00002788C469340C268012062441360E8E7DD
:1021B0003C200000F0B5C64600B582B004000D001A
:1021C00000F084F924184D41002D02DA01242F4D2E
:1021D000644206267642F71736196F41AF4214D88B
:1021E00011D000F073F932003B00121A8B41002B22
:1021F00015DC002B46D02000290000F0F3F902B0D6
:1022000080BCB846F0BDA642EBD90026002700F0FE
:102210005DF932003B00121A8B41002BE9DD00F022
:1022200055F932003B00121A8B41002B0ADB0023C8
:102230000193174B3200009316483B00FFF728FF2D
:102240000130D8D000233900B0469C46124A1348CA
:10225000536A994204D8966A4645CCD29942CAD16B
:102260000668EFF3108772B63368002BFCD0BFF31B
:102270005F8F0368BFF35F8F66461E6087F3108829
:1022800020BFE5E7002AB6D0C9E7C046FFFFFF7FC1
:10229000851C0010BC130020004005409025002044
:1022A000F0B5C64600B582B0040000F00FF9FA227E
:1022B00006000F00200000230021920001F0AEFA7A
:1022C0008019794104000D1E02DA01242E4D64426A
:1022D00006267642F71736196F41AF4214D811D04F
:1022E00000F0F4F832003B00121A8B41002B15DC91
:1022F000002B46D02000290000F074F902B080BC09
:10230000B846F0BDA642EBD90026002700F0DEF863
:1023100032003B00121A8B41002BE9DD00F0D6F8A9
:1023200032003B00121A8B41002B0ADB0023019381
:10233000164B3200009316483B00FFF7A9FE013010
:10234000D8D000233900B0469C46124A1248536A3E
:10235000994204D8966A4645CCD29942CAD10668B9
:10236000EFF3108772B63368002BFCD0BFF35F8F9A
:102370000368BFF35F8F66461E6087F3108820BF37
:10238000E5E7002AB6D0C9E7FFFFFF7F851C0010F4
:10239000BC1300200040054090250020F0B55746B2
:1023A0004E46DE464546E0B506000F0085B0EFF329
:1023B000058399468B46002B12D0384900204B6A82
:1023C000BB4206D38A6ADB1B591E8B41B242404195
:1023D000184305B0F0BCBB46B246A946A046F0BDC6
:1023E0002F4B9A46DB68984653461B78404603932A
:1023F00000F064F84246039B040004339B009B58A2
:102400000D001B1A39003000001BA941894510DC62
:102410000DD020BF214A0020536A5B45D9D3926A70
:10242000DB1B591E8B41B24240411843D1E7834226
:10243000EFD900F04BF832003B00121A8B41002B11
:102440001ADB00230193174B3200009350463B00E8
:10245000FFF71EFE011E0FDD104B5A6A5A451BD3B3
:102460009B6AB34216D35046FFF76AFE0B4A002020
:10247000536A5B45ADD3D2E7084A0020536A5B45F7
:10248000A7D30020926ADB1BB24240415A1E9341FF
:1024900018439EE75A45E6D120BFE4E700400540D7
:1024A000BC130020851C001010B5024A0248FFF73B
:1024B0002FFB10BDD0890010402500200300416A89
:1024C0000A00986A596A8A42FAD17047034B596ADE
:1024D0000A00986A596A9142FAD170470040054053
:1024E00070B504000D00174A536A1900966A536AC2
:1024F0008B42FAD13000190024184D41AB4216D856
:1025000013D0104B2A005B6A9D4203D90D494B6AD8
:102510009342FCD3934207D10A4A02E0516A99429E
:1025200002D1916AA142F9D370BDA642E9D9054B07
:102530005B6A1C005A1CEFD0012201246442E5179B
:102540005242E3E700400540244B70B598420BD857
:1025500043011B1A224A9B001818916AC000936A13
:102560005B1A9842FBD870BDFA220023920000212A
:1025700001F054F904000D00194A536A1900966AD3
:10258000536A8B42FAD13000190024184D41AB42F6
:1025900018D9134B5B6A1C005A1C0AD00123012472
:1025A0006442E5175B420E494A6A9A42FCD39A425A
:1025B000D9D10B4A02E0516A9942D4D1916AA14221
:1025C000F9D3D0E7AB4205D0054A2B00526A9542B9
:1025D000E9D8ECE7A642F7D9DBE7C0469BC4200068
:1025E00000400540064A536A9942FCD807D1044B83
:1025F00002E05A6A914202D19A6A9042F9D8704731
:1026000000400540F8B5DE464E4657464546E0B523
:102610008B4605000A991800160000F0DBFA0A9BA9
:102620006C001F02324B64199C46A400644463682A
:1026300081469F4200D967602B1FDBB29846012B71
:1026400030D9C02380229B01E31812011A60294B64
:10265000AD0059599A4600291BD17301E026226822
:1026600053401E40802342465B01E3181E60012A4E
:1026700030D9802380229B01E31812011A6053464F
:102680004A4667605A51F0BCBB46B246A946A046CE
:10269000F8BD586900F09EFA013043001B18033B57
:1026A000FDD2DAE75B46012BCBD1C02303229B018D
:1026B000E3181A60023AA3681A42FCD07301E026BC
:1026C0002268AD0053401E4080230A4A5B019246B7
:1026D000E3181E605A462168514003220A401A60DE
:1026E00001225B469A40A3681A42FCD0C1E7C0466B
:1026F0000080004044250020F0B546464F46D646AF
:10270000C0B51F00344B44009C462418A400644408
:10271000636888461600FF2B02D880235B00636045
:10272000031FDBB29A46012B30D9C02380229B01C4
:10273000E31812011A60294B85005959994600295E
:102740001BD17301E026226853401E40802352466D
:102750005B01E3181E60012A30D9802380229B018F
:10276000E31812011A6080235B0063604B465F51DF
:10277000E0BCBA46B146A846F0BD586900F02AFA56
:10278000013043001B18033BFDD2DAE74346012B1F
:10279000CBD1C02303229B01E3181A60023AA3683D
:1027A0001A42FCD07301E0262268850053401E4087
:1027B00080230A4A5B019146E3181E604246216865
:1027C000514003220A401A60012342469340A26806
:1027D0001342FCD0C1E7C0460080004044250020E1
:1027E000014B8000C058704744250020F8B5040014
:1027F00021481E0017000D0000F0ECF90100380020
:1028000000F0E8F9069B36041B031E432368002BE7
:1028100020DB1A4B1A49E3185A1E93418022920179
:1028200094465B421B0B174A1B0363441360164A12
:1028300013601F000A689743FBD1144B2560E21810
:102840002123A06013602368002BFCDA0823E660D4
:102850001360F8BD3F2322681340AB42D9D1A3686F
:102860001B051B0D8342D4D1EE22E368D202134034
:10287000B342CED1EDE7C046001BB7000040FDBF1C
:1028800008C0004000E0004000F0004004300000BC
:102890008023024A9B000B43D362704700800540AF
:1028A000002310B50100988A1B8B984710BDC046C5
:1028B000162310B50100188802331B88984710BDF5
:1028C000F8B54746CE4680B50F1E18D0142399465A
:1028D000043304000025012698464B4618884346D9
:1028E00021681B88984701C4431E98410135064062
:1028F000AF42F2D13000C0BCB946B046F8BD0126A7
:10290000F8E7C046AA23064A1B0113608D235B002B
:10291000D3600449044B19605368002BFCDA7047FC
:102920000040024000B0FA00006002407047C0461C
:1029300010B50148FFF7D4F8F489001070B5074DC1
:10294000074EB54209D20024013E761BB60808CDD9
:10295000984723000134B342F9D170BD408900107B
:102960007C890010054B064A06491A60064A074B47
:102970001A6010000B689843FBD1704700E00040DC
:10298000BFCDFBFE08C00040FE7F3C0000F00040D1
:10299000044BDB6C002B03D18022034BD2021A6064
:1029A0007047C046000011504C201150044A054B9E
:1029B0001A60054A1368DB018033FBD17047C046BB
:1029C000FFFFFF0100F0004008C000404022034B21
:1029D0009A675A671A67DA667047C04600F0014086
:1029E00010B5FFF7C3F810BDF8B52749274C284D9F
:1029F000641AA6103200302E00D93022280092002E
:102A000000F0B4FFBC2C3BD830202F232C196407D6
:102A1000204A801BE40F9B1B052B16D93700002C86
:102A200002D0B300771CEA50001B33199B00410809
:102A3000EB18C900C9181A605A6008339942FAD1D4
:102A4000012303421CD09843C619B300EA50731CFB
:102A50002F2E15D09B00EA50B31C2E2E10D09B00B9
:102A6000EA50F31C2D2E0BD09B00EA50331D2C2E68
:102A700006D09B00EA50731D2B2E01D09B00EA501C
:102A8000054B9D60F8BDC04600010010C00100105C
:102A900000000020C101001000ED00E0002310B58F
:102AA000294C82B0A367FFF72DFF0122274B1A6044
:102AB000636C012BFCD10322254B1A60224A936BD5
:102AC000012BFCD1013300930121224A2248043317
:102AD000FFF78CFE052301210093204A2048FFF7D1
:102AE00085FE0022022104201E4BFFF705FE002276
:102AF000012105201C4BFFF7FFFD002200210720CC
:102B00001A4BFFF7F9FD002200210820174BFFF7B1
:102B1000F3FD8023DB000093002200210920134BEA
:102B2000FFF770FD0022104B00210620FFF7E4FDA7
:102B30000420FFF755FE0E4900F04CF8010000207C
:102B4000FFF7A6FE02B010BD008000403CB0004080
:102B500030B00040002F685900800240008C86474A
:102B600000C00240001BB70040597307006CDC0234
:102B700040420F0001480421014B1847E013002098
:102B8000C1280010124A936F9B0815D29066D16637
:102B9000002905D0FFE7FFE7FFE7516F106F70478F
:102BA00004B580210906C2175140002800D0C8434F
:102BB00005F06EFE002104BDF0B5146E556E576F22
:102BC000166FFFF7E3FF1466556657671667F0BD8B
:102BD000000000D0114A936F9B0813D21066516613
:102BE000002905D0FFE7FFE7FFE7516F106F70473F
:102BF00004B5002801D00020C04305F049FE0021A3
:102C000004BDC046F0B5146E556E576F166FFFF7D2
:102C1000E5FF1466556657671667F0BD000000D0E3
:102C200094464A4A926F9208624601D228E0C04612
:102C3000F0B5464E346E756E776F366F00F020F843
:102C40009446424A14665566576716676246F0BD59
:102C500094463E4A926F9208624601D254E0C046C2
:102C6000F0B53A4E346E756E776F366F00F04CF8F3
:102C70009446364A14665566576716676246F0BD35
:102C8000002B24DB11D000293EDA00B5C9434042B5
:102C900000D1013100F038F8C943404200D1013180
:102CA000DB43524200D1013300BD002AEBD10028A2
:102CB00001D1002905D00020C90FC90701D1C043A7
:102CC000410800B505F0B4FD0022002300BD00B5A9
:102CD00000290ADBDB43524200D1013300F014F833
:102CE000C943404200D1013100BDC943404200D137
:102CF0000131DB43524200D1013300F005F8DB43E0
:102D0000524200D1013300BD002923D1002B18D13C
:102D1000002A0CD0BC460D4F38667A66002100238D
:102D2000FFE7FFE7FFE77A6F386F674670470028D5
:102D300001D00748010000B505F07AFD002200230C
:102D400000BD02000B00002000217047000000D0F1
:102D5000FFFFFFFF002B00D0BFE0130C28D1002A9B
:102D6000E7D080B4114F39667A66FFE7FFE730B4E9
:102D7000040C7B6F396F1B0423433B667A66FFE7C5
:102D8000FFE7FFE7C04684B27B6F3D6F1B04234320
:102D90003B667A66FFE7FFE7C04600232C042D0C54
:102DA0007A6F386F00196941B0BC7047000000D0DD
:102DB000F0B594460025140E01D112020835140F07
:102DC00001D112010435940F01D192000235D40FC4
:102DD00001D152000135D40B0134254F7C66254CBE
:102DE0003C660E0C93B2FFE7FFE7FFE73C6F6643DC
:102DF000360C7703BE467343DF0B5B04C01AB94140
:102E0000130C7343DB18C91ACE086643360CB6445C
:102E100093B273431F0F1B01C01AB941130C7343C4
:102E20001F0B1B05C01AB941860D8F023E43664336
:102E3000360C092D24DB520A7243801A7703460AA6
:102E40006643360C16235B1BDE40DF40BF19644629
:102E50006643821B7046043506330100D940A84002
:102E6000C01900D30131A24206D20023F0BD0000F8
:102E7000000000D0FFFFFFFF121B0130F3D3F1E78A
:102E800009277F1BFE406446A2B27243801A00D21B
:102E90000139220C7243130C1204821A99410B005F
:102EA0007046043513370100F940A840801900D35B
:102EB0000131002B02D1A2420AD2F0BD013000D371
:102EC0000131121BFAD2013BF8D1A24200D2F0BD6F
:102ED000013000D30131121BF7E7F0B51C0C00D014
:102EE00080E00CB400251C0A04D11B02160E3343EB
:102EF000120208351C0B04D11B01160F33431201BB
:102F000004359C0B04D19B00960F3343920002358D
:102F1000DC0B02D192185B4101351C00971864410B
:102F20000134464F7C66464C3C660E0CFFE7FFE7DB
:102F3000FFE7C0463C6F6643360C7703BE4697B248
:102F40007743C01B00D20139C01B00D201399FB2A8
:102F50007743C91BC91B170C77437E04FF0B801BEB
:102F6000B941CE086643360C0C2D33DBB644120B48
:102F70001F053A431B0B97B27743C01B00D20139A0
:102F80009FB27743C91B170C77433E043F0C801B4D
:102F9000B941860D8F023E43664329277F1BFE40C1
:102FA0000C3D7746AF40BF1930BCA2B2ABB2724302
:102FB0007343801A9941220C7243130C1204801A35
:102FC000994102000B000137001BA941F9D2781E7C
:102FD0000021F0BD0C277F1BFE4077467F0BAF40E2
:102FE000FF19E0E700245D1C07D0144F7D663966A9
:102FF000FFE7FFE7FFE7FFE73C6F95B29EB265434F
:103000006643401BB141150C1E0C654366433604F4
:103010002F0C3E432D04401BB141994204D20200C3
:103020000B0020000021F0BD01D19042F7D3801A9F
:10303000994101349942F2D3F6E70000000000D034
:10304000FFFFFFFF48404140484018B41B4B5B68FE
:10305000FC46019308BD04DFEF32001018B4174B93
:103060001B68FC46019308BD00DFF932001094464E
:10307000134A926F920809D2624618B40F4BDB686C
:10308000FC46019308BD0CDFB13500100C4AF0B5C9
:10309000146E556E576F166F6246FFF7EEFF084AC3
:1030A0001466556657671667F0BD18B4034B9B68E6
:1030B000FC46019308BD08DF55340010E81E0020CF
:1030C000000000D0FFB550404240504059404B40B6
:1030D000594000E0FFB5154F4C00640D03D0BC42D1
:1030E00004D10C0314D80020090D09055C00640DFF
:1030F00003D0BC4204D11C030AD800221B0D1B05BF
:1031000001264B4009D44B4003D58B4200D182426B
:10311000FFBD9942FCD19042FFBD0B43DB18034336
:103120001343F5D0C9434918FFBD0000FF07000055
:1031300000B5FFF7CFFF804100BDC04600B5FFF7E7
:10314000C9FF01D9002000BD012000BD00B5FFF777
:10315000B9FF01D9002000BD012000BD00B5FFF777
:10316000B1FF804100BD012040054A00121804D87B
:103170005A00121801D80020704701207047000043
:103180000021002805D17047C1174840401AFAD0E5
:10319000C90713B5064B1B6898470CBC441CA240DA
:1031A0001005120B0349091B09051943114310BDF2
:1031B0008C2500201F04000010B54C00620D8023F8
:1031C000D218DB00D21A5B057E2A10DD9E3A13DA94
:1031D000CC170903490819435242D1406400013415
:1031E0001532202A05DAD0400843604310BD002084
:1031F00010BD0846604310BDC80FC018013810BD8F
:1032000018B4044B5B6AFC46019308BD24DF6137A8
:1032100000100000E81E0020132370B51D78012D5A
:1032200019D014DD1F48FFF743FB06001E48FFF7C7
:103230003FFB1E4C80223100200000F097FB022D46
:103240002DD01B48FFF72CFB1A4B186070BD1A4B92
:10325000164CA364F5E7184B144C23606360A3601D
:10326000E36023616361A361E36123626362A3623C
:10327000E36223636363A363E36323646364A3641C
:10328000E36423656365A365E36523666366A366FC
:10329000E36623676367A367E367A364D1E7064B2D
:1032A000A364CEE75344000053460000E81E00200C
:1032B0004C3300008C250020BD32001007B560465D
:1032C00001880A0A0230DF2AFAD1C9B2820804D37F
:1032D000028840880004104300E00068014A505012
:1032E000039007BDE81E00200FB403BC0CBCF0B572
:1032F0000124E407634000E0F0B50C0DCF0F661E1B
:103300003605891B640503D3C943404200D301310C
:10331000640D03D0661CF60A07D0E41B00207F0072
:10332000791C89078912803C24031D0DDF0F6E1E56
:1033300036059B1B6D0503D3DB43524200D301339B
:103340006D0D03D06E1CF60A07D0ED1B00227F0026
:103350007B1C9B079B12803D2D032F1B661B58D4A3
:10336000A446202E46DA20371400BC401D00BD4084
:10337000F24033412A4380185941CB0F05D0C9434D
:10338000C043002264425041514162464D0D28D154
:103390000D0D07D100281FD0241940414941013AA1
:1033A0000D0DF9D0640006D3013000D30131002C9B
:1033B00001D140084000013A0BD4941CE40A04D126
:1033C00012051144DB071944F0BDD907204B1943FE
:1033D00000E0D9070020F0BD0029DDD1002CDBD1B1
:1033E000F0BD0132C6074008CD0728434908002E2A
:1033F000E1D0D9E73C2E29DA203E40371400BC400A
:1034000000D00124F24014431A00BB401C43D317E0
:10341000ACE7AC46202F08DA20360400B4400D009B
:10342000B540F84039412843A5E73C2F0CDA203F4E
:1034300040360400B44000D00124F84004430800A2
:10344000B1400C43C117EAE710001900002494E7CB
:103450000000F07FF0B50C0D661E3605891BE60AEC
:103460006405640D02D0651CED0A04D00020012122
:103470000905803C2403A4461C0D671E3F05DB1B89
:10348000E70A6405640D02D0651CED0A04D0002231
:1034900001231B05803C24037740644497B484B225
:1034A00096B27443070C7E43150C6F4380B2684399
:1034B000361802D3012000043F183004350C0019DF
:1034C0007D41844688B29AB250430C0C62431F0C73
:1034D0007C438EB27E43921902D301263604A4198E
:1034E0001604170C3618674101BC81B29AB25143D9
:1034F000040C62431B0C5C4380B25843121802D385
:103500000120000424181004130C401863412D18E6
:103510005E410020474106BC88B293B258430C0C70
:103520006343120C544389B251435B1802D3012107
:103530000904641819041A0C091862416D185641DF
:103540000020474118BCF902720D1143F0026A0DC8
:103550001043ED020A0D03D16D1940414941013B71
:10356000124E9B1B7600B3420ED26D0007D3013082
:10357000002671416646354301D1400840001B05D5
:10358000C918E4072144F0BD0BDA013306D101303C
:1035900004D101314F0D01D04908F2E7E1070020C5
:1035A000F0BD013631050020EBE70000FF0300000D
:1035B000F0B51C0D671E3F05DB1BE70A6405640DB3
:1035C00002D0661CF60A04D0002201231B05803CB1
:1035D0002403D0252D060026F6432E661E096E66AE
:1035E000CE0FF619B44649004F0D02D07E1CF60AE4
:1035F00003D000200021403F3F033E1BB600B444EF
:10360000013F7F05C91B49082E6F013676089C02D1
:10361000950D25437543ED137543AD1301356D10BD
:10362000F603761B0CB4CC02450D2C43A2B2B3B208
:103630005A43270C7B43350C6F43A4B26C431B19D0
:1036400002D3012424043F191C041D0CA4187D413D
:1036500024196D41009A91B2ACB26143170C7C43BE
:103660002B0C5F4392B25A43A41802D301221204D6
:10367000BF182204230C52187B41019C6C431B1978
:10368000520ED9010A434401A01A81B2B2B2514389
:1036900003145A43360C734387B27743D617D219B3
:1036A00000277E4136049B191704160C7F185E41D3
:1036B0007316ED18F301002680337541A90F06D16A
:1036C0006400690AE8055B0A184309D22FE0042266
:1036D000944480337541A90AA8059B0A184326D350
:1036E000404149412404009A019B0D005543641B4D
:1036F0004343E41A95B286B27543170C7E43030C1C
:103700005F4392B25A43B61802D301221204BF1883
:103710003204330C52197B4152429C41002C02D49A
:103720000022013051414008CA071043490802B045
:103730006246D7079210084BD218084B9A4203D220
:1037400012058918C919F0BD0020002A01DC3900D2
:10375000F0BD01331905F5E7FD030000FE07000089
:10376000002200B5203200F004F8080000BD00007F
:1037700000220B150AD410B5944600F031F8141449
:10378000013400DA0021CB17144C2047002000211F
:1037900070476244343A0CD40C2A07DA0400914092
:1037A000904052422032D440214310BDD843D943E7
:1037B00010BD203207D40C469440524220321141B1
:1037C000D040204310BD0800C917203203D4524214
:1037D0002032104110BD1800190010BD93370010A1
:1037E0000A0DCC0F531E1B05C91A520503D3C9433A
:1037F000404200D30131520D03D0531CDB0A07D0E5
:10380000121B00206400611C89078912803A120390
:10381000014BD21A70470000FF030000514343439D
:10382000C9188C46110C83B24B4310B4040C61438D
:1038300092B280B2504362431C041B0C001910BCAE
:1038400059411304120CC0185141614470470000E3
:10385000034BDB6FFC4618477CDFF5380010000097
:10386000E81F0020132310B512481C78FFF720F83A
:103870000100012C0AD003DD80220F4800F076F809
:103880000E48FFF70DF80E4B186010BD0A4C54227D
:10389000200000F06BF80B4B6365A365E3652366BE
:1038A0006366A366E36623676367A367E3672362D0
:1038B000E361E5E753460000E81F00204C330000B9
:1038C0008C250020C938001007B5604601880A0A17
:1038D0000230DF2AFAD1C9B2820804D302884088B4
:1038E0000004104300E00068014A5050039007BDF7
:1038F000E81F0020C30FDB0741000A0E07D0FF2A94
:1039000008D00909054A891819434007704719006A
:10391000002070470249C918FAE70000000000388B
:103920000000F07F10B5040004F010FB002804D064
:10393000034B04199C4200D810BD0248FEF7D0F892
:1039400000000420008A001010B504F009FB10BD2F
:1039500001480421014B1847F0130020C128001032
:10396000014B1B6818470000F0130020014B5B68F7
:1039700018470000F013002010B5FFF7D3FF10BD6B
:1039800010B5FFF7E1FF10BD10B5FFF7DDFF10BD6B
:103990009A4200D2885470477047C046F8B55746DF
:1039A000DE464E464546E0B599460A9B07009A46D4
:1039B0000D9B884693460B9C9B073BD10C9B9C42DE
:1039C0003DD21E1B0B9415000C005E442A004B4692
:1039D000013521002020B847B542F7D1A0460B9C05
:1039E000002C20D0454636195346321B013C185D49
:1039F00029004B46B847002CF6D12B0035009846DD
:103A00000D9B9B070FD55B46EC1A0C9BA3420AD972
:103A1000464698462A004B46310020200134B847DC
:103A200001354445F6D32800F0BCBB46B246A94652
:103A3000A046F8BD16001500002CD3D1E0E7160013
:103A40001500002CCED1EEE7F0B54546DE465746D0
:103A50004E46E0B585B09C4610AB1B78149F93464C
:103A600098460F9C129E139DBB074CD4002D42D14B
:103A7000B44248D201233B4099460E9B013B9A46F3
:103A8000302304E0524601341355A64201D9202CBC
:103A9000F8D14B46002B00D183E00E9B013B9946A9
:103AA0003023A54205D82EE04A4601341355AC42D6
:103AB00029D0202CF8D1FB060CD57B0554D4A64286
:103AC00063D0A54261D0119B102B50D0022B57D050
:103AD000202C32D1202301930E9B5A46009303974A
:103AE00063460295FFF75AFF05B0F0BCBB46B246ED
:103AF000A946A046F0BD01233B40994601233B4225
:103B00002AD1B442B9D3FB061CD57B05DBD4002CEB
:103B1000D5D1119B102B5BD0119B022B6BD0302386
:103B200001240E9A13704346002B10D17B073ED51B
:103B30002B260E9A631C1655CDE723000134302640
:103B40000E9AD654202CC5D04346002BEED02D26FD
:103B50000E9A631C1655BEE74346002B2FD0013D3D
:103B6000B44200D289E798E7119B102BB2D1BB0673
:103B700037D5202CAED058230E9A13550134A7E721
:103B8000202CA7D02300013407E0631E012CC0D0F5
:103B9000119A102A31D0022AD1D162260E9AD65417
:103BA00096E7FB06CED57B0500D488E78BE723009C
:103BB0003E0790D520260E9A013316558BE70C232D
:103BC0003B405A1E9341ED1AB44200D255E764E7D8
:103BD000BB060ED478230E9A022413703023537040
:103BE000A1E7202C00D175E778230E9A13550134F4
:103BF0006EE75823EFE76033EDE70E9AA61E914675
:103C00004E44BA0602D55822327098E778223270B4
:103C100095E7C04610B5002800D110BD01F05AFC50
:103C2000FBE7C046F0B55746DE464E464546E0B592
:103C300095B083460F00924698461E9A1F9B10002F
:103C40001900209EFFF78FFA002800D0EAE11E98A5
:103C50001F990122C54B5242FFF76AFA002800D093
:103C600014E11E981F990122C14B5242FFF776FAC8
:103C7000002800D0E9E01E981F990022BD4BFFF7F5
:103C80006DFA002800D0C8E01E981F990022BA4B98
:103C9000FFF74EFA002800D0BFE01E981F990022BF
:103CA0000023FFF745FA002800D0E4E000230B933F
:103CB000229B5B0500D406260024302307E0172151
:103CC00006AA013452181355013E202C01D0092EAA
:103CD000F5D81E981F99FFF76FFAA84BF2009B18B2
:103CE0001A685B68050008920993FFF74DFA020015
:103CF0000B001E981F99FFF7A8F9089A099BFFF778
:103D0000D4F906900791FFF77BFA8146FFF738FA5E
:103D100002000B0006980799FFF797F90022984BCD
:103D200006900791FFF71AFA002800D10DE1012350
:103D30009C46E1444846FFF723FA02000B0008982E
:103D40000999FFF7FBF9002802D0002399460135B5
:103D5000002E00D1D9E006954D46B94614E006AADA
:103D6000944617230A216344280001341F19FEF7E3
:103D700031FF3031397028000A21013EFEF72AFF59
:103D8000092D00D817E10500202CE8D14F46069DEB
:103D900020240CAE06AA17239446634499465B463A
:103DA000B34606930FE04B4628000A210134E6187B
:103DB000FEF7E8FE3031280031700A21FEF7E2FEFE
:103DC000051E00D1E4E0202CEDD1069B5E469B460B
:103DD0000323229A1340012B18D1219B002B15D0CD
:103DE0000B9B002B00D1FDE0219B013B2193202B5D
:103DF0000CD93023219A07E0172006A901340918AD
:103E00000B55944200D3CCE0202CF5D1229B019499
:103E10000393219B0096029322E0229B5246049337
:103E2000219B3900039358461E9B1F9C02960093CA
:103E30000194434600F04AF90400200015B0F0BC9C
:103E4000BB46B246A946A046F0BD229B5B070FD4F5
:103E500003224C4B229901920391219900930291E4
:103E60004346524639005846FFF798FD0400E4E700
:103E70000422454BEEE71E9A1F9B00200021FFF70E
:103E8000E4F801231E901F910B9311E7229B5446E7
:103E90009B0711D1219B042B0ED9219B55469C4693
:103EA0005E46043C64442A00434601353900202024
:103EB000B047A542F7D1B346344D26002B1F994693
:103EC0005B46A3461C003200E87843463900013DBA
:103ED000A04701364D45F6D123005C469B46229B08
:103EE00004349B07A9D55346219AE31A9A42A4D9D0
:103EF0005E4615002200434639002020B047534655
:103F00000134E31A9D42F5D897E72800FFF73CF902
:103F100002000B001E981F99FFF797F80022184B1C
:103F200006900791FFF704F90CAE002800D031E7A6
:103F3000069807990022124BFFF710F9002800D0CD
:103F400028E7012301359D4324E7002206980799BD
:103F50000B4BFFF7EDF8002800D0F9E64B46002B9D
:103F60005CD101239C46E144F2E6C046FFFFEFFF2F
:103F7000FFFFEF7F65CDCD4165CDCDC158940010D9
:103F80000000E03F548A00104C8A00105C8A001048
:103F9000069B5E469B460323229A1340012B00D1C9
:103FA00081E0202C00D131E70B9B002B27D02D2363
:103FB000335501342AE74F46069D202C00D1E7E611
:103FC0003022331907E0172006A9013409180A55D1
:103FD000202C00D1DCE6A342F5D12E220CAE013418
:103FE000F254D7E60C23229A134257D0219B013B6F
:103FF0002193A34200D9FCE6202C00D106E7229BA6
:104000005B0703D52B2333550134FFE6229B1B07A7
:1040100000D4FBE6202333550134F7E6DB0700D458
:1040200096E69EE7229B55469B0711D1219B032BC9
:104030000ED9219B54469C465E46033D65442200B2
:104040004346013439002020B047AC42F7D1B34693
:10405000B9465F461C4EEC1C2A00B07843464946E0
:104060000135B847013EAC42F6D1229BBB464F46D4
:104070009B0700D4E1E65346219AE31A9A4200D8FE
:10408000DBE65E4615002200434639002020B0479B
:1040900053460134E31AAB42F5D3CEE6219BA3424B
:1040A00000D9A6E6B2E6219B002B00D179E70B9B55
:1040B000002B97D0219B013B21939C4200D298E694
:1040C000202C00D073E7A1E6588A0010F0B5DE4638
:1040D00057464E464546E0B599B081468B469246D6
:1040E0009846229A239B10001900FFF73CF80028FD
:1040F00000D0CAE0229823990122824B5242FFF756
:104100002DF8002800D0C0E02298239901227E4B90
:104110005242FFF70DF8002800D0B6E0229823990C
:1041200000220023FFF704F8002800D0C9E1229BF9
:10413000239C08930994089809998023269ADB0008
:104140001A400D928022269C1201144022000B94EA
:10415000269C07000E001C4200D0ADE00B0003437C
:1041600000D0D5E0002A00D00AE2220006332493D2
:10417000022313400C930223134200D002E2259B3A
:10418000042B00D20FE2043B0B93002304250A9377
:104190000022229823990023FEF7CAFF002800D0AE
:1041A00003E25A4B269A134004930B9B0393249BE0
:1041B0000293089B099C009301945946434652463A
:1041C0004846FFF72FFD02002020269B1F270340B3
:1041D00059424B415B421840531C08935946434691
:1041E0004530C8470A9AD317D4185C40D30F0A93B6
:1041F0006B1E0B9308AB9C460025674401E0202D05
:104200000FD020000A21FEF7E5FC01357E19303180
:10421000317020000A21FEF7DDFC26000400092E83
:10422000EDD8052306930B9B594605930023049371
:104230000A3303930A9B4846029310AB0093089AF3
:1042400043460195FFF700FC0C9B002B2DD05346F5
:10425000C41A259BA34228D94D465F4681461E00BD
:10426000534639001A19202043460134A847A64274
:10427000F6D8534648462599C21A01320023914286
:1042800000D386E1013018180FE0269B0493259B8C
:104290000393249B0293229B239C00930194434607
:1042A000524659464846FFF7BDFC19B0F0BCBB4624
:1042B000B246A946A046F0BD01432BD10B9B22007C
:1042C000002B00D154E700230A93249B0A9A002470
:1042D000934200DD85E12298239900220023FEF716
:1042E00027FF002800D035E1269B084A02941A4097
:1042F0008023DB0013430493259B0393089B099CB5
:10430000CBE7C046FFFFEF7FFFFFEFFFFFF7FFFFA9
:1043100006232493B44B70009C46400D6044FEF786
:1043200033FFB24AB24BFEF7C0FEB24AB24BFEF7C1
:1043300095FE3603B14B360B334304000D003800B5
:1043400019000022AE4BFEF780FEAE4AAE4BFEF7E0
:10435000ACFE02000B0020002900FEF77FFEFEF7F6
:104360002BFF0A90FEF710FFA84AA94B04000D008E
:10437000FEF79BFE0022A74BFEF770FEFEF71CFF28
:10438000A54A0600A54B20002900FEF78EFE04007A
:1043900030000D000C96FEF7F7FEA14AA14BFEF788
:1043A00084FE02000B0020002900FEF74EFE0200F2
:1043B0000B0006000F00FEF778FE320004000D002F
:1043C0003B0030003900FEF749FE00220E900F91AD
:1043D000954B20002900FEF74AFE0022934BFEF782
:1043E0003DFE02000B0020002900FEF740FE0022E7
:1043F0008F4BFEF733FE02000B0020002900FEF772
:1044000036FE0D008021040032003B000020C9056B
:10441000FEF71BFE02000B0020002900FEF71EFE27
:1044200002000B000E980F99FEF721FE0022734B3D
:10443000FEF714FE7F4B0C9C9C466444002223052F
:10444000FEF733FE06000F0002000B0008980999E2
:10445000FEF76EFE00280AD00A9B3000013B3900AF
:104460000A930022714BFEF702FE06000F000A9A23
:10447000330063323900C62A12D802222698042556
:1044800010400B9A0C90002A25D1259B042B05D9AE
:10449000002800D0A1E0259B043B0B93042541E0BC
:1044A0000222269810400B9A0C90002A12D1259BCC
:1044B000052B76D9002872D1259B0525053B0B934A
:1044C00034E0802212069446229B0893239B634487
:1044D000099330E605250B4300D1F6E608980999C3
:1044E000554A564BFEF732FE002808D00898099925
:1044F0000022534BFEF71CFE002800D0E5E6249B6B
:10450000002B1CD00D9B002B19D0249B013B249326
:10451000259BAB4204D90C9B002B5AD002230C9351
:1045200000230B930A9B002B00D131E608980999D0
:1045300032003B00FEF79BFD0890099128E6259B81
:10454000AB42EDD90C9B002B43D000230B930233DD
:104550000C93E7E78020269B3A4A00061A40802306
:1045600084460294089C099D2900DB0013430493B0
:10457000259B6144220003930B00009201938EE679
:104580000524A8E600230B930A93023304250C9319
:10459000FEE553468C46013B63441B1A72E6022338
:1045A0000C930525C2E70423EDE58020089E099FB2
:1045B000000639008446269A224B61441340049336
:1045C0000B9B32000393249B02930B0000920193F8
:1045D000F3E5259B5B1B0B93A4E7022304250C93B7
:1045E000A0E79C1A013C76E601FCFFFFFB799F5097
:1045F0001344D33FB3C8608B288AC63F0000F03F06
:104600000000F83F61436F63A787D23F71A3790928
:104610004F930A400000E03F1655B5BBB16B024016
:10462000EF39FAFE422EE63F00002C400000244005
:1046300000001840FF0300002D431CEBE2361A3F38
:1046400080842E41FFF7FFFFF0B5DE4657464E4609
:104650004546E0B5A5B01E002E9B92460C93CD4A70
:10466000CD4B80468B461A60002900D1EAE1002339
:1046700030789946002800D1ECE1C84B4C460B93AA
:10468000C74B454657460E930AE0631C98462200E6
:104690003B005946A84744463078002800D187E0BF
:1046A00001362528F1D108239A46043B9946023B5E
:1046B0009846013B00229C460D943078711C030003
:1046C000203BDBB2102B03D80B9C9B00E3589F468A
:1046D0000300303B89460D9C092B3AD900239846AC
:1046E0002A2800D1C1E000239A462E284BD003008F
:1046F000683BDBB2122B1ED80E999B00CB589F460D
:1047000063460E001A43D8E743460E001A43D4E727
:104710004B460E001A43D0E710230E001A43CCE795
:1047200053460E001A43C8E780235B001A43FF3B41
:104730009C467078E1444E4667284FD82428A4D977
:104740000300253BDBB2422B9FD896499B00CB58F8
:104750009F46002394461E0000E00131B3009B19E0
:104760005B001E180878303E0300303B092BF4D95B
:104770000123624689469C460023B0469A460E00B5
:10478000E1442E28B3D13021802049428C46C0001C
:10479000024370784B4684446146092900D86CE195
:1047A0002A2800D17AE101239C464E46E1449EE747
:1047B000A146A846BA46CA4503D801235B425344E2
:1047C000994653464A4659460020C047200025B026
:1047D000F0BCBB46B246A946A046F0BD0300693B0B
:1047E000DBB20D930F2B00D94FE7012199408C4686
:1047F0006D49894661464B4619400F9163464946CB
:104800000B4200D028E10D9B0A2B3AD0072B00D099
:104810003BE70C9B190008C98846002B00D14BE1EF
:1048200021200243914614A98C461F220F21624485
:104830008C4651460D950C91A24615000F9902E049
:1048400020290CD0130064461C4020003730092C6E
:1048500000D80738013168541A090F2BF0D80C9B87
:1048600054460D9D9A460F9133E10C9B02CB88462E
:10487000002947DB0C9301239C4670784E46E144A7
:1048800031E70C9B02CB14935346002B00D138E147
:104890009C4608780B000C908C44002801D100F055
:1048A00098FC89466146944603E05A780133002A11
:1048B00001D08B42F9D1494662465B1A0C900F93A6
:1048C000530500D520E10223180010400D9013423B
:1048D00000D1CBE30D930B1BB1469A465E460C9874
:1048E00022003B003100A84753460134185D0028E0
:1048F000F6D1B3464E460D9B002B00D0C7E1149B6A
:104900000C93C9E60C9301239C4628384942024384
:10491000884670784E46E144E5E670786C2800D110
:104920007FE180235B001A43FF3B9C46E14402E7A2
:1049300080239B001A4301239C467078E144FAE6E9
:104940007078682800D173E180231A437F3B9C462E
:10495000E144F0E6672800D103E1472800D15AE19D
:10496000452800D15AE10492072142460C9B03924C
:10497000073352468B43190002920CC9280000925B
:1049800001930C9122003B005946FFF79FFB040066
:1049900082E6C0464946001078250020BC920010EF
:1049A000009300104C93001041900000462800D165
:1049B000DBE00492072142460C9B039207335246E8
:1049C0008B43190002920CC92800009201930C91AC
:1049D00022003B005946FFF725F904005CE6631C02
:1049E000984622003B0059462520A847444653E6F6
:1049F0000C9B04330D93631C9946920700D422E16B
:104A00000C9B2200187859463B00A8474346444473
:104A1000012B00D885E23300B8462E005F46250002
:104A20004C46994622004346013439002020B047C5
:104A3000AC42F7D12C00BB46350047464E460D9B95
:104A40000C9329E6DB4B30789846002399460028E2
:104A500000D012E60024AEE66F2800D188E000D82E
:104A60000BE31023782800D1CFE09A430A239C4619
:104A700000230F930A330D9380E05646B100891945
:104A8000490001330E181878303E010030390929E9
:104A9000F4D9B2461E000133994628E60C9B023633
:104AA00002CB8A46C9435046C917084082460C9338
:104AB0003078731C99461AE610231000984311337E
:104AC0001843814680201300C0000340024200D1F9
:104AD000A9E64B46069308230593534604931023F7
:104AE0000393002302930F9B220001931CAB0093BE
:104AF00059463B002800FEF7A7FF434604000C93ED
:104B0000CAE501235B42C3E60F9B534501D95346D7
:104B10000F930223180010400D90134200D1B7E10B
:104B20000D93D1460B1B9A463300A1442E00220060
:104B30004D460C98B9465F469B4608E04B46390007
:104B4000541CB0475346185D002877D02200954288
:104B5000F4D15B46BB464F46A94635004C461E0085
:104B6000C9E680231B011A43FDE620231A4320E7F0
:104B700008239C4600230F9308330D9380231100D4
:104B8000DB0019401A4200D116E10D239A431000B0
:104B9000802302009B001A401492184200D0C2E108
:104BA000802302005B001A4091460C9A04320F9257
:104BB000184200D0B7E2430600D59FE1030600D4B7
:104BC00019E30C9B1B880993002B00D0FCE11033E8
:104BD0009843002900D1F7E1002399464346059305
:104BE000534604930D9B069003930023D2E058286C
:104BF00008D0622867D102239C4600230F9302331A
:104C00000D93BBE720231A43103B9C4600230F93D0
:104C100010330D93B2E780231B011A4320231A435C
:104C2000A1E6C0239B001A43F31C9946B07882E5A5
:104C3000C0231A43F31C9946B0787CE535005E46E4
:104C4000BB464F4657E64346012B00D863E1631E3F
:104C500043449A463300B9462E005F4655469B466C
:104C6000A24622004B46013439002020B047AC4216
:104C7000F7D135005E46BB464F46A14654460C9BD5
:104C80004A46187859463B004444A847D7E6A1460F
:104C90000F9B984500D832E64444E41A3300B846E6
:104CA0002E005F4625004C469946220043460134BB
:104CB00039002020B047AC42F7D12C00BB4635006C
:104CC00047464E461BE680231000DB0018401A4280
:104CD00000D10FE1112118008A430D920D9A802313
:104CE00011009B0019408C461A4269D180231100A3
:104CF0005B00194089460C9904310F911A4200D08B
:104D0000CAE113005B0600D5F0E013001B0600D4D7
:104D100059E20C9B00229B5ED9175A184A4092B266
:104D2000D90F0C91002B00D1F9E1100014AA944680
:104D300042461F23149252466344A84616944D4699
:104D40000400B946B2461F00159201E0202D0FD095
:104D500020000A21FDF73EFF01357E193031317008
:104D600020000A21FDF736FF26000400092EEDD8A9
:104D7000149B4F46A94645469846159B56469A466B
:104D8000169C0D9B069343460593534604930A23B2
:104D900003930C9B02934B4601931CAB22000093A0
:104DA00059463B002800FEF74FFE0F9B04000C9372
:104DB00072E4C046993900100C239A431000E7E6CC
:104DC00007220C9B07339343013294469C4462466E
:104DD0000C920CCBD90F0F911100194300D191E027
:104DE000D917139112915140109113995940119173
:104DF00010981199129A139B801A99411090119151
:104E000014AA0023944642469946149252461F33F0
:104E10006344A846B24616944E46109C119DB9466E
:104E200015921F0001E0202E10D0200029000A2238
:104E30000023FDF70DFF013630322B00BA550D006F
:104E400022000400002BEED1092AECD8149B109408
:104E5000119545469846159B4F46B14656469A468B
:104E6000169C0D9B069343460593534604930A23D1
:104E700003930F9B02934B4601931CAB22000093BC
:104E800059463B002800FEF7DFFD0400FFF704FC55
:104E90000F9B984500D8C1E18023DB000D9343466A
:104EA0000F9A1B199B1A994633002E004D46B9469E
:104EB0005F469B460C9122004B460134390020206E
:104EC000B047AC42F7D143460C9901330F930B78AE
:104ED00035000C935E46BB464F46002B00D10EE5D5
:104EE0000D9B002B00D1F6E4002319E60C9B1B78E8
:104EF0001A0015E710239A430D92EFE60C9B1B78DE
:104F0000099361E6002399460028AAD100220023D4
:104F10001092119374E70C9B2200187859463B00BD
:104F2000A8474C468BE50C9AFA3BFF3B07329A4365
:104F30000133994691444B460C931368526815927D
:104F40001A4306D11032904300220992002900D062
:104F500081E06122810600D54122D2B20A9214AAD0
:104F600091460A9A00210A3A1492424617925246F2
:104F700018925A460991B3461F311E000F9B4944AF
:104F8000BA4619941A950024674698468946159D95
:104F900016901B920AE03032D2B24B4601341A55B9
:104FA000A8454AD0202C4AD006000D003A00002324
:104FB00030002900FDF74CFED2B2092AEBD9149B30
:104FC0009C466244D2B2E8E76123820600D54123C1
:104FD000DBB20A3B0C93434614A91F228C4615935F
:104FE00053466244A046B2464C461797A94617005E
:104FF000099D0D9E1490169308E03033DBB2013406
:105000003B55B5420ED3202C0CD0050031002800B2
:10501000FDF7E0FDCBB20929EFD90C9A9446634421
:10502000DBB2ECE7159B4D46A14644469846169BDD
:10503000564614989A46179FD0E5B742B2D9179BA7
:1050400057469846189B5E469A461B9B09949B467A
:105050001698199C1A9D43460593534604930D9B3D
:105060000690039300230293099B05E70F9B984545
:1050700000D914E701330F932DE410231100994355
:105080000D91692800D0BAE080231000DB001840A1
:105090001A4200D122E61DE60C9B1B68DA0F1100B4
:1050A000002B00D18CE0DA179818504014AA9146D2
:1050B00042461F23149252464B44A046A9461697D7
:1050C00004006546B2461F000C91159201E0202DA8
:1050D0000FD020000A21FDF77DFD01357E1930310A
:1050E000317020000A21FDF775FD26000400092E0D
:1050F000EDD8149B444698460C9BAC461900159B72
:1051000056464D469A46169F0D9B0291069343467E
:105110000593534604930A23039363463CE6002811
:1051200000D02EE602E60C9B1B689946002B03D1AB
:1051300010339843002938D16123820600D54123DA
:10514000DBB20A3B0C9343461693534614A91F2225
:105150008C4617932B006244A0464D46B2461897E2
:1051600099461700149C0D9E159008E03033DBB271
:1051700001343B55B5420ED3202C0CD00500310034
:105180002800FDF727FDCBB20929EFD90C9A9446E8
:105190006344DBB2ECE7169B149444469846179B95
:1051A00056464D469A461598189F434605935346D2
:1051B00004930D9B0690039300230293149BEBE54D
:1051C0000028A1D172E70C9B1B68D9175A184A40D6
:1051D000A6E580231000DB0018409C460F901A4281
:1051E0000FD00220030013400F93104219D0002368
:1051F000A1460F934CE50C9B1B680993E4E40A005D
:1052000034E40223180010400D90134200D03EE514
:105210004346002B00D042E6FFF771FB01330F93AA
:105220007FE463460D93F3E70EB4012230B584B0FA
:1052300007AC08CC064D01000094280052420394AC
:10524000FFF702FA04B030BC08BC03B01847C046F0
:105250009139001010B5054C82B0009313000A007C
:1052600001002000FFF7F0F902B010BD91390010E5
:1052700010B5094A0300146884B0002C08D001223C
:1052800000910648524203A9A047012004B010BD76
:1052900000F06AF90020F9E778250020153C00109D
:1052A00000BEFDE7094A03001068002805D0084940
:1052B000C3188B4207D81360704706480449C318C7
:1052C00010608B42F7D901204042F5E77425002099
:1052D0000000042098250020002070470120404253
:1052E0007047C04610B5FFF7DBFFC04670B5FDF74D
:1052F00025FB074D074EB54209D20024013E761B1F
:10530000B60808CD984723000134B342F9D170BDE7
:105310007C8900108C890010030010B50800110072
:105320001B68984710BDC046F0B5C64600B5437D22
:1053300007000C001600002B46D0002A17DD0B7862
:105340000A2B24D000239846012E13D001252900D2
:10535000635C01350A2B26D0B542F8D1464509DCFD
:10536000A419013C23780D3B5A4253413B7580BC44
:10537000B846F0BD4346E018A419F11A013C3B6859
:10538000984723780D3B5A4253413B75EFE7037D25
:10539000002BD7D102210F483B689847012EDFD060
:1053A00001239846D2E7631E5B5C0D2BD4D0884561
:1053B00004DA4346C91AE0183B68984702210548B9
:1053C0003B68A8469847C7E7036811002000984744
:1053D000CDE7C046A8940010F0B54546DE464E46DF
:1053E0005746E0B583B091461C0080460D00FDF79E
:1053F0006DF80023304A12184B41002B02DA0122CB
:105400002E4B52422E4908008A4603F071FA0700DB
:105410006B1C03D1404601F063FF0500002C27D030
:10542000284E294B1C68002C18D04B46002B21D14C
:10543000264B994602E02469002C0FD02368002BEC
:10544000F9D04B461B68002B01D09C42F3D12000C1
:105450002A004146B0472469002CEFD1002F26D105
:10546000280003B0F0BCBB46B246A946A046F0BD3A
:10547000174ED6E7154B99460A239B4602E024694E
:10548000002CEBD02368002BF9D04B461B68002B77
:1054900001D0A342F3D12A0041462000B0476B4619
:1054A0005A462000DA71D91D0122B047E7E750467D
:1054B00003F0B6F9D4E7C04640420F00FFFFFF7F7C
:1054C00074190020295300106C250020702500203D
:1054D00019530010F0B5CE46474680B583B06B46F1
:1054E0000600DD1D2870FCF7F1FF0023194A121891
:1054F0004B41002B02DA0122174B52421749080098
:10550000884603F0F5F9164B81461C68002C14D030
:10551000144F02E02469002C0FD02368002BF9D02F
:105520003B68002B01D09C42F4D1200001222900CD
:10553000FFF7FAFE2469002CEFD14B46002B05D172
:10554000300003B0C0BCB946B046F0BD404603F0E1
:1055500067F9F5E740420F00FFFFFF7F7419002055
:105560006C2500207025002070B5040001F0B8FE05
:1055700001230100050001222000FFF72DFF084B49
:105580001C68002C06D06368002B05D0984724695E
:10559000002CF8D1280070BD2469002CF3D1F9E764
:1055A0006C250020F0B5DE4657464E4645469046EF
:1055B0000022E0B585B01E000EAB1B7807009B46AD
:1055C0000368DA6601325960DA66002E60DD02791E
:1055D00059469202924601224A4052029446802243
:1055E00091465A46802403926246BB460020102111
:1055F0004746B446751EA4000192421B1600724233
:105600007241019E5242164002963E5CB04656469A
:10561000424616433200029E16431E61019E5A6B9B
:105620001142FCD04A469A5801969246002A0AD165
:10563000A84228D00022013092468445DDD1039B48
:105640005F469B4616E05A6D012290465A6B2242F5
:10565000FCD01A6E42460196002AEBD0039B5F46AF
:105660009B465346002B15D05346DB0712D45346B6
:105670001B070FD55B463B7105B0F0BCBB46B2467D
:10568000A946A046F0BD039A002AD3D19046DDE793
:105690000020EFE701204042ECE7C046F8B5DE46C7
:1056A00057464E4645468346E0B505200C00FDF7BB
:1056B00097F80600600821008019FDF78BFA430077
:1056C00098468044070005214046FDF783FA3B1ABF
:1056D0009A461E4B8146700080199C4231D81C4965
:1056E000FDF778FA451C5B461C680023E3662268D8
:1056F00004335A400233134080225201A21813602F
:105700005346E3614B462362434601204F2B03D9A6
:1057100050214046FDF75EFAA023E050E36F3900C8
:105720005D400C4B2D042D0CE3181D60012330004F
:10573000E366FDF74FFAF0BCBB46B246A946A04669
:10574000F8BD0549FDF746FA451CCCE73F420F007E
:10575000809698007C10000040787D010F4A70B55B
:10576000821A531E9A410E4BD20008321A600D4B1A
:105770000D4C1A60150023689D432B1EFAD1662438
:105780000268FF340571D5661460633C8833FF3CC2
:10579000D5639563D450FFF781FF70BD00140020DE
:1057A00000E0004000F0004008C0004010B582B0AA
:1057B0006C46247C0094FFF7F5FE02B010BDC04695
:1057C000F0B54E468146474ADE464A44531E9A414A
:1057D0008023574645465B029C46E0B5424B120487
:1057E000624485B01A60414B0C0041491A601000B8
:1057F0000B689843FBD180460620FCF7F1FF4B462F
:105800005A6802231A4001924A46009080200432CE
:105810000292384AE70D4A446602136093463B0001
:1058200032000225400007E00099914206D302357C
:1058300092197B41854201D0002BF5D0434680264A
:105840000393009B2F02AA4698467F1B760003E035
:105850005346FF1A012E3FD0390040463500013E25
:10586000FDF7B8F98442F3D22B0055469A465046CC
:105870003302984668434B4642461D611B688026AA
:105880005340FF227601120213404E4433608023BE
:105890009B019C46029A019B6244136002215C4674
:1058A0004B465B6821604C46276807246740C83434
:1058B0003C40346003240B4013600F4B4B441C608E
:1058C000116001000098FDF785F905B0F0BCBB46FA
:1058D000B246A946A046F0BD5546039B280098460F
:1058E000C9E7C0460040FCBF00E0004000F00040B7
:1058F00008C00040043000002420000010B58024BF
:105900000B68E405A34210D2581C934207D95200F9
:10591000934204D2A24205D32000054B0B60FEF750
:105920002BF810BD0A60501CF9E7024800F0A2FFF6
:10593000FFFFFF3F648A001003000068083310B5C2
:10594000984201D0FEF71CF810BDC046F0B54F4696
:105950004646DE46C0B51F0043680E00891882B077
:105960008946591A88460A9904008A1AD2180823C7
:105970009B460368834401929B453BD0826820008C
:1059800001A9FFF7BBFF0500002E05D02168012EFD
:105990002DD03200FDF7EAFF002F09D00A9B002B23
:1059A00006D0A819012B27D039000A9AFDF7DEFF8F
:1059B0004346002B0AD00A9B2168F018434628185A
:1059C0004944012B10D04246FDF7D0FF20688345A3
:1059D00001D0FDF7D5FF019B2560A36002B0E0BCBC
:1059E000BB46B146A846F0BD0B780370EEE70B78D6
:1059F0000370D1E70F22C2E73B780370D8E7C046B7
:105A000070B50600036882B00836040001919E421A
:105A10001FD08268019B934201D802B070BD200064
:105A200001A9FFF76BFF636805005A1C2068002B73
:105A300011D0002A05D1FDF7A3FF019B2560A360CB
:105A4000EBE701002800FDF791FF20688642F2D1C4
:105A5000F3E70F22DEE703782B70F6E7F0B5C646D2
:105A600000B5069F0E0090461C00079D002F0BD02E
:105A7000974253D8012F02D11B780B7004E03A00F3
:105A80001900300001F08EFD002D4AD0474548D066
:105A90004346F019F118012D02D10B78037002E092
:105AA0002A0001F07FFD47453BD94346F518E3192D
:105AB0009D420AD3012F02D12378337031E03A009E
:105AC0002100300001F06EFD2BE0A5420ED84346C8
:105AD000A41BE21AD219B118012F02D10B7833702E
