:020000041000EA
:1000000000B5324B212058609868022188439860DF
:10001000D860186158612E4B002199600221596106
:100020000121F02299502B49196001219960352056
:1000300000F044F80222904214D00621196600F024
:1000400034F8196E01211966002018661A6600F04E
:100050002CF8196E196E196E052000F02FF8012189
:100060000842F9D1002199601B49196000215960AB
:100070001A491B48016001219960EB211966A021F2
:10008000196600F012F800219960164914480160C1
:100090000121996001BC002800D000471248134993
:1000A000086003C880F30888084703B5996A0420EC
:1000B0000142FBD001200142F8D103BD02B5186610
:1000C0001866FFF7F2FF186E186E02BD00000240BE
:1000D000000000180000070000035F00212200005C
:1000E000F4000018222000A00001001008ED00E03C
:1000F00000000000000000000000000074B24E7A12
:1001000000200420F7010010C3010010C5010010F9
:10011000C1010010C1010010C1010010C101001097
:10012000C1010010C1010010C1010010C701001081
:10013000C1010010C1010010C9010010CB01001065
:10014000CD010010CD010010CD010010CD01001037
:10015000CD010010CD010010CD010010CD01001027
:10016000CD010010CD010010CD010010CD01001017
:10017000CD010010CD010010CD010010CD01001007
:10018000CD010010CD010010CD010010CD010010F7
:10019000CD010010CD010010CD010010CD010010E7
:1001A000CD010010CD010010CD010010CD010010D7
:1001B000CD010010CD010010CD010010CD010010C7
:1001C00000BE00BE00BE00BE00BE00BEEFF3058054
:1001D000103800BEF2EB8871087605102C760510F9
:1001E0003402001090A31AE700201F49086006C8D7
:1001F00081F3088810471D48006800282FD10DA4FE
:100200000ECC002902D000F012F8F9E71849194A7B
:10021000002000E001C19142FCD1174988471749ED
:1002200088471749884700BEFDE701C901C29A42C5
:10023000FBD370472C760510C0000020502800200A
:10024000BC9D05100000042000000420BC9D05108A
:10025000001004200010042000000000704709482E
:1002600004F022FD0047000008ED00E0000000D08F
:1002700050280020C84C0020E53900104506001029
:10028000A33900105756000006005250ABB360531C
:1002900068AC041006005250861C030278AC0410AF
:1002A000060052505422A29D80AC0410050052500A
:1002B000DE65F468BC9D0510F8B5C04610B5064C67
:1002C0002378002B07D1054B002B02D0044800E017
:1002D00000BF0123237010BD58290020000000003A
:1002E000509B0410044B10B5002B03D00349044865
:1002F00000E000BF10BDC046000000005C290020E7
:10030000509B041010B5002905D0FA22920000235A
:1003100004F05CFD03E0FA21890004F019FD10BD32
:10032000024A1368013313607047C04644460020F8
:1003300010B5040002F0B2FD002903DB206061600B
:10034000200010BD024B034A3F21034803F02CFB61
:10035000509B04106C9B0410A49B041030B583B018
:1003600004000D00012806D0002C02D10C4B9D4248
:1003700011D003B030BD0A4B9942F5D1094808F0BD
:10038000D5FD6846FFF7D4FF00980199FFF7BAFF43
:10039000054B1860E8E7034808F0D8FDE9E7C046D8
:1003A000FFFF0000CC3F0020784A002010B50E4A25
:1003B00013680133136002F071FD002908DB0DD0D2
:1003C000FA229200002304F001FD084B186010BDD2
:1003D000074B084A3F21084803F0E6FAFA21890052
:1003E00004F0B6FCF1E7C046744A0020784A0020C9
:1003F000509B04106C9B0410A49B041000B585B0A6
:100400000F226A4410700023009301332721024811
:1004100008F074FB05B000BD601D0020D0B50400DD
:100420009626B60000273000390002F057FC042061
:100430002043C0B2FFF7E2FF3000390002F04EFC6B
:10044000042320009843FFF7D9FF3000390002F061
:1004500045FCD0BD70B50F2305009D436DB249B278
:100460000D4308231D43EDB204010C4364B21C4349
:10047000E4B22800FFF7C2FF2800FFF7CFFF2000FB
:10048000FFF7BCFF2000FFF7C9FF70BD10B50021CA
:100490000120FFF7DFFF10BD10B5002806D1803125
:1004A0000800C0B20021FFF7D5FF10BDC031080021
:1004B000F7E710B5040003E001340121FFF7CAFF9C
:1004C00020780028F8D110BD10B500210320FFF7D7
:1004D000C1FF00210320FFF7BDFF00210320FFF72C
:1004E000B9FF00210220FFF7B5FF00210620FFF72A
:1004F000B1FF00212820FFF7ADFF00210C20FFF7FE
:10050000A9FFFFF7C3FF10BD00280CD0D0231B06A6
:10051000802252005A6100280BD1D0231B06802272
:1005200092005A617047D0231B06802252009A61C4
:10053000F1E7D0231B06802292009A61F2E730B5E2
:1005400083B00190FF239B029C4661448C00EFF333
:10055000108572B680214901200049F091FA0422E9
:1005600001A9200049F054FA85F3108803B030BD8A
:1005700000B583B0FF239B029C466044810080232A
:100580005B059C466144042201A805F087FC0198A4
:1005900003B000BDF8B5070014004E1E11E0642141
:1005A000200004F0D5FB4D006421200004F0D0FBB6
:1005B00004006A1C0A4B9A5CBA55721E5B5DBB5400
:1005C000023E632CEBD8092C07D96400621C044B53
:1005D0009A5C7A701B5D3B70F8BD30343C70FBE771
:1005E0001C9D0410F0B5C64600B504000F001600AF
:1005F00008003DF0C3FE05002300083323600023FC
:100600006360237273681918200026F0D5FB0B4B2A
:1006100062689B1A9D420DD82A003900200026F0FE
:1006200045FD31687268200026F040FD200080BC46
:10063000B846F0BD02481AF0B5FFC046FFFFFF3FC5
:10064000E49B0410F0B5D6464F464646C0B56D4C07
:10065000A54405F00DFE6C496C4808F023FA03210F
:100660000C2001F007F903210D2001F003F9072008
:1006700001F0E8F9082001F0E5F9092001F0E2F9BC
:100680000A2001F0DFF90B2001F0DCF90022012142
:10069000072001F007F9002201210A2001F002F9E8
:1006A000002201210B2001F0FDF8D0231B0680223F
:1006B0009A6280325A620132FF325A628022D2003C
:1006C0009A62802212019A62514B002204210A2070
:1006D00001F05CF94F4B012204210B2001F056F987
:1006E000FFF7F2FEFFF7D2FE00210020FFF7D4FE55
:1006F0004948FFF7DEFE0020FFF706FF00240F2C1D
:100700000CDC21000120FFF7C7FE4448FFF7D1FEB3
:10071000FA20800002F00EFB0134F0E7FA246400B6
:10072000200002F007FBFFF7B1FE00210020FFF7D9
:10073000B3FE3B48FFF7BDFE00210120FFF7ACFEF2
:100740003848FFF7B6FE384802F0F4FAFFF79EFE8D
:10075000200002F0EFFA00210020FFF79DFE334851
:10076000FFF7A7FE00210120FFF796FE3048FFF7B4
:10077000A0FE0020FFF7FCFE824616A8FFF7D8FD7A
:1007800016981799FFF7BEFD002300240A930B94D7
:100790000A900B932749284825F0D0FA04005046C8
:1007A00005F08CFA02000B00200025F0DFFA25F09E
:1007B00061F900F08EFF214B214A3F21214803F0CF
:1007C000F3F8FA21890004F0C3FA00F095FF1B4BFF
:1007D0001B4A3F211B4803F0E7F8FA21890004F087
:1007E000B7FA00F0B0FF154B154A3F21154803F04A
:1007F000DBF8FA21890004F0ABFA00F0B5FF6D4296
:1008000000F0CEFFD8FCFFFFA0860100601D002095
:1008100021030010AD030010FC9B041060120510B2
:100820000C9C0410209C0410B80B0000349C041095
:10083000489C0410549C0410FC3C0020509B041065
:100840006C9B0410A49B041001344B46191996AB01
:1008500094932D2294A826F0DBF9949848442A001A
:100860002100FFF797FE959A002A00D00022092365
:100870000093BB4B002194A826F054FB040090ABDE
:100880008E93036805000835AB4200D1FBE08E93E0
:100890008368909363688F9325600023636023725D
:1008A0008F9AB04B9B1A022B00D8F2E00322AE497C
:1008B0008EA826F0FBFB04008AAB88930368050032
:1008C0000835AB4200D1E7E0889383688A93636878
:1008D000899325600023636023728898FFF7E9FD00
:1008E00088988AAB984203D08A9B591C05F0ECFA91
:1008F0008E9890AB984203D0909B591C05F0E4FA77
:10090000949896AB984203D0969B591C05F0DCFA5C
:1009100034A81AF0A3FF24AC944B23640025B02321
:10092000E5500433E5540133E5540333E550043313
:10093000E5500433E5500433E5508D4A5368249361
:100940000C3B1B68B62189005B1814A98C466344D4
:1009500088498C46634492681A60249B0C3B186853
:10096000A446604400211AF0FFFE834B2493143305
:100970002364824B6360A560E56025616561A561C4
:10098000E5612CA809F0CAF97D4B6360102363620E
:1009900030ABA362E5623023E55425A934A81AF0F0
:1009A000E3FE249B0C3B1A68A4466244754BD16855
:1009B0000B40D36004210B43D360249B0C3B1B688A
:1009C000634401225A60704B1B689B006F4A985821
:1009D00005F074F902000B00200025F0C7F918ABF0
:1009E0001AAA189219951D72A269002A64D0289932
:1009F0008A4257D9299B1998D11A020000910021E7
:100A000018A826F08FFA00210120FFF745FD18AA4B
:100A10005F49A0A8FFF7E6FDA19A524B9A4250D039
:100A200001225C49A0A826F041FB04009CAB9A93EC
:100A3000036805000835AB4246D09A9383689C93BF
:100A400063689B9325600023636023729A98FFF785
:100A500030FD9A989CAB984203D09C9B591C05F0A2
:100A600033FAA098A2AB984203D0A29B591C05F080
:100A70002BFA0120FFF748FD002399468AE1023452
:100A8000E3E60334E1E61022290090A805F006FA17
:100A900000E741481AF086FD102229008AA805F0D7
:100AA000FDF914E7299B1998C91A02000091002149
:100AB00018A826F037FAA6E72EA918A826F0CCF831
:100AC000A1E735481AF06EFD102229009CA805F018
:100AD000E5F9B5E7314B324A3F21324802F064FF75
:100AE000FA21890004F034F975E1FA239B00994258
:100AF00000D27FE12C4B186800221A6005F0BCF888
:100B0000514605F056F8294905F053F8011C4846AE
:100B100005F04AF8814602F0C1F9002909DB0ED040
:100B2000FA229200002304F051F906900023079363
:100B300060E11A4B1A4A3F211A4802F035FFFA21A8
:100B4000890004F005F9F0E7144B154A3F211548D8
:100B500002F02AFFFA21890004F0FAF856E1C046B3
:100B60006C9C0410FFFFFF3F789C0410CCD604104F
:100B700088E0041068FDFFFFA4E0041054E10410B5
:100B800028E00410FBFEFFFF744A0020781C0020C0
:100B9000CC9C0410D89C0410E49B0410509B0410BF
:100BA0006C9B0410A49B041044460020000070427B
:100BB00066A81AF053FE56ACAE4B23640025B02352
:100BC000E5500433E5540133E5540333E550043371
:100BD000E5500433E5500433E550A74A5368569373
:100BE0000C3B1B68B62189005B1814A98C46634432
:100BF000D13BFF3B92681A60569B0C3B1868A44699
:100C0000604400211AF0B0FD9C4B569314332364CA
:100C10009B4B6360A560E56025616561A561E56149
:100C20005EA809F07BF8974B63601023636262ABA8
:100C3000A362E5623023E55457A966A81AF094FD33
:100C4000569B0C3B1A68A44662448F4BD1680B40FC
:100C5000D36004210B43D360569B0C3B1B68634459
:100C600002225A604946404604F099FF05F026F8F2
:100C700002000B00200025F079F81EAB20AA1E927E
:100C80001F951D72A069002800D1DAE05A998842A8
:100C900000D8CCE05B9B1F99C01A0A00009000218D
:100CA0001EA826F03FF900210120FFF7F5FB1EAA40
:100CB0007649ACA8FFF796FCAD9A754B9B1A032BAF
:100CC00000D8C3E004227349ACA826F0EFF9040071
:100CD000A8ABA693036805000835AB4200D1B8E085
:100CE000A6938368A8936368A79325600023636035
:100CF0002372A698FFF7DDFBA698A8AB984203D015
:100D0000A89B591C05F0E0F8AC98AEAB984203D014
:100D1000AE9B591C05F0D8F802F0C0F8002900DAA3
:100D20009DE000D1A1E0FA229200002304F04EF8E9
:100D30000490002305931E9820AB984203D0209B7B
:100D4000591C05F0C1F84D4B5693143366934D4B27
:100D50005793609862AB984203D0629B591C05F090
:100D6000B3F8474B57935EA808F0C2F9424A53685C
:100D700056930C3B1B68B62189005B1814A98C465E
:100D80006344D13BFF3B92681A603A4B669366A876
:100D90001AF0A2FD404604F091FF04000D00484601
:100DA00004F08CFF3C4A3D4B04F00DFA02000B00AE
:100DB0002000290004F090FA002800D17AE002F027
:100DC0006DF8002900DA85E600D189E6FA22920062
:100DD000002303F0FBFF029000230393029A039B7E
:100DE00006980799121A8B411100002B00D081E65A
:100DF00000D17AE602F052F8002900DAA4E600D128
:100E0000A8E6FA229200002303F0E0FF0600002784
:100E100002003B0004980599121A8B411100002B27
:100E200000D0C5E6B6D11E4B9942B3D9C0E65B9B54
:100E30001F98C91A0200009100211EA826F072F81E
:100E400031E760A91EA825F007FF2CE715481AF026
:100E5000A9FB10222900A8A805F020F843E7124BAF
:100E6000124A3F21124802F09FFDFA21890003F047
:100E70006FFF5DE7CCD6041088E00410A4E00410F6
:100E800054E1041028E00410FBFEFFFFCC9C04108A
:100E9000FFFFFF3FDC9C04109A9999999999C93FEB
:100EA00013050000E49B0410509B04106C9B04107D
:100EB000A49B04100020FFF727FBCD4B0022042148
:100EC0000A2000F063FDCB4B012204210B2000F02F
:100ED0005DFDC94B00221A60FFF7D8FA00210020FF
:100EE000FFF7DAFAC548FFF7E4FAFA20400001F00C
:100EF00021FFFFF7CBFA00210020FFF7CDFAC04811
:100F0000FFF7D7FA00210120FFF7C6FABD48FFF727
:100F1000D0FA18981AAB984203D01A9B591C04F0C7
:100F2000D3FFB94B249314333493B84B25932E98A5
:100F300030AB984203D0309B591C04F0C5FFB44B32
:100F400025932CA808F0D4F8B24A536824930C3B9C
:100F50001B68B62189005B1814A98C466344AE490E
:100F60008C46634492681A60AC4B349334A81AF0F0
:100F7000B3FCD0231B065B681B0600D59AE301F087
:100F80008DFF002900DAEFE000D1F3E0FA229200B1
:100F9000002303F01BFF0C9000230D930C9A0D9B74
:100FA0000A980B99121A8B411100002B05D100D021
:100FB0008FE39B4B994200D88BE3FFF767FA002140
:100FC0000020FFF769FA9748FFF773FA0021012024
:100FD000FFF762FA34A81AF041FC24AC8F4B23646B
:100FE0000025B023E5500433E5540133E5540333C1
:100FF000E5500433E5500433E5500433E550854AA9
:10100000536824930C3B1B68B62189005B1814A914
:101010008C46634480498C46634492681A60249BE2
:101020000C3B1868A446604400211AF09DFB764BE7
:10103000249314332364764B6360A560E5602561D7
:101040006561A561E5612CA808F068FE6F4B6360DF
:101050001023636230ABA362E5623023E55425A917
:1010600034A81AF081FB249B0C3B1A68A446624406
:101070006D4BD1680B40D36004210B43D360249B9C
:101080000C3B1B68634401225A60504604F016FE74
:1010900002000B00200024F069FE18AB1AAA189277
:1010A00019951D72A269002A73D028998A4266D9BF
:1010B000299B1998D11A02000091002118A825F047
:1010C00031FF18AA5949B8A8FFF78CFAB99A584BBA
:1010D0009B1A012B62D902225649B8A825F0E6FFD7
:1010E0000400B4ABB293036805000835AB4258D096
:1010F000B2938368B4936368B393256000236360FD
:101100002372B298FFF7D5F9B298B4AB984203D0E6
:10111000B49B591C04F0D8FEB898BAAB984203D0DF
:10112000BA9B591C04F0D0FE01F0B8FE00293EDB4A
:1011300043D0FA229200002303F048FE10900023CF
:10114000119301F0ABFE00293CDB41D0FA22920062
:10115000002303F03BFE0E9000230F93002414960F
:1011600015975746A04636E1334B344A3F21344861
:1011700002F01AFCFA21890003F0EAFD0BE7299B33
:101180001998C91A02000091002118A825F0CAFE7A
:1011900097E72EA918A825F05FFD92E729481AF0D5
:1011A00001FA10222900B4A804F078FEA3E7224B2C
:1011B000224A3F21224802F0F7FBFA21890003F07E
:1011C000C7FDBBE71C4B1D4A3F211D4802F0ECFB4D
:1011D000FA21890003F0BCFDBDE7174B174A3F21F8
:1011E000174802F0E1FBFA21890003F0B1FDFEE0AF
:1011F00021030010AD030010744A0020E49C041089
:10120000349C0410489C0410A4E0041028E004104E
:1012100054E1041088E0041068FDFFFFCCD60410F0
:1012200087130000F49C0410FBFEFFFF049D0410D4
:10123000FFFFFF3F009D0410509B04106C9B0410A7
:10124000A49B0410E49B04104E4B994200D8DDE0AF
:10125000B946149E159F4946504604F0F1FC0028FB
:1012600000D112E2FFF712F900210020FFF714F974
:101270004548FFF71EF900210120FFF70DF943480B
:10128000FFF717F900214846FFF759F901F006FE6C
:10129000002900DA03E200D107E2FA2292000023DB
:1012A00003F094FD0A9000230B9318981AAB984210
:1012B00003D01A9B591C04F007FE354B24931433BA
:1012C0003493344B25932E9830AB984203D0309B07
:1012D000591C04F0F9FD304B25932CA807F008FFAA
:1012E0002E4A536824930C3B1B68B62189005B1877
:1012F00014A98C4663442A498C46634492681A6058
:10130000284B349334A81AF0E7FACA46E1E1264B99
:10131000264A3F21264802F047FBFA21890003F0C4
:1013200017FD84E00027A4E01F4B204A3F212048FE
:1013300002F03AFBFA21890003F00AFDA5E01A4BFE
:101340001A4A3F211A4802F02FFBFA21890003F0C4
:10135000FFFCA9E05B9B1F98C91A020000910021C5
:101360001EA825F0DFFD1EE160A91EA825F074FC73
:1013700019E110481AF016F910222900C0A804F04B
:101380008DFD2CE188130000349C0410489C04104F
:10139000A4E0041028E0041054E1041088E00410D4
:1013A00068FDFFFFCCD60410509B04106C9B04100A
:1013B000A49B0410E49B041001F070FD002900DAE6
:1013C00058E100D15CE1FA229200002303F0FEFC18
:1013D0000E9000230F9301F061FD002900DAFCE676
:1013E00000D100E7FA229200002303F0EFFC0890FE
:1013F00000230993089A099B10981199121A8B419E
:101400001100002B00D023E700D11DE7D0231B06DD
:101410005B681B06D0D401F041FD002900DA76E7B5
:1014200000D17AE7FA229200002303F0CFFC129059
:1014300000231393129A139B0E980F99121A8B4143
:10144000002B02D1C7D1C72AC5D94346002B10D0E3
:10145000E649381C04F0FCFB002800D162E7381C88
:1014600004F02CFCE24AE34B03F0B6FE03F0D4FF99
:10147000071C01F013FD002900DA55E700D159E7F8
:10148000FA229200002303F0A1FC0E9000230F9398
:1014900001F004FD002900DA51E700D155E7FA22F6
:1014A0009200002303F092FC10900025002311937A
:1014B00000210120FEF7F0FF66A81AF0CFF956AC24
:1014C000CD4B2364B023E5500433E5540133E55498
:1014D0000333E5500433E5500433E5500433E5505D
:1014E000C64A536856930C3B1B68B62189005B18AB
:1014F00014A98C466344D13BFF3B92681A60569B0B
:101500000C3B1868A446604400211AF02DF9BC4B2E
:10151000569314332364BB4B6360A560E56025617B
:101520006561A561E5615EA808F0F8FBB64B6360F4
:101530001023636262ABA362E5623023E55457A9CE
:1015400066A81AF011F9569B0C3B1A68A44662442F
:10155000AE4BD1680B40D36004210B43D360569B44
:101560000C3B1B68634401225A60381C04F0A6FB44
:1015700002000B00200024F0F9FB1EAB20AA1E92F3
:101580001F951D72A269002A00D1EDE65A998A4280
:1015900000D8DFE65B9B1F98D11A02000091002162
:1015A0001EA825F0BFFC1EAA9949C4A8FFF71AF887
:1015B000C59A984B9B1A012B00D8DAE6022296496D
:1015C000C4A825F073FD0400C0ABBE9303680500FA
:1015D0000835AB4200D1CFE6BE938368C093636801
:1015E000BF932560002363602372BE98FEF761FFFE
:1015F000BE98C0AB984203D0C09B591C04F064FC59
:10160000C498C6AB984203D0C69B591C04F05CFC3E
:101610001E9820AB984203D0209B591C04F054FC28
:10162000774B569314336693774B5793609862AB1E
:10163000984203D0629B591C04F046FC714B5793AF
:101640005EA807F055FD6D4A536856930C3B1B6826
:10165000B62189005B1814A98C466344D13BFF3B3B
:1016600092681A60644B669366A81AF035F90123F4
:101670009846B0E6694B6A4A3F216A4802F094F9FD
:10168000FA21890003F064FBA2E6FEF7FFFE66483C
:10169000FEF70FFFFA20400001F04CFBE2E55F4B44
:1016A0005F4A3F215F4802F07FF9FA21890003F089
:1016B0004FFBF7E501F0F2FB002900DA8AE000D1E8
:1016C0008EE0FA229200002303F080FB0A900023B0
:1016D0000B93564B1B68002B00D14AE401F0DEFB54
:1016E000002901DAFFF767F801D1FFF76AF8FA225B
:1016F0009200002303F06AFB4D4B1B68C01AFA23CB
:101700005B00984200D834E4484B1B68042B00DD92
:101710009EE0484B002204210B2000F037F9464B95
:10172000012204210A2000F031F901F0B7FB002961
:1017300001DAFFF74CF801D1FFF74FF8FA229200D7
:10174000002303F043FB04900023059301F0A6FB64
:10175000002901DAFFF747F801D1FFF74AF8FA222A
:101760009200002303F032FB0690002307932F4CD6
:1017700023689B00314A9B5898460022304B1A60E0
:10178000FEF784FE00210020FEF786FE23689B0002
:101790002C4A9D58EB0F9946002D01DAFFF72FF8E0
:1017A00028000124092801D8FFF74FF8632801D841
:1017B000FFF74AF8FA239B00984201D2FFF75FF93E
:1017C000214B984201D8FFF75CF9204903F0C0FA99
:1017D0000434E7E7114B124A3F21124802F0E4F8C3
:1017E000FA21890003F0B4FA70E7C0460000904186
:1017F0009A9999999999B93FCCD6041088E0041028
:10180000A4E0041054E1041028E00410FBFEFFFFE4
:10181000049D0410FFFFFF3F009D0410509B041027
:101820006C9B0410A49B04100C9D0410744A0020AF
:10183000784A0020AD03001021030010781C00201E
:1018400044460020641C00200F27000010270000E1
:101850000020CA239B009D44E0BCBA46B146A8467E
:10186000F0BDC04610B502490120FEF777FD10BD5E
:10187000FFFF000010B58300084A944663441C68CB
:1018800040226240C02414408022520113431C6055
:10189000C000034B9C466044416010BD04C0014041
:1018A0000040014080000B4B9C46604400290DD055
:1018B0000823002A0CD004221343026853400C2250
:1018C0001340802252011043036070470023F0E769
:1018D0000022F1E704C0014070B50400D0231B06CC
:1018E0001D68AA000C4BD358002B0AD0002803D047
:1018F000AD00094BEC5070BD08490D2000F020FBF5
:10190000F6E70028F7D0AD00034BE850002203496A
:101910000D2000F0FBF9EEE790450020AD19001016
:10192000072303409B00C00899403C308000014BD6
:10193000C150704700400140F8B507000C00160088
:101940001D00FFF7EDFFFB089B00ED180720384056
:1019500080008440002E04D080239B011D432C6016
:10196000F8BDC0239B011D432C60F9E710B5D023BF
:101970001B061B68002B03D0024BFFF7DDFF10BDD9
:10198000014BFAE7304101400041014070B51400BD
:101990001D00FFF7EBFF2800FFF79EFF002C00D192
:1019A00070BD01210D2000F05DF9F9E7F0B5D646D4
:1019B0004F464646C0B5D0231B061F68BA001D4BD4
:1019C000D3589846002F03D01B4B9946002623E09E
:1019D0001A4B9946FAE724090135002C1BD0330035
:1019E0000833AB4217D90F231A00224092462342F4
:1019F000F1D0BB00124A9A580123AB401342EAD1FE
:101A000051462800FFF78CFF4346002BE3D0514698
:101A10002800C047DFE708361D2E06D8F308083334
:101A20009B004A469C583500D7E7E0BCBA46B14611
:101A3000A846F0BD904500203041014000410140E2
:101A40007C4A002010B501238340D0221206936205
:101A500093610521FFF70EFF10BD0000034B1B68CB
:101A600002201840431E9841C0B2704700C0064093
:101A7000EFF3108072B6034B1B68002BFBD0BFF353
:101A80005F8F70472C0100D0BFF35F8F024B0022A5
:101A90001A6080F3108870472C0100D0F8B506005A
:101AA0000C001500FFF7E4FFE308F718F15C0722CC
:101AB0002240012393400B4205D1DBB20B433B7024
:101AC000FFF7E2FFF8BD2100280002F007F8F0B5AB
:101AD00083B00600019114001F00FFF7C9FF00E06A
:101AE0000134BC420CD8E308F518F35C072121400F
:101AF00001228A401A42F3D1D2B21A432A7001E07D
:101B000001246442FFF7C0FF002C02DB200003B079
:101B1000F0BD019B002BF9D0089801F0DFFF000019
:101B2000002307E0054A9A189200BFF35F8F002157
:101B3000116001331F2BF5D97047C04640000034B7
:101B4000054A1078431CDBB21370172B02D913001F
:101B500010221A707047C0468C1C002000B583B05C
:101B60000100044B00931F2318220348FFF7AFFF27
:101B700003B000BDF09D0410A0450020074B9B68FA
:101B8000103080001950BFF35F8FBFF35F8F044B9D
:101B90000021196082F310887047C04600ED00E014
:101BA000240100D010B5091A081F0A4B9C46614455
:101BB000094A914208D8C30706D440104005400D99
:101BC000064B184380B210BD054B064AA3210648B8
:101BD00001F0EAFEFC070000FE0F000000E0FFFF3E
:101BE0000C9E041074A004103C9E041010B5091A39
:101BF00004394C08090B08D14905490D064A11431F
:101C00000180064B2343438010BD054B054AAB21A1
:101C1000054801F0C9FEC04600F0FFFF00F8FFFFD5
:101C2000749E041048A004103C9E041001238340BD
:101C3000034A10681840431E9841C0B27047C0461E
:101C400000E100E0002904D0034B1860034B18604A
:101C50007047034B1860FBE780E200E000E100E022
:101C600080E100E010B5012383401800FFF7EAFF90
:101C700010BD000001238340014A13607047C04635
:101C800000E200E0024B9B6810308000C0587047B3
:101C900000ED00E010B5FFF7F5FF002805D0054B7B
:101CA000C01A2F2803D8012010BD0020FCE7002017
:101CB000FAE7C046901C002070B504000D00EFF359
:101CC000108672B60C4B1B68002BFBD0BFF35F8FE6
:101CD0002000FFF7D7FF094B984201D0A84205D159
:101CE000320029002000FFF749FF70BD044B054A70
:101CF0008621054801F058FE240100D0CD010010D6
:101D0000849E0410A8A004103C9E0410F0B5DE468A
:101D100057464E464546E0B589B0814601911500CB
:101D2000EFF3108A72B6744B1B68002BFBD0BFF325
:101D30005F8F724B0027DF57002F40DB7C00E419D8
:101D4000A4006F4824180622A2566C4B1A706D4BE3
:101D50009A684B4610339B00D35898461E001B1AB6
:101D60002F2B38D9684B98452FD105AE674B338060
:101D70007B009B46D8198000614B98464044023056
:101D80006349FFF70FFF7080624BB380FF23B3718D
:101D9000F571019B07935F44BF0047440ECE0EC709
:101DA00001231C43A046524641464846FFF7E6FE43
:101DB00009B0F0BCBB46B246A946A046F0BD564BA2
:101DC000564AD721564801F0EFFD564B534ADE21C3
:101DD000534801F0E9FDC04340440C2102F0B8FF34
:101DE000002912D101239E43B34633000026DA793D
:101DF000AA4211D90621595600290CDB4A00521873
:101E000092001E003E4B9B18F1E7474B434AEA21E4
:101E1000434801F0C9FD1E00002E3AD005AB434AED
:101E20001A80813A5A800623F3560293002B17DA60
:101E30003F4805AB9B469880029A9A71DD71019AE2
:101E40000792301D2100FFF7ADFEB080B7717B0017
:101E5000DB199B002A4FFF185B4607CB07C7A2E799
:101E60007800C0198000264BC0180430321DB3889A
:101E7000D90A1C2907D15B055915023149005118AF
:101E8000FFF790FED5E72B4B2B4AB121244801F0F8
:101E90008BFD05AE1D4B33807B000293D81980006B
:101EA000174A9046020042440392901C1849FFF7DB
:101EB00079FE7080039A101D5946FFF773FEB080BB
:101EC0001E4B5A464146521A524153431B0DB371A1
:101ED000F571019A0792029B9C466744BF004744F4
:101EE0000ECE0EC7114B5A461380813B53800123FF
:101EF0001C43A04657E7C046240100D0C24C002036
:101F0000901C002000ED00E0CD01001000A1FFFFBB
:101F1000C01C002001BDFFFFBC9E041090A0041057
:101F20003C9E0410E49E04100C9F04100148000025
:101F300001BD0000809F041080A00410AAAA000028
:101F4000F0B5CE46474680B583B006000D00EFF3EE
:101F5000108872B6564B1B68002BFBD0BFF35F8F07
:101F6000544B9A6834001034A300D758524B9F4208
:101F700007D0AF4200D198E00197504BFB1A2F2BAE
:101F800009D9424639003000FFF7F8FD03B0C0BC64
:101F9000B946B046F0BD3000FFF748FE814600214B
:101FA0003000FFF75FFEBFF35F8FEFF3058100297D
:101FB00001D08C4211D10123019C9C430022A368D3
:101FC000AB4212D00622A256002A0DDB53009B180A
:101FD0009B002200394CE418F1E73621384B394A8E
:101FE000FF31394801F0E0FC2200AB4256D1062512
:101FF0006557002D38DB6B005B199A002F4B9B183F
:102000009A68A260DA79E27106229A56A2719B79E7
:102010005BB2002B0FDA2D48A0806B005B199B0090
:10202000264AD3182A4A117899711570494630000A
:10203000FFF718FEA5E7201D6B005B199B001F4AE8
:102040009B181A1D9B88D90A1C2907D15B055B15B3
:10205000023359005118FFF7A5FDDDE71D4B1E4A5D
:10206000B121194801F0A0FC002912D1002A0ED09C
:10207000FF239371194B9380154A1378A371184B62
:102080000E49641A644163431B0D1370CEE70A4F77
:10209000F2E7201D1349FFF7A9FDC7E76A21124B9C
:1020A000084AFF31084801F07FFC034F69E7C0464A
:1020B000240100D000ED00E0CD010010901C0020B4
:1020C000989F041060A004103C9E041001BD000005
:1020D000C24C0020809F041080A0041001BDFFFFAF
:1020E000AAAA0000CA1C0020CC9F041070B50121D0
:1020F00001432E4BCB1A2F2B28D8EFF30583002B4F
:102100002BD0EFF3108C72B6294A1268002AFBD04C
:10211000BFF35F8F274A0400244D641B6441624370
:10212000120D54B2244A92689B00D2588A421BD0A6
:102130000022032A32D853009B189B001B49CB185E
:102140009B795BB2A3421FD00132F2E7C7211B4B40
:102150001B4A49001B4801F027FC92211A4B184AE0
:10216000FF31184801F020FC134A92681749D150FA
:10217000174B1A7882711C70BFF35F8F0C4B0022D3
:102180001A608CF3108870BD0D00530099188900F7
:102190006918FF268E710F4A8A80E9E7D1210E4B1C
:1021A000074A4900074801F0FFFBC046901C002089
:1021B000240100D0AAAA000000ED00E0D49F041082
:1021C0002CA004103C9E0410FC9F0410CD010010B4
:1021D000C24C002001BDFFFF08A004100022044BE8
:1021E00002E0044902C30132072AFAD97047C04607
:1021F00000E400E08080808000B583B00100064BE1
:102200000093052300220548FFF761FC002801DB4D
:102210001F23181A03B000BD10A00410C74C0020E3
:10222000024B9C46614489000160704740000034C5
:1022300010B50400FFF784FC01002000FFF7F0FF59
:10224000FF232371BFF35F8F10BD10B50400FFF7AC
:1022500077FC01002000FFF7E3FFFF232371002339
:102260006371BFF35F8F10BD034B9C4661448900CF
:102270000160BFF35F8F70474000003410B5040069
:102280000120FFF76BFC01002000FFF7EDFF10BD00
:1022900070B505000C00080000F000FF094920009F
:1022A00000F040FEFFF74CFC074B9C46604480006A
:1022B00068602C75D0231B061B786B75A400034B3C
:1022C000E55070BDD525001040000034604A002064
:1022D0000A4B1A68EFF3108172B61368002BFCD01A
:1022E000BFF35F8F054B1B68BFF35F8F00221A603F
:1022F00081F3108840BF002000217047904C0020DF
:1023000010B5002922D003681B7B99421ED8174BB9
:102310009C466144090183689C4661440C68496895
:10232000002A19D003681B7B9A4215D883680F488E
:102330008446624412019A18106853680200012012
:102340008B4201D80ED00020C0B210BD084B094A04
:102350003C21094801F028FB054B064A3C21064870
:1023600001F022FBA242EFD8EDE7C046FFFFFF0FCE
:10237000D0A1041030A404109CA1041010B50029B1
:102380001ED0037B99421BD84B005B18033B0468AB
:10239000A4466344002919D0002A1DD0914221D0BF
:1023A000002A25D0047BA24222D80468500080185D
:1023B000033820188170197800291FD11A7010BDB8
:1023C000104B114A6821114801F0EEFA104B114AE6
:1023D0006F310E4801F0E8FA0F4B0E4A70210B489E
:1023E00001F0E2FA0D4B0B4A7121084801F0DCFACA
:1023F000044B054A6821054801F0D6FA41701A706D
:10240000DDE7C046F4A104109CA4041010A204103F
:1024100058A2041078A4041064A2041070A204103E
:1024200070B506000D001400002914D0002A14D045
:10243000806873689847002806D022002900300081
:10244000FFF79CFF280007E02A0021003000FFF77B
:1024500095FF200000E0100070BD0800FCE70000C0
:10246000F0B583B00500009201930AAB1C780BAB6A
:102470001F78002C26D003685A7B944207D1012391
:10248000002B19D1002C3BD1200003B0F0BD002C53
:102490000CD01A7B944209D81A6863001B19033BBD
:1024A000D3189B78002BEBD00123E9E73E4B3F4A42
:1024B00068213F4801F078FA3E4B3F4A67213F4888
:1024C00001F072FA03689C7B002CDBD012D01A7BDF
:1024D00094420FD862001219033A19688C4662447C
:1024E00051789973002900D1D973002393705370E8
:1024F0001370C7E72C4B2D4A68212D4801F054FA80
:10250000002C3AD02B681B7B9C4236D82C4BE3180E
:102510001B01AA6894466344009A1A60019A5A60A3
:10252000089A9A60099ADA602E68002C2BD030D075
:10253000337B9C422DD863001B19033B32689446C1
:10254000634400229A705A701A70717B2200300026
:10255000FFF766FF7073844200D095E7287D009AEC
:10256000019B00F027FD061E01D0002F17D00C9B09
:10257000002B00D188E71E7086E7124B124A3C21DF
:102580000E4801F011FA114B114AA521084801F03B
:102590000BFA054B054A6821054801F005FA286841
:1025A000210000F03FFFE2E7F4A104109CA4041016
:1025B00010A2041088A20410A8A404109CA1041066
:1025C000FFFFFF0FD0A1041030A4041098A1041045
:1025D0008CA40410F0B5DE4657464E464546E0B59D
:1025E0008BB00990002308938200B54BD658370072
:1025F00052E0B44BB44A3F21B44801F0D5F9B44B92
:10260000B44A3C21B44801F0CFF9002901D1002897
:1026100069D10021404600F0FBFEA04219D12A6892
:102620006B6806920793AB689846EB689A464346F8
:10263000002B14D0002C18D03B681B7B9C4214D874
:10264000631EFA68D35C08931B02184338610020AC
:1026500015E0A24BA24A8E219F4801F0A5F9A14B9B
:102660009F4A92219C4801F09FF9994B9E4A412133
:10267000994801F099F900239A46984600207B6812
:10268000BFF35F8F00221A6086F310884346002B49
:1026900032D1002800D10CE100F000FC02000B1E3A
:1026A000A7DB00200021069007917868EFF31086E1
:1026B00072B601680029FCD0BFF35F8F3968884685
:1026C0004C7B002CD7D09AD0097B8C4297D8874975
:1026D00065182D01B9688C46654428686968801AB8
:1026E0009941002991DD2A686B68099800F062FC25
:1026F00000239A469846C2E7089B1B02234399464B
:1027000051461800C04705000E007A68EFF3108BA1
:1027100072B6136859424B41D9B2002BF9D1BFF3BD
:102720005F8F002E1EDB002E46DD3B69002B47D05D
:102730004B456DD100F0B2FB02000B1E6EDB52194F
:102740007341002B70DB002B72DB002104910131FF
:102750000391029451460191414600913800FFF7E0
:102760007FFE4CE03B69002BDDD04B4514D1069A2F
:10277000079B521BB341002B14DB002B16DB0021FF
:102780000491013103910294514601914146009117
:102790003800FFF765FE32E0554B514AA1214E4803
:1027A00001F002F901225242524BE6E7454B464AFC
:1027B0003F21464801F0F8F8002E01D1002DB4D198
:1027C0003B68002C50D05A7B944237D1012100291C
:1027D0004AD1DA7B002A4DD19A7B002A03D1DA7BD9
:1027E000002A5AD19C73DC73002C5CD03B681B7BA5
:1027F0009C4258D8FA68013C135D013313550023FD
:102800003B617A68BFF35F8F13608BF3108843E7F7
:10281000374B334AA421304801F0C6F8294B2A4AE5
:102820003F212A4801F0C0F801225242314B8AE789
:10283000244B254A3F21254801F0B6F8002C0DD045
:102840001A7B94420AD862001219033A1868844627
:1028500062449278002ABAD00121B8E7264B274A71
:102860006821274801F0A0F8264B274AF621244882
:1028700001F09AF8002A0AD0197B8A4207D8510041
:102880008A18033A19688C4662445470A4E71A4BBC
:102890001A4A68211A4801F087F81C4B1A4AFB2192
:1028A000174801F081F80A4B0F4A41210A4801F00C
:1028B0007BF80BB0F0BCBB46B246A946A046F0BDC3
:1028C000604A0020509B0410FCA30410A49B041039
:1028D000D0A1041030A404109CA10410B0A20410D4
:1028E00014A40410C8A2041054A40410FFFFFF0F86
:1028F000D4A20410FFFFFF7FF4A104109CA40410D5
:1029000010A2041010A3041068A4041034A304102F
:1029100010B50C4B5B68002B04D00A210A48FFF766
:102920007FFC10BD074C2300084A1021206800F0EE
:102930007FFC032000F0A6FA03212000FFF7A8FC8B
:10294000EBE7C046D81C0020904C0020012300106B
:1029500010B5064B5B68002B01D0044810BD044B3A
:10296000044A5E21044801F01FF8C046D81C00202C
:1029700048A304103CA404109CA10410F0B5DE464A
:1029800057464E464546E0B58BB0804616001F00C0
:10299000149B9A46159B994616AB1B789B461F23A2
:1029A00002AA9446634400221A702BE0002809D042
:1029B00042461268127B904204D8421E4146C968C2
:1029C0008A5C41E0404B414A4121414800F0ECFF24
:1029D00007984CE0361BAF41002F07DB002F11DAC0
:1029E0003C4B3D4A3F213D4800F0DEFF0126764248
:1029F0003B4FF3E7374B384A3F21384800F0D4FFCC
:102A0000002F4FDB43465A68EFF3108472B6136809
:102A100059424B41D9B20791002BF8D1BFF35F8FD8
:102A20001F3302AA94466344049300230393029342
:102A30004B4601935346009332003B004046FFF75C
:102A40000FFD031EB2D1020041464968BFF35F8FFC
:102A500000250D6084F31088002B29D01F2302A9C4
:102A60008C4663441B78002BB2D112021043002B1A
:102A700020D05B46002B1DD04946D04704000D00F6
:102A800003000B431DD00029A4DB00F007FA060069
:102A90000F1EAFDB36196F41002FB1DA01267642E7
:102AA0000F4FADE70B4B0C4A3F210C4800F07CFF69
:102AB000012040420BB0F0BCBB46B246A946A0463E
:102AC000F0BD0798F6E7C046D0A1041054A4041046
:102AD0009CA10410509B0410FCA30410A49B0410A0
:102AE000FFFFFF7FF8B50400002900D162E04268D3
:102AF000EFF3108572B6136858424341D8B2002BE9
:102B0000F9D1BFF35F8FCBB22268567BB3421BD1A2
:102B10000120002848D0206988422BD0090AC9B278
:102B2000002B2ED02068007B83422AD8581EE668EE
:102B3000305C88422BD000206368BFF35F8F002297
:102B40001A6085F31088F8BD002B0DD0167BB342B8
:102B50000AD85E00F618033E1768BC466644B6788D
:102B6000002ED6D00120D4E7134B144A6821144814
:102B700000F01AFF2C21134B134AFF31134800F0C9
:102B800013FF134B134A4121104800F00DFF1900A9
:102B9000100000F047FC0028CED199210E4B0A4AC4
:102BA00049000A4800F000FF23698B42C4D100238A
:102BB0002361C1E70020C6E7F4A104109CA404101F
:102BC00010A204106CA30410E4A304109CA1041030
:102BD000D0A1041054A4041090A30410407D7047A9
:102BE000F0B587B006000F00EFF30583002B1FD16F
:102BF00006246442E517A4197D418D4202D803D111
:102C0000844201D900240025002D14DB049405958D
:102C100000F044F902000B1E13DBA41A9D41002DA5
:102C200017DC14D03000390000F044F907B0F0BDD3
:102C3000234800F053FF234B234A3F21234800F051
:102C4000B3FE204B204A3F21204800F0ADFE002C6F
:102C5000E8D0FFF77DFE0023029301931C4B009305
:102C6000049A059BFFF78AFE002818DADAE70023AA
:102C700000E00023002BD5D1164B1A68EFF310812A
:102C800072B61368002BFCD0BFF35F8F114B1B682B
:102C9000BFF35F8F00221A6081F3108820BF049970
:102CA000059A0D4B5B6A9A42E3D80B48806A8842CA
:102CB00003D29A42DBD00123DCE70123DAE7C046E6
:102CC00094A30410509B0410FCA30410A49B0410B4
:102CD000D1220010904C00200040054070B5040047
:102CE0000D0000F0DBF802000B1E0ADB20002900BB
:102CF0008018594100290ADB00290CDBFFF770FF1F
:102D000070BD084B084A3F21084800F04DFE0120E5
:102D100040420749F0E7034B034A3F21034800F0D4
:102D200043FEC046509B0410FCA30410A49B041057
:102D3000FFFFFF7F10B5FA2292000023002102F06E
:102D400011FFFFF7CBFF10BD70B584B005000C007C
:102D5000EFF30583002B1ED1FFF7FAFD002302934A
:102D60000193224B00932A002300FFF707FE061E63
:102D700023DD20BFFFF7ECFD3100FFF7B3FE1C4B56
:102D80005B6A9C422DD81A4A926AAA422CD29C4273
:102D900025D0012026E0164B5B6A994209D8144AD7
:102DA000926A824207D2994201D001201AE00020A3
:102DB00018E0002016E0012014E00D4B5B6A9C42F5
:102DC00009D80B4A926AAA4207D29C4201D001203C
:102DD00008E0002006E0002004E0012002E00020DE
:102DE00000E0002004B070BD0120FBE7D1220010FC
:102DF0000040054070B5EFF305801038EFF3108CFC
:102E000072B61A4B1B68002BFBD0BFF35F8F0122F9
:102E10001300834016494B6316490B601649097825
:102E20000C00C440224214D0114A546A8200134D4F
:102E30005259944206D38200114C125999430E4BB9
:102E4000197007E00A4A031D9B0099589950002207
:102E500000E00022BFF35F8F044B002119608CF368
:102E60001088002A00D0904770BDC046280100D0CD
:102E7000004005403C700540C64C00209C4C0020A2
:102E80008044002010B50100024A0348FEF706FE08
:102E900010BDC046C8A40410C14C0020044B5B6A9E
:102EA000034A906A1900536A9942F9D17047C046A3
:102EB00000400540084B5B6A01E0074B5B6A8B42B0
:102EC000FBD301E0044B5B6A8B4203D1024B9B6A4C
:102ED0008342F7D37047C0460040054070B50400F8
:102EE0000D00FFF7DBFF02000B0020002900801817
:102EF00059418B4202D804D1824202D9012040427A
:102F0000C117002902DBFFF7D5FF70BD024B034A52
:102F10003F21034800F048FD509B041068A50410B1
:102F2000A49B041070B504000D00EFF3108672B678
:102F30001B4B1B68002BFBD0BFF35F8F002D1CD0F9
:102F40002000FEF79FFE174B83420BD01900200094
:102F5000FEF7B2FE01212000FEF784FE0123A3400C
:102F6000114A1360A400114BE550BFF35F8F0C4B67
:102F700000221A6086F3108870BDA2000B4B00215E
:102F8000D1500122A2400A490B7893430B700549A6
:102F90002000FEF7D5FF00212000FEF763FEE4E7E6
:102FA000280100D0F52D0010386005408044002035
:102FB000C64C0020F0B5DE4600B584B00400150014
:102FC00001921E000293FFF769FF03958E4202D81B
:102FD0004ED185424CD9EFF3108B72B6274B1B684C
:102FE000002BFBD0BFF35F8F254A17780125A54042
:102FF000EBB23B431370234B5D63221D920001999A
:10300000D150A2002049029850501B6A2B4212D185
:103010001C4B1B6C2B4208D00020BFF35F8F174B5B
:1030200000221A608BF3108823E0184B184AC52140
:10303000184800F0B9FCFFF731FF8E4214D802D1D6
:10304000039B834210D80E4B1B78BB420ED00D4B16
:103050001D625D631F2004400123A3400E4A1360DC
:10306000074B1F701E38D8E70020D6E70120D4E7B1
:10307000012004B080BCBB46F0BDC046280100D092
:10308000C64C0020004005409C4C0020ECA40410DD
:103090004CA5041010A5041080E200E0EFF3108CA2
:1030A00072B60B4B1B68002BFBD0BFF35F8F012365
:1030B0008340084A136208490A789A430A70BFF3AA
:1030C0005F8F034B00221A608CF310887047C04654
:1030D000280100D000400540C64C002010B5002952
:1030E0001ED0037B99421BD84B005B18033B04683E
:1030F000A4466344002919D0002A1DD0914221D052
:10310000002A25D0047BA24222D8046850008018EF
:10311000033820188170197800291FD11A7010BD4A
:10312000104B114A6821114800F03EFC104B114A27
:103130006F310E4800F038FC0F4B0E4A70210B48DF
:1031400000F032FC0D4B0B4A7121084800F02CFCBA
:10315000044B054A6821054800F026FC41701A70AE
:10316000DDE7C046F4A1041068A6041010A2041004
:1031700058A2041054A6041064A2041070A20410F3
:1031800070B506000D001400002914D0002A14D0D8
:10319000806873689847002806D022002900300014
:1031A000FFF79CFF280007E02A0021003000FFF70E
:1031B00095FF200000E0100070BD0800FCE7000053
:1031C00010B50023437301338373037BC37301235F
:1031D000027B9A4214D9002B0CD0027B934209D86F
:1031E0005A00D218033A01688C4662440133DBB2BC
:1031F0005370EDE70B4B0C4A68210C4800F0D4FBF0
:10320000002A09D0924207D8016853009A18033A5D
:103210008A180023537010BD024B034A68210348EB
:1032200000F0C2FBF4A1041068A6041010A2041060
:1032300010B5017342608360FFF7C2FF10BD00004C
:1032400070B50400081E00D170BD002934D0237B66
:10325000994231D84B005B18033B22689446634483
:103260005A78002AF0D02DD0237B9A422AD85300D6
:103270009B18033B21688C4663445D78002159709C
:10328000002825D0237B984222D843001B18033BFB
:1032900021688C4663440021597001002000FFF72B
:1032A0006FFF060029002000FFF7CAFF020031006F
:1032B0002000FFF765FFC7E7084B094A6821094866
:1032C00000F072FB054B064A6821064800F06CFBD3
:1032D000024B034A6821034800F066FBF4A1041086
:1032E00068A6041010A2041070B505000C001600AA
:1032F00000292FD034D0037B994231D84B005B1882
:10330000033B0268944663445A78002A2ED19A7887
:10331000002A31D11978FFF793FF0300002E0AD05D
:10332000EA7B002A2ED1AA7B002A03D1EA7B002A5D
:103330003BD1AC73EC73002B3DD1002C4FD02B7BD9
:103340009C424CD82B6861000C19033C1C190023CB
:10335000637070BD254B264A3821264800F024FBB7
:10336000254B264A6821264800F01EFB254B204AA3
:103370003A21204800F018FB234B1D4A3B211D48F1
:1033800000F012FB002A0AD0297B8A4207D851009C
:103390008A18033A29688C4662445470C3E7164B76
:1033A000164A6821164800F0FFFA184B104A4221CD
:1033B000104800F0F9FA002B0BD02A7B934208D872
:1033C00043001B18033B2A689446634400229A700A
:1033D000B3E7094B094A6821094800F0E5FA064BB2
:1033E000064A6821064800F0DFFAC04680A50410AE
:1033F00040A6041088A50410F4A1041068A60410C7
:1034000010A20410BCA50410E4A5041034A30410F9
:1034100070B504000A00457B2900FFF765FF607363
:10342000280070BD70B50400002967D0437B8B4233
:103430000ED0002911D0037B99420ED84B005B18A7
:10344000033B0268D0188378002B0CD1002056E093
:103450000121FFF7DDFF012051E0294B294A6821B6
:10346000294800F0A1FA002B20D0227B93421DD8DE
:103470005A00D318033B2268D2182568EB5C8B42B4
:103480001AD0002B1BD0227B934218D85A00D31895
:10349000033B2268D21853788B4216D0002BF0D110
:1034A0001A4B1B4A6B211B4800F07EFA144B154A3D
:1034B0006821154800F078FA4378137007E0104B44
:1034C000104A6821104800F06FFA437853700023C7
:1034D0008370437001222000FFF706FF0200617B2A
:1034E000814205D02000FFF74BFE6073012006E00B
:1034F000094B074A7121074800F056FA002070BDB9
:10350000F4A1041068A6041010A2041008A004106E
:1035100028A6041088A5041008A60410F8B5DE46F5
:1035200057464E464546E0B505000F0092460A9ABA
:10353000934250D31A0E91461E020A9A002330007D
:10354000494601F043FC80466C006419A400304BEE
:103550009C4664446368834200D260602B1FDBB2E8
:103560009B46012B3DD9C0239B012343802212019E
:103570001A60AB00274A9958002907D0506901F01A
:10358000E7FB431C5800C0180338FDD253465A01CC
:1035900023685A40E0231A4080235B0123431A60CA
:1035A0005A46012A28D980239B01234380221201F5
:1035B0001A6043466360424600233000494601F0EA
:1035C00005FCAD00134B58510120F0BCBB46B24680
:1035D000A946A046F8BD104B104A3321104800F010
:1035E000E3F9012FBFD1C0239B01234303221A60BB
:1035F000A368DB07FCD5C9E72168794003220A40AC
:103600001A60A2680123BB401342FAD0CBE7C04640
:1036100000800040A445002074A60410C8A6041031
:1036200088A6041030B583B00C2000F011F9FEF725
:1036300015FA00280DD0002304E099002D4A2E48E9
:1036400088500133092BF8D92A4B2C4A5A6203B00F
:1036500030BD2B4B00229A6700F06CF9294B0122F8
:103660001A60274B5B6C012BFBD1274B03221A609E
:10367000234B9B6B012BFBD1013300930433234A73
:103680000121234800F054F805230093214A012129
:10369000214800F04DF8214B009300220221042024
:1036A000FFF73CFF1E4D00952B0000220121052055
:1036B000FFF734FF104C0094230000220021072064
:1036C000FFF72CFF00942300002200210820FFF7C1
:1036D00025FF0A4B00932300002200210920FFF759
:1036E0001DFF00952B00002200210620FFF716FF8A
:1036F000ADE7C046A4450020006CDC021BB700000B
:10370000008000403CB0004030B00040002F6859BD
:1037100000800240008C864700C00240001BB700BA
:10372000405973078000014BC0587047A4450020E2
:10373000F0B5C64600B504000E0017001D0037485E
:1037400001F006FB8046364BFA18364B9A4239D8C0
:103750000100380001F0FCFA0200103A98235B00E7
:103760009A4235D86B1E062B38D8069B013B062B98
:1037700034D83F09474537D32D04069B1A03154318
:103780002368002B36DB284B9C4244D08022520118
:10379000264B1A60264B1A60264B9B6811009943F2
:1037A000FAD12660A060231DC02292011A43212372
:1037B00013602368002BFCDAE5600823136080BCEB
:1037C000B846F0BD1C4B1D4A11211D4800F0ECF815
:1037D0001C4B1A4A19211A4800F0E6F81A4B174AEE
:1037E0001C21174800F0E0F8184B144A2321144814
:1037F00000F0DAF822683F231340B342C3D1A36834
:103800001B051B0D8342BED1E368EE22D20213409A
:10381000AB42B8D1D3E780229201B9E7001BB700D1
:1038200080E84BD380F8A93200C0024000E000409D
:1038300000F0004000C00040D8A60410F4A7041017
:1038400038A7041070A704108CA70410D8A7041080
:1038500080239B000343014AD362704700800540E8
:10386000024B1A68024B5A607047C046504A00200B
:103870000080054010B50200164B8020C00518607E
:10388000154B1648186000290AD0154BE021C904D1
:103890001960002A09D1124B802212061A6010BD4D
:1038A0000C4BE021C9041960F3E753019B1A9800FF
:1038B000801800010B4B186080235B04984202D3F0
:1038C000084B094A1A60FFF7CBFF054B8022D2054F
:1038D0001A60E4E700B0054008200140FCFF010049
:1038E00000A00540504A0020FFFFFF0010B5030074
:1038F00010000C4A8024E4051460002B0DD0012236
:103900001343094A094CD461094C5C40146251626A
:1039100093620021FFF7AEFF10BD034B0022DA6176
:10392000F7E7C04600B0054000800540D3C007B0AF
:103930002D3FF84F064BAA2212011A602F22DA609F
:10394000044B054A1A60024B5B68002BFBDA704798
:10395000004002400060024000B0FA0000BEFDE7F7
:1039600003000A4A1268002A08D0084A1068C318DF
:10397000074A9A4206D3054A13607047034A05492D
:103980001160F2E701204042F7E7C04648460020B8
:1039900000000420C84C0020002070470120404255
:1039A000704710B5FFF7DAFF10B582B00C001900B0
:1039B000002A0CD0084B002A0BD001920093230060
:1039C0000200064802F048FC0120FFF7C7FF044B45
:1039D000F1E7034AF1E7C04600A8041010A804105C
:1039E00010E0041070B52B4B2B4A1A602B4B2C4A5D
:1039F0001A602C4B9A682A4B9343FAD12A4C01E067
:103A000008CC9847294B9C42FAD3FFF70BFE234B77
:103A1000274A1A60234B9B68DB43DB01FAD1254B15
:103A200040229A675A671A67DA66234C09E0234BEB
:103A3000234A87212348FFF7B7FF2000FEF7F8FB52
:103A40000834214B9C4209D22368002BF5D0012B6E
:103A5000EDD12000FEF7F9FB0834F2E71B4CA1681A
:103A60001B4DC022280002F019FAA560EFF3058370
:103A7000002B00D000BEFEF753F8FEF7AFFBFEF7B9
:103A800047FF144C01E008CC9847134B9C42FAD3F3
:103A900070BDC04600E00040BFCDFBFE00F000401E
:103AA000FE7F3C0000C0004018280020282800208D
:103AB000FFFFFF0100F001401028002040A8041083
:103AC000ACA8041060A804101828002000ED00E045
:103AD0000000002028280020502800200FB400B546
:103AE00083B0084802F088FB049B002B07D005A98F
:103AF0000191180002F090FB034802F07DFB0120C9
:103B0000FFF72CFF9CA804103CED04109A4200D251
:103B100088547047704710B5002802D00B68496878
:103B2000984710BD0100002007E083001B185B00D0
:103B3000501C08601078C01830380A681378303B81
:103B4000DBB2092BF1D97047F0B5DE4657464E4639
:103B50004546E0B583B093461F000C9B9A460D9CEA
:103B60000E9B99460F9B9B0703D0B8460F0006009B
:103B700022E00192A34688464E46B9460700B44269
:103B800007D2551C4B4641462020B84701342A0035
:103B9000F5E73D004F465C46019B9B46B1464646D5
:103BA000B84637002E0007E0013C551C5346185D0F
:103BB00043463900B0472A00002CF5D135003E00BD
:103BC00047460F9B9B0707D4100003B0F0BCBB46D1
:103BD000B246A946A046F0BDB0464E46B9462F00B3
:103BE0005D46531BB342EFD2541C4B464146202046
:103BF000B8472200F5E7F0B5CE46474680B585B018
:103C0000944698460C9D0D9C0EAB1B789946109AD5
:103C1000119B129EB7071CD4002B0CD0F7070AD5B6
:103C20004F46002F02D10C37374204D0013B02E04F
:103C300030272F550134944201D21F2CF8D9F707B1
:103C400007D59C4205D21F2C03D830272F550134AD
:103C5000F5E7F70615D5770505D4002C03D0944277
:103C600024D09C4222D00F9A102A2BD00F9A102ACF
:103C700030D00F9A022A35D01F2C02D830222A5574
:103C800001341F2C05D84A46002A31D02D222A554E
:103C90000134039602930194009543466246FFF770
:103CA00053FF05B0C0BCB946B046F0BD621E012C42
:103CB00006D00F9F102F01D01400D4E7023CD2E7AA
:103CC0001400D0E7B206D1D41F2CCFD878222A55C1
:103CD0000134D1E7B206CCD51F2CCAD858222A55B8
:103CE0000134C9E71F2CC7D860322A550134C3E715
:103CF000720703D52B222A550134CAE73207C8D5EB
:103D000020222A550134C4E7F0B5DE4657464E4618
:103D10004546E0B593B081468A46089209931CABAC
:103D200010CB1B789B461E9D219B9846002C03D1EF
:103D3000102342469A4390468023DB0046461E40AD
:103D400042461A4212D0002C22D000260EE0303318
:103D5000D9B2771C0AAB99552900200000F0F8FF72
:103D6000AC4216D31F2F14D83E00040029002000B7
:103D700000F0EEFFCBB2092BE9D94246920605D5F9
:103D80004121C918C9B20A39C9B2E2E76121F8E78D
:103D9000270043460693209B05931F9B049303959E
:103DA0005B46029301970AAB0093099B089A514620
:103DB0004846FFF720FF13B0F0BCBB46B246A94609
:103DC000A046F0BDF0B5DE4657464E464546E0B546
:103DD00095B0089009910A920B931E9E1F9C20ABF0
:103DE0001B789B46229B9946239D269B9A4633002F
:103DF000234303D1103352469A4392468023DB007B
:103E000057461F4052461A4219D0330023432DD043
:103E1000002714E03033DAB27B1C98460CABDA553D
:103E20004A462B003000210000F0D0FFA5421FD8E9
:103E300019D043461F2B1BD8474606000C004A46A4
:103E40002B003000210000F0C1FFD3B2092BE1D9D3
:103E50005246920605D54122D218D2B20A3AD2B2BF
:103E6000DAE76122F8E7B145E3D901E0002398469B
:103E700053460693259B0593249B04934B4603933B
:103E80005B460293434601930CAB00930B9B0A9A4B
:103E900009990898FFF7AFFE15B0F0BCBB46B246D3
:103EA000A946A046F0BD0000F0B5DE4657464E4696
:103EB0004546E0B591B083468A460C9298461A9CD6
:103EC00008941B9D099522002B002000290001F079
:103ED00010FA002800D0E5E001225242D74B200022
:103EE000290001F001FA002800D0DBE00122524253
:103EF000D34B2000290001F0E1F9002800D0D1E0E7
:103F000000220023089E3000099D290001F0D6F907
:103F1000002800D0DDE008980999069007918023D9
:103F2000DB001E9A1A400D921E9A1A4201D10623F6
:103F30001C930698079904000D000A00060002432E
:103F400000D1D1E0080D4005400DBE4CA4466044B0
:103F50000A03120BBC4B13431F0001F0DDF9BB4AEF
:103F6000BB4B01F060F9BB4ABB4B01F035F90400D3
:103F70000D000022B94B3000390001F024F9B84A95
:103F8000B84B01F050F902000B002000290001F0AD
:103F900023F901F0D9F9814601F0BEF904000D00C2
:103FA000B14AB24B01F03FF90022B14B01F014F9D4
:103FB00001F0CAF90600AF4AAF4B2000290001F01A
:103FC00032F904000D00300001F0A6F9AB4AAC4B09
:103FD00001F029F902000B002000290001F0F3F89C
:103FE00004000D0002000B0001F01DF90A900B9176
:103FF000A44BF31800261F0522002B0020002900E7
:1040000001F0EAF80E900F9122002B000020802191
:10401000C90501F0D8F804000D0000229A4B0A9857
:104020000B9901F0E2F80022984B01F0D5F802005C
:104030000B000A980B9901F0D8F80022944B01F07C
:10404000CBF802000B000A980B9901F0CEF80200A1
:104050000B002000290001F0BFF802000B000E98B1
:104060000F9901F0C2F80022774B01F0B5F8320049
:104070003B0001F0D8F806000F0004000D00069A7E
:10408000079B01F031F9002830D001235B429C46A8
:10409000E14400227D4B3000390001F0A6F8040015
:1040A0000D0023E01E9B04931D9B03931C9B029316
:1040B000089A099B0092019343460C9A5146584630
:1040C00000F0FCF811B0F0BCBB46B246A946A046D1
:1040D000F0BD0023002406930794069680231B0658
:1040E0009C46654407951AE7002399464B4663337F
:1040F000C62B1ED804261E9B1B0526D52B0023434A
:104100000FD0644A644B0698079901F0E5F800283F
:1041100079D00022614B0698079901F0CFF800286A
:1041200071D01C9B4B4506DD4A46981A431E1C93D2
:1041300003E00526DFE700231C938023DB001E9AA3
:104140001A431E920026002399461D9B9E4264D26C
:104150009F1B02231E9A1A400A921E9A134202D0F3
:10416000002E00D000274B46002B07D022002B004A
:104170000698079901F039F806900791002200236C
:104180000898099901F09AF8002848D1444B1E9AE2
:104190001340049303971C9B0293069B079C009378
:1041A000019443460C9A5146584600F087F8002E79
:1041B00000D187E71E9B9B063DD54525441C434601
:1041C000020051462800D8474B46DA179B18534047
:1041D00005220592013E0496002203920A320292C1
:1041E0004A46D00F0190009343462200514658465C
:1041F000FFF78AFD0A9B002B00D163E702005F46B0
:104200000C9E1D9D54E01C9B002B9ED00D9B002BF3
:104210009BD01C9B013B1C9397E7002799E7069CCA
:10422000079D2200290080200006844661440B007F
:1042300006920793AAE76525C0E7C046FFFFEF7F18
:10424000FFFFEFFF01FCFFFF0000F03FFB799F50F5
:104250001344D33FB3C8608B288AC63F0000F83FA1
:1042600061436F63A787D23F71A379094F930A40D7
:104270000000E03F1655B5BBB16B0240EF39FAFEC6
:10428000422EE63FFF03000000002C4000002440C7
:10429000000018402D431CEBE2361A3F80842E416B
:1042A000FFF7FFFF541C434651462020B847220029
:1042B000931BAB42F6D3100004E7C046F0B5DE46D0
:1042C00057464E464546E0B595B006900791934651
:1042D0009946209F1E9A1F9B1000190001F009F8B3
:1042E000002831D101225242BF4B1E981F9900F085
:1042F000E5FF002837D101225242BC4B1E981F997E
:1043000000F0F2FF00283DD10022B94B1E981F9902
:1043100000F0EAFF002850D10022B64B1E981F99EA
:1043200000F0CCFF002848D1002200231E981F99DE
:1043300000F0C4FF002850D100239846229B5B0563
:1043400000D4B6E0002458E0229B0393219B029303
:1043500003230193A84B00934B465A4607990698AE
:10436000FFF7F2FB0EE1229B0393219B02930423B0
:104370000193A24B00934B465A4607990698FFF7C4
:10438000E3FBFFE00423229A1A4022990B4210D04B
:104390009B4B002A0FD0042222990391219902916C
:1043A000019200934B465A4607990698FFF7CCFBBB
:1043B000E8E0944BEDE70322EEE7229B0493219B78
:1043C000039302971E9B1F9C009301944B465A46F1
:1043D00007990698FFF768FDD4E01E9A1F9B0020FE
:1043E000002100F0F0FE1E901F9101239846A5E7E2
:1043F0000CAB30221A55013F01341F2C01D8092F74
:10440000F6D81E981F9900F09FFF050000F084FF6A
:1044100002000B001E981F9900F0D5FEFA007A4B9F
:104420009B181A685B680A920B9300F0FCFE0890D8
:10443000099100F0ADFF060000F06AFF02000B00DA
:104440000898099900F0BFFE0890099100226F4B6F
:1044500000F04AFF00282ED00136300000F058FF4F
:1044600002000B000A980B9900F02EFF002801D0E3
:1044700001350026002F2CD1280000F04DFF02004E
:104480000B001E981F9900F09EFE06000F000022F0
:104490005E4B00F013FF002846D100225B4B30003A
:1044A000390000F021FF00283ED1EB073CD5013553
:1044B0003AE0062746E70022544B0898099900F095
:1044C000FDFE0028D6D1002E01D0F307D2D501364B
:1044D000D0E7AA461F2C11D8013F0A21300000F076
:1044E00037FC651C30310CAB19550A21300000F047
:1044F0002FFC092E0ED906002C00EBE755461F2C89
:104500000CD87B1E002F09D00CAA302111551F009A
:104510000134F4E72B0055461C00F0E71F2C03D8AC
:104520000CAB2E221A5501341F2C10D80A2128005A
:1045300000F0E6FB661C30310CAB19550A2128004F
:1045400000F0DEFB051E01D03400EDE7340003234C
:10455000229A1340012B1CD01F2C06D84346002B57
:1045600032D00CAB2D221A550134229B0393219B90
:10457000029301940CAB00934B465A460799069858
:10458000FFF7E2FA15B0F0BCBB46B246A946A0461A
:10459000F0BD219B002B13D04346002B02D10C33DE
:1045A00013420FD0219B013B2193190003E00CAB78
:1045B00030221A5501348C42CED21F2CF7D9CBE7CA
:1045C0002199F8E72199F6E7229B5B0704D50CAB0C
:1045D0002B221A550134C8E7229B1B07C5D50CAB0B
:1045E00020221A550134C0E7FFFFEFFFFFFFEF7FE6
:1045F00065CDCD4165CDCDC1C8A80410CCA80410AF
:10460000C0A80410BCA80410B8AA04100000E03F21
:10461000F0B5DE4657464E464546E0B593B0824675
:104620008B4690461193002900D1EBE200275546B6
:10463000119B1878002800D1E7E2252809D07C1CBE
:1046400043463A005946A847119B0133119327006E
:10465000EEE7013311930024119A11780B00203BEF
:10466000D8B2102803D88300D048C3589F460B0007
:10467000303BDBB2092B2CD92A292FD000230A93F7
:10468000119B1A782E2A39D000239A46119A137852
:10469000683BD9B2122976D88B00C549CB589F46C2
:1046A00001231C4301321192D6E702231C4301323D
:1046B0001192D1E704231C4301321192CCE7082365
:1046C0001C4301321192C7E710231C43013211929F
:1046D000C2E711A8FFF726FA0A90D1E71C9B1A1D22
:1046E0001C921868002804DB0A90119B0133119377
:1046F000C6E702231C4343420A93F6E78022D20016
:1047000014435A1C11925A781300303BDBB2092B28
:1047100004D92A2A07D000239A46B7E711A8FFF741
:1047200001FA8246B2E71C9B1A1D1C9218680028E9
:1047300004DB8246119B01331193A7E70020F8E7C1
:1047400080235B002343511C119152786C2A01D0C5
:104750001C0018E0C0239B001C430131119112E0A2
:1047600080232343511C11915278682A01D01C00E8
:1047700009E0C0231C430131119104E080235B0058
:104780001C4301321192119B18780300253BDAB2C9
:10479000532A00D92CE29300864AD3589F4680239F
:1047A0009B001C4301321192EDE780235B001C4308
:1047B00001321192E7E7782809D0582838D06F28BD
:1047C00038D0622838D010239C430A2600E01026F7
:1047D000582833D0692803D0642801D00C22944390
:1047E000630501D50122944369282AD0642828D082
:1047F000A30500D59FE0E30500D5B8E0630600D42B
:10480000CAE01C9A111D1C911168FF220A400594F0
:104810000A9B04935346039302960023019300924C
:1048200043463A0059462800FFF76EFA070027E092
:104830001026CDE70826CBE70226C9E7202214433D
:10484000C8E7A30520D4E30550D4630666D51C9AB7
:10485000111D1C911168FF220A40D317D11859402D
:1048600005940A9B0493534603930296D20F019238
:10487000009143463A0059462800FFF745FA0700E1
:10488000119B01331193D3E61C9BDA1D07218A4348
:10489000110008311C91116853689C46DB170C937A
:1048A0000D930C9A0D9B100048400E9062465340A9
:1048B0000F930E980F990C9A0D9B801A99410E90A8
:1048C0000F9108940A9B079353460693049600237E
:1048D00005936346DA0F02920090019143463A0035
:1048E00059462800FFF76EFA0700C9E71C9A111D08
:1048F0001C911268D317D118594005940A9B049350
:10490000534603930296D20F0192009143463A0018
:1049100059462800FFF7F8F90700B1E7230605D547
:104920001C9A111D1C910023D25E96E71C9A111D42
:104930001C91126891E71C9BDA1D07218A43110024
:1049400008311C9108940A9B0793534606930496DA
:10495000002305930293136854680093019443461F
:104960003A0059462800FFF72DFA070088E71C9AFD
:10497000111D1C9105940A9B0493534603930296C0
:10498000002301931368009343463A0059462800D8
:10499000FFF7BAF9070073E723060DD51C9A111D1E
:1049A0001C9112681204120C31E7C046D4A80410FE
:1049B00018A9041064A904101C9A111D1C911268F6
:1049C00025E746281AD01C9B0733072293431A0079
:1049D00008321C9204940A9A0392524602925C682E
:1049E0001B680093019443463A0059462800FFF79C
:1049F00065FC0700119B0133119319E620231C432A
:104A0000E1E7672801D0472802D180231B011C431E
:104A1000452801D0472801D120231C431C9B073384
:104A2000072293431A0008321C9204940A9A0392B4
:104A3000524602925C681B680093019443463A0018
:104A400059462800FFF730FA0700119B01331193F4
:104A5000EEE502231A002240924623421FD0012491
:104A60001C9B1A1D1C927A1C9146187843463A00EA
:104A70005946A8475346002B16D1119B0133119379
:104A80004F46D5E5561C434659462020B8472300DB
:104A900032005C1C9D42F5D83D001700E0E7012381
:104AA0003A002F000A9DF4E74A46A9460A9D06E00F
:104AB000571C434659462020C84734003A00661C1C
:104AC000A542F5D84D469146D7E71C9B1A1D1C926E
:104AD0001B6899465346002B00D1013B4E4601E02E
:104AE000013613003278002A02D05A1E002BF7D16B
:104AF0004B46F21A10928023DB0026001E401C4217
:104B000003D0524501D95346109302231A00224084
:104B10000B92234205D03A0037004C46A946554631
:104B200020E03A00109B5F46B3462E0006E0551C7D
:104B3000434639002020B04723002A005C1C0A9914
:104B40009942F4D835005E46BB46109437004C4677
:104B5000A946554606E01D000134561C43465946F9
:104B6000C84732002078002804D0002FF4D06B1EF4
:104B7000002DF0D117004D460B9B002B03D1119B4C
:104B80000133119354E50A9F109B06E0561C4346DF
:104B900059462020A847230032005C1C9F42F5D8CC
:104BA0001700ECE721231C431C9B1A1D1C921B6859
:104BB0000093059408230493534603931023029310
:104BC0000023019343463A0059462800FFF79CF81A
:104BD0000700119B013311932AE57C1C43463A00E0
:104BE00059462520A847119B0133119327001FE543
:104BF0007C1C43463A005946A847119B0133119348
:104C0000270015E50A4B9A4610E5AA46474502D308
:104C100043465A1E00E03A00434659460020D0471A
:104C2000380013B0F0BCBB46B246A946A046F0BD62
:104C3000153B00100EB410B585B0010007AC08CCD0
:104C400003940122009452420348FFF7E1FC05B0AF
:104C500010BC08BC03B018470D3B001000B583B072
:104C6000009313000A0001000248FFF7D1FC03B0D3
:104C700000BDC0460D3B001000B585B00290039109
:104C80000121009313004A4202A90248FFF7C0FC29
:104C900005B000BD173B001001480421014B184727
:104CA000001D0020C94C001010B5010018231B88FE
:104CB00014221088984710BD10B5010018231B88D6
:104CC00016221088984710BDF0B5C64600B50700FB
:104CD0000E0000250123984600E00135B5420AD2B6
:104CE000AC003C192068FFF7DFFF20600028F4D1FA
:104CF00000239846F1E7404680BCB846F0BD00006E
:104D0000124A936F9B0815D29066D166002905D090
:104D1000FFE7FFE7FFE7516F106F704704B5802191
:104D20000906C2175140002800D0C84344F088FE4D
:104D3000002104BDF0B5146E556E576F166FFFF766
:104D4000E3FF1466556657671667F0BD000000D094
:104D5000114A936F9B0813D210665166002905D043
:104D6000FFE7FFE7FFE7516F106F704704B50028BA
:104D700001D00020C04344F063FE002104BDC046C2
:104D8000F0B5146E556E576F166FFFF7E5FF14669A
:104D9000556657671667F0BD000000D094464A4A32
:104DA000926F9208624601D228E0C046F0B5464EA6
:104DB000346E756E776F366F00F020F89446424A75
:104DC00014665566576716676246F0BD94463E4ABC
:104DD000926F9208624601D254E0C046F0B53A4E56
:104DE000346E756E776F366F00F04CF89446364A25
:104DF00014665566576716676246F0BD002B24DBC4
:104E000011D000293EDA00B5C943404200D101313A
:104E100000F038F8C943404200D10131DB4352422F
:104E200000D1013300BD002AEBD1002801D10029B7
:104E300005D00020C90FC90701D1C043410800B502
:104E400044F0C6FD0022002300BD00B500290ADBA6
:104E5000DB43524200D1013300F014F8C943404211
:104E600000D1013100BDC943404200D10131DB43D3
:104E7000524200D1013300F005F8DB43524200D129
:104E8000013300BD002923D1002B18D1002A0CD0FA
:104E9000BC460D4F38667A6600210023FFE7FFE726
:104EA000FFE77A6F386F67467047002801D00748E0
:104EB000010000B544F08CFD0022002300BD02007B
:104EC0000B00002000217047000000D0FFFFFFFF13
:104ED000002B00D0BFE0130C28D1002AE7D080B40B
:104EE000114F39667A66FFE7FFE730B4040C7B6F39
:104EF000396F1B0423433B667A66FFE7FFE7FFE752
:104F0000C04684B27B6F3D6F1B0423433B667A66C9
:104F1000FFE7FFE7C04600232C042D0C7A6F386FA3
:104F200000196941B0BC7047000000D0F0B594464C
:104F30000025140E01D112020835140F01D11201FF
:104F40000435940F01D192000235D40F01D15200E3
:104F50000135D40B0134254F7C66254C3C660E0C84
:104F600093B2FFE7FFE7FFE73C6F6643360C77033A
:104F7000BE467343DF0B5B04C01AB941130C734385
:104F8000DB18C91ACE086643360CB64493B2734395
:104F90001F0F1B01C01AB941130C73431F0B1B05D4
:104FA000C01AB941860D8F023E436643360C092D67
:104FB00024DB520A7243801A7703460A6643360C92
:104FC00016235B1BDE40DF40BF1964466643821B2D
:104FD0007046043506330100D940A840C01900D3FB
:104FE0000131A24206D20023F0BD0000000000D033
:104FF000FFFFFFFF121B0130F3D3F1E709277F1BEF
:10500000FE406446A2B27243801A00D20139220CDB
:105010007243130C1204821A99410B007046043536
:1050200013370100F940A840801900D30131002B4B
:1050300002D1A2420AD2F0BD013000D30131121BCD
:10504000FAD2013BF8D1A24200D2F0BD013000D328
:105050000131121BF7E7F0B51C0C00D080E00CB456
:1050600000251C0A04D11B02160E33431202083518
:105070001C0B04D11B01160F3343120104359C0B8A
:1050800004D19B00960F334392000235DC0B02D112
:1050900092185B4101351C00971864410134464F5A
:1050A0007C66464C3C660E0CFFE7FFE7FFE7C04618
:1050B0003C6F6643360C7703BE4697B27743C01BFE
:1050C00000D20139C01B00D201399FB27743C91BFE
:1050D000C91B170C77437E04FF0B801BB941CE0818
:1050E0006643360C0C2D33DBB644120B1F053A43D6
:1050F0001B0B97B27743C01B00D201399FB2774395
:10510000C91B170C77433E043F0C801BB941860D29
:105110008F023E43664329277F1BFE400C3D7746A6
:10512000AF40BF1930BCA2B2ABB272437343801A16
:105130009941220C7243130C1204801A9941020007
:105140000B000137001BA941F9D2781E0021F0BDE8
:105150000C277F1BFE4077467F0BAF40FF19E0E72F
:1051600000245D1C07D0144F7D663966FFE7FFE71A
:10517000FFE7FFE73C6F95B29EB265436643401B75
:10518000B141150C1E0C6543664336042F0C3E439B
:105190002D04401BB141994204D202000B002000B3
:1051A0000021F0BD01D19042F7D3801A994101341A
:1051B0009942F2D3F6E70000000000D0FFFFFFFFA6
:1051C00048404140484018B41B4B5B68FC46019383
:1051D00008BD04DF3355001018B4174B1B68FC469C
:1051E000019308BD00DF3D5500109446134A926FAD
:1051F000920809D2624618B40F4BDB68FC46019353
:1052000008BD0CDFF55700100C4AF0B5146E556E52
:10521000576F166F6246FFF7EEFF084A1466556631
:1052200057671667F0BD18B4034B9B68FC460193A3
:1052300008BD08DF995600108C4A0020000000D0FD
:10524000FFB550404240504059404B40594000E06B
:10525000FFB5154F4C00640D03D0BC4204D10C03C4
:1052600014D80020090D09055C00640D03D0BC4270
:1052700004D11C030AD800221B0D1B0501264B403C
:1052800009D44B4003D58B4200D18242FFBD9942E5
:10529000FCD19042FFBD0B43DB1803431343F5D011
:1052A000C9434918FFBD0000FF07000000B5FFF724
:1052B000CFFF01D0002000BD012000BD00B5FFF7E9
:1052C000C7FF804100BDC04600B5FFF7C1FF01D94F
:1052D000002000BD012000BD00B5FFF7B1FF01D9DE
:1052E000002000BD012000BD00B5FFF7A9FF8041EF
:1052F00000BD012040054A00121804D85A001218B7
:1053000001D800207047012070470020704700003E
:105310000021002805D17047C1174840401AFAD033
:10532000C90713B5064B1B6898470CBC441CA24028
:105330001005120B0349091B09051943114310BD40
:105340008C4B00201F04000010B54C00620D802320
:10535000D218DB00D21A5B057E2A10DD9E3A13DAE2
:10536000CC170903490819435242D1406400013463
:105370001532202A05DAD0400843604310BD0020D2
:1053800010BD0846604310BDC80FC018013810BDDD
:1053900018B4044B5B6AFC46019308BD24DFA55991
:1053A000001000008C4A002018B4044BDB6DFC4652
:1053B000019308BD5CDFB15A001000008C4A002048
:1053C000C94211D300B549004908002200F018F87D
:1053D000002904D4002240428A41114600BD8021A8
:1053E0000906002000BD000018B4044BDB6EFC462B
:1053F000019308BD6CDFB359001000008C4A0020F7
:1054000018B4044B9B6FFC46019308BD78DFCF595D
:10541000001000008C4A002018B4044BDB6FFC46DF
:10542000019308BD7CDF3D5A001000008C4A00202B
:1054300070B513231C78012C14D0012C14DC022C21
:1054400002DC1F4A1F4B9A641F48FFF72DFC1F4BBD
:10545000186070BD99001A481A4A885001331F2BF2
:10546000F8D9EAE70023FAE71948FFF725FC050019
:105470001848FFF721FC023803789B007F2B19DDC9
:10548000802229000F4800F009FD022CD7D1124BD1
:105490001A88B5231B029A4209D1104B1A88104B67
:1054A0009A4204D10F4B1A880F4B9A42C7D0002062
:1054B000FEF714FB0D4B0E4A32210E48FEF774FA2C
:1054C000F95400108C4A00204C3300008C4B002013
:1054D000534400005346000054380000D838000000
:1054E000494600009C3800005946000008AB0410F3
:1054F000A0AB04105CAB041007B56046002800D1D7
:1055000000BE01880A0A0230DF2AFAD1C9B2820835
:1055100004D3028840880004104300E00068024A77
:105520005050039007BD00008C4A00200FB403BC0C
:105530000CBCF0B50124E407634000E0F0B50C0DAD
:10554000CF0F661E3605891B640503D3C94340424D
:1055500000D30131640D03D0661CF60A07D0E41BAA
:1055600000207F00791C89078912803C24031D0DCF
:10557000DF0F6E1E36059B1B6D0503D3DB435242C6
:1055800000D301336D0D03D06E1CF60A07D0ED1B5E
:1055900000227F007B1C9B079B12803D2D032F1B4D
:1055A000661B58D4A446202E46DA20371400BC408F
:1055B0001D00BD40F24033412A4380185941CB0FB2
:1055C00005D0C943C0430022644250415141624664
:1055D0004D0D28D10D0D07D100281FD024194041B1
:1055E0004941013A0D0DF9D0640006D3013000D3D2
:1055F0000131002C01D140084000013A0BD4941C29
:10560000E40A04D112051144DB071944F0BDD9079F
:10561000204B194300E0D9070020F0BD0029DDD15F
:10562000002CDBD1F0BD0132C6074008CD0728436E
:105630004908002EE1D0D9E73C2E29DA203E403738
:105640001400BC4000D00124F24014431A00BB40B7
:105650001C43D317ACE7AC46202F08DA20360400F1
:10566000B4400D00B540F84039412843A5E73C2F30
:105670000CDA203F40360400B44000D00124F8404A
:1056800004430800B1400C43C117EAE710001900B9
:10569000002494E70000F07FF0B50C0D661E36057F
:1056A000891BE60A6405640D02D0651CED0A04D06E
:1056B000002001210905803C2403A4461C0D671E1F
:1056C0003F05DB1BE70A6405640D02D0651CED0A8B
:1056D00004D0002201231B05803C2403774064444E
:1056E00097B484B296B27443070C7E43150C6F4393
:1056F00080B26843361802D3012000043F183004FA
:10570000350C00197D41844688B29AB250430C0C86
:1057100062431F0C7C438EB27E43921902D3012652
:105720003604A4191604170C3618674101BC81B25F
:105730009AB25143040C62431B0C5C4380B2584341
:10574000121802D30120000424181004130C40186E
:1057500063412D185E410020474106BC88B293B2D8
:1057600058430C0C6343120C544389B251435B18E9
:1057700002D301210904641819041A0C09186241A2
:105780006D1856410020474118BCF902720D1143B3
:10579000F0026A0D1043ED020A0D03D16D1940416C
:1057A0004941013B124E9B1B7600B3420ED26D0065
:1057B00007D30130002671416646354301D14008C8
:1057C00040001B05C918E4072144F0BD0BDA013382
:1057D00006D1013004D101314F0D01D04908F2E763
:1057E000E1070020F0BD013631050020EBE70000A5
:1057F000FF030000F0B51C0D671E3F05DB1BE70A29
:105800006405640D02D0661CF60A04D00022012350
:105810001B05803C2403D0252D060026F6432E666A
:105820001E096E66CE0FF619B44649004F0D02D020
:105830007E1CF60A03D000200021403F3F033E1BA0
:10584000B600B444013F7F05C91B49082E6F0136DD
:1058500076089C02950D25437543ED137543AD13F2
:1058600001356D10F603761B0CB4CC02450D2C43AC
:10587000A2B2B3B25A43270C7B43350C6F43A4B298
:105880006C431B1902D3012424043F191C041D0C72
:10589000A4187D4124196D41009A91B2ACB26143C4
:1058A000170C7C432B0C5F4392B25A43A41802D3CB
:1058B00001221204BF182204230C52187B41019CC0
:1058C0006C431B19520ED9010A434401A01A81B23C
:1058D000B2B2514303145A43360C734387B2774331
:1058E000D617D21900277E4136049B191704160CCF
:1058F0007F185E417316ED18F30100268033754161
:10590000A90F06D16400690AE8055B0A184309D2A9
:105910002FE00422944480337541A90AA8059B0A0C
:10592000184326D3404149412404009A019B0D00AD
:105930005543641B4343E41A95B286B27543170C72
:105940007E43030C5F4392B25A43B61802D301223E
:105950001204BF183204330C52197B4152429C414D
:10596000002C02D40022013051414008CA071043E4
:10597000490802B06246D7079210084BD218084B6C
:105980009A4203D212058918C919F0BD0020002AD5
:1059900001DC3900F0BD01331905F5E7FD03000016
:1059A000FE070000002200B5203200F010F80800C9
:1059B00000BD002200B500F00CF8CA179A4200D1D1
:1059C00000BDD8430121C907414000BD00220B158D
:1059D0000AD410B5944600F0A7F81414013400DA84
:1059E0000021CB17144C204700200021704762444F
:1059F000343A0CD40C2A07DA040091409040524209
:105A00002032D440214310BDD843D94310BD2032A9
:105A100007D40C469440524220321141D0402043DA
:105A200010BD0800C917203203D452422032104161
:105A300010BD1800190010BDEF5900104A00520D9A
:105A4000144BD21A13DDFF2A1EDAD205CB0FDB0767
:105A50001A43C300400F0903490A084310435B007F
:105A600001D301D0013070474308FBD2704702D008
:105A7000C80FC00770470A0312130132F8D1420F52
:105A8000072AF5D1012200E0FF22C80F000280188A
:105A9000C00570478003000000210A00002104E0D7
:105AA00000210A00C11704E00022002306E0C046DE
:105AB0000022CB1758405940C01A994130B5184CB4
:105AC000A21A002903D1010010D00020203A4C1561
:105AD00012D104D2013A001849414C0DFAD3114CAD
