:020000041000EA
:1000000000B5324B212058609868022188439860DF
:10001000D860186158612E4B002199600221596106
:100020000121F02299502B49196001219960352056
:1000300000F044F80222904214D00621196600F024
:1000400034F8196E01211966002018661A6600F04E
:100050002CF8196E196E196E052000F02FF8012189
:100060000842F9D1002199601B49196000215960AB
:100070001A491B48016001219960EB211966A021F2
:10008000196600F012F800219960164914480160C1
:100090000121996001BC002800D000471248134993
:1000A000086003C880F30888084703B5996A0420EC
:1000B0000142FBD001200142F8D103BD02B5186610
:1000C0001866FFF7F2FF186E186E02BD00000240BE
:1000D000000000180000070000035F00212200005C
:1000E000F4000018222000A00001001008ED00E03C
:1000F00000000000000000000000000074B24E7A12
:1001000000200420F7010010C3010010C5010010F9
:10011000C1010010C1010010C1010010C101001097
:10012000C1010010C1010010C1010010C701001081
:10013000C1010010C1010010C9010010CB01001065
:10014000CD010010CD010010CD010010CD01001037
:10015000CD010010CD010010CD010010CD01001027
:10016000CD010010CD010010CD010010CD01001017
:10017000CD010010CD010010CD010010CD01001007
:10018000CD010010CD010010CD010010CD010010F7
:10019000CD010010CD010010CD010010CD010010E7
:1001A000CD010010CD010010CD010010CD010010D7
:1001B000CD010010CD010010CD010010CD010010C7
:1001C00000BE00BE00BE00BE00BE00BEEFF3058054
:1001D000103800BEF2EB88716C2101108C210110E7
:1001E0003402001090A31AE700201F49086006C8D7
:1001F00081F3088810471D48006800282FD10DA4FE
:100200000ECC002902D000F012F8F9E71849194A7B
:10021000002000E001C19142FCD1174988471749ED
:1002200088471749884700BEFDE701C901C29A42C5
:10023000FBD370478C210110C0000020D01A002091
:100240009C3B011000000420000004209C3B011096
:10025000001004200010042000000000704709482E
:1002600003F01AFE0047000008ED00E0000000D097
:10027000D01A0020101F0020F12B0010BD04001028
:10028000AF2B00105756000006005250ABB360531E
:100290001800011006005250861C030228000110AD
:1002A000060052505422A29D300001100500525009
:1002B000DE65F4689C3B0110F8B5C04610B5064CED
:1002C0002378002B07D1054B002B02D0044800E017
:1002D00000BF0123237010BDD01B002000000000D0
:1002E00060F00010044B10B5002B03D00349044804
:1002F00000E000BF10BDC04600000000D41B00207D
:1003000060F0001000B585B00F226A441070002321
:10031000009301332721024805F046F805B000BDDF
:1003200060120020D0B504009626B60000273000E9
:10033000390001F019FE04202043C0B2FFF7E2FFAC
:100340003000390001F010FE042320009843FFF72D
:10035000D9FF3000390001F007FED0BD70B50F2382
:1003600005009D436DB249B20D4308231D43EDB214
:1003700004010C4364B21C43E4B22800FFF7C2FF3F
:100380002800FFF7CFFF2000FFF7BCFF2000FFF79A
:10039000C9FF70BD10B500210120FFF7DFFF10BDC0
:1003A00010B5002806D180310800C0B20021FFF747
:1003B000D5FF10BDC0310800F7E710B5040003E019
:1003C00001340121FFF7CAFF20780028F8D110BDC1
:1003D00010B500210320FFF7C1FF00210320FFF724
:1003E000BDFF00210320FFF7B9FF00210220FFF726
:1003F000B5FF00210620FFF7B1FF00212820FFF7FD
:10040000ADFF00210C20FFF7A9FFFFF7C3FF10BDD0
:10041000F8B5070014004E1E11E06421200003F01F
:100420008FFD4D006421200003F08AFD04006A1C4A
:100430000A4B9A5CBA55721E5B5DBB54023E632C3C
:10044000EBD8092C07D96400621C044B9A5C7A70C3
:100450001B5D3B70F8BD30343C70FBE78CF0001046
:1004600070B582B005000E1E0DD0941B01940F2CA8
:100470000ED82868012C14D0002C14D02200310092
:1004800004F082FC0FE09142EFD00B4805F048F8F1
:10049000002201A9280005F073F82860019BAB60D9
:1004A000E7E733780370019A6A602B689B18002293
:1004B0001A7002B070BDC04660F00010F0B593B085
:1004C0003A493B4804F044FF03210C2000F07EFD34
:1004D00003210D2000F07AFDFFF77AFF00220121B1
:1004E00007A800F0EDF807A800F012FA4AE001347E
:1004F00021000EAE0C962D220CA805F05FF83A00F4
:1005000021000C98FFF784FF0D9A0C9901A805F0C3
:10051000D3F80C98B04203D00E9B591C04F042FC57
:100520000135032D18DC07AB5B195F793800012416
:100530000928DDD96328DAD9FA239B00984207D32A
:100540001C4B984206D91C4903F0FAFC0434EFE72F
:100550000234CDE70334CBE7019CFFF71BFF0321F7
:100560000020FFF71DFF2000FFF727FFFA20800083
:1005700001F026FD019803AB984203D0039B591C60
:1005800004F010FC07A800F0FCFC0028FAD007A833
:1005900000F08CF80028F5D003AB01930749002345
:1005A0000A0001A8FFF75CFF0025BAE7A08601005A
:1005B000601200200F27000010270000BCFB001075
:1005C00001238340002903D0D022120653617047D3
:1005D000D02212069361FAE7D0231B065B68C34062
:1005E000012018407047000010B501F09DFD002962
:1005F00006DB0BD0FA229200002303F0DFFC10BDD3
:10060000054B064A3F21064802F0D4FAFA21890038
:1006100003F096FCF3E7C04660F100107CF1001097
:10062000B4F10010704710B5002101F09DFD10BD20
:1006300010B501F0CFFD10BD70B504000D0000F045
:10064000DDFC0123A340002D03D0D022120653620B
:1006500070BDD02212069362FAE7000010B584B094
:100660000B006A46D11D0B700F246C44012322003D
:1006700002480EF0C5FC207804B010BD00C0034055
:1006800070B515001C00084804F000FF0121280087
:1006900000F09CFC0121200000F098FC012104984E
:1006A00000F094FC70BDC04600C0034010B50100CE
:1006B00008C91B680022984743425841C0B210BD88
:1006C000024B08330360017442747047F4F1001068
:1006D000F8B504000E001500007C0021FFF770FF44
:1006E000064F31003800FFF7B9FF29003800FFF747
:1006F000B5FF207C0121FFF763FFF8BDEC1B002054
:10070000F8B507000C0015001E00007C0021FFF763
:1007100057FF21000848FFF7A1FF002405E0315DE5
:100720000548FFF79BFF0134E4B2AC42F7D3387CB5
:100730000121FFF745FFF8BDEC1B002070B5040058
:100740000D00007C0021FFF73BFF80214942294337
:10075000C9B2074D2800FFF781FF00212800FFF7ED
:100760007DFF0500207C0121FFF72AFF280070BDD6
:10077000EC1B0020F8B5CE46474680B581461500F3
:100780001E0008AB1C78002A03D1C0BCB946B04695
:10079000F8BD80235B421943CBB29846007C002110
:1007A000FFF70EFF013DEDB241461648FFF756FF39
:1007B000002C18D0FF27A740FCB241461148FFF794
:1007C0004DFF0023F356BB435BB2204040B20343CE
:1007D0003370012407E0371941460A48FFF73EFF0E
:1007E00038700134E4B2AC42F5D334190021054825
:1007F000FFF734FF20704B46187C0121FFF7E0FE25
:10080000C3E7C046EC1B002070B504000D001600C5
:10081000FFF794FF02003243D2B229002000FFF715
:1008200057FF70BD70B504000D001600FFF786FF7E
:10083000B043C2B229002000FFF74AFF70BDF8B5EF
:1008400004000F0015001E0000220221FFF740FFE8
:1008500004220A212000FFF73BFF80221421200000
:10086000FFF736FF3B002A0012212000FFF748FF68
:10087000032202212000FFF72BFFFFF7B5FE5930BE
:1008800005000A212000FFF759FF430707D4FFF7AF
:10089000C9FEFFF7A9FEA842F3D303200FE0002210
:1008A00002212000FFF714FF44212000FFF746FF3C
:1008B000307042212000FFF741FF70700020F8BD2A
:1008C00070B505000F220221FFF702FF002432203D
:1008D000FFF7AEFE02212800FFF730FFC30603D565
:1008E0000134E4B2022CF2D970BD10B50400282105
:1008F000FFF724FF03230340032B00D110BD032285
:100900000243D2B228212000FFF7E2FEF6E7000002
:1009100010B582B0040004230093013B02222F494A
:100920002F48FFF7ADFE207C0121FFF785FE207CDC
:100930000121FFF745FE607CFF2807D00021FFF76B
:100940007BFE607CFFF748FE002834D02000FFF7D4
:10095000B7FF002224212000FFF7BAFE0022262143
:100960002000FFF7B5FE262248212000FFF7B0FE49
:10097000802254212000FFF7ABFEA922562120003F
:10098000FFF7A6FE032258212000FFF7A1FEE82270
:100990005A212000FFF79CFE40222A212000FFF769
:1009A00097FE3D2222212000FFF792FE2000FFF754
:1009B0009CFF02B010BD607C0121FFF73DFE607C12
:1009C0000021FFF7FDFD0220FFF72DFE607C0121D5
:1009D000FFF7F6FD3220FFF72BFEBAE700093D00D6
:1009E000EC1B0020F0B5DE4657464E464546E0B5C6
:1009F00085B00400894615009A460EAB1B789B46CD
:100A000012AB1F7813AB1B789846119B002B3AD082
:100A10001A783E01F6B2B618F6B200220221200082
:100A2000FFF756FE7F2208212000FFF751FE8022AB
:100A300014212000FFF74CFE53465A461221200095
:100A4000FFF75EFE32001A212000FFF741FE4A4602
:100A500002212000FFF73CFE4B460C2B15D0FFF780
:100A6000C3FD2430060008212000FFF767FE054281
:100A700011D1C3077CD4FFF7D5FDFFF7B5FDB04218
:100A8000F1D3002308E00022C3E780221A212000CE
:100A9000FFF7BAFEE3E70123002B00D170E00C2141
:100AA0002000FFF74BFE050013231A00024003420B
:100AB00068D10F9B002B1DD0109B002B1AD0142146
:100AC0002000FFF73BFE0200109B1B7883425BD3A4
:100AD000109B187000970F9B12212000FFF74AFE11
:100AE00018212000FFF72AFE07220240119B002B4D
:100AF00000D01A700823180028402B4246D10F9BC3
:100B0000002B36D0109B002B33D04346002B30D027
:100B1000109B1B78012B05D0012B25D9002A05D06D
:100B2000072026E0042AF7D1FF2022E0023BDAB2B8
:100B300003AB0F992000FFF782FE002819D1109B0C
:100B40001B780F9AD218023A117803AA12789142B0
:100B50000CD10F9A94466344013B1A7803AB5B783F
:100B60009A4206D0072004E0072002E0072000E0B8
:100B7000032005B0F0BCBB46B246A946A046F0BD76
:100B80000320F6E70120F4E70420F2E70220F0E773
:100B900030B587B00CAC24780DAD2D780595049454
:100BA0000B9C03940A9C0294019300920B00302248
:100BB0000C21FFF717FF07B030BDF0B5DE465746F2
:100BC0004E464546E0B58DB0814606910592502AC5
:100BD00000D98FE180221C21FFF724FE0123079317
:100BE00000230493049B002B00D07AE1079B022B87
:100BF0001AD0032B26D0012B08D0052420000DB0DD
:100C0000F0BCBB46B246A946A046F0BD09AB932254
:100C10001A70059B002B43D0069B1B78042B43D8EE
:100C2000049E00239B4613E009AB95221A70059B96
:100C3000002B3DD0069B1B78072B3DD8049E032339
:100C40009B4605E009AB97221A70049E06239B463B
:100C50005B46DB00059AD31A5DB21B0630D4002E2A
:100C600030D009AB88229A70853AE91707230B40E8
:100C70005B19DB10DBB2E9B28C4607212800084083
:100C80000D4200D001201B18DBB2002B1CD1002E1E
:100C900002D0654608356DB2049B1F004E4630E019
:100CA000049E00239B46D3E700239B460126CFE703
:100CB000049E03239B46CBE703239B460126C7E7FD
:100CC0000025CCE70222D0E7002E14D003279F4254
:100CD00000D31F0000235846AB4606998A46BB4204
:100CE0000BD2C11851444D78511C09ACA5540133A5
:100CF000DBB2CAB2F3E70427E9E75D468346C6E7FD
:100D00000127002F00D09FE01F2D4EDCE917480F70
:100D10002A1807231A40121AD2B2132004ACA44690
:100D2000604402700B405B19DB10DBB20233DBB2B4
:100D30001901C9B2511809A84170002A00D0012236
:100D4000D218D2B2914609AA904698440922D31AE1
:100D5000122204A98C4662441370132404AB9C46EF
:100D6000644423789A461A01D2B25244D2B21A216C
:100D70003000FFF7ADFC0023039353460293019428
:100D8000122304AA94466344009343464A4609A9A1
:100D90003000FFF7FDFE040002282CD0002800D010
:100DA0002CE71F2DACDC2025ABE709A970234B7085
:100DB0008B78CA7853400A7953404A7953408B71F3
:100DC0001B2304AA9446634407223000FFF737FD33
:100DD000041E00D012E7132304AA944663440022A1
:100DE0001A701223634403221A701A23634498462C
:100DF00009239946B1E71C213000FFF79FFC8306C9
:100E000000D5FBE61F231A000240034200D1202236
:100E1000AA4271DD55B2511ECB175B0FC9180720CE
:100E20000140C91AD30804001440104200D0012424
:100E30001B190133DBB2FF2211400120884009A9B0
:100E4000CA5C0243CA545CE7BA46B14609AB9B7818
:100E5000882B12D00221882B11D0042400235D4658
:100E6000069EA3420DD2481CEA1809AF795CB2185D
:100E700051700133DBB2C1B2F3E70321EBE7032486
:100E8000ECE7122304AA944663441B78032B35D164
:100E9000103363441B78002B32D116336344012294
:100EA00041464846FFF7CBFC041E00D0A6E609AB3E
:100EB0009A7843465B789A4224D109ABDA78434664
:100EC0009B789A4220D143461B785A0704D5079B4A
:100ED0000133DBB2079385E6069AD3725346049337
:100EE00080E6079A5300944663440133069A1370D0
:100EF000002483E6062481E605247FE601247DE6BE
:100F000001247BE6072479E6072477E670B588B0EC
:100F1000060015001C0017236B441970002A22D00C
:100F20002378012B21D980221C21FFF77BFC1F2372
:100F30006B4407221A7000220392029201930094DC
:100F40002B000132172169443000FFF721FE0028F1
:100F50000CD12378022B0BD11D336B441878002859
:100F600004D0012002E0042000E0042008B070BD9D
:100F70000120FBE710B513000A002621FFF7C6FF8A
:100F800010BD30B583B004006B46DD1C02232B700E
:100F900000222421FFF79CFB002226212000FFF7DE
:100FA00097FB262248212000FFF792FB2A0001A987
:100FB0002000FFF7DFFF002805D0022801D0002025
:100FC00002E0013800E0012003B030BD10B583001D
:100FD000084A944663441C6840226240C02414407E
:100FE0008022520113431C60C000034B9C466044A6
:100FF000416010BD04C001400040014010B5012314
:101000008340D0221206936293610521FFF7DEFF31
:1010100010BD0000034B1B6802201840431E98417E
:10102000C0B2704700C00640EFF3108072B6034BA9
:101030001B68002BFBD0BFF35F8F70472C0100D0E3
:10104000BFF35F8F024B00221A6080F31088704755
:101050002C0100D0F8B506000C001500FFF7E4FFE6
:10106000E308F718F15C07222240012393400B426A
:1010700005D1DBB20B433B70FFF7E2FFF8BD210067
:10108000280001F031FE0000002307E0054A9A180D
:101090009200BFF35F8F0021116001331F2BF5D940
:1010A0007047C04640000034054A1078431CDBB24C
:1010B0001370172B02D9130010221A707047C04604
:1010C000C8110020074B9B68103080001950BFF3F7
:1010D0005F8FBFF35F8F044B0021196082F310888C
:1010E0007047C04600ED00E0240100D010B5091A99
:1010F000081F0A4B9C466144094A914208D8C3071D
:1011000006D440104005400D064B184380B210BD78
:10111000054B064AA321064801F04CFDFC070000E0
:10112000FE0F000000E0FFFF08F2001054F4001072
:1011300038F2001010B5091A04394C08090B08D10F
:101140004905490D064A11430180064B234343805C
:1011500010BD054B054AAB21054801F02BFDC046EB
:1011600000F0FFFF00F8FFFF70F2001028F40010FD
:1011700038F2001001238340034A10681840431ED0
:101180009841C0B27047C04600E100E0002904D099
:10119000034B1860034B18607047034B1860FBE764
:1011A00080E200E000E100E080E100E010B5012312
:1011B00083401800FFF7EAFF10BD0000024B9B6858
:1011C00010308000C058704700ED00E070B504009A
:1011D0000D00EFF3108672B60C4B1B68002BFBD092
:1011E000BFF35F8F2000FFF7E9FF094B984201D062
:1011F000A84205D1320029002000FFF763FF70BD2F
:10120000044B054A8621054801F0D4FC240100D096
:10121000CD01001080F2001070F4001038F20010C0
:10122000F0B5CE46474680B583B006000D00EFF31B
:10123000108872B6564B1B68002BFBD0BFF35F8F34
:10124000544B9A6834001034A300D758524B9F4235
:1012500007D0AF4200D198E00197504BFB1A2F2BDB
:1012600009D9424639003000FFF72CFF03B0C0BC5B
:10127000B946B046F0BD3000FFF77CFF8146002143
:101280003000FFF793FFBFF35F8FEFF30581002975
:1012900001D08C4211D10123019C9C430022A36800
:1012A000AB4212D00622A256002A0DDB53009B1837
:1012B0009B002200394CE418F1E73621384B394ABB
:1012C000FF31394801F076FC2200AB4256D10625A9
:1012D0006557002D38DB6B005B199A002F4B9B186C
:1012E0009A68A260DA79E27106229A56A2719B7915
:1012F0005BB2002B0FDA2D48A0806B005B199B00BE
:10130000264AD3182A4A1178997115704946300037
:10131000FFF74CFFA5E7201D6B005B199B001F4AE0
:101320009B181A1D9B88D90A1C2907D15B055B15E0
:10133000023359005118FFF7D9FEDDE71D4B1E4A55
:10134000B121194801F036FC002912D1002A0ED033
:10135000FF239371194B9380154A1378A371184B8F
:101360000E49641A644163431B0D1370CEE70A4FA4
:10137000F2E7201D1349FFF7DDFEC7E76A21124B94
:10138000084AFF31084801F015FC034F69E7C046E1
:10139000240100D000ED00E0CD010010CC110020B0
:1013A00094F3001040F4001038F2001001BD00006A
:1013B0000E1F00207CF3001060F4001001BDFFFF41
:1013C000AAAA000006120020C8F3001070B501217F
:1013D00001432E4BCB1A2F2B28D8EFF30583002B7C
:1013E0002BD0EFF3108C72B6294A1268002AFBD07A
:1013F000BFF35F8F274A0400244D641B644162439E
:10140000120D54B2244A92689B00D2588A421BD0D3
:101410000022032A32D853009B189B001B49CB188B
:101420009B795BB2A3421FD00132F2E7C7211B4B6D
:101430001B4A49001B4801F0BDFB92211A4B184A78
:10144000FF31184801F0B6FB134A92681749D15092
:10145000174B1A7882711C70BFF35F8F0C4B002200
:101460001A608CF3108870BD0D0053009918890024
:101470006918FF268E710F4A8A80E9E7D1210E4B49
:10148000074A4900074801F095FBC046CC110020EF
:10149000240100D0AAAA000000ED00E0D0F3001063
:1014A0000CF4001038F20010F8F30010CD01001019
:1014B0000E1F002001BDFFFF04F400100022044BAA
:1014C00002E0044902C30132072AFAD97047C04634
:1014D00000E400E080808080024B9C4661448900EB
:1014E000016070474000003410B50400FFF7DCFDD8
:1014F00001002000FFF7F0FFFF232371BFF35F8F90
:1015000010BD10B50400FFF7CFFD01002000FFF76C
:10151000E3FFFF23237100236371BFF35F8F10BDCF
:1015200070B505000C00080000F028FF09492000F4
:1015300000F068FEFFF7B8FD074B9C466044800052
:1015400068602C75D0231B061B786B75A400034BB9
:10155000E55070BD6518001040000034E41C002008
:101560000A4B1A68EFF3108172B61368002BFCD097
:10157000BFF35F8F054B1B68BFF35F8F00221A60BC
:1015800081F3108840BF002000217047F81E002022
:1015900010B5002922D003681B7B99421ED8174B37
:1015A0009C466144090183689C4661440C68496813
:1015B000002A19D003681B7B9A4215D883680F480C
:1015C0008446624412019A18106853680200012090
:1015D0008B4201D80ED00020C0B210BD084B094A82
:1015E0003C21094801F0E6FA054B064A3C21064831
:1015F00001F0E0FAA242EFD8EDE7C046FFFFFF0F8F
:1016000080F50010E0F700104CF5001010B500292F
:101610001ED0037B99421BD84B005B18033B046828
:10162000A4466344002919D0002A1DD0914221D03C
:10163000002A25D0047BA24222D8046850008018DA
:10164000033820188170197800291FD11A7010BD35
:10165000104B114A6821114801F0ACFA104B114AA5
:101660006F310E4801F0A6FA0F4B0E4A70210B485D
:1016700001F0A0FA0D4B0B4A7121084801F09AFACB
:10168000044B054A6821054801F094FA41701A702C
:10169000DDE7C046A4F500104CF80010C0F50010BE
:1016A00008F6001028F8001014F6001020F60010BC
:1016B00070B506000D001400002914D0002A14D0C3
:1016C000806873689847002806D0220029003000FF
:1016D000FFF79CFF280007E02A0021003000FFF7F9
:1016E00095FF200000E0100070BD0800FCE700003E
:1016F000F0B583B00500009201930AAB1C780BABE8
:101700001F78002C26D003685A7B944207D101230E
:10171000002B19D1002C3BD1200003B0F0BD002CD0
:101720000CD01A7B944209D81A6863001B19033B3A
:10173000D3189B78002BEBD00123E9E73E4B3F4ABF
:1017400068213F4801F036FA3E4B3F4A67213F4847
:1017500001F030FA03689C7B002CDBD012D01A7B9E
:1017600094420FD862001219033A19688C466244F9
:1017700051789973002900D1D97300239370537065
:101780001370C7E72C4B2D4A68212D4801F012FA3F
:10179000002C3AD02B681B7B9C4236D82C4BE3188C
:1017A0001B01AA6894466344009A1A60019A5A6021
:1017B000089A9A60099ADA602E68002C2BD030D0F3
:1017C000337B9C422DD863001B19033B326894463F
:1017D000634400229A705A701A70717B22003000A4
:1017E000FFF766FF7073844200D095E7287D009A6A
:1017F000019B00F04FFD061E01D0002F17D00C9B5F
:10180000002B00D188E71E7086E7124B124A3C215C
:101810000E4801F0CFF9114B114AA521084801F0FB
:10182000C9F9054B054A6821054801F0C3F9286844
:10183000210000F067FFE2E7A4F500104CF800106B
:10184000C0F5001038F6001058F800104CF50010E4
:10185000FFFFFF0F80F50010E0F7001048F50010C3
:101860003CF80010F0B5DE4657464E464546E0B51A
:101870008BB00990002308938200B54BD6583700EF
:1018800052E0B44BB44A3F21B44801F093F9B44B51
:10189000B44A3C21B44801F08DF9002901D1002857
:1018A00069D10021404600F023FFA04219D12A68E7
:1018B0006B6806920793AB689846EB689A46434676
:1018C000002B14D0002C18D03B681B7B9C4214D8F2
:1018D000631EFA68D35C08931B021843386100202A
:1018E00015E0A24BA24A8E219F4801F063F9A14B5B
:1018F0009F4A92219C4801F05DF9994B9E4A4121F3
:10190000994801F057F900239A46984600207B68D1
:10191000BFF35F8F00221A6086F310884346002BC6
:1019200032D1002800D10CE100F0FEFB02000B1EBA
:10193000A7DB00200021069007917868EFF310865E
:1019400072B601680029FCD0BFF35F8F3968884602
:101950004C7B002CD7D09AD0097B8C4297D88749F2
:1019600065182D01B9688C46654428686968801A35
:101970009941002991DD2A686B68099800F08AFC7A
:1019800000239A469846C2E7089B1B0223439946C8
:1019900051461800C04705000E007A68EFF3108B1F
:1019A00072B6136859424B41D9B2002BF9D1BFF33B
:1019B0005F8F002E1EDB002E46DD3B69002B47D0DB
:1019C0004B456DD100F0B0FB02000B1E6EDB5219CF
:1019D0007341002B70DB002B72DB0021049101317D
:1019E0000391029451460191414600913800FFF75E
:1019F0007FFE4CE03B69002BDDD04B4514D1069AAD
:101A0000079B521BB341002B14DB002B16DB00217C
:101A10000491013103910294514601914146009194
:101A20003800FFF765FE32E0554B514AA1214E4880
:101A300001F0C0F801225242524BE6E7454B464ABC
:101A40003F21464801F0B6F8002E01D1002DB4D157
:101A50003B68002C50D05A7B944237D10121002999
:101A60004AD1DA7B002A4DD19A7B002A03D1DA7B56
:101A7000002A5AD19C73DC73002C5CD03B681B7B22
:101A80009C4258D8FA68013C135D0133135500237A
:101A90003B617A68BFF35F8F13608BF3108843E775
:101AA000374B334AA421304801F084F8294B2A4AA5
:101AB0003F212A4801F07EF801225242314B8AE749
:101AC000244B254A3F21254801F074F8002C0DD005
:101AD0001A7B94420AD862001219033A18688446A5
:101AE00062449278002ABAD00121B8E7264B274AEF
:101AF0006821274801F05EF8264B274AF621244842
:101B000001F058F8002A0AD0197B8A4207D8510000
:101B10008A18033A19688C4662445470A4E71A4B39
:101B20001A4A68211A4801F045F81C4B1A4AFB2151
:101B3000174801F03FF80A4B0F4A41210A4801F0CB
:101B400039F80BB0F0BCBB46B246A946A046F0BD82
:101B5000E41C002060F10010ACF70010B4F100109C
:101B600080F50010E0F700104CF5001060F6001052
:101B7000C4F7001078F6001004F80010FFFFFF0F04
:101B800084F60010FFFFFF7FA4F500104CF8001052
:101B9000C0F50010C0F6001018F80010E4F60010B0
:101BA00010B50C4B5B68002B04D00A210A48FFF7E4
:101BB00093FC10BD074C2300084A1021206800F058
:101BC000A7FC032000F0A4FA03212000FFF7A8FCE3
:101BD000EBE7C04614120020F81E002091150010FB
:101BE00010B5064B5B68002B01D0044810BD044BB8
:101BF000044A5E21044800F0DDFFC04614120020B4
:101C0000F8F60010ECF700104CF50010F0B5DE46C9
:101C100057464E464546E0B58BB0804616001F003D
:101C2000149B9A46159B994616AB1B789B461F231F
:101C300002AA9446634400221A702BE0002809D0BF
:101C400042461268127B904204D8421E4146C9683F
:101C50008A5C41E0404B414A4121414800F0AAFFE3
:101C600007984CE0361BAF41002F07DB002F11DA3D
:101C70003C4B3D4A3F213D4800F09CFF0126764207
:101C80003B4FF3E7374B384A3F21384800F092FF8B
:101C9000002F4FDB43465A68EFF3108472B6136887
:101CA00059424B41D9B20791002BF8D1BFF35F8F56
:101CB0001F3302AA944663440493002303930293C0
:101CC0004B4601935346009332003B004046FFF7DA
:101CD0000FFD031EB2D1020041464968BFF35F8F7A
:101CE00000250D6084F31088002B29D01F2302A942
:101CF0008C4663441B78002BB2D112021043002B98
:101D000020D05B46002B1DD04946D04704000D0073
:101D100003000B431DD00029A4DB00F005FA0600E8
:101D20000F1EAFDB36196F41002FB1DA0126764264
:101D30000F4FADE70B4B0C4A3F210C4800F03AFF28
:101D4000012040420BB0F0BCBB46B246A946A046BB
:101D5000F0BD0798F6E7C04680F5001004F80010C3
:101D60004CF5001060F10010ACF70010B4F1001059
:101D7000FFFFFF7FF8B50400002900D162E0426850
:101D8000EFF3108572B6136858424341D8B2002B66
:101D9000F9D1BFF35F8FCBB22268567BB3421BD120
:101DA0000120002848D0206988422BD0090AC9B2F6
:101DB000002B2ED02068007B83422AD8581EE6686C
:101DC000305C88422BD000206368BFF35F8F002215
:101DD0001A6085F31088F8BD002B0DD0167BB34236
:101DE0000AD85E00F618033E1768BC466644B6780B
:101DF000002ED6D00120D4E7134B144A6821144892
:101E000000F0D8FE2C21134B134AFF31134800F089
:101E1000D1FE134B134A4121104800F0CBFE1900AC
:101E2000100000F06FFC0028CED199210E4B0A4A19
:101E300049000A4800F0BEFE23698B42C4D100234A
:101E40002361C1E70020C6E7A4F500104CF800109C
:101E5000C0F500101CF7001094F700104CF50010AE
:101E600080F5001004F8001040F70010F0B587B0BE
:101E700006000F00EFF30583002B1FD106246442F8
:101E8000E517A4197D418D4202D803D1844201D9BE
:101E900000240025002D14DB0494059500F044F97E
:101EA00002000B1E13DBA41A9D41002D17DC14D079
:101EB0003000390000F044F907B0F0BD234800F0CD
:101EC00013FF234B234A3F21234800F073FE204B8E
:101ED000204A3F21204800F06DFE002CE8D0FFF79B
:101EE0007FFE0023029301931C4B0093049A059BF1
:101EF000FFF78CFE002818DADAE7002300E0002361
:101F0000002BD5D1164B1A68EFF3108172B6136807
:101F1000002BFCD0BFF35F8F114B1B68BFF35F8FAB
:101F200000221A6081F3108820BF0499059A0D4B96
:101F30005B6A9A42E3D80B48806A884203D29A428D
:101F4000DBD00123DCE70123DAE7C04644F70010C9
:101F500060F10010ACF70010B4F100106115001032
:101F6000F81E00200040054070B504000D0000F090
:101F7000DBF802000B1E0ADB200029008018594103
:101F800000290ADB00290CDBFFF770FF70BD084B4E
:101F9000084A3F21084800F00DFE01204042074951
:101FA000F0E7034B034A3F21034800F003FEC0461D
:101FB00060F10010ACF70010B4F10010FFFFFF7FDC
:101FC00010B5FA2292000023002102F0F5FDFFF780
:101FD000CBFF10BD70B584B005000C00EFF3058396
:101FE000002B1ED1FFF7FCFD002302930193224B2F
:101FF00000932A002300FFF709FE061E23DD20BF01
:10200000FFF7EEFD3100FFF7B5FE1C4B5B6A9C420B
:102010002DD81A4A926AAA422CD29C4225D001207D
:1020200026E0164B5B6A994209D8144A926A8242AA
:1020300007D2994201D001201AE0002018E00020C8
:1020400016E0012014E00D4B5B6A9C4209D80B4A54
:10205000926AAA4207D29C4201D0012008E00020E7
:1020600006E0002004E0012002E0002000E0002063
:1020700004B070BD0120FBE7611500100040054071
:1020800070B5EFF305801038EFF3108C72B61A4B71
:102090001B68002BFBD0BFF35F8F0122130083402E
:1020A00016494B6316490B60164909780C00C44069
:1020B000224214D0114A546A8200134D525994425C
:1020C00006D38200114C125999430E4B197007E048
:1020D0000A4A031D9B0099589950002200E00022F3
:1020E000BFF35F8F044B002119608CF31088002A26
:1020F00000D0904770BDC046280100D00040054088
:102100003C7005400F1F0020FC1E00205C1C0020BE
:1021100010B50100024A0348FEF79CFF10BDC046FF
:1021200078F800100D1F0020044B5B6A034A906A88
:102130001900536A9942F9D17047C04600400540E2
:10214000084B5B6A01E0074B5B6A8B42FBD301E003
:10215000044B5B6A8B4203D1024B9B6A8342F7D3E9
:102160007047C0460040054070B504000D00FFF701
:10217000DBFF02000B0020002900801859418B4230
:1021800002D804D1824202D901204042C11700295D
:1021900002DBFFF7D5FF70BD024B034A3F21034826
:1021A00000F008FD60F1001018F90010B4F1001003
:1021B00010B5002807DB064B9A6A054B9B6A9B1AF1
:1021C0008342FAD310BD0021FFF7CEFFFAE7C046E5
:1021D0000040054010B50A4B984207D843011B1A2E
:1021E0009B001818C000FFF7E3FF10BDFA22920011
:1021F0000023002102F0E0FCFFF7B6FFF5E7C04640
:102200009BC4200070B504000D00EFF3108672B679
:102210001B4B1B68002BFBD0BFF35F8F002D1CD026
:102220002000FEF7CBFF174B83420BD01900200094
:10223000FEF7CCFF01212000FEF7B8FF0123A340E9
:10224000114A1360A400114BE550BFF35F8F0C4B94
:1022500000221A6086F3108870BDA2000B4B00218B
:10226000D1500122A2400A490B7893430B700549D3
:102270002000FEF7D5FF00212000FEF797FFE4E7DE
:10228000280100D081200010386005405C1C00202F
:102290000F1F0020F0B5DE4600B584B00400150025
:1022A00001921E000293FFF73FFF03958E4202D872
:1022B0004ED185424CD9EFF3108B72B6274B1B6879
:1022C000002BFBD0BFF35F8F254A17780125A5406F
:1022D000EBB23B431370234B5D63221D92000199C7
:1022E000D150A2002049029850501B6A2B4212D1B3
:1022F0001C4B1B6C2B4208D00020BFF35F8F174B89
:1023000000221A608BF3108823E0184B184AC5216D
:10231000184800F04FFCFFF707FF8E4214D802D197
:10232000039B834210D80E4B1B78BB420ED00D4B43
:102330001D625D631F2004400123A3400E4A136009
:10234000074B1F701E38D8E70020D6E70120D4E7DE
:10235000012004B080BCBB46F0BDC046280100D0BF
:102360000F1F002000400540FC1E00209CF80010BC
:10237000FCF80010C0F8001080E200E0EFF3108CD1
:1023800072B60B4B1B68002BFBD0BFF35F8F012392
:102390008340084A136208490A789A430A70BFF3D7
:1023A0005F8F034B00221A608CF310887047C04681
:1023B000280100D0004005400F1F002010B5002963
:1023C0001ED0037B99421BD84B005B18033B04686B
:1023D000A4466344002919D0002A1DD0914221D07F
:1023E000002A25D0047BA24222D80468500080181D
:1023F000033820188170197800291FD11A7010BD78
:10240000104B114A6821114800F0D4FB104B114ABF
:102410006F310E4800F0CEFB0F4B0E4A70210B4877
:1024200000F0C8FB0D4B0B4A7121084800F0C2FBBD
:10243000044B054A6821054800F0BCFB41701A7046
:10244000DDE7C046A4F5001018FA0010C0F5001032
:1024500008F6001004FA001014F6001020F6001020
:1024600070B506000D001400002914D0002A14D005
:10247000806873689847002806D022002900300041
:10248000FFF79CFF280007E02A0021003000FFF73B
:1024900095FF200000E0100070BD0800FCE7000080
:1024A00010B50023437301338373037BC37301238C
:1024B000027B9A4214D9002B0CD0027B934209D89C
:1024C0005A00D218033A01688C4662440133DBB2E9
:1024D0005370EDE70B4B0C4A68210C4800F06AFB87
:1024E000002A09D0924207D8016853009A18033A8B
:1024F0008A180023537010BD024B034A6821034819
:1025000000F058FBA4F5001018FA0010C0F50010F8
:1025100010B5017342608360FFF7C2FF10BD000079
:1025200070B50400081E00D170BD002934D0237B93
:10253000994231D84B005B18033B226894466344B0
:102540005A78002AF0D02DD0237B9A422AD8530003
:102550009B18033B21688C4663445D7800215970C9
:10256000002825D0237B984222D843001B18033B28
:1025700021688C4663440021597001002000FFF758
:102580006FFF060029002000FFF7CAFF020031009C
:102590002000FFF765FFC7E7084B094A6821094893
:1025A00000F008FB054B064A6821064800F002FBD4
:1025B000024B034A6821034800F0FCFAA4F500101E
:1025C00018FA0010C0F5001070B505000C001600D8
:1025D00000292FD034D0037B994231D84B005B18AF
:1025E000033B0268944663445A78002A2ED19A78B5
:1025F000002A31D11978FFF793FF0300002E0AD08B
:10260000EA7B002A2ED1AA7B002A03D1EA7B002A8A
:102610003BD1AC73EC73002B3DD1002C4FD02B7B06
:102620009C424CD82B6861000C19033C1C190023F8
:10263000637070BD254B264A3821264800F0BAFA4F
:10264000254B264A6821264800F0B4FA254B204A3B
:102650003A21204800F0AEFA234B1D4A3B211D4889
:1026600000F0A8FA002A0AD0297B8A4207D8510034
:102670008A18033A29688C4662445470C3E7164BA3
:10268000164A6821164800F095FA184B104A422164
:10269000104800F08FFA002B0BD02A7B934208D809
:1026A00043001B18033B2A689446634400229A7037
:1026B000B3E7094B094A6821094800F07BFA064B49
:1026C000064A6821064800F075FAC04630F9001045
:1026D000F0F9001038F90010A4F5001018FA0010F5
:1026E000C0F500106CF9001094F90010E4F6001029
:1026F00070B504000A00457B2900FFF765FF607391
:10270000280070BD70B50400002967D0437B8B4260
:102710000ED0002911D0037B99420ED84B005B18D4
:10272000033B0268D0188378002B0CD1002056E0C0
:102730000121FFF7DDFF012051E0294B294A6821E3
:10274000294800F037FA002B20D0227B93421DD875
:102750005A00D318033B2268D2182568EB5C8B42E1
:102760001AD0002B1BD0227B934218D85A00D318C2
:10277000033B2268D21853788B4216D0002BF0D13D
:102780001A4B1B4A6B211B4800F014FA144B154AD4
:102790006821154800F00EFA4378137007E0104BDB
:1027A000104A6821104800F005FA4378537000235E
:1027B0008370437001222000FFF706FF0200617B57
:1027C000814205D02000FFF74BFE6073012006E038
:1027D000094B074A7121074800F0ECF9002070BD51
:1027E000A4F5001018FA0010C0F5001004F4001051
:1027F000D8F9001038F90010B8F90010F8B5DE4625
:1028000057464E464546E0B505000F0092460A9AE7
:10281000934250D31A0E91461E020A9A00233000AA
:10282000494601F0CBFB80466C006419A400304B94
:102830009C4664446368834200D260602B1FDBB215
:102840009B46012B3DD9C0239B01234380221201CB
:102850001A60AB00274A9958002907D0506901F047
:102860006FFB431C5800C0180338FDD253465A0171
:1028700023685A40E0231A4080235B0123431A60F7
:102880005A46012A28D980239B0123438022120122
:102890001A6043466360424600233000494601F017
:1028A0008DFBAD00134B58510120F0BCBB46B24626
:1028B000A946A046F8BD104B104A3321104800F03D
:1028C00079F9012FBFD1C0239B01234303221A6052
:1028D000A368DB07FCD5C9E72168794003220A40D9
:1028E0001A60A2680123BB401342FAD0CBE7C0466E
:1028F000008000406C1C002024FA001078FA0010C0
:1029000038FA001030B583B00C2000F011F9FEF752
:1029100081FB00280DD0002304E099002D4A2E48A9
:1029200088500133092BF8D92A4B2C4A5A6203B03C
:1029300030BD2B4B00229A6700F002F9294B01228F
:102940001A60274B5B6C012BFBD1274B03221A60CB
:10295000234B9B6B012BFBD1013300930433234AA0
:102960000121234800F054F805230093214A012156
:10297000214800F04DF8214B009300220221042051
:10298000FFF73CFF1E4D00952B0000220121052082
:10299000FFF734FF104C0094230000220021072091
:1029A000FFF72CFF00942300002200210820FFF7EE
:1029B00025FF0A4B00932300002200210920FFF786
:1029C0001DFF00952B00002200210620FFF716FFB7
:1029D000ADE7C0466C1C0020006CDC021BB7000099
:1029E000008000403CB0004030B00040002F6859EB
:1029F00000800240008C864700C00240001BB700E8
:102A0000405973078000014BC05870476C1C002070
:102A1000F0B5C64600B504000E0017001D0037488B
:102A200001F08EFA8046364BFA18364B9A4239D866
:102A30000100380001F084FA0200103A98235B008C
:102A40009A4235D86B1E062B38D8069B013B062BC5
:102A500034D83F09474537D32D04069B1A03154345
:102A60002368002B36DB284B9C4244D08022520145
:102A7000264B1A60264B1A60264B9B68110099431F
:102A8000FAD12660A060231DC02292011A4321239F
:102A900013602368002BFCDAE5600823136080BC18
:102AA000B846F0BD1C4B1D4A11211D4800F082F8AC
:102AB0001C4B1A4A19211A4800F07CF81A4B174A85
:102AC0001C21174800F076F8184B144A23211448AB
:102AD00000F070F822683F231340B342C3D1A368CB
:102AE0001B051B0D8342BED1E368EE22D2021340C8
:102AF000AB42B8D1D3E780229201B9E7001BB700FF
:102B000080E84BD380F8A93200C0024000E00040CA
:102B100000F0004000C0004088FA0010A4FB001044
:102B2000E8FA001020FB00103CFB001088FB0010AE
:102B300080239B000343014AD36270470080054015
:102B4000064BAA2212011A602F22DA60044B054AB2
:102B50001A60024B5B68002BFBDA704700400240B2
:102B60000060024000B0FA0000BEFDE703000A4A20
:102B70001268002A08D0084A1068C318074A9A4207
:102B800006D3054A13607047034A05491160F2E70E
:102B900001204042F7E7C046E01C0020000004206E
:102BA000101F00200020704701204042704710B5E0
:102BB000FFF7DAFF10B582B00C001900002A0CD024
:102BC000084B002A0BD00192009323000200064814
:102BD00002F09AFA0120FFF7C7FF044BF1E7034A1E
:102BE000F1E7C046B0FB0010C0FB0010BCFB0010BA
:102BF00070B52B4B2B4A1A602B4B2C4A1A602C4B6E
:102C00009A682A4B9343FAD12A4C01E008CC9847A2
:102C1000294B9C42FAD3FFF775FE234B274A1A60D3
:102C2000234B9B68DB43DB01FAD1254B40229A679B
:102C30005A671A67DA66234C09E0234B234A872137
:102C40002348FFF7B7FF2000FEF74EFC0834214B66
:102C50009C4209D22368002BF5D0012BEDD1200036
:102C6000FEF74FFC0834F2E71B4CA1681B4DC02255
:102C7000280002F089F8A560EFF30583002B00D04F
:102C800000BEFEF701FAFEF719FCFEF789FF144CAF
:102C900001E008CC9847134B9C42FAD370BDC04664
:102CA00000E00040BFCDFBFE00F00040FE7F3C0096
:102CB00000C00040B81A0020C81A0020FFFFFF0122
:102CC00000F00140B01A0020F0FB00105CFC001086
:102CD00010FC0010B81A002000ED00E000000020F9
:102CE000C81A0020D01A00200FB400B583B00848DD
:102CF00002F0DAF9049B002B07D005A90191180016
:102D000002F0E2F9034802F0CFF90120FFF72CFFAF
:102D10004CFC0010240301109A4200D288547047E2
:102D2000704710B5002802D00B684968984710BD5D
:102D30000100002007E083001B185B00501C0860A6
:102D40001078C01830380A681378303BDBB2092B92
:102D5000F1D97047F0B5DE4657464E464546E0B5D8
:102D600083B093461F000C9B9A460D9C0E9B994680
:102D70000F9B9B0703D0B8460F00060022E001928C
:102D8000A34688464E46B9460700B44207D2551CB2
:102D90004B4641462020B84701342A00F5E73D0064
:102DA0004F465C46019B9B46B1464646B8463700B7
:102DB0002E0007E0013C551C5346185D4346390080
:102DC000B0472A00002CF5D135003E0047460F9B46
:102DD0009B0707D4100003B0F0BCBB46B246A9461F
:102DE000A046F0BDB0464E46B9462F005D46531B87
:102DF000B342EFD2541C4B4641462020B847220034
:102E0000F5E7F0B5CE46474680B585B0944698467E
:102E10000C9D0D9C0EAB1B789946109A119B129E2F
:102E2000B7071CD4002B0CD0F7070AD54F46002F4C
:102E300002D10C37374204D0013B02E030272F5536
:102E40000134944201D21F2CF8D9F70707D59C42D0
:102E500005D21F2C03D830272F550134F5E7F7068C
:102E600015D5770505D4002C03D0944224D09C427C
:102E700022D00F9A102A2BD00F9A102A30D00F9AF6
:102E8000022A35D01F2C02D830222A5501341F2C9B
:102E900005D84A46002A31D02D222A5501340396FE
:102EA00002930194009543466246FFF753FF05B035
:102EB000C0BCB946B046F0BD621E012C06D00F9FC3
:102EC000102F01D01400D4E7023CD2E71400D0E761
:102ED000B206D1D41F2CCFD878222A550134D1E79D
:102EE000B206CCD51F2CCAD858222A550134C9E7BE
:102EF0001F2CC7D860322A550134C3E7720703D5A7
:102F00002B222A550134CAE73207C8D520222A5578
:102F10000134C4E7F0B5DE4657464E464546E0B5B7
:102F200093B081468A46089209931CAB10CB1B785C
:102F30009B461E9D219B9846002C03D110234246A0
:102F40009A4390468023DB0046461E4042461A4282
:102F500012D0002C22D000260EE03033D9B2771CDC
:102F60000AAB99552900200000F0EAFFAC4216D3C5
:102F70001F2F14D83E0004002900200000F0E0FFBD
:102F8000CBB2092BE9D94246920605D54121C91891
:102F9000C9B20A39C9B2E2E76121F8E7270043461E
:102FA0000693209B05931F9B049303955B46029316
:102FB00001970AAB0093099B089A51464846FFF7D0
:102FC00020FF13B0F0BCBB46B246A946A046F0BDF8
:102FD000F0B5DE4657464E464546E0B595B00890FA
:102FE00009910A920B931E9E1F9C20AB1B789B4657
:102FF000229B9946239D269B9A463300234303D167
:10300000103352469A4392468023DB0057461F40B6
:1030100052461A4219D0330023432DD0002714E022
:103020003033DAB27B1C98460CABDA554A462B009B
:103030003000210000F0C2FFA5421FD819D043463E
:103040001F2B1BD8474606000C004A462B003000B9
:10305000210000F0B3FFD3B2092BE1D9524692060A
:1030600005D54122D218D2B20A3AD2B2DAE76122A9
:10307000F8E7B145E3D901E00023984653460693AB
:10308000259B0593249B04934B4603935B46029335
:10309000434601930CAB00930B9B0A9A099908983D
:1030A000FFF7AFFE15B0F0BCBB46B246A946A0463E
:1030B000F0BD0000F0B5DE4657464E464546E0B549
:1030C00091B083468A460C9298461A9C08941B9DA0
:1030D000099522002B002000290001F0FAF90028B0
:1030E00000D0E5E001225242D74B2000290001F038
:1030F000EBF9002800D0DBE001225242D34B200044
:10310000290001F0CBF9002800D0D1E000220023F3
:10311000089E3000099D290001F0C0F9002800D068
:10312000DDE008980999069007918023DB001E9A3C
:103130001A400D921E9A1A4201D106231C9306983A
:10314000079904000D000A000600024300D1D1E0F7
:10315000080D4005400DBE4CA44660440A03120B06
:10316000BC4B13431F0001F0C7F9BB4ABB4B01F036
:1031700052F9BB4ABB4B01F027F904000D000022B5
:10318000B94B3000390001F016F9B84AB84B01F0DC
:1031900042F902000B002000290001F015F901F0AE
:1031A000C3F9814601F0A8F904000D00B14AB24B01
:1031B00001F031F90022B14B01F006F901F0B4F948
:1031C0000600AF4AAF4B2000290001F024F90400AB
:1031D0000D00300001F090F9AB4AAC4B01F01BF947
:1031E00002000B002000290001F0E5F804000D00AA
:1031F00002000B0001F00FF90A900B91A44BF31899
:1032000000261F0522002B002000290001F0DCF819
:103210000E900F9122002B0000208021C90501F0A3
:10322000CAF804000D0000229A4B0A980B9901F08D
:10323000D4F80022984B01F0C7F802000B000A985E
:103240000B9901F0CAF80022944B01F0BDF802007E
:103250000B000A980B9901F0C0F802000B00200047
:10326000290001F0B1F802000B000E980F9901F04F
:10327000B4F80022774B01F0A7F832003B0001F0D0
:10328000CAF806000F0004000D00069A079B01F023
:103290001BF9002830D001235B429C46E144002208
:1032A0007D4B3000390001F098F804000D0023E058
:1032B0001E9B04931D9B03931C9B0293089A099BDE
:1032C0000092019343460C9A5146584600F0FCF890
:1032D00011B0F0BCBB46B246A946A046F0BD0023E3
:1032E000002406930794069680231B069C4665449B
:1032F00007951AE7002399464B466333C62B1ED821
:1033000004261E9B1B0526D52B0023430FD0644AA1
:10331000644B0698079901F0CFF8002879D0002275
:10332000614B0698079901F0B9F8002871D01C9BF1
:103330004B4506DD4A46981A431E1C9303E00526BA
:10334000DFE700231C938023DB001E9A1A431E92A2
:103350000026002399461D9B9E4264D29F1B022398
:103360001E9A1A400A921E9A134202D0002E00D0D2
:1033700000274B46002B07D022002B000698079908
:1033800001F02BF806900791002200230898099974
:1033900001F084F8002848D1444B1E9A134004934E
:1033A00003971C9B0293069B079C00930194434642
:1033B0000C9A5146584600F087F8002E00D187E756
:1033C0001E9B9B063DD54525441C434602005146A5
:1033D0002800D8474B46DA179B1853400522059220
:1033E000013E0496002203920A3202924A46D00F0E
:1033F000019000934346220051465846FFF78AFD4C
:103400000A9B002B00D163E702005F460C9E1D9DC6
:1034100054E01C9B002B9ED00D9B002B9BD01C9B33
:10342000013B1C9397E7002799E7069C079D220024
:10343000290080200006844661440B000692079311
:10344000AAE76525C0E7C046FFFFEF7FFFFFEFFF5C
:1034500001FCFFFF0000F03FFB799F501344D33F76
:10346000B3C8608B288AC63F0000F83F61436F6392
:10347000A787D23F71A379094F930A400000E03F2C
:103480001655B5BBB16B0240EF39FAFE422EE63F4E
:10349000FF03000000002C40000024400000184002
:1034A0002D431CEBE2361A3F80842E41FFF7FFFFCD
:1034B000541C434651462020B8472200931BAB4280
:1034C000F6D3100004E7C046F0B5DE4657464E4638
:1034D0004546E0B595B00690079193469946209FE2
:1034E0001E9A1F9B1000190000F0F3FF002831D135
:1034F00001225242BF4B1E981F9900F0CFFF0028B7
:1035000037D101225242BC4B1E981F9900F0DCFFBC
:1035100000283DD10022B94B1E981F9900F0D4FF1E
:10352000002850D10022B64B1E981F9900F0B6FF1C
:10353000002848D1002200231E981F9900F0AEFFFA
:10354000002850D100239846229B5B0500D4B6E0AA
:10355000002458E0229B0393219B029303230193B1
:10356000A84B00934B465A4607990698FFF7F2FB83
:103570000EE1229B0393219B029304230193A24B10
:1035800000934B465A4607990698FFF7E3FBFFE086
:103590000423229A1A4022990B4210D09B4B002AF6
:1035A0000FD0042222990391219902910192009354
:1035B0004B465A4607990698FFF7CCFBE8E0944B38
:1035C000EDE70322EEE7229B0493219B03930297EE
:1035D0001E9B1F9C009301944B465A4607990698E0
:1035E000FFF768FDD4E01E9A1F9B0020002100F029
:1035F000E2FE1E901F9101239846A5E70CAB3022F6
:103600001A55013F01341F2C01D8092FF6D81E98F6
:103610001F9900F089FF050000F06EFF02000B000B
:103620001E981F9900F0C7FEFA007A4B9B181A6883
:103630005B680A920B9300F0EEFE0890099100F08F
:1036400097FF060000F054FF02000B00089809994C
:1036500000F0B1FE0890099100226F4B00F034FF9A
:1036600000282ED00136300000F042FF02000B008F
:103670000A980B9900F018FF002801D001350026A8
:10368000002F2CD1280000F037FF02000B001E98FD
:103690001F9900F090FE06000F0000225E4B00F024
:1036A000FDFE002846D100225B4B3000390000F0BF
:1036B0000BFF00283ED1EB073CD501353AE0062749
:1036C00046E70022544B0898099900F0E7FE0028CD
:1036D000D6D1002E01D0F307D2D50136D0E7AA46C5
:1036E0001F2C11D8013F0A21300000F029FC651C75
:1036F00030310CAB19550A21300000F021FC092EA5
:103700000ED906002C00EBE755461F2C0CD87B1E6B
:10371000002F09D00CAA302111551F000134F4E705
:103720002B0055461C00F0E71F2C03D80CAB2E22B3
:103730001A5501341F2C10D80A21280000F0D8FB9C
:10374000661C30310CAB19550A21280000F0D0FB63
:10375000051E01D03400EDE734000323229A134004
:10376000012B1CD01F2C06D84346002B32D00CABAB
:103770002D221A550134229B0393219B029301941D
:103780000CAB00934B465A4607990698FFF7E2FAAE
:1037900015B0F0BCBB46B246A946A046F0BD219B81
:1037A000002B13D04346002B02D10C3313420FD011
:1037B000219B013B2193190003E00CAB30221A55E9
:1037C00001348C42CED21F2CF7D9CBE72199F8E7F0
:1037D0002199F6E7229B5B0704D50CAB2B221A55E7
:1037E0000134C8E7229B1B07C5D50CAB20221A5514
:1037F0000134C0E7FFFFEFFFFFFFEF7F65CDCD4155
:1038000065CDCDC178FC00107CFC001070FC001070
:103810006CFC001068FE00100000E03FF0B5DE46D2
:1038200057464E464546E0B593B082468B46904695
:103830001193002900D1EBE200275546119B18781F
:10384000002800D1E7E2252809D07C1C43463A0035
:103850005946A847119B013311932700EEE7013326
:1038600011930024119A11780B00203BD8B2102834
:1038700003D88300D048C3589F460B00303BDBB2CF
:10388000092B2CD92A292FD000230A93119B1A78AF
:103890002E2A39D000239A46119A1378683BD9B260
:1038A000122976D88B00C549CB589F4601231C436B
:1038B00001321192D6E702231C4301321192D1E763
:1038C00004231C4301321192CCE708231C4301322C
:1038D0001192C7E710231C4301321192C2E711A8CD
:1038E000FFF726FA0A90D1E71C9B1A1D1C92186854
:1038F000002804DB0A90119B01331193C6E70223D1
:103900001C4343420A93F6E78022D20014435A1C18
:1039100011925A781300303BDBB2092B04D92A2AC2
:1039200007D000239A46B7E711A8FFF701FA8246AD
:10393000B2E71C9B1A1D1C921868002804DB824603
:10394000119B01331193A7E70020F8E780235B0068
:103950002343511C119152786C2A01D01C0018E0AD
:10396000C0239B001C430131119112E080232343AB
:10397000511C11915278682A01D01C0009E0C02323
:103980001C430131119104E080235B001C43013290
:103990001192119B18780300253BDAB2532A00D903
:1039A0002CE29300864AD3589F4680239B001C43F9
:1039B00001321192EDE780235B001C43013211922A
:1039C000E7E7782809D0582838D06F2838D06228FF
:1039D00038D010239C430A2600E01026582833D004
:1039E000692803D0642801D00C229443630501D5D3
:1039F0000122944369282AD0642828D0A30500D541
:103A00009FE0E30500D5B8E0630600D4CAE01C9A45
:103A1000111D1C911168FF220A4005940A9B049312
:103A200053460393029600230193009243463A00C3
:103A300059462800FFF76EFA070027E01026CDE769
:103A40000826CBE70226C9E720221443C8E7A305CE
:103A500020D4E30550D4630666D51C9A111D1C9131
:103A60001168FF220A40D317D118594005940A9BC8
:103A70000493534603930296D20F0192009143465A
:103A80003A0059462800FFF745FA0700119B013319
:103A90001193D3E61C9BDA1D07218A4311000831DC
:103AA0001C91116853689C46DB170C930D930C9A7C
:103AB0000D9B100048400E90624653400F930E98A5
:103AC0000F990C9A0D9B801A99410E900F910894B2
:103AD0000A9B079353460693049600230593634677
:103AE000DA0F02920090019143463A0059462800AD
:103AF000FFF76EFA0700C9E71C9A111D1C911268A6
:103B0000D317D118594005940A9B04935346039345
:103B10000296D20F0192009143463A00594628007E
:103B2000FFF7F8F90700B1E7230605D51C9A111D28
:103B30001C910023D25E96E71C9A111D1C911268FD
:103B400091E71C9BDA1D07218A43110008311C9163
:103B500008940A9B07935346069304960023059303
:103B60000293136854680093019443463A005946FF
:103B70002800FFF72DFA070088E71C9A111D1C91F9
:103B800005940A9B049353460393029600230193E2
:103B90001368009343463A0059462800FFF7BAF9E4
:103BA000070073E723060DD51C9A111D1C9112689E
:103BB0001204120C31E7C04684FC0010C8FC00104F
:103BC00014FD00101C9A111D1C91126825E746284F
:103BD0001AD01C9B0733072293431A0008321C9209
:103BE00004940A9A0392524602925C681B680093FE
:103BF000019443463A0059462800FFF765FC070048
:103C0000119B0133119319E620231C43E1E7672838
:103C100001D0472802D180231B011C43452801D035
:103C2000472801D120231C431C9B073307229343C1
:103C30001A0008321C9204940A9A03925246029285
:103C40005C681B680093019443463A00594628007B
:103C5000FFF730FA0700119B01331193EEE50223C1
:103C60001A002240924623421FD001241C9B1A1D99
:103C70001C927A1C9146187843463A005946A84748
:103C80005346002B16D1119B013311934F46D5E5B6
:103C9000561C434659462020B847230032005C1C7E
:103CA0009D42F5D83D001700E0E701233A002F00C0
:103CB0000A9DF4E74A46A9460A9D06E0571C43467A
:103CC00059462020C84734003A00661CA542F5D862
:103CD0004D469146D7E71C9B1A1D1C921B689946BE
:103CE0005346002B00D1013B4E4601E00136130044
:103CF0003278002A02D05A1E002BF7D14B46F21A16
:103D000010928023DB0026001E401C4203D0524547
:103D100001D95346109302231A0022400B922342EA
:103D200005D03A0037004C46A946554620E03A00F7
:103D3000109B5F46B3462E0006E0551C43463900F3
:103D40002020B04723002A005C1C0A999942F4D82D
:103D500035005E46BB46109437004C46A946554692
:103D600006E01D000134561C43465946C847320040
:103D70002078002804D0002FF4D06B1E002DF0D145
:103D800017004D460B9B002B03D1119B0133119360
:103D900054E50A9F109B06E0561C434659462020D6
:103DA000A847230032005C1C9F42F5D81700ECE7BF
:103DB00021231C431C9B1A1D1C921B680093059415
:103DC0000823049353460393102302930023019383
:103DD00043463A0059462800FFF79CF80700119B1C
:103DE000013311932AE57C1C43463A0059462520AD
:103DF000A847119B0133119327001FE57C1C434604
:103E00003A005946A847119B01331193270015E545
:103E10000A4B9A4610E5AA46474502D343465A1E26
:103E200000E03A00434659460020D047380013B01E
:103E3000F0BCBB46B246A946A046F0BD212D0010FD
:103E40000EB410B585B0010007AC08CC0394012274
:103E5000009452420348FFF7E1FC05B010BC08BCD7
:103E600003B01847192D001000B585B002900391DA
:103E70000121009313004A4202A90248FFF7CEFC39
:103E800005B000BD232D001001480421014B184747
:103E900040120020B93E001010B5010018231B8805
:103EA00014221088984710BD10B5010018231B88F4
:103EB00016221088984710BDF0B5C64600B5070019
:103EC0000E0000250123984600E00135B5420AD2D4
:103ED000AC003C192068FFF7DFFF20600028F4D118
:103EE00000239846F1E7404680BCB846F0BD00008C
:103EF000124A936F9B0815D29066D166002905D0AF
:103F0000FFE7FFE7FFE7516F106F704704B58021AF
:103F10000906C2175140002800D0C8430BF050F8E2
:103F2000002104BDF0B5146E556E576F166FFFF784
:103F3000E3FF1466556657671667F0BD000000D0B2
:103F4000114A936F9B0813D210665166002905D061
:103F5000FFE7FFE7FFE7516F106F704704B50028D8
:103F600001D00020C0430BF02BF8002104BDC04657
:103F7000F0B5146E556E576F166FFFF7E5FF1466B8
:103F8000556657671667F0BD000000D094464A4A50
:103F9000926F9208624601D228E0C046F0B5464EC4
:103FA000346E756E776F366F00F020F89446424A93
:103FB00014665566576716676246F0BD94463E4ADA
:103FC000926F9208624601D254E0C046F0B53A4E74
:103FD000346E756E776F366F00F04CF89446364A43
:103FE00014665566576716676246F0BD002B24DBE2
:103FF00011D000293EDA00B5C943404200D1013159
:1040000000F038F8C943404200D10131DB4352424D
:1040100000D1013300BD002AEBD1002801D10029D5
:1040200005D00020C90FC90701D1C043410800B520
:104030000AF09EFF0022002300BD00B500290ADB24
:10404000DB43524200D1013300F014F8C94340422F
:1040500000D1013100BDC943404200D10131DB43F1
:10406000524200D1013300F005F8DB43524200D147
:10407000013300BD002923D1002B18D1002A0CD018
:10408000BC460D4F38667A6600210023FFE7FFE744
:10409000FFE77A6F386F67467047002801D00748FE
:1040A000010000B50AF064FF0022002300BD0200F9
:1040B0000B00002000217047000000D0FFFFFFFF31
:1040C000002B00D0BFE0130C28D1002AE7D080B429
:1040D000114F39667A66FFE7FFE730B4040C7B6F57
:1040E000396F1B0423433B667A66FFE7FFE7FFE770
:1040F000C04684B27B6F3D6F1B0423433B667A66E8
:10410000FFE7FFE7C04600232C042D0C7A6F386FC1
:1041100000196941B0BC7047000000D0F0B594466A
:104120000025140E01D112020835140F01D112011D
:104130000435940F01D192000235D40F01D1520001
:104140000135D40B0134254F7C66254C3C660E0CA2
:1041500093B2FFE7FFE7FFE73C6F6643360C770358
:10416000BE467343DF0B5B04C01AB941130C7343A3
:10417000DB18C91ACE086643360CB64493B27343B3
:104180001F0F1B01C01AB941130C73431F0B1B05F2
:10419000C01AB941860D8F023E436643360C092D85
:1041A00024DB520A7243801A7703460A6643360CB0
:1041B00016235B1BDE40DF40BF1964466643821B4B
:1041C0007046043506330100D940A840C01900D319
:1041D0000131A24206D20023F0BD0000000000D051
:1041E000FFFFFFFF121B0130F3D3F1E709277F1B0D
:1041F000FE406446A2B27243801A00D20139220CFA
:104200007243130C1204821A99410B007046043554
:1042100013370100F940A840801900D30131002B69
:1042200002D1A2420AD2F0BD013000D30131121BEB
:10423000FAD2013BF8D1A24200D2F0BD013000D346
:104240000131121BF7E7F0B51C0C00D080E00CB474
:1042500000251C0A04D11B02160E33431202083536
:104260001C0B04D11B01160F3343120104359C0BA8
:1042700004D19B00960F334392000235DC0B02D130
:1042800092185B4101351C00971864410134464F78
:104290007C66464C3C660E0CFFE7FFE7FFE7C04636
:1042A0003C6F6643360C7703BE4697B27743C01B1C
:1042B00000D20139C01B00D201399FB27743C91B1C
:1042C000C91B170C77437E04FF0B801BB941CE0836
:1042D0006643360C0C2D33DBB644120B1F053A43F4
:1042E0001B0B97B27743C01B00D201399FB27743B3
:1042F000C91B170C77433E043F0C801BB941860D48
:104300008F023E43664329277F1BFE400C3D7746C4
:10431000AF40BF1930BCA2B2ABB272437343801A34
:104320009941220C7243130C1204801A9941020025
:104330000B000137001BA941F9D2781E0021F0BD06
:104340000C277F1BFE4077467F0BAF40FF19E0E74D
:1043500000245D1C07D0144F7D663966FFE7FFE738
:10436000FFE7FFE73C6F95B29EB265436643401B93
:10437000B141150C1E0C6543664336042F0C3E43B9
:104380002D04401BB141994204D202000B002000D1
:104390000021F0BD01D19042F7D3801A9941013438
:1043A0009942F2D3F6E70000000000D0FFFFFFFFC4
:1043B00048404140484018B41B4B5B68FC460193A1
:1043C00008BD04DF8B46001018B4174B1B68FC4671
:1043D000019308BD00DF954600109446134A926F82
:1043E000920809D2624618B40F4BDB68FC46019371
:1043F00008BD0CDF4D4900100C4AF0B5146E556E27
:10440000576F166F6246FFF7EEFF084A146655664F
:1044100057671667F0BD18B4034B9B68FC460193C1
:1044200008BD08DFF1470010F41C0020000000D098
:10443000FFB550404240504059404B40594000E089
:10444000FFB5154F4C00640D03D0BC4204D10C03E2
:1044500014D80020090D09055C00640D03D0BC428E
:1044600004D11C030AD800221B0D1B0501264B405A
:1044700009D44B4003D58B4200D18242FFBD994203
:10448000FCD19042FFBD0B43DB1803431343F5D02F
:10449000C9434918FFBD0000FF07000000B5FFF742
:1044A000CFFF804100BDC04600B5FFF7C9FF01D96D
:1044B000002000BD012000BD00B5FFF7B9FF01D904
:1044C000002000BD012000BD00B5FFF7B1FF804115
:1044D00000BD012040054A00121804D85A001218E5
:1044E00001D800207047012070470020704700006D
:1044F0000021002805D17047C1174840401AFAD062
:10450000C90713B5064B1B6898470CBC441CA24056
:104510001005120B0349091B09051943114310BD6E
:10452000F41D00201F04000010B54C00620D802314
:10453000D218DB00D21A5B057E2A10DD9E3A13DA10
:10454000CC170903490819435242D1406400013491
:104550001532202A05DAD0400843604310BD002000
:1045600010BD0846604310BDC80FC018013810BD0B
:1045700018B4044B5B6AFC46019308BD24DFFD4A76
:1045800000100000F41C002070B513231C78012CCF
:1045900014D0012C14DC022C02DC1F4A1F4B9A643D
:1045A0001F48FFF779FC1F4B186070BD99001A482F
:1045B0001A4A885001331F2BF8D9EAE70023FAE79B
:1045C0001948FFF771FC05001848FFF76DFC023829
:1045D00003789B007F2B19DD802229000F4800F013
:1045E000D3FB022CD7D1124B1A88B5231B029A4257
:1045F00009D1104B1A88104B9A4204D10F4B1A88DC
:104600000F4B9A42C7D00020FEF76EFB0D4B0E4AAF
:1046100032210E48FEF7CEFA51460010F41C00205D
:104620004C330000F41D00205344000053460000AA
:1046300054380000D8380000494600009C3800007B
:1046400059460000B8FE001050FF00100CFF00108B
:1046500007B56046002800D100BE01880A0A023072
:10466000DF2AFAD1C9B2820804D302884088000444
:10467000104300E00068024A5050039007BD00005C
:10468000F41C00200FB403BC0CBCF0B50124E407FB
:10469000634000E0F0B50C0DCF0F661E3605891B98
:1046A000640503D3C943404200D30131640D03D0F4
:1046B000661CF60A07D0E41B00207F00791C8907DE
:1046C0008912803C24031D0DDF0F6E1E36059B1BD7
:1046D0006D0503D3DB43524200D301336D0D03D08C
:1046E0006E1CF60A07D0ED1B00227F007B1C9B0787
:1046F0009B12803D2D032F1B661B58D4A446202EF1
:1047000046DA20371400BC401D00BD40F240334162
:104710002A4380185941CB0F05D0C943C04300221A
:1047200064425041514162464D0D28D10D0D07D1D3
:1047300000281FD0241940414941013A0D0DF9D0FC
:10474000640006D3013000D30131002C01D14008B0
:104750004000013A0BD4941CE40A04D11205114420
:10476000DB071944F0BDD907204B194300E0D907F6
:104770000020F0BD0029DDD1002CDBD1F0BD0132DD
:10478000C6074008CD0728434908002EE1D0D9E7E5
:104790003C2E29DA203E40371400BC4000D00124D2
:1047A000F24014431A00BB401C43D317ACE7AC469D
:1047B000202F08DA20360400B4400D00B540F84040
:1047C00039412843A5E73C2F0CDA203F403604004E
:1047D000B44000D00124F84004430800B1400C4329
:1047E000C117EAE710001900002494E70000F07FE9
:1047F000F0B50C0D661E3605891BE60A6405640DCE
:1048000002D0651CED0A04D0002001210905803C7E
:104810002403A4461C0D671E3F05DB1BE70A640545
:10482000640D02D0651CED0A04D0002201231B0593
:10483000803C24037740644497B484B296B27443B6
:10484000070C7E43150C6F4380B26843361802D3C1
:10485000012000043F183004350C00197D418446C6
:1048600088B29AB250430C0C62431F0C7C438EB248
:104870007E43921902D301263604A4191604170C9C
:104880003618674101BC81B29AB25143040C6243AD
:104890001B0C5C4380B25843121802D30120000461
:1048A00024181004130C401863412D185E41002099
:1048B000474106BC88B293B258430C0C6343120CB8
:1048C000544389B251435B1802D30121090464188F
:1048D00019041A0C091862416D185641002047410D
:1048E00018BCF902720D1143F0026A0D1043ED027B
:1048F0000A0D03D16D1940414941013B124E9B1BEA
:104900007600B3420ED26D0007D30130002671410C
:104910006646354301D1400840001B05C918E4072D
:104920002144F0BD0BDA013306D1013004D101314D
:104930004F0D01D04908F2E7E1070020F0BD013634
:1049400031050020EBE70000FF030000F0B51C0D6F
:10495000671E3F05DB1BE70A6405640D02D0661C79
:10496000F60A04D0002201231B05803C2403D02535
:104970002D060026F6432E661E096E66CE0FF6192A
:10498000B44649004F0D02D07E1CF60A03D0002029
:104990000021403F3F033E1BB600B444013F7F056A
:1049A000C91B49082E6F013676089C02950D2543D8
:1049B0007543ED137543AD1301356D10F603761B8A
:1049C0000CB4CC02450D2C43A2B2B3B25A43270C0F
:1049D0007B43350C6F43A4B26C431B1902D30124F3
:1049E00024043F191C041D0CA4187D4124196D4199
:1049F000009A91B2ACB26143170C7C432B0C5F431D
:104A000092B25A43A41802D301221204BF182204FE
:104A1000230C52187B41019C6C431B19520ED90187
:104A20000A434401A01A81B2B2B2514303145A435B
:104A3000360C734387B27743D617D21900277E41CD
:104A400036049B191704160C7F185E417316ED1877
:104A5000F301002680337541A90F06D16400690A6D
:104A6000E8055B0A184309D22FE0042294448033FE
:104A70007541A90AA8059B0A184326D3404149411C
:104A80002404009A019B0D005543641B4343E41A20
:104A900095B286B27543170C7E43030C5F4392B206
:104AA0005A43B61802D301221204BF183204330C41
:104AB00052197B4152429C41002C02D40022013009
:104AC00051414008CA071043490802B06246D7075F
:104AD0009210084BD218084B9A4203D2120589183B
:104AE000C919F0BD0020002A01DC3900F0BD0133F6
:104AF0001905F5E7FD030000FE070000002200B5E0
:104B0000203200F004F8080000BD000000220B1560
:104B10000AD410B5944600F031F81414013400DAC8
:104B20000021CB17144C204700200021704762441D
:104B3000343A0CD40C2A07DA0400914090405242D7
:104B40002032D440214310BDD843D94310BD203278
:104B500007D40C469440524220321141D0402043A9
:104B600010BD0800C917203203D452422032104130
:104B700010BD1800190010BD2F4B00100A0DCC0FEE
:104B8000531E1B05C91A520503D3C943404200D323
:104B90000131520D03D0531CDB0A07D0121B002039
:104BA0006400611C89078912803A1203014BD21AF2
:104BB00070470000FF03000051434343C9188C466F
:104BC000110C83B24B4310B4040C614392B280B217
:104BD000504362431C041B0C001910BC59411304C0
:104BE000120CC018514161447047000070B5132386
:104BF0001D782A48FFF758F90400012D11D0012D26
:104C000009DDA31E1B789B007F2B40DD8022210045
:104C1000234800F0B9F82348FFF73EF9224B18600B
:104C200070BD542201001E4800F0AEF81F4B1A88D8
:104C30001F4B9A421CD1A7239B011A881D4B9A42F5
:104C400016D11D4B1A881D4B9A4211D11C4B1A8844
:104C500094239B019A420BD11A4B1A881A4B9A4201
:104C600006D11A4B1A681A4B9A4201D1152307E054
:104C70001848FEF739F899001748094A8850013357
:104C80001F2BF8D9144A064B1A62DA61B7E7134BA7
:104C9000134A42211348FDF78DFFC04653460000DA
:104CA000F81D00204C330000F41D0020EE29000008
:104CB000C40F0000C20D0000962B0000C0B500001C
:104CC000182B0000CC2A000010B50000FC2C0000BE
:104CD00051ED8764BCFB0010E94C001064FF00102C
:104CE000DCFF001098FF001007B56046002800D1D7
:104CF00000BE01880A0A0230DF2AFAD1C9B282084E
:104D000004D3028840880004104300E00068024A8F
:104D10005050039007BD0000F81D002010B504009E
:104D200008F03AFD002804D00419034B9C4200D837
:104D300010BD0248FDF7D8FF00000420F0FF00106E
:104D400010B50C0009F0FCF8002804D00419034B3E
:104D50009C4200D810BD0248FDF7C6FF00000420A9
:104D6000F0FF001010B508F021FD10BD014804212E
:104D7000014B184750120020B93E0010014B1B6830
:104D80001847000050120020014B5B6818470000D4
:104D90005012002010B5FFF7C1FF10BD10B5FFF78E
:104DA000E1FF10BD10B5FFF7DDFF10BD10B503002A
:104DB000080011001B68984710BD0000F8B50700F7
:104DC0000D001600437D002B02D0002400200CE0D3
:104DD00003681100280098472DE03B7D10E0022178
:104DE00015483B689847601C0134B44214DA002C23
:104DF000F3DD2B19013B1B780D3B5A425341DBB2CB
:104E00002A5D0A2AF0D1002BEED1A042E7DA211A5E
:104E100028183B689847E2E7B04203DA311A2818AD
:104E20003B689847002E06DDAD19013D2B780D3B00
:104E30005A4253413B75F8BD7800011070B505002A
:104E40000368002B16D00C4B1C6805E0290004C930
:104E50002000FFF7B3FF2469002C09D02368002B42
:104E6000F9D0064B1B68002BF0D0A342F3D1EDE73D
:104E700000232B6070BDC046D41C0020DC1C002029
:104E800070B505000C000B68802B05D021684B1C09
:104E900023606418257170BD0800FFF7CFFFF5E7A8
:104EA000F0B583B007000E000092019328E0A368DC
:104EB000002B04D0310038009847002827DC2469F3
:104EC000002C06D0134B1D68002DF0D0A542F6D162
:104ED000EDE70099019A104B5B6A9A4209D80E4897
:104EE000806A88420FD29A4201D0012302E0002357
:104EF00000E00023002B08D101200021FDF734F948
:104F0000064B1C68DCE70123F4E70120404203B0B4
:104F1000F0BDC046DC1C002000400540D41C002031
:104F200010B5FDF701F902000B1E0BDB0D48002147
:104F300012184B41002B0BDB002B0DDB0A480AF04B
:104F400067F810BD094B0A4A3F210A48FDF732FEB7
:104F500001225242084BEFE7044B054A3F21054826
:104F6000FDF728FE40420F00B01A002060F100104B
:104F700060000110B4F10010FFFFFF7F10B5024880
:104F800009F0EEFF10BDC046B01A0020F0B5CE46C5
:104F9000474680B583B006000D0090461C00FFF721
:104FA000BFFF81466B1C05D0002C08D0194F1A4B4F
:104FB0001C6807E0300009F017FA0500F4E7174F06
:104FC000F5E72469002C17D02368002BF9D0144B87
:104FD0001B68002B01D0A342F3D12A00310020002E
:104FE000B8474346002BECD06B46D91D0A230B7003
:104FF00001222000B847E4E74B46002B07D16B1E87
:105000009D41E8B203B0C0BCB946B046F0BDFFF761
:10501000B5FFF4E7AD4D0010D41C0020BD4D0010CD
:10502000DC1C002010B5030008001100002B05D186
:10503000044B1A685B68FFF733FF10BD0120404244
:10504000FBE7C04670F8001010B50300080014001C
:10505000013B012B06D8002300222100FFF796FF19
:10506000200010BD01204042FBE701204042704774
:105070000120404270470120404270470300002059
:1050800002229A424041704710B5064B1C6801E06D
:1050900098472469002C03D06368002BF8D1F8E707
:1050A00010BDC046D41C002070B5050009F09CF965
:1050B00004000023012201002800FFF767FFFFF72B
:1050C000E3FF200070BD000070B5A2B004000E0028
:1050D000FFF726FF0500002301933300220001A9FA
:1050E0000848FEF7C1FE040001A8FFF7A7FEFFF77E
:1050F000CBFF002D02D1200022B070BDFFF73EFF94
:10510000F9E7C046814E00100FB400B583B004A982
:1051100001C90191FFF7D8FF03B008BC04B01847DC
:10512000F0B5DE4657464E464546E0B585B006002A
:1051300010001C0002930EAB1A7803920F9D109F73
:1051400033680022DA663368596033680132DA6600
:10515000A246002398469B4600242BE03279002A81
:1051600031D001222FE00399002901D000212EE047
:1051700001212CE03800A84703000443E4B2002BCF
:1051800006D13268526BD20602D4002DF2D1F6E776
:10519000002B09D13268802151588B4600291FD13C
:1051A000002C2FD1C1451ED0002C33D101229446B2
:1051B000E0440198D0452DDA029A013A91464246E0
:1051C000002ACBD000229202C145CCD00021490256
:1051D0000A43411C01910078316802430A61D4E717
:1051E000526D01240EE0039A002ADDD10AE0380056
:1051F000A84703000443E4B2002B06D13268526B87
:10520000920502D4002DF2D1F6E7002BCCD1326802
:10521000126EC9E7002C09D0002B15D15B46002B7C
:1052200016D0DB0718D45B461B0709D5039B3371E7
:10523000404605B0F0BCBB46B246A946A046F0BD0C
:1052400002235B429846F1E701235B429846EDE773
:1052500002235B429846E9E702235B429846E5E772
:10526000F0B5D6464F464646C0B505000C000520B1
:10527000FDF7C8FB0600600880192100FEF760FEFC
:10528000070043009946814405214846FEF758FE31
:1052900080463B1A9A46284B9C4224D870008019BD
:1052A0002649FEF74DFE441C4346023BA34221D350
:1052B0002B680022DA6629680A6804235340062214
:1052C0001A4080235B010B431A602B685246DA6157
:1052D0002B6842461A624B464F2B11D95021484643
:1052E000FEF72EFE0DE0700080191549FEF728FE2E
:1052F000441CD9E7134B144A5D211448FDF75AFCAE
:105300000120A0232A68D0502A6811007C31D06F78
:1053100044402404240C80235B010B431C602B6855
:105320000122DA6639003000FEF70AFEE0BCBA4618
:10533000B146A846F0BDC0463F420F008096980097
:1053400040787D017C000110D40001109C00011008
:1053500010B5114B98421CD01022104B1A60104B04
:105360001A60104B9B6814009C43231EF9D10471F2
:105370000268D46602686624FF3414600268D3634E
:1053800002689363883303220468E250FFF768FFE2
:1053900010BD0822E1E7C0466012002000E0004096
:1053A00000F0004000C0004030B585B008AC257862
:1053B0000024029401940095FFF7B2FE05B030BDC1
:1053C000F0B5DE4657464E464546E0B583B08246C8
:1053D00088460620FDF716FB53465B680222134001
:1053E0000193042353449B46C0239B0159460B431E
:1053F0001A6002248146474600E02C00FE2C1FD88C
:105400004B4600930026A51C28023A0000230021E9
:10541000FFF7D2FB002903D1B142EED14845ECD9C8
:105420004E46B84680256D00012D0ED96F1E210015
:1054300079433000FEF784FD404506D83D00F3E790
:105440004E46B84680256D00EEE753461C616B1E44
:105450001B02524612685340FF2212021340802062
:10546000400152461043036080239B015A46134378
:10547000019A1A60290061433000FEF761FD03B014
:10548000F0BCBB46B246A946A046F0BD70B50400CC
:10549000174B984228D080229202164B1A60164B66
:1054A0001A60164B9B6810009843FAD12000FFF752
:1054B00087FF656802210D40231DC02292011A4317
:1054C0001160266807227240CF26164080225201C2
:1054D000224316608022920113431D60243414433A
:1054E00003222260196070BD80225202D5E7C046B7
:1054F00000C0034000E0004000F0004000C0004059
:10550000042010B500F088F9024B034A03490360F8
:1055100000F0FAFE340101101557001010010110BF
:1055200070B50500082000F077F92900040001F0AB
:1055300005F92000044A054900F0E6FE200000F0CD
:1055400081F900F0A7F9C0462D6600103403011060
:1055500070B50500082000F05FF92900040001F093
:1055600031F92000044A054900F0CEFE200000F089
:1055700069F900F08FF9C0466D6600104003011014
:105580008023086810B5DB05984210D290420AD9F2
:105590005200904207D29A4203D3064A18000A608A
:1055A00002E010000A600130FFF7F4FB10BD024872
:1055B000FFF7CEFFFFFFFF3FE800011030B583B0DB
:1055C000150004000A0001910F290ED80068002A76
:1055D00006D0012A11D02900FFF7D0FB019A2068DC
:1055E00000236260835403B030BD002201A9FFF79D
:1055F000C7FF019A2060A260E9E70570019A206860
:10560000EEE7C046F0B54F464646DE46C0B51F0041
:1056100043680E00891882B08946591A88460A994B
:1056200004008A1AD21808239B4603688344019217
:105630009B453BD08268200001A9FFF7A1FF050030
:10564000002E05D02168012E2DD03200FFF79CFBE3
:10565000002F09D00A9B002B06D0A819012B27D0B8
:1056600039000A9AFFF790FB4346002B0AD00A9BA9
:105670002168F018434628184944012B10D04246AF
:10568000FFF782FB2068834501D0FFF787FB019B72
:105690002560A36002B0E0BCBB46B146A846F0BDA1
:1056A0000B780370EEE70B780370D1E70F22C2E7A7
:1056B0003B780370D8E7C04670B504002300466805
:1056C0000068083382B0B518984219D0A3689D428B
:1056D0000DD8002A05D08019012A13D0FFF754FBFA
:1056E0002068002365604355200002B070BD0B00A8
:1056F0002000009231000022FFF784FF2068F0E7CD
:105700000F23E4E70B7803702068EAE7004870474E
:105710000001011010B50400034B0833036000F0D2
:1057200009FA200010BDC0462C01011010B504007C
:10573000054B0833036000F0FDF920000421FFF75A
:1057400031FB200010BDC0462C01011070B51C4C6F
:1057500008386368002B27D006688519AB4223D828
:105760001DD05A680434002A06D10EE051681C1D71
:1057700000291FD013000A009542F7D304D12A68EC
:1057800094466A6866445A6023681A689918884281
:105790000DD05B68066043602368586006E01A68B5
:1057A0005B689446664406604360606070BD921911
:1057B0001A60FBE75B681A6899188842E9D1F6E736
:1057C000FC1B0020020010B50832083000D308226C
:1057D00007231049073248689A43002813D0043140
:1057E00003E0011D406800280DD003689A42F8D8F4
:1057F0009C1A072C08D9831840681C6058600868F8
:1058000002600B60083010BD0360436808300B6015
:10581000F9E7C046FC1B002070B580300500FFF79B
:105820007DFA041E07D0802200212000FFF7A6FA8F
:105830002000803070BD2800FFF7C4FF041EF2D1A5
:1058400000F002FD074A8038936810B5984203D9EA
:10585000D2689B18984202D3FFF784FA10BDFFF775
:1058600075FFFBE7FC1B002070B59E25084C2D0141
:105870002800E560FFF752FAA060002804D000235A
:1058800060600560436070BDE0606060FBE7C0463B
:10589000FC1B00201EB400F093F81EBC09F098FB1E
:1058A000F0B5C64600B51E0003780C0082B0472B49
:1058B0001DD00023284D01932B6828009B68984732
:1058C0000127002803D0019B01371B68019323683F
:1058D00029001B692000984601AA0123C04700281F
:1058E00024D10027380002B080BCB846F0BD437810
:1058F0004E2BDED18378552BDBD1C378432BD8D107
:105900000379462B1CD00379432BD2D143792B2B1F
:10591000CFD183792B2BCCD1C379012BC9D808D017
:1059200003005830203B1D680190C5E7019B3360A0
:10593000D8E7203800680300783B1D680190BBE77A
:1059400043794F2BDFD18379522BDCD1C379002BE4
:10595000D9D1024D0193AFE75C0101105401011050
:1059600010B5040000F0FAF823002278203B472A03
:1059700005D08268002A20D18360012010BD6278A2
:105980004E2AF6D1A278552AF3D1E278432AF0D1F3
:105990002279432AEDD162792B2AEAD1A2792B2AE6
:1059A000E7D1E279012AE4D8DA690132DA61012A21
:1059B000E3D182689A618360DFE700F045FCC0466E
:1059C00010B500F0CBF88368002B2ED020229A5C13
:1059D000472A04D0002282602033180010BD263AE6
:1059E0009A5C4E2AF6D12C3A9A5C552AF2D1323A78
:1059F0009A5C432AEED11F3A9A5C432AEAD11E3AB6
:105A00009A5C2B2AE6D1053A9A5C2B2AE2D1043A19
:105A10009A5C012ADED8DA69013ADA61002ADBD120
:105A20009A69826000229A61D6E700F00DFCC046B8
:105A300070B5040000F092F8220023780568203A3F
:105A4000472B04D0002D2BD10260280070BD637855
:105A50004E2BF7D1A378552BF4D1E378432BF1D11A
:105A60002379432BEED163792B2BEBD1A3792B2B0D
:105A7000E8D1E379012BE5D85369002B0DDB013325
:105A800053614368013B4360954201D01561026058
:105A90002000656A09F0A4FAD7E70121CB1AEFE7E5
:105AA00000F0D2FB10B500F055F80368002B09D0C8
:105AB00020229A5C472A06D0002220330260180078
:105AC00009F06EFA10BD263A9A5C4E2AF4D12C3AAF
:105AD0009A5C552AF0D1323A9A5C432AECD11F3AAB
